:0400000007EF00F016
:100008007D824BED06F06EEF11F077C038F078C0C6
:1000180039F079C03AF07AC03BF0A4C03CF0A5C0F2
:100028003DF0A6C03EF0A7C03FF0A0C05CF0A1C064
:100038005DF0A2C05EF0A3C05FF0000E596E000E26
:10004800586E000E476E800E53EC13F02B0E0D6E9B
:10005800FF0E0E6E7EEC04F0A9C03CF03D6AAAC00B
:100068003EF03F6A8B8CF088F092CB0E356EEC0E2A
:10007800346E840EE82EFED7342EFCD7352EFAD7F0
:1000880000D0C7EC12F0000E406EC7D1800E53ECC2
:1000980013F05C0E2E6E000E2F6E98EC0FF02EC033
:1000A80056F02FC057F05C0E2E6E000E2F6E5DECD2
:1000B8000FF02EC054F02FC055F05C0E2E6E000EBF
:1000C8002F6ED3EC0FF02EC05AF02FC05BF0DB0E72
:1000D8000D6EFF0E0E6E7EEC04F056280DE15728CB
:1000E800D8A40AD0542808E15528D8A405D05A28FD
:1000F80003E15B28D8B402D0000E406E20EE92F0E7
:1001080010EE48F0050EDBCFE3FFE806FCE220EE38
:100118008CF010EE4EF0050EDBCFE3FFE806FCE2B4
:10012800C00E53EC13F0F20E0D6EFF0E0E6E7EEC49
:1001380004F056505710D8A40BD0000E496E010E8B
:10014800486EF60E0D6EFF0E0E6E7EEC04F00ED0AD
:1001580056045710D8A40DD0000E4F6E010E4E6EE7
:10016800F90E0D6EFF0E0E6E7EEC04F05A685B6899
:1001780006D0FC0E0D6EFF0E0E6E7EEC04F0EE0E39
:100188000D6EFF0E0E6E7EEC04F054505510D8A480
:100198000BD0000E4B6E010E4A6EF60E0D6EFF0E62
:1001A8000E6E7EEC04F015D054045510D8A40BD074
:1001B800000E516E010E506EF90E0D6EFF0E0E6E92
:1001C8007EEC04F006D0FC0E0D6EFF0E0E6E7EEC7B
:1001D80004F0E50E0D6EFF0E0E6E7EEC04F05A5024
:1001E8005B10D8A40BD0000E536E010E526EF90EA0
:1001F8000D6EFF0E0E6E7EEC04F015D05A045B10E7
:10020800D8A40BD0000E4D6E010E4C6EF60E0D6E7E
:10021800FF0E0E6E7EEC04F006D0FC0E0D6EFF0E87
:100228000E6E7EEC04F04E0E166E000E176E5FEC2E
:100238000EF0480E166E000E176E1AEC0EF08B9C20
:1002480020EE86F010EE41F0050EDBCFE3FFE80666
:10025800FCE248504E1806E149504F18D8A402D085
:10026800010E01D0000E416E426A4A50501806E154
:100278004B505118D8A402D0010E01D0000E436E85
:10028800446A4C50521806E14D505318D8A402D075
:10029800010E01D0000E456E466A4750D8B428D0EA
:1002A800010E0A6EC20E096E000E0C6EA00E0B6EC9
:1002B800410E0D6E000E0E6E34EC0BF0130E0A6E2E
:1002C800880E096E000E0C6E020E0B6E410E0D6E3E
:1002D800000E0E6E34EC0BF0020E356E040E346E0A
:1002E800BA0EE82EFED7342EFCD7352EFAD727D0F3
:1002F800130E0A6E880E096E000E0C6E140E0B6E2D
:10030800410E0D6E000E0E6E34EC0BF0010E0A6EEF
:10031800C20E096E000E0C6E020E0B6E410E0D6EB3
:10032800000E0E6E34EC0BF0020E356E040E346EB9
:10033800BA0EE82EFED7342EFCD7352EFAD700D0C9
:10034800471E8B8C5D505E145F145C140009D8B492
:1003580004D0000E7C6E020E7B6EA90E046E000E99
:10036800056E22EC0FF0A9C038F0396AAAC03AF03D
:100378003B6A3AC007F03BC008F04AEC11F007C0EE
:1003880034F008C035F03EC007F03FC008F04AEC32
:1003980011F0071E081E074A082A07503424366E33
:1003A80008503520376E36C001F037C002F0000E15
:1003B800046E3C0E036EA3EC12F001C034F002C0D0
:1003C80035F038C007F039C008F04AEC11F0075092
:1003D8003426085035223CC007F03DC008F04AECEE
:1003E80011F0071E081E074A082A07503424586EC1
:1003F80008503520596E595004E1970E585CD8A022
:1004080004D0000E7C6E020E7B6E402AC80E40643B
:1004180004D0000E7C6E020E7B6E7B047C10D8B478
:1004280035D6F098000EF1EC11F0D7EC12F0C00EB2
:1004380053EC13F0D30E0D6EFD0E0E6E7EEC04F031
:100448005C0E076E000E086E58C009F059C00AF01D
:1004580070EC09F0080E356E1B0E346E270EE82E70
:10046800FED7342EFCD7352EFAD700F058C023F02B
:1004780059C024F05C0E256E000E266E95EC07F030
:10048800000E7C6E000E7B6E1200BE0E0001CB6F5C
:10049800000E0001CC6F1FD2250E0001D519D8B46B
:1004A80005D00001D5513DEC13F015D2000E000126
:1004B800D46F000ED36F000E0001D26F05D000017B
:1004C800D2850001BC4BBD2BBCC0F6FFBDC0F7FFF9
:1004D8000800F550300AD8B4F2D7BCC0F6FFBDC04A
:1004E800F7FF0800F5503FEC12F0D8A092D0000EAC
:1004F8000001D46F000ED36FD3C0B0F0D4C0B1F0F8
:10050800000E0001B36F0A0EB26F0DEC12F0B0C00E
:10051800D3F0B1C0D4F0D00E0001C46FFF0E0001BB
:10052800C56FBCC0F6FFBDC0F7FF0800F55000015D
:10053800C66FC76B0001C4510001C6270001C55131
:100548000001C7230001C6510001D3270001C7518C
:100558000001D4230001BC4BBD2BBCC0F6FFBDC0BD
:10056800F7FF0800F5503FEC12F0D8A052D0C4D7DE
:100578000001D28F6AD00001D3510001CD5D000186
:10058800D4510001CE59D8B009D00001CD51000195
:10059800D35F0001CE510001D45B09D0000E0001E9
:1005A800D46F000ED36F03D0200E3DEC13F0000182
:1005B800D307D8A0D4070001D329F6E10001D42934
:1005C800D8B40BD0F1D7C8C0D9FFC9C0DAFFDF5003
:1005D8003DEC13F00001C84BC92B0001CD07D8A092
:1005E800CE070001CD29EFE10001CE29D8B473D19F
:1005F800EAD7D50E0001C86F000E0001C96F000EC2
:100608000001CE6F010ECD6FB6D7C00E0001D21318
:100618001CD0BCC0F6FFBDC0F7FF0001BC4BBD2B12
:100628000800F5CFD5F00001D551000AD8B4120062
:10063800640AD8B40AD00D0AD8B407D01C0AD8B4B2
:10064800E4D70D0AD8B494D7D4D7D2C0C4F0C00E1A
:100658000001C417D8A419D0CBC0D9FFCCC0DAFF89
:10066800DECFD0F0DDCFD1F0020E0001CB27000E97
:10067800CC230001D1AF53D0030E0001D2130001E7
:10068800D06DD11FD8B0D12B4AD0CBC0D9FFCCC0A8
:10069800DAFFDECFD0F0DDCFD1F0020E0001CB279C
:1006A800000ECC233CD0010E0001D56F050E0001D1
:1006B800D519D8B440D00001D551020DC10EF3248C
:1006C800F66EFD0EF420F76E0900F5500001D05DBE
:1006D8000900F5500001D159D8A02DD00001D52B23
:1006E800E5D7010E0001D56F040E0001D519D8B465
:1006F80022D00001D551020DCB0EF324F66EFD0E6B
:10070800F420F76E0900F5500001D05D0900F5509E
:100718000001D159D8A00FD00001D52BE5D7000191
:10072800D251C00B000AD8B4BED7800AD8B4D9D7E2
:10073800400AD8B4B8D70001D3510001D411D8B4B5
:100748000BD0D2C0C4F0030E0001C417D8B404D033
:100758000001D307D8A0D407800E0001D5BF7F0EB3
:100768000001C46F0001D3510001D55D0001D451CF
:10077800800A0001C459D8B00BD00001D55100013E
:10078800D35F000E0001D5BFFF0E0001D45B05D07A
:10079800000E0001D46F000ED36F0001D2A518D04F
:1007A800D2C0C4F0030E0001C417D8B403D02D0E74
:1007B8003DEC13F00001D3510001D411D8B425D079
:1007C800300E3DEC13F00001D307D8A0D407F2D7C0
:1007D8000001D3510001D411D8B40DD0200E3DEC46
:1007E80013F00001D307D8A0D4070001D3510001AA
:1007F800D411D8A4F3D7D2C0C4F0030E0001C41793
:10080800D8B403D02D0E3DEC13F0D5C0CFF05DD099
:100818000001CF51020DC10EF324F66EFD0EF42037
:10082800F76E0900F5CFB2F00A00F5CFB3F0D0C0EB
:10083800B0F0D1C0B1F0E6EC0EF0B0C0B7F0B1C086
:10084800B8F0000E0001BA6F0A0EB96F40EC10F054
:100858000001B751300F0001D56F33D0D0C0B0F0D0
:10086800D1C0B1F00001CF51020DCB0EF324F66ECA
:10087800FD0EF420F76E0900F5CFB2F00A00F5CFAF
:10088800B3F0E6EC0EF00001B0510F0B0001CA6F97
:100898000001CA51010D9D0EF324F66EFF0EF420DF
:1008A800F76E0800F5CFD5F00CD00001D251C00B7F
:1008B800000AD8B4ADD7800AD8B4D0D7400AD8B483
:1008C800A7D70001D5513DEC13F00001CF07000177
:1008D800CF29D8A4EAD7BCC0F6FFBDC0F7FF0001F6
:1008E800BC4BBD2B0800F5CFD5F00001D551D8B4CD
:1008F8001200D2D50F0E186E000E196EBBD1250E40
:100908002218D8B404D022504DEC13F0B3D1000E05
:10091800216E000E206E000E1F6E03D01F840D4A3C
:100928000E2A0DC0F6FF0EC0F7FF0800F550300A7A
:10093800D8B4F4D70DC0F6FF0EC0F7FF0800F55085
:10094800E7EC12F0D8A06FD0000E216E000E206EDA
:1009580020C001F021C002F0000E046E0A0E036EE2
:10096800A3EC12F001C020F002C021F0D00E116EED
:10097800FF0E126E0DC0F6FF0EC0F7FF0800F5500F
:10098800136E146A11501326125014221350202685
:10099800145021220D4A0E2A0DC0F6FF0EC0F7FF93
:1009A8000800F550E7EC12F0D8A03DD0D1D71F8E43
:1009B80054D020501A5C21501B58D8B005D01A507A
:1009C800205E1B50215A08D0000E216E000E206EAA
:1009D80003D0200E4DEC13F02006D8A021062028C5
:1009E800F8E12128D8B40AD0F4D715C0D9FF16C029
:1009F800DAFFDF504DEC13F0154A162A1A06D8A074
:100A08001B061A28F2E11B28D8B434D1EED7220EDF
:100A1800156E000E166E000E1B6E010E1A6EC9D7EB
:100A2800C00E1F121AD00DC0F6FF0EC0F7FF0D4AF8
:100A38000E2A0800F5CF22F02250000AD8B412007E
:100A4800640AD8B40AD00D0AD8B407D01C0AD8B49E
:100A5800E7D70D0AD8B4ABD7DAD71FC011F0C00E4C
:100A68001116D8A415D018C0D9FF19C0DAFFDECFE7
:100A78001DF0DDCF1EF0020E1826000E19221EAE44
:100A880044D0030E1F121D6C1E1ED8B01E2A3DD066
:100A980018C0D9FF19C0DAFFDECF1DF0DDCF1EF078
:100AA800020E1826000E192230D0010E226E050EF5
:100AB8002218D8B435D02250020DC10EF324F66E98
:100AC800FD0EF420F76E0900F5501D5C0900F55085
:100AD8001E58D8A025D0222AEAD7010E226E040E6D
:100AE8002218D8B41DD02250020DCB0EF324F66E76
:100AF800FD0EF420F76E0900F5501D5C0900F55055
:100B08001E58D8A00DD0222AEAD71F50C00B000AC1
:100B1800D8B4CBD7800AD8B4E0D7400AD8B4C5D760
:100B280020502110D8B409D01FC011F0030E11169F
:100B3800D8B403D02006D8A02106800E22BE7F0E8E
:100B4800116E2050225C2150800A1158D8B007D06D
:100B58002250205E000E22BEFF0E215A04D0000E45
:100B6800216E000E206E1FA414D01FC011F0030EBA
:100B78001116D8B403D02D0E4DEC13F020502110CF
:100B8800D8B41ED0300E4DEC13F02006D8A02106A4
:100B9800F5D720502110D8B40AD0200E4DEC13F010
:100BA8002006D8A0210620502110D8A4F6D71FC0AF
:100BB80011F0030E1116D8B403D02D0E4DEC13F01E
:100BC80022C01CF053D01C50020DC10EF324F66E47
:100BD800FD0EF420F76E0900F5CF03F00A00F5CFFB
:100BE80004F01DC001F01EC002F0FAEC10F001C0C4
:100BF80008F002C009F0000E0B6E0A0E0A6EB4EC83
:100C080011F00850300F226E2ED01DC001F01EC00A
:100C180002F01C50020DCB0EF324F66EFD0EF420EC
:100C2800F76E0900F5CF03F00A00F5CF04F0FAECEF
:100C380010F001500F0B176E1750010D9D0EF32485
:100C4800F66EFF0EF420F76E0800F5CF22F00BD0F9
:100C58001F50C00B000AD8B4B6D7800AD8B4D5D76D
:100C6800400AD8B4B0D722504DEC13F01C061C280B
:100C7800D8A4EED70DC0F6FF0EC0F7FF0D4A0E2A16
:100C88000800F5CF22F02250D8B4120038D606005A
:100C9800FACF62F0FBCF63F0E9CF64F0EACF65F0FA
:100CA800E1CF66F0E2CF67F0D9CF68F0DACF69F02C
:100CB800F3CF6AF0F4CF6BF0F6CF6CF0F7CF6DF0AE
:100CC800F8CF6EF0F5CF6FF0F29EF0A0E5D020EEF1
:100CD80080F010EE71F0050EDBCFE3FFE806FCE2D2
:100CE80081380F0B0F0B706EF09081A2C9D0FDD721
:100CF800000E766E010E756E0B0E0A6EB80E096E3A
:100D0800000E0C6E1E0E0B6E710E0D6E000E0E6E2A
:100D180034EC0BF0010E0A6E900E096E000E0C6E8C
:100D2800020E0B6E710E0D6E000E0E6E34EC0BF093
:100D3800B3D0000E746E010E736E0B0E0A6EB80EF1
:100D4800096E000E0C6E1E0E0B6E710E0D6E000EEF
:100D58000E6E34EC0BF0010E0A6E900E096E000E4A
:100D68000C6E020E0B6E710E0D6E000E0E6E34ECD4
:100D78000BF092D08BBC02D08B8C8ED08B9C8CD0FD
:100D88008B9E8B8A020E616ED40E606E850EE82EE5
:100D9800FED7602EFCD7612EFAD700F08B9A7CD054
:100DA8008B9A8B8E020E616E040E606EBA0EE82E60
:100DB800FED7602EFCD7612EFAD700D08B9E6CD060
:100DC800000E726E010E716EC00E53EC13F00B0E16
:100DD8000A6EB80E096E000E0C6E1E0E0B6E710EAA
:100DE8000D6E000E0E6E34EC0BF0010E0A6E900EB6
:100DF800096E000E0C6E020E0B6E710E0D6E000E5B
:100E08000E6E34EC0BF048D0000E7C6E020E7B6E3A
:100E180025EC0CF0000E7C6E000E7B6E3DD0000EB3
:100E28007C6E010E7B6EF28EA9EC08F007D0000EE6
:100E38007C6E010E7B6EF28E09EC00F0F29E2CD0D7
:100E48007050030AD8B454D7040AD8B472D70F0A1A
:100E5800D8B490D7010AD8B493D7030AD8B4A0D786
:100E6800010AD8B4ADD7070AD8B43DD0010AD8B41E
:100E7800D6D7030AD8B4C8D7010AD8B4D8D70CD063
:100E88007BC060F07CC061F06150000AD8A404D037
:100E98006050000AD8B4D4D7F0A224D0F092020E41
:100EA800616E040E606EBA0EE82EFED7602EFCD777
:100EB800612EFAD700D081A409D014D0000E7C6E20
:100EC800030E7B6E010EF1EC11F00CD07BC060F0CC
:100ED8007CC061F06150000AD8A404D06050010AB7
:100EE800D8B4ECD7F28E6FC0F5FF6EC0F8FF6DC0B6
:100EF800F7FF6CC0F6FF6BC0F4FF6AC0F3FF69C070
:100F0800DAFF68C0D9FF67C0E2FF66C0E1FF65C0CD
:100F1800EAFF64C0E9FF63C0FBFF62C0FAFF7D928D
:100F28001100800E53EC13F0C10E0D6EFE0E0E6E06
:100F38007EEC04F0C00E53EC13F0500E0D6EFE0E56
:100F48000E6E7EEC04F0000E2D6E000E2C6E000E60
:100F58002F6E000ED7D0F6EC12F001C02CF002C0B4
:100F68002DF0D2D0800E53EC13F0200E0D6EFE0E35
:100F78000E6E7EEC04F0C00E53EC13F0010E0D6EF5
:100F8800FF0E0E6E23C00FF024C010F07EEC04F0AC
:100F9800D7D0800E53EC13F0380E0D6EFE0E0E6E89
:100FA8007EEC04F0C00E53EC13F0680E0D6EFE0ECE
:100FB8000E6E20EE03F02550D9262650DA22DF5097
:100FC800276E25C0D9FF26C0DAFFDF50286E296AB0
:100FD80020EE01F02550D9262650DA22DF502A6E5D
:100FE8002A502826000E292220EE02F02550D92664
:100FF8002650DA22DF502B6E2B502826000E29228D
:10100800275028240F6E000E2920106E7EEC04F065
:1010180097D0800E53EC13F0950E0D6EFE0E0E6EEB
:101028007EEC04F0C00E53EC13F0D00E0D6EFF0EE4
:101038000E6E25C0D9FF26C0DAFFDF50276E275075
:101048000F6E106A7EEC04F07BD0800E53EC13F028
:10105800D70E0D6EFE0E0E6E7EEC04F0C00E53EC35
:1010680013F0D00E0D6EFF0E0E6E20EE01F025501F
:10107800D9262650DA22DF50276E27500F6E106AC5
:101088007EEC04F05DD0800E53EC13F0AB0E0D6EC9
:10109800FE0E0E6E7EEC04F0C00E53EC13F0D00E74
:1010A8000D6EFF0E0E6E20EE02F02550D92626504A
:1010B800DA22DF50276E27500F6E106A7EEC04F09C
:1010C8003FD0800E53EC13F0EC0E0D6EFE0E0E6E3C
:1010D8007EEC04F0C00E53EC13F0D00E0D6EFF0E34
:1010E8000E6E20EE03F02550D9262650DA22DF5066
:1010F800276E27500F6E106A7EEC04F021D0000E88
:101108002F6E010E2E6E1CD02CC027F02DC028F09B
:101118002850000AD8A4F3D72750000AD8B422D7F9
:10112800010AD8B436D7030AD8B473D7060AD8B494
:101138008CD7010AD8B4A7D7030AD8B4C2D7DFD747
:101148002E502F10D8A4120006D7E0C032F0E1C00C
:1011580033F0E2C034F0E3C035F0000E3D6E1E0EF1
:101168003C6E800E53EC13F0160E0D6EFF0E0E6ED5
:101178007EEC04F08B8CF088F092CB0E316EEC0E86
:10118800306E840EE82EFED7302EFCD7312EFAD7DB
:1011980000D0C7EC12F08B9C150E316E4B0E306EE2
:1011A800BE0EE82EFED7302EFCD7312EFAD700D04F
:1011B80020EEDAF010EE36F0050EDBCFE3FFE8069E
:1011C800FCE2360E166E000E176E5FEC0EF0000E87
:1011D8003F6E000E3E6E3FBE06D03F5049E1080EFE
:1011E8003E5CD8B045D08B8C060E316E130E306E37
:1011F800AE0EE82EFED7302EFCD7312EFAD78B9CB8
:10120800150E316E4B0E306EBE0EE82EFED7302E08
:10121800FCD7312EFAD700D0360E166E000E176E98
:101228001AEC0EF08B8C060E316E130E306EAE0E6D
:10123800E82EFED7302EFCD7312EFAD78B9C150E10
:10124800316E4B0E306EBE0EE82EFED7302EFCD718
:10125800312EFAD700D0360E166E000E176E5FECE0
:101268000EF03E4A3F2A3FBEBED73F5001E1B7D7F6
:10127800F098000EF1EC11F0D7EC12F0C00E53EC20
:1012880013F0D30E0D6EFD0E0E6E7EEC04F0320ED2
:10129800076E000E086E3CC009F03DC00AF070EC05
:1012A80009F0080E316E1B0E306E270EE82EFED7A1
:1012B800302EFCD7312EFAD700F03CC023F03DC0C9
:1012C80024F0320E256E000E266E95EC07F0000E07
:1012D8007C6E000E7B6E12000001A82BA8C00DF0DA
:1012E8000E6A0E5004E1040E0D5CD8A006D0040E60
:1012F8000D5E000E0E5A0DC0A8F00DC001F00EC014
:1013080002F0000E046E050E036EA3EC12F001C08D
:101318000DF002C00EF00DC00BF00EC00CF0D8900E
:101328000B360C36D8900B360C36D8900B360C365C
:101338000BC001F00CC002F009C003F090EC12F0F1
:101348000D4A0E2A0DC00BF00EC00CF0D8900B36CB
:101358000C36D8900B360C36D8900B360C360BC0A2
:1013680001F00CC002F007C0D9FF08C0DAFFDF5057
:10137800036E90EC12F00D4A0E2A0DC00BF00EC051
:101388000CF0D8900B360C36D8900B360C36D8901B
:101398000B360C360BC001F00CC002F020EE01F049
:1013A8000750D9260850DA22DF50036E90EC12F06D
:1013B8000D4A0E2A0DC00BF00EC00CF0D8900B365B
:1013C8000C36D8900B360C36D8900B360C360BC032
:1013D80001F00CC002F020EE02F00750D9260850A8
:1013E800DA22DF50036E90EC12F00D4A0E2A0DC07F
:1013F8000BF00EC00CF0D8900B360C36D8900B368C
:101408000C36D8900B360C360BC001F00CC002F02D
:1014180020EE03F00750D9260850DA22DF50036E79
:1014280090EC12F00D4A0E2A000E026EA00E016E0C
:10143800A8C003F090EC12F012000B6E0B5005ECF4
:1014480013F0076E0750050DF3CF0CF0F4CF0DF035
:101458000CC007F00DC008F0D89007360836D890B1
:1014680007360836D8900736083607C001F008C096
:1014780002F01FEC13F0096E0A6A05C0D9FF06C016
:10148800DAFF09C0DEFF0AC0DDFF0C4A0D2A0CC0D6
:1014980007F00DC008F0D89007360836D890073600
:1014A8000836D8900736083607C001F008C002F0A1
:1014B8001FEC13F003C0D9FF04C0DAFFDF6E0C4A3B
:1014C8000D2A20EE01F00350D9260450DA220CC070
:1014D80007F00DC008F0D89007360836D8900736C0
:1014E8000836D8900736083607C001F008C002F061
:1014F8001FEC13F0DF6E0C4A0D2A20EE02F00350A9
:10150800D9260450DA220CC007F00DC008F0D89094
:1015180007360836D89007360836D8900736083682
:1015280007C001F008C002F01FEC13F0DF6E0C4A90
:101538000D2A20EE03F00350D9260450DA220CC0FD
:1015480007F00DC008F0D89007360836D89007364F
:101558000836D8900736083607C001F008C002F0F0
:101568001FEC13F0DF6E0C4A0D2A12000FC013F0A7
:10157800146A156A0E34133601E314801350166E7C
:101588001650D8A407D0000E0D6E000E0E6E000E79
:101598000F6E120012C013F0146A156A1134133654
:1015A80001E3148013501B6E1B50D8A407D0000E03
:1015B8000D6E000E0E6E000E0F6E12001B507B0F8C
:1015C80016260FC01BF012501B1A800E1B160E8E0B
:1015D800118EFF0E1016FF0E1116000E1216000EB9
:1015E800176E000E186E000E196E070E1A6E0DA0FB
:1015F80006D0105017261150182212501922D890D0
:101608000F320E320D32D8901036113612361A2E8D
:10161800EED7090E1A6E0DA006D0105017261150DD
:10162800182212501922D8900F320E320D32D8904B
:101638001932183217321A2EEED717C001F018C017
:1016480002F019C003F016C004F01BC005F0F1EC5D
:101658000CF001C00DF002C00EF003C00FF0120034
:1016680009C001F00AC002F0000E046E0A0E036EF3
:10167800A4EC0EF001C009F002C00AF00906D8A0D7
:101688000A0609C014F00AC015F00CBE12000C506E
:1016980003E10B04D8A0120009C014F00AC015F029
:1016A800000E116E8BB00DD00DC0D9FF0EC0DAFF41
:1016B800DECF0FF0DDCF10F00F30D8A002D0010E32
:1016C800116E11B002D08B9001D08B80000E126E7B
:1016D8008BB20FD020EE02F00D50D9260E50DA2230
:1016E800DECF0FF0DDCF10F00F30D8A002D0010E02
:1016F800126E12B002D08B9201D08B82000E136E44
:101708008BB40FD020EE04F00D50D9260E50DA22FB
:10171800DECF0FF0DDCF10F00F30D8A002D0010ED1
:10172800136E13B002D08B9401D08B8415BE0DD0EC
:10173800155003E11404D8A008D0030EE82EFED7F4
:1017480000F01406D8A01506F1D70B06D8A00C0691
:101758009CD72B6E2B5054EC12F001C02CF002C019
:101768002DF02DBE06D02D5007E1140E2C5CD8B0FC
:1017780003D0256826681200030E276E980EE82EFF
:10178800FED7272EFCD72B5054EC12F00ED029C0D0
:101798002CF02AC02DF0030E276E980EE82EFED7E7
:1017A800272EFCD72B5054EC12F001C029F002C0B0
:1017B8002AF02CC027F02DC028F0271E281E274A03
:1017C800282A295027262A50282228BE06D0285001
:1017D800DEE1060E275CD8B0DAD79A0E106E590EE5
:1017E800116E3F0E126E25C009F026C00AF0D5EC26
:1017F80011F009C00DF00AC00EF00BC00FF0BAECE2
:101808000AF00DC01CF00EC01DF00FC01EF02CC059
:1018180009F02DC00AF0D5EC11F009C01FF00AC07C
:1018280020F00BC021F048EC0DF0D8B005D0000E28
:10183800266E010E256E1200000E266E000E256E15
:101848001200000E67D0800E53EC13F07F0E0D6E61
:10185800FE0E0E6E7EEC04F0C00E53EC13F0670E15
:101868000D6EFF0E0E6E7EEC04F0F6EC12F0F80E24
:101878000124396EFF0E02203A6E3ABE4AD03ABEB3
:1018880006D03A5046E1040E395CD8B042D098C030
:1018980032F099C033F09AC034F09BC035F0320E64
:1018A800036E000E046E370E056E000E066E39507C
:1018B80021EC0AF0800E53EC13F0AE0E0D6EFF0E05
:1018C8000E6E010E39240F6E000E3A20106E7EEC5B
:1018D80004F0C00E53EC13F0BF0E0D6EFF0E0E6E2B
:1018E8007EEC04F0080E316E1B0E306E270EE82ECB
:1018F800FED7302EFCD7312EFAD700F037C023F0B0
:1019080038C024F0320E256E000E266E95EC07F0D6
:1019180002D0010E366E3650D8A4120094D7000EAD
:101928000001B86F000EB96F000EBA6F000EBB6FE2
:101938000001B4510001B5110001B6110001B71141
:10194800D8B442D0010E0001BC6F08D00001D89075
:10195800B437B537B637B7370001BC2B0001B7AF7E
:10196800F5D70001D890B837B937BA37BB37000177
:10197800B4510001B05D0001B5510001B159000139
:10198800B6510001B2590001B7510001B359D8A0AE
:1019980012D00001B4510001B05F0001B55100013F
:1019A800B15B0001B6510001B25B0001B751000103
:1019B800B35B0001B8810001D890B733B633B533B3
:1019C800B4330001BC2FCDD7B8C0B0F0B9C0B1F066
:1019D800BAC0B2F0BBC0B3F012000450D8B405D0FE
:1019E800015002100310D8A40CD0000E016E000E96
:1019F800026E000E036E1200042AD89003320232DF
:101A08000132000E0114066E000E0214076EFE0E5F
:101A18000314086E065007100810D8B40CD0ECD781
:101A2800042A010E0126000E0222000E0322D8907D
:101A3800033202320132000E0114066E000E021447
:101A4800076EFF0E0314086E065007100810D8B46E
:101A580006D0E6D70406D89001360236033602BE11
:101A680003D0020E0460F6D704A0029ED890043278
:101A7800045003120550D8A4038E01C001F002C01F
:101A880002F003C003F012001EAE16D01CC022F0F4
:101A98001DC023F01EC024F0221E231E241E222A4D
:101AA800000E23222422000E22241C6E000E232066
:101AB8001D6E800E24201E6E21AE16D01FC022F08F
:101AC80020C023F021C024F0221E231E241E222A17
:101AD800000E23222422000E22241F6E000E232033
:101AE800206E800E2420216E000E1C1A000E1D1A76
:101AF800800E1E1A000E1F1A000E201A800E211AC0
:101B08001F501C5C20501D5821501E58D8B002D0C0
:101B1800D8901200D8801200A90E0001B36F000EF1
:101B28000001B46FD5EC0DF0800E45EC13F0EE0E0D
:101B38000001BC6FFD0E0001BD6FAFC0BEF000011B
:101B4800BF6BAEC0C0F00001C16BADC0C2F00001F8
:101B5800C36B49EC02F0C00E45EC13F0070E000110
:101B6800BC6FFE0E0001BD6FABC0BEF00001BF6BC5
:101B7800AAC0C0F00001C16BA9C0C2F00001C36BCC
:101B880049EC02F0030E0001D76F8A0E0001D66FF0
:101B9800550EE82EFED7D62FFCD7D72FFAD700D070
:101BA8001200F29E6CEC13F0000E0001B26FD00E22
:101BB800B16F5EEC13F0000E0001B26F000EB16F52
:101BC8005EEC13F068EC13F06CEC13F0000E0001FF
:101BD800B26FD10EB16F5EEC13F0000E0001B56F5D
:101BE800050E0001B56501D012D00001B551010DF7
:101BF800F3500001B325D96EF4500001B421DA6E18
:101C0800010E28EC12F0DF6E0001B52BE9D70001B8
:101C180020EE06F0B351D926B451DA22000E28EC92
:101C280012F0DF6E68EC13F0F28E120020EE04F072
:101C38001650D9261750DA22DECF18F0DDCF19F06A
:101C480020EE02F01650D9261750DA22DECF1AF00D
:101C5800DDCF1BF016C0D9FF17C0DAFFDECF1CF0AE
:101C6800DDCF1DF01A501C261B501D2218501C26B3
:101C780019501D221C501D10D8B412000B0E0A6EEC
:101C8800B80E096E000E0C6E780E0B6E16C00DF0B5
:101C980017C00EF034EC0BF0010E0A6E900E096EB0
:101CA800000E0C6E020E0B6E16C00DF017C00EF073
:101CB80034EC0BF0120020EE04F01650D926175021
:101CC800DA22DECF18F0DDCF19F020EE02F0165040
:101CD800D9261750DA22DECF1AF0DDCF1BF016C056
:101CE800D9FF17C0DAFFDECF1CF0DDCF1DF01A5088
:101CF8001C261B501D2218501C2619501D221C5032
:101D08001D10D8B41200010E0A6E900E096E030E53
:101D18000C6EE80E0B6E16C00DF017C00EF034EC0A
:101D28000BF00B0E0A6EB80E096E000E0C6E020E4A
:101D38000B6E16C00DF017C00EF034EC0BF012004D
:101D4800000E066E04AE06D0036C041ED8B0042A3A
:101D5800010E066E02AE06D0016C021ED8B0022A31
:101D6800010E061A000E086E000E076E03500410CE
:101D7800D8B41CD0010E056E04D0D89003360436B2
:101D8800052A04AEFAD7D890073608360350015C06
:101D980004500258D8A005D00350015E0450025ADE
:101DA8000780D89004320332052EEDD70650D8B4F8
:101DB80004D0076C081ED8B0082A07C001F008C074
:101DC80002F01200000E0001B56F000EB46F0001A2
:101DD800B2510001B311D8B42CD0010E0001B66F76
:101DE80006D00001D890B237B3370001B62B0001F6
:101DF800B3AFF7D70001D890B437B5370001B25167
:101E08000001B05D0001B3510001B159D8A00AD05A
:101E18000001B2510001B05F0001B3510001B15B94
:101E28000001B4810001D890B333B2330001B62F5A
:101E3800E1D7B4C0B0F0B5C0B1F01200F29E74ECB6
:101E480013F0000E036ED00E026E63EC13F0000E5A
:101E5800036E000E026E63EC13F070EC13F074EC7A
:101E680013F0000E036ED10E026E63EC13F0000E39
:101E7800066E050E066401D00ED00650010DF35013
:101E88000424D96EF4500520DA6E010E7DEC12F0B0
:101E9800DF6E062AEED720EE06F00450D92605504C
:101EA800DA22000E7DEC12F0DF6E70EC13F0F28E89
:101EB8001200EF0E0D6EFF0E0E6E7EEC04F0010E9A
:101EC800266E320E256E000EADEC0BF025C032F0FA
:101ED80026C033F032C023F033C024F069EC12F08E
:101EE8000FD020EE01F02E50D9262F50DA22DF2A0B
:101EF80020EE03F02E50D9262F50DA22DF2A0FD0F9
:101F080032C030F033C031F03150000AD8A407D0C5
:101F18003050000AD8B4ECD7010AD8B4E2D732C09E
:101F28002EF033C02FF01200F20E0D6EFF0E0E6E63
:101F38007EEC04F0020E266EEA0E256E050EADEC60
:101F48000BF025C032F026C033F032C023F033C086
:101F580024F069EC12F00FD020EE02F02E50D926B2
:101F68002F50DA22DF2A20EE03F02E50D9262F50E8
:101F7800DA22DF2A0FD032C030F033C031F03150CE
:101F8800000AD8A407D03050000AD8B4ECD7010A08
:101F9800D8B4E2D732C02EF033C02FF01200E60ECC
:101FA8000D6EFF0E0E6E7EEC04F0010E266E320EE4
:101FB800256E020EADEC0BF025C032F026C033F0D2
:101FC80032C023F033C024F069EC12F00DD02EC0DB
:101FD800D9FF2FC0DAFFDF2A20EE03F02E50D926D2
:101FE8002F50DA22DF2A0FD032C030F033C031F060
:101FF8003150000AD8A407D03050000AD8B4ECD722
:10200800010AD8B4E4D732C02EF033C02FF0120042
:102018000001B16F0001B151F00B0001B06F8C509D
:102028000F0B8C6E0001B0518C108C6E8C96100EBC
:10203800E82EFED700D08C86100EE82EFED700D0F2
:102048000001B139F00B0001B16F0001B151F00B83
:102058000001B06F8C500F0B8C6E0001B0518C10CA
:102068008C6E8C96100EE82EFED700D08C86100E43
:10207800E82EFED700D012000001B9510001BA11B4
:10208800D8B426D0010E0001BB6F06D00001D8904D
:10209800B937BA370001BB2B0001BAAFF7D7000137
:1020A800B9510001B75D0001BA510001B859D8A073
:1020B80008D00001B9510001B75F0001BA51000111
:1020C800B85B0001D890BA33B9330001BB2FE7D70A
:1020D800B7C0B7F0B8C0B8F01200000EC76E280E2F
:1020E800C66E000EC56E000E0001B06F120EB16F05
:1020F8007A0EB26F000EB36FBDC0C1F0BEC0C2F0A1
:10210800BFC0C3F0C0C0C4F0020ED8900001C137F0
:10211800C237C337C437E82EF8D7C1C0B4F0C2C03D
:10212800B5F0C3C0B6F0C4C0B7F093EC0CF0000132
:10213800B005C86E94869488120092689368000E61
:10214800946E000E956E0F0E966E91EC11F0000EC7
:10215800896E000E8A6E8A84000E8B6E000E8C6E5D
:10216800000E8D6E000EC26E090EC16E000EB56EA9
:10217800C08E010E45EC13F0100E0001BD6F270E46
:10218800BE6F000EBF6F000EC06F71EC10F0B6ECA2
:1021980012F0F1981200026E0250F00B016E8C5092
:1021A8000F0B8C6E01508C108C6E8C96100EE82ED6
:1021B800FED700D08C86100EE82EFED700D002384D
:1021C800F00B026E0250F00B016E8C500F0B8C6EF0
:1021D80001508C108C6E8C96100EE82EFED700D015
:1021E8008C86100EE82EFED700D01200000E066E68
:1021F800000E056E03500410D8B41CD0010E076EF3
:1022080004D0D89003360436072A04AEFAD7D890FB
:10221800053606360350015C04500258D8A005D094
:102228000350015E0450025A0580D89004320332EC
:10223800072EEDD705C001F006C002F01200A1EC90
:1022480010F0800E45EC13F0540E0001BC6FFF0E29
:102258000001BD6F49EC02F0060E0001D96F130EA4
:102268000001D86FAD0EE82EFED7D82FFCD7D92F96
:10227800FAD700D0F086F090F098F28E000E7C6EBF
:10228800000E7B6E90EC0DF0FDD7FF0007C009F043
:1022980008C00AF0040E0B6ED8900A3209320B2ED1
:1022A800FBD709C00CF00AC00DF00F0E07140E6E14
:1022B8000F6A0CC001F00DC002F0000E046E0A0E89
:1022C800036EA3EC12F00E500124076E0F5002208B
:1022D800086E1200B20EF66E260EF76E000EF86E3D
:1022E80000EEDAF010EE0AF00900F5CFEEFFE55047
:1022F800E150FAE100EE80F0300EEE6AE806FDE10A
:102308007C6A7B6A7A6A796A786A776A7D907D9254
:10231800000EF86E000123EF11F0270E0001B36FD5
:10232800F50EE82EFED7B32FFCD7330E45EC13F08D
:10233800320E45EC13F0280E45EC13F00F0E45EC69
:1023480013F0060E45EC13F0010E45EC13F0270EC2
:102358000001B36FF50EE82EFED7B32FFCD712009D
:102368000A500B10D8B418D0010E0C6E04D0D890B7
:102378000A360B360C2A0BAEFAD70A50085C0B50FB
:102388000958D8A004D00A50085E0B50095AD890B2
:102398000B320A320C2EF1D708C008F009C009F038
:1023A8001200000E0C6E0AAE06D0096C0A1ED8B0D8
:1023B8000A2A010E0C6E09C001F00AC002F0036A75
:1023C8008E0E046E0CC005F0F1EC0CF001C009F0A3
:1023D80002C00AF003C00BF01200256EF29E000E38
:1023E8008B6E800E53EC13F02550D8A404D0790ED0
:1023F800236EFF0E03D0400E236EFF0E246E23C003
:102408000DF024C00EF07EEC04F02550D8B4120074
:10241800FFD70001B0510001B203F3CFB4F0F4CFFD
:10242800B5F00001B0510001B303F3500001B52726
:102438000001B1510001B203F3500001B527B4C047
:10244800B0F0B5C0B1F012000001B16F2AEC13F082
:10245800C5862AEC13F0C9CFB2F02AEC13F00001BC
:10246800B1510001D8A402D0C58A01D0C59AC58847
:102478000001B25112000001B26F000E0001B16FED
:102488003A0E0001B26107D02F0E0001B26503D0E9
:10249800010E0001B16FB1C0B0F00001B0311200FF
:1024A800056E0544E846FC0BC26EC280C282C2B209
:1024B800FED7C350C4CF03F0046A03C004F0036A14
:1024C8000310016E0450026E120024AE07D0EA0E0B
:1024D8000D6EFF0E0E6E7EEC04F01200E00E0D6E17
:1024E800FF0E0E6E23C00FF024C010F07EEC04F037
:1024F8001200026E34EC13F0C58634EC13F0C9CF29
:1025080003F034EC13F00250D8A402D0C58A01D0ED
:10251800C59AC588035012000250AA6E01C0A9FFCF
:1025280003C0A8FFA69EA69CA684550EA76EAA0E59
:10253800A76EA682A1A8FED7A198A6941200015062
:102548000302F3CF05F0F4CF06F001500402F35074
:10255800062602500302F350062605C001F006C005
:1025680002F01200000E0001B16FA00EB06F13EC64
:1025780013F00001A86F030E0001A8651200000EF9
:102588000001A86F12008B9E8B8A020E026ED40E79
:10259800016E850EE82EFED7012EFCD7022EFAD743
:1025A80000F08B9A12008B9A8B8E020E026ED40E5C
:1025B800016E850EE82EFED7012EFCD7022EFAD723
:1025C80000F08B9E1200036E000E026E3A0E03603E
:1025D80005D02F0E036402D0010E026E02C001F076
:1025E80001301200F29E81A2FED781380F0B0F0B2B
:1025F800036E81B2FED7F090F28E03C001F0026A3A
:102608001200016E015000080001A825040F026E97
:10261800040E026402D0040E025E02501200000191
:10262800B151AA6EB0C0A9FFA69EA69CA680A6B06E
:10263800FED7A85012000250AA6E01C0A9FFA69E9C
:10264800A69CA680A6B0FED7A8501200C7B4FED795
:10265800C5CFB0F01F0E0001B017D8B41200F6D7DE
:10266800C7B4FED7C5CF01F01F0E0116D8B41200AB
:10267800F7D70001B26F8C840001B2510CEC10F056
:1026880012000001B26F8C940001B2510CEC10F0F2
:102698001200036E8C840350CFEC10F01200036E0E
:1026A8008C940350CFEC10F01200010001000100DF
:1026B800020202062AEC13F0B1C0C9FF120034EC82
:1026C80013F002C0C9FF12002AEC13F0C5841200EF
:1026D8002AEC13F0C580120034EC13F0C584120004
:0826E80034EC13F0C580120070
:10FDC0000001000A006400E8031027010010000091
:10FDD000010010536F7274696E6720436F6D706C11
:10FDE0006574652020202020202020202000202055
:10FDF0002020253032782F253032782F2530327868
:10FE00002020202020200020202020253032783A79
:10FE1000253032783A2530327820202020202000EA
:10FE200054696D6520456C61707365643A202020CB
:10FE30002020202020202000546F74616C20536FFC
:10FE4000727465643A202020202020202020200089
:10FE5000466F72206D6F726520696E666F2020207C
:10FE600020202020202020002575206261747465E8
:10FE7000726965732020202020202020202000503F
:10FE800065726D616E656E74206C6F673A2020201C
:10FE90002020202000436861726765642041413A58
:10FEA000202020202020202020200043686172672D
:10FEB00065642039563A2020202020202020202050
:10FEC0000050726573732061206B657920202020BB
:10FED0002020202020200043686172676564204351
:10FEE0003A2020202020202020202000556E63680A
:10FEF00061726765643A2020202020202020202085
:10FF0000002575207365636F6E64732020202020A8
:10FF100020202020200044756D6D696E672E2E2EE6
:10FF20002020202020202020202000536F72746980
:10FF30006E672E2E2E202020202020202020200022
:10FF4000456D657267656E63792020202020202032
:10FF50002020200057656C636F6D652120202020D4
:10FF60002020202020200057686963682072756E69
:10FF70003F202020202020200053746F7070656483
:10FF80002020202020202020202000412025642C1B
:10FF9000432025642C392025642020200030313274
:10FFA00033343536373839616263646566007368A7
:10FFB0006F77696E67202575202020202020007231
:10FFC000756E73206265666F7265202020202000A8
:10FFD00025752020202020202020202020202000E7
:10FFE00020256420002041413A002D31200020438B
:10FFF0003A0039563A00202B00202D002030000016
:020000040020DA
:08000000FFFFFFFFFFFFFFFF00
:020000040030CA
:0E000000FF021F1EFF8381FF0FC00FE00F40A5
:00000001FF
