:0400000007EF00F016
:100008007E82B5ED06F0B1EF10F08E0E00019B6F09
:10001800000E00019C6F1FD2250E0001A519D8B44F
:1000280005D00001A55164EC11F015D2000E0001B5
:10003800A46F000EA36F000E0001A26F05D000018F
:10004800A28500018C4B8D2B8CC0F6FF8DC0F7FF6D
:100058000800F550300AD8B4F2D78CC0F6FF8DC02E
:10006800F7FF0800F55073EC10F0D8A092D0000EFE
:100078000001A46F000EA36FA3C080F0A4C081F09C
:10008800000E0001836F0A0E826F41EC10F080C0F1
:10009800A3F081C0A4F0D00E0001946FFF0E000100
:1000A800956F8CC0F6FF8DC0F7FF0800F550000172
:1000B800966F976B000194510001962700019551A6
:1000C80000019723000196510001A32700019751D1
:1000D8000001A42300018C4B8D2B8CC0F6FF8DC032
:1000E800F7FF0800F55073EC10F0D8A052D0C4D731
:1000F8000001A28F6AD00001A35100019D5D00019B
:10010800A45100019E59D8B009D000019D510001A9
:10011800A35F00019E510001A45B09D0000E0001FD
:10012800A46F000EA36F03D0200E64EC11F0000141
:10013800A307D8A0A4070001A329F6E10001A42978
:10014800D8B40BD0F1D798C0D9FF99C0DAFFDF50E7
:1001580064EC11F00001984B992B00019D07D8A081
:100168009E0700019D29EFE100019E29D8B473D1B3
:10017800EAD7A50E0001986F000E0001996F000ED6
:1001880000019E6F010E9D6FB6D7C00E0001A2132D
:100198001CD08CC0F6FF8DC0F7FF00018C4B8D2B57
:1001A8000800F5CFA5F00001A551000AD8B4120047
:1001B800640AD8B40AD00D0AD8B407D01C0AD8B437
:1001C800E4D70D0AD8B494D7D4D7A2C094F0C00EFF
:1001D80000019417D8A419D09BC0D9FF9CC0DAFF9E
:1001E800DECFA0F0DDCFA1F0020E00019B27000EAC
:1001F8009C230001A1AF53D0030E0001A2130001FC
:10020800A06DA11FD8B0A12B4AD09BC0D9FF9CC01C
:10021800DAFFDECFA0F0DDCFA1F0020E00019B27B0
:10022800000E9C233CD0010E0001A56F050E0001B5
:10023800A519D8B440D00001A551020DC90EF32468
:10024800F66EFD0EF420F76E0900F5500001A05D72
:100258000900F5500001A159D8A02DD00001A52B07
:10026800E5D7010E0001A56F040E0001A519D8B449
:1002780022D00001A551020DD30EF324F66EFD0E17
:10028800F420F76E0900F5500001A05D0900F55053
:100298000001A159D8A00FD00001A52BE5D7000176
:1002A800A251C00B000AD8B4BED7800AD8B4D9D797
:1002B800400AD8B4B8D70001A3510001A411D8B49A
:1002C8000BD0A2C094F0030E00019417D8B404D048
:1002D8000001A307D8A0A407800E0001A5BF7F0EC8
:1002E8000001946F0001A3510001A55D0001A45114
:1002F800800A00019459D8B00BD00001A551000123
:10030800A35F000E0001A5BFFF0E0001A45B05D08E
:10031800000E0001A46F000EA36F0001A2A518D063
:10032800A2C094F0030E00019417D8B403D02D0E88
:1003380064EC11F00001A3510001A411D8B425D038
:10034800300E64EC11F00001A307D8A0A407F2D77F
:100358000001A3510001A411D8B40DD0200E64EC03
:1003680011F00001A307D8A0A4070001A3510001C0
:10037800A411D8A4F3D7A2C094F0030E00019417D7
:10038800D8B403D02D0E64EC11F0A5C09FF05DD059
:1003980000019F51020DC90EF324F66EFD0EF420E4
:1003A800F76E0900F5CF82F00A00F5CF83F0A0C000
:1003B80080F0A1C081F08AEC0CF080C087F081C089
:1003C80088F0000E00018A6F0A0E896F52EC0EF059
:1003D80000018751300F0001A56F33D0A0C080F015
:1003E800A1C081F000019F51020DD30EF324F66ED7
:1003F800FD0EF420F76E0900F5CF82F00A00F5CF64
:1004080083F08AEC0CF0000180510F0B00019A6F09
:1004180000019A51010D930EF324F66EFF0EF4209D
:10042800F76E0800F5CFA5F00CD00001A251C00B63
:10043800000AD8B4ADD7800AD8B4D0D7400AD8B407
:10044800A7D70001A55164EC11F000019F07000136
:100458009F29D8A4EAD78CC0F6FF8DC0F7FF00010A
:100468008C4B8D2B0800F5CFA5F00001A551D8B411
:100478001200D2D50F0E186E000E196EBBD1250EC4
:100488002218D8B404D0225074EC11F0B3D1000E65
:10049800216E000E206E000E1F6E03D01F840D4AC1
:1004A8000E2A0DC0F6FF0EC0F7FF0800F550300AFF
:1004B800D8B4F4D70DC0F6FF0EC0F7FF0800F5500A
:1004C8000EEC11F0D8A06FD0000E216E000E206E39
:1004D80020C001F021C002F0000E046E0A0E036E67
:1004E800EAEC10F001C020F002C021F0D00E116E2D
:1004F800FF0E126E0DC0F6FF0EC0F7FF0800F55094
:10050800136E146A11501326125014221350202609
:10051800145021220D4A0E2A0DC0F6FF0EC0F7FF17
:100528000800F5500EEC11F0D8A03DD0D1D71F8EA1
:1005380054D020501A5C21501B58D8B005D01A50FE
:10054800205E1B50215A08D0000E216E000E206E2E
:1005580003D0200E74EC11F02006D8A02106202824
:10056800F8E12128D8B40AD0F4D715C0D9FF16C0AD
:10057800DAFFDF5074EC11F0154A162A1A06D8A0D3
:100588001B061A28F2E11B28D8B434D1EED7220E64
:10059800156E000E166E000E1B6E010E1A6EC9D770
:1005A800C00E1F121AD00DC0F6FF0EC0F7FF0D4A7D
:1005B8000E2A0800F5CF22F02250000AD8B4120003
:1005C800640AD8B40AD00D0AD8B407D01C0AD8B423
:1005D800E7D70D0AD8B4ABD7DAD71FC011F0C00ED1
:1005E8001116D8A415D018C0D9FF19C0DAFFDECF6C
:1005F8001DF0DDCF1EF0020E1826000E19221EAEC9
:1006080044D0030E1F121D6C1E1ED8B01E2A3DD0EA
:1006180018C0D9FF19C0DAFFDECF1DF0DDCF1EF0FC
:10062800020E1826000E192230D0010E226E050E79
:100638002218D8B435D02250020DC90EF324F66E14
:10064800FD0EF420F76E0900F5501D5C0900F55009
:100658001E58D8A025D0222AEAD7010E226E040EF1
:100668002218D8B41DD02250020DD30EF324F66EF2
:10067800FD0EF420F76E0900F5501D5C0900F550D9
:100688001E58D8A00DD0222AEAD71F50C00B000A46
:10069800D8B4CBD7800AD8B4E0D7400AD8B4C5D7E5
:1006A80020502110D8B409D01FC011F0030E111624
:1006B800D8B403D02006D8A02106800E22BE7F0E13
:1006C800116E2050225C2150800A1158D8B007D0F2
:1006D8002250205E000E22BEFF0E215A04D0000ECA
:1006E800216E000E206E1FA414D01FC011F0030E3F
:1006F8001116D8B403D02D0E74EC11F0205021102F
:10070800D8B41ED0300E74EC11F02006D8A0210603
:10071800F5D720502110D8B40AD0200E74EC11F06F
:100728002006D8A0210620502110D8A4F6D71FC033
:1007380011F0030E1116D8B403D02D0E74EC11F07D
:1007480022C01CF053D01C50020DC90EF324F66EC3
:10075800FD0EF420F76E0900F5CF03F00A00F5CF7F
:1007680004F01DC001F01EC002F039EC0FF001C00A
:1007780008F002C009F0000E0B6E0A0E0A6ECBECF0
:100788000FF00850300F226E2ED01DC001F01EC091
:1007980002F01C50020DD30EF324F66EFD0EF42069
:1007A800F76E0900F5CF03F00A00F5CF04F039EC35
:1007B8000FF001500F0B176E1750010D930EF32415
:1007C800F66EFF0EF420F76E0800F5CF22F00BD07E
:1007D8001F50C00B000AD8B4B6D7800AD8B4D5D7F2
:1007E800400AD8B4B0D7225074EC11F01C061C286B
:1007F800D8A4EED70DC0F6FF0EC0F7FF0D4A0E2A9B
:100808000800F5CF22F02250D8B4120038D671C0B3
:1008180046F072C047F073C048F074C049F0C4C0D5
:100828004AF0C5C04BF0C6C04CF0C7C04DF0C0C0C0
:1008380056F0C1C057F0C2C058F0C3C059F0000EFE
:10084800556E000E546E000E376E000E366E800E1A
:100858007AEC11F0890E0D6EFE0E0E6E3EEC02F073
:1008680077C04AF04B6A78C04CF04D6A8B8CF088A0
:10087800F09229D1800E7AEC11F0560E2E6E000EF1
:100888002F6E3CEC0DF02EC052F02FC053F0560ED8
:100898002E6E000E2F6E01EC0DF02EC050F02FC002
:1008A80051F0560E2E6E000E2F6E77EC0DF02EC006
:1008B8004EF02FC04FF0D10E0D6EFF0E0E6E3EECB7
:1008C80002F020EEB6F010EE3AF0050EDBCFE3FFB3
:1008D800E806FCE220EEB0F010EE40F0050EDBCFAB
:1008E800E3FFE806FCE2C00E7AEC11F0F10E0D6EA3
:1008F800FF0E0E6E3EEC02F052505310D8A40DD0ED
:10090800000E416E010E406EF80E0D6EFF0E0E6E5B
:100918003EEC02F01DEC11F017D052045310D8A48D
:100928000DD0000E3B6E010E3A6EF50E0D6EFF0EE9
:100938000E6E3EEC02F01DEC11F006D0FB0E0D6EB3
:10094800FF0E0E6E3EEC02F0ED0E0D6EFF0E0E6EFB
:100958003EEC02F050505110D8A40DD0000E436E5A
:10096800010E426EF80E0D6EFF0E0E6E3EEC02F09A
:100978001DEC11F017D050045110D8A40DD0000E62
:100988003D6E010E3C6EF50E0D6EFF0E0E6E3EECCA
:1009980002F01DEC11F006D0FB0E0D6EFF0E0E6E70
:1009A8003EEC02F0E40E0D6EFF0E0E6E3EEC02F011
:1009B8004E504F10D8A40DD0000E456E010E446E57
:1009C800F80E0D6EFF0E0E6E3EEC02F01DEC11F0EF
:1009D80017D04E044F10D8A40DD0000E3F6E010E54
:1009E8003E6EF50E0D6EFF0E0E6E3EEC02F01DEC27
:1009F80011F006D0FB0E0D6EFF0E0E6E3EEC02F0EF
:100A0800400E166E000E176EE7EC0DF03A0E166EDD
:100A1800000E176EB0EC0DF08B908B928B94770EC6
:100A2800046E000E056EC6EC0CF077C046F0476AFF
:100A380078C048F0496A800E7AEC11F048C007F097
:100A480049C008F062EC0FF007C034F008C035F078
:100A58004CC007F04DC008F062EC0FF0071E081EEE
:100A6800074A082A07503424386E08503520396E52
:100A780038C001F039C002F0000E046E3C0E036E5F
:100A8800EAEC10F001C034F002C035F046C007F0BF
:100A980047C008F062EC0FF00750342608503522A2
:100AA8004AC007F04BC008F062EC0FF0071E081EA2
:100AB800074A082A07503424546E08503520556ECA
:100AC800C00E7AEC11F036503710D8B4D3D6000ED9
:100AD800766E020E756EF098000E09EC10F0C00EDE
:100AE8007AEC11F0DB0E0D6EFD0E0E6E3EEC02F090
:100AF800560E076E000E086E54C009F055C00AF075
:100B08008CEC07F0080E356E1B0E346E270EE82E9F
:100B1800FED7342EFCD7352EFAD700F054C023F078
:100B280055C024F0560E256E000E266EA1EC05F079
:100B3800000E766E000E756E1200800E7AEC11F0C3
:100B4800F60E0D6EFD0E0E6E3EEC02F0C00E7AEC47
:100B580011F0710E0D6EFE0E0E6E3EEC02F0000EE0
:100B68002D6E000E2C6E000E2F6E000ED7D01DECD1
:100B780011F001C02CF002C02DF0D2D0800E7AEC1A
:100B880011F0410E0D6EFE0E0E6E3EEC02F0C00E20
:100B98007AEC11F00D0E0D6EFF0E0E6E23C00FF0E5
:100BA80024C010F03EEC02F0D7D0800E7AEC11F0A1
:100BB800590E0D6EFE0E0E6E3EEC02F0C00E7AEC73
:100BC80011F0A10E0D6EFE0E0E6E20EE03F02550F4
:100BD800D9262650DA22DF50276E25C0D9FF26C035
:100BE800DAFFDF50286E296A20EE01F02550D92659
:100BF8002650DA22DF502A6E2A502826000E292293
:100C080020EE02F02550D9262650DA22DF502B6E2E
:100C18002B502826000E2922275028240F6E000E5C
:100C28002920106E3EEC02F097D0800E7AEC11F07D
:100C3800E30E0D6EFE0E0E6E3EEC02F0C00E7AEC68
:100C480011F0C60E0D6EFF0E0E6E25C0D9FF26C020
:100C5800DAFFDF50276E27500F6E106A3EEC02F065
:100C68007BD0800E7AEC11F0360E0D6EFF0E0E6EF4
:100C78003EEC02F0C00E7AEC11F0C60E0D6EFF0EBF
:100C88000E6E20EE01F02550D9262650DA22DF50CC
:100C9800276E27500F6E106A3EEC02F05DD0800E72
:100CA8007AEC11F0F80E0D6EFE0E0E6E3EEC02F0B0
:100CB800C00E7AEC11F0C60E0D6EFF0E0E6E20EE11
:100CC80002F02550D9262650DA22DF50276E275009
:100CD8000F6E106A3EEC02F03FD0800E7AEC11F0F5
:100CE800CE0E0D6EFE0E0E6E3EEC02F0C00E7AECCD
:100CF80011F0C60E0D6EFF0E0E6E20EE03F025509D
:100D0800D9262650DA22DF50276E27500F6E106A38
:100D18003EEC02F021D0000E2F6E010E2E6E1CD07C
:100D28002CC027F02DC028F02850000AD8A4F3D7EB
:100D38002750000AD8B422D7010AD8B436D7030AF4
:100D4800D8B473D7060AD8B48CD7010AD8B4A7D7B1
:100D5800030AD8B4C2D7DFD72E502F10D8A4120058
:100D680006D70600FACF5CF0FBCF5DF0E9CF5EF066
:100D7800EACF5FF0E1CF60F0E2CF61F0D9CF62F067
:100D8800DACF63F0F3CF64F0F4CF65F0F6CF66F016
:100D9800F7CF67F0F8CF68F0F5CF69F0F29EF0A0D2
:100DA8007ED020EEAAF010EE6BF0050EDBCFE3FF4D
:100DB800E806FCE281380F0B0F0B6A6EF09081A2F7
:100DC80062D0FDD7000E766E020E756E55EC0AF0F5
:100DD800000E766E000E756E62D0000E766E010EF5
:100DE800756EF28E0BEC04F0F29E59D0000E6C6E0C
:100DF800010E6B6E0B0E0A6EB80E096E000E0C6EAD
:100E08000A0E0B6E6B0E0D6E000E0E6EDCEC09F00A
:100E180046D0000E6E6E010E6D6E0B0E0A6EB80E89
:100E2800096E000E0C6E0A0E0B6E6B0E0D6E000E28
:100E38000E6EDCEC09F033D0000E706E010E6F6E92
:100E48000B0E0A6EB80E096E000E0C6E0A0E0B6EB3
:100E58006B0E0D6E000E0E6EDCEC09F020D06A50A1
:100E6800030AD8B4E9D7040AD8B4D3D70C0AD8B43B
:100E7800BDD7070AD8B42ED0020AD8B4A3D7010A1E
:100E8800D8B4ABD70CD075C05AF076C05BF05B50C5
:100E9800000AD8A404D05A50000AD8B4E0D7F0A267
:100EA80018D0F09208D0000E766E030E756E010E03
:100EB80009EC10F00CD075C05AF076C05BF05B50AE
:100EC800000AD8A404D05A50010AD8B4ECD781B487
:100ED800FED7F28E69C0F5FF68C0F8FF67C0F7FF5C
:100EE80066C0F6FF65C0F4FF64C0F3FF63C0DAFFB5
:100EF80062C0D9FF61C0E2FF60C0E1FF5FC0EAFFE6
:100F08005EC0E9FF5DC0FBFF5CC0FAFF7E92110086
:100F18000001C82BC8C00DF00E6A0E5004E1040E83
:100F28000D5CD8A006D0040E0D5E000E0E5A0DC042
:100F3800C8F00DC001F00EC002F0000E046E050EE0
:100F4800036EEAEC10F001C00DF002C00EF00DC007
:100F58000BF00EC00CF0D8900B360C36D8900B3630
:100F68000C36D8900B360C360BC001F00CC002F0D2
:100F780009C003F0D7EC10F00D4A0E2A0DC00BF093
:100F88000EC00CF0D8900B360C36D8900B360C36B9
:100F9800D8900B360C360BC001F00CC002F007C01D
:100FA800D9FF08C0DAFFDF50036ED7EC10F00D4A06
:100FB8000E2A0DC00BF00EC00CF0D8900B360C3674
:100FC800D8900B360C36D8900B360C360BC001F087
:100FD8000CC002F020EE01F00750D9260850DA22A2
:100FE800DF50036ED7EC10F00D4A0E2A0DC00BF03F
:100FF8000EC00CF0D8900B360C36D8900B360C3649
:10100800D8900B360C360BC001F00CC002F020EE65
:1010180002F00750D9260850DA22DF50036ED7ECC9
:1010280010F00D4A0E2A0DC00BF00EC00CF0D8902F
:101038000B360C36D8900B360C36D8900B360C364F
:101048000BC001F00CC002F020EE03F00750D926C7
:101058000850DA22DF50036ED7EC10F00D4A0E2A42
:10106800000E026EA00E016EC8C003F0D7EC10F09F
:1010780012000B6E0B502CEC11F0076E0750050D8B
:10108800F3CF0CF0F4CF0DF00CC007F00DC008F052
:10109800D89007360836D89007360836D8900736DD
:1010A800083607C001F008C002F046EC11F0096EDE
:1010B8000A6A05C0D9FF06C0DAFF09C0DEFF0AC008
:1010C800DDFF0C4A0D2A0CC007F00DC008F0D890BF
:1010D80007360836D89007360836D89007360836C7
:1010E80007C001F008C002F046EC11F003C0D9FFB8
:1010F80004C0DAFFDF6E0C4A0D2A20EE01F003501F
:10110800D9260450DA220CC007F00DC008F0D89098
:1011180007360836D89007360836D8900736083686
:1011280007C001F008C002F046EC11F0DF6E0C4A6F
:101138000D2A20EE02F00350D9260450DA220CC002
:1011480007F00DC008F0D89007360836D890073653
:101158000836D8900736083607C001F008C002F0F4
:1011680046EC11F0DF6E0C4A0D2A20EE03F0035016
:10117800D9260450DA220CC007F00DC008F0D89028
:1011880007360836D89007360836D8900736083616
:1011980007C001F008C002F046EC11F0DF6E0C4AFF
:1011A8000D2A12002B6E2B5088EC10F001C02CF089
:1011B80002C02DF02B5088EC10F001C029F002C0BD
:1011C8002AF02B5088EC10F001C027F002C028F05C
:1011D80029502C1870E12A502D18D8A46CD027500B
:1011E800291869E128502A18D8A465D0CD0E106EA8
:1011F8008C0E116E3F0E126E25C009F026C00AF043
:1012080025EC10F009C00DF00AC00EF00BC00FF06D
:1012180062EC09F00DC01CF00EC01DF00FC01EF0EE
:101228002CC009F02DC00AF025EC10F009C01FF001
:101238000AC020F00BC021F076EC0BF0D8A03BD010
:101248009A0E106E590E116E3F0E126E25C009F0DF
:1012580026C00AF025EC10F009C00DF00AC00EF007
:101268000BC00FF062EC09F00DC01CF00EC01DF0B1
:101278000FC01EF02CC009F02DC00AF025EC10F0AC
:1012880009C01FF00AC020F00BC021F076EC0BF06B
:10129800D8B005D0000E266E010E256E12002DBEA8
:1012A8000AD02D5004E10A0E2C5CD8A004D0000E00
:1012B800266E000EF2D72568266812000FC013F0BC
:1012C800146A156A0E34133601E314801350166E2F
:1012D8001650D8A407D0000E0D6E000E0E6E000E2C
:1012E8000F6E120012C013F0146A156A1134133607
:1012F80001E3148013501B6E1B50D8A407D0000EB6
:101308000D6E000E0E6E000E0F6E12001B507B0F3E
:1013180016260FC01BF012501B1A800E1B160E8EBD
:10132800118EFF0E1016FF0E1116000E1216000E6B
:10133800176E000E186E000E196E070E1A6E0DA0AD
:1013480006D0105017261150182212501922D89082
:101358000F320E320D32D8901036113612361A2E40
:10136800EED7090E1A6E0DA006D010501726115090
:10137800182212501922D8900F320E320D32D890FE
:101388001932183217321A2EEED717C001F018C0CA
:1013980002F019C003F016C004F01BC005F01FECE2
:1013A8000BF001C00DF002C00EF003C00FF01200E8
:1013B80009C001F00AC002F0000E046E0A0E036EA6
:1013C80048EC0CF001C009F002C00AF00906D8A0E8
:1013D8000A0609C014F00AC015F00CBE12000C5021
:1013E80003E10B04D8A0120009C014F00AC015F0DC
:1013F800000E116E8BB00DD00DC0D9FF0EC0DAFFF4
:10140800DECF0FF0DDCF10F00F30D8A002D0010EE4
:10141800116E11B002D08B9001D08B80000E126E2D
:101428008BB20FD020EE02F00D50D9260E50DA22E2
:10143800DECF0FF0DDCF10F00F30D8A002D0010EB4
:10144800126E12B002D08B9201D08B82000E136EF6
:101458008BB40FD020EE04F00D50D9260E50DA22AE
:10146800DECF0FF0DDCF10F00F30D8A002D0010E84
:10147800136E13B002D08B9401D08B8415BE0DD09F
:10148800155003E11404D8A008D0030EE82EFED7A7
:1014980000F01406D8A01506F1D70B06D8A00C0644
:1014A8009CD7000E65D0800E7AEC11F0B80E0D6E48
:1014B800FE0E0E6E3EEC02F0C00E7AEC11F05D0EE0
:1014C8000D6EFF0E0E6E3EEC02F01DEC11F0015099
:1014D800396E030E3918D8A402D0020E396E040EE4
:1014E8003918D8A402D0030E396E040E39603FD0E3
:1014F800BCC032F0BDC033F0BEC034F0BFC035F060
:10150800320E036E000E046E370E056E000E066E68
:1015180039503DEC08F0800E7AEC11F0A40E0D6EF7
:10152800FF0E0E6E39C00FF0106A3EEC02F0C00ECE
:101538007AEC11F0B50E0D6EFF0E0E6E3EEC02F059
:10154800080E316E1B0E306E270EE82EFED7302E99
:10155800FCD7312EFAD700F037C023F038C024F07A
:10156800320E256E000E266EA1EC05F002D0010E9B
:10157800366E3650D8A4120096D7000E0001886F38
:10158800000E896F000E8A6F000E8B6F0001845168
:10159800000185110001861100018711D8B442D0DD
:1015A800010E00018C6F08D00001D8908437853770
:1015B8008637873700018C2B000187AFF5D70001EC
:1015C800D890883789378A378B37000184510001D2
:1015D800805D00018551000181590001865100019B
:1015E80082590001875100018359D8A012D0000107
:1015F80084510001805F000185510001815B000179
:1016080086510001825B000187510001835B000164
:1016180088810001D890873386338533843300016D
:101628008C2FCDD788C080F089C081F08AC082F025
:101638008BC083F012000450D8B405D001500210BA
:101648000310D8A40CD0000E016E000E026E000E1E
:10165800036E1200042AD890033202320132000EBF
:101668000114066E000E0214076EFE0E0314086EB7
:10167800065007100810D8B40CD0ECD7042A010E75
:101688000126000E0222000E0322D89003320232F5
:101698000132000E0114066E000E0214076EFF0ED2
:1016A8000314086E065007100810D8B406D0E6D701
:1016B8000406D89001360236033602BE03D0020E65
:1016C8000460F6D704A0029ED89004320450031296
:1016D8000550D8A4038E01C001F002C002F003C077
:1016E80003F012001EAE16D01CC022F01DC023F05D
:1016F8001EC024F0221E231E241E222A000E23228E
:101708002422000E22241C6E000E23201D6E800E43
:1017180024201E6E21AE16D01FC022F020C023F058
:1017280021C024F0221E231E241E222A000E23225A
:101738002422000E22241F6E000E2320206E800E0D
:101748002420216E000E1C1A000E1D1A800E1E1A6F
:10175800000E1F1A000E201A800E211A1F501C5C42
:1017680020501D5821501E58D8B002D0D8901200D1
:10177800D8801200770E0001836F000E0001846F7D
:1017880003EC0CF0800E6CEC11F00F0E00018C6F66
:10179800FE0E00018D6F7DC08EF000018F6B7CC046
:1017A80090F00001916B7BC092F00001936B09EC03
:1017B80000F0C00E6CEC11F0280E00018C6FFE0ECC
:1017C80000018D6F79C08EF000018F6B78C090F0AA
:1017D8000001916B77C092F00001936B09EC00F067
:1017E800030E0001A76F8A0E0001A66F550EE82EA2
:1017F800FED7A62FFCD7A72FFAD700D01200F29E4B
:101808008EEC11F0000E0001826FD00E816F80EC1B
:1018180011F0000E0001826F000E816F80EC11F054
:101828008AEC11F08EEC11F0000E0001826FD10EDF
:10183800816F80EC11F0000E0001856F050E00012C
:10184800856501D012D000018551010DF3500001CA
:101858008325D96EF45000018421DA6E010E5CEC08
:1018680010F0DF6E0001852BE9D7000120EE06F0AD
:101878008351D9268451DA22000E5CEC10F0DF6E19
:101888008AEC11F0F28E1200000E066E04AE06D03D
:10189800036C041ED8B0042A010E066E02AE06D0F0
:1018A800016C021ED8B0022A010E061A000E086E3C
:1018B800000E076E03500410D8B41CD0010E056E3C
:1018C80004D0D89003360436052A04AEFAD7D89047
:1018D800073608360350015C04500258D8A005D0DA
:1018E8000350015E0450025A0780D8900432033234
:1018F800052EEDD70650D8B404D0076C081ED8B012
:10190800082A07C001F008C002F01200000E00010A
:10191800856F000E846F0001825100018311D8B4D5
:101928002CD0010E0001866F06D00001D8908237B6
:1019380083370001862B000183AFF7D70001D890C9
:1019480084378537000182510001805D0001835191
:1019580000018159D8A00AD0000182510001805F9E
:10196800000183510001815B000184810001D8904E
:10197800833382330001862FE1D784C080F085C08D
:1019880081F01200F29E96EC11F0000E036ED00E5C
:10199800026E85EC11F0000E036E000E026E85ECEF
:1019A80011F092EC11F096EC11F0000E036ED10ECE
:1019B800026E85EC11F0000E066E050E066401D06D
:1019C8000ED00650010DF3500424D96EF4500520B2
:1019D800DA6E010EC4EC10F0DF6E062AEED720EEA8
:1019E80006F00450D9260550DA22000EC4EC10F097
:1019F800DF6E92EC11F0F28E1200EE0E0D6EFF0EFD
:101A08000E6E3EEC02F0010E266E320E256E000EB2
:101A1800D6EC08F025C032F026C033F032C023F0EF
:101A280033C024F09DEC10F00FD020EE01F02E50C2
:101A3800D9262F50DA22DF2A20EE03F02E50D9269D
:101A48002F50DA22DF2A0FD032C030F033C031F005
:101A58003150000AD8A407D03050000AD8B4ECD7C7
:101A6800010AD8B4E2D732C02EF033C02FF01200EA
:101A7800F10E0D6EFF0E0E6E3EEC02F0020E266E9B
:101A8800EA0E256E050ED6EC08F025C032F026C009
:101A980033F032C023F033C024F09DEC10F00FD0A7
:101AA80020EE02F02E50D9262F50DA22DF2A20EE1F
:101AB80003F02E50D9262F50DA22DF2A0FD032C059
:101AC80030F033C031F03150000AD8A407D030507C
:101AD800000AD8B4ECD7010AD8B4E2D732C02EF045
:101AE80033C02FF01200E50E0D6EFF0E0E6E3EECA9
:101AF80002F0010E266E320E256E020ED6EC08F0AC
:101B080025C032F026C033F032C023F033C024F0B1
:101B18009DEC10F00DD02EC0D9FF2FC0DAFFDF2AC0
:101B280020EE03F02E50D9262F50DA22DF2A0FD0CC
:101B380032C030F033C031F03150000AD8A407D099
:101B48003050000AD8B4ECD7010AD8B4E4D732C070
:101B58002EF033C02FF0120020EE04F01650D926D4
:101B68001750DA22DECF18F0DDCF19F020EE02F0A0
:101B78001650D9261750DA22DECF1AF0DDCF1BF027
:101B880016C0D9FF17C0DAFFDECF1CF0DDCF1DF07D
:101B98001A501C261B501D2218501C2619501D2295
:101BA8001C501D10D8B412000B0E0A6EB80E096E28
:101BB800000E0C6E600E0B6E16C00DF017C00EF006
:101BC800DCEC09F0120020EE04F01650D92617506C
:101BD800DA22DECF18F0DDCF19F020EE02F0165031
:101BE800D9261750DA22DECF1AF0DDCF1BF016C047
:101BF800D9FF17C0DAFFDECF1CF0DDCF1DF01A5079
:101C08001C261B501D2218501C2619501D221C5022
:101C18001D10D8B41200010E0A6E2C0E096E050EA6
:101C28000C6E780E0B6E16C00DF017C00EF0DCECC3
:101C380009F012000001816F00018151F00B0001D1
:101C4800806F8C500F0B8C6E000180518C108C6E45
:101C58008C96100EE82EFED700D08C86100EE82E3B
:101C6800FED700D000018139F00B0001816F00011F
:101C78008151F00B0001806F8C500F0B8C6E0001AE
:101C880080518C108C6E8C96100EE82EFED700D0EA
:101C98008C86100EE82EFED700D012000001895164
:101CA80000018A11D8B426D0010E00018B6F06D02E
:101CB8000001D89089378A3700018B2B00018AAF41
:101CC800F7D7000189510001875D00018A510001A1
:101CD8008859D8A008D0000189510001875F000108
:101CE8008A510001885B0001D8908A33893300014A
:101CF8008B2FE7D787C087F088C088F01200000EC6
:101D0800C76E280EC66E000EC56E000E0001806FED
:101D1800120E816F7A0E826F000E836F8DC091F064
:101D28008EC092F08FC093F090C094F0020ED890BD
:101D380000019137923793379437E82EF8D791C03E
:101D480084F092C085F093C086F094C087F0C1EC0F
:101D58000AF000018005C86E948694881200800EEF
:101D68006CEC11F0810E00018C6FFF0E00018D6F7D
:101D7800020EECEC0FF080C08EF081C08FF0000EE8
:101D8800ECEC0FF080C090F081C091F0050EECEC07
:101D98000FF080C092F081C093F009EC00F0060EBD
:101DA8000001A76F130E0001A66FAD0EE82EFED737
:101DB800A62FFCD7A72FFAD700D0120092689368F5
:101DC800000E946E000E956E0F0E966E86EC0FF058
:101DD800000E896E000E8A6E000E8B6E000E8C6EE1
:101DE800000E8D6E000EC26E090EC16E000EB56E2D
:101DF800C08E010E6CEC11F0100E00018D6F270ED5
:101E08008E6F000E8F6F000E906F83EC0EF0FDEC5E
:101E180010F01200026E0250F00B016E8C500F0B86
:101E28008C6E01508C108C6E8C96100EE82EFED79E
:101E380000D08C86100EE82EFED700D00238F00BAA
:101E4800026E0250F00B016E8C500F0B8C6E01501D
:101E58008C108C6E8C96100EE82EFED700D08C86D7
:101E6800100EE82EFED700D01200000E066E000EEF
:101E7800056E03500410D8B41CD0010E076E04D0B0
:101E8800D89003360436072A04AEFAD7D890053618
:101E980006360350015C04500258D8A005D0035000
:101EA800015E0450025A0580D89004320332072E8E
:101EB800EDD705C001F006C002F0120007C009F016
:101EC80008C00AF0040E0B6ED8900A3209320B2EA5
:101ED800FBD709C00CF00AC00DF00F0E07140E6EE8
:101EE8000F6A0CC001F00DC002F0000E046E0A0E5D
:101EF800036EEAEC10F00E500124076E0F5002201A
:101F0800086E1200270E0001836FF50EE82EFED72B
:101F1800832FFCD7330E6CEC11F0320E6CEC11F001
:101F2800280E6CEC11F00F0E6CEC11F0060E6CEC38
:101F380011F0010E6CEC11F0270E0001836FF50E05
:101F4800E82EFED7832FFCD71200E2EC0EF0800EAD
:101F58006CEC11F04A0E00018C6FFF0E00018D6FC2
:101F680009EC00F0060E0001A96F130E0001A86F1E
:101F7800AD0EE82EFED7A82FFCD7A92FFAD700D090
:101F8800B3EC0EF0FDD7BEEC0BF0FDD7FF000A5006
:101F98000B10D8B418D0010E0C6E04D0D8900A36A5
:101FA8000B360C2A0BAEFAD70A50085C0B500958AE
:101FB800D8A004D00A50085E0B50095AD8900B32AA
:101FC8000A320C2EF1D708C008F009C009F0120037
:101FD8000001846F00018445E846FC0BC26EC28094
:101FE800C282C2B2FED7C350C4CF82F00001836B55
:101FF80082C083F00001826B000182110001806FB2
:10200800000183510001816F1200256EF29E000EBF
:102018008B6E800E7AEC11F02550D8A404D06F0E88
:10202800236EFF0E03D0220E236EFF0E246E23C0F4
:102038000DF024C00EF03EEC02F02550D8B412008A
:10204800FFD7000E0C6E0AAE06D0096C0A1ED8B077
:102058000A2A010E0C6E09C001F00AC002F0036AD8
:102068008E0E046E0CC005F01FEC0BF001C009F0D9
:1020780002C00AF003C00BF01200000180510001F9
:102088008203F3CF84F0F4CF85F000018051000182
:102098008303F35000018527000181510001820369
:1020A800F3500001852784C080F085C081F01200BC
:1020B8000001816F51EC11F0C58651EC11F0C9CFC8
:1020C80082F051EC11F0000181510001D8A402D036
:1020D800C58A01D0C59AC588000182511200000145
:1020E800826F000E0001816F3A0E0001826107D0F5
:1020F8002F0E0001826503D0010E0001816F81C09F
:1021080080F0000180311200056E0544E846FC0BA2
:10211800C26EC280C282C2B2FED7C350C4CF03F01F
:10212800046A03C004F0036A0310016E0450026ECF
:10213800120024AE07D0E90E0D6EFF0E0E6E3EECB7
:1021480002F01200DF0E0D6EFF0E0E6E23C00FF0B0
:1021580024C010F03EEC02F0120000EEAAF01F0EB0
:10216800EE6AE806FDE100EE71F00D0EEE6AE80693
:10217800FDE17E907E92000EF86E0001A9EF0FF04F
:10218800026E5BEC11F0C5865BEC11F0C9CF03F071
:102198005BEC11F00250D8A402D0C58A01D0C59AD0
:1021A800C588035012000250AA6E01C0A9FF03C0DF
:1021B800A8FFA69EA69CA684550EA76EAA0EA76E7B
:1021C800A682A1A8FED7A198A694120001500302E6
:1021D800F3CF05F0F4CF06F001500402F3500626C1
:1021E80002500302F350062605C001F006C002F0B3
:1021F8001200000E0001816FA00E806F3AEC11F002
:102208000001C86F030E0001C8651200000E00012E
:10221800C86F1200036E000E026E3A0E036005D0FE
:102228002F0E036402D0010E026E02C001F00130CD
:102238001200F29E81A2FED781380F0B0F0B036E9E
:1022480081B2FED7F090F28E03C001F0026A12004C
:10225800016E015000080001C825040F026E040E2B
:10226800026402D0040E025E025012000001815185
:10227800AA6E80C0A9FFA69EA69CA680A6B0FED77F
:10228800A85012000250AA6E01C0A9FFA69EA69CE3
:10229800A680A6B0FED7A8501200C7B4FED7C5CFF7
:1022A80080F01F0E00018017D8B41200F6D7C7B40B
:1022B800FED7C5CF01F01F0E0116D8B41200F7D70C
:1022C8000001826F8C84000182511EEC0EF0120016
:1022D8000001826F8C94000182511EEC0EF01200F6
:1022E800036E8C8403500EEC0FF01200036E8C9476
:1022F80003500EEC0FF0120051EC11F081C0C9FF31
:1023080012005BEC11F002C0C9FF120051EC11F091
:10231800C584120051EC11F0C58012005BEC11F07D
:0C232800C58412005BEC11F0C5801200AF
:10FDC8000001000A006400E8031027010010000089
:10FDD800010010536F7274696E6720436F6D706C09
:10FDE80065746520202020202020202020005072CB
:10FDF8006573732061206E756D6265722020202006
:10FE08002020202020200020202020253032782F7C
:10FE1800253032782F2530327820202020202000ED
:10FE280020202020253032783A253032783A253083
:10FE380032782020202020200054696D6520456CF0
:10FE480061707365643A2020202020202020202023
:10FE580000546F74616C20536F727465643A20208B
:10FE6800202020202020202000466F72206D6F72F5
:10FE78006520696E666F2020202020202020202009
:10FE88000053696D756C6174696E672E2E2E202083
:10FE980020202020202020200025752062617474F5
:10FEA80065726965732020202020202020202000F2
:10FEB8005065726D616E656E74206C6F673A2020B4
:10FEC800202020202000556E636861726765643ABF
:10FED8002020202020202020202000414120536F76
:10FEE800727465643A2020202020202020202000E1
:10FEF800395620536F727465643A202020202020E0
:10FF080020202020002575207365636F6E647320A0
:10FF180020202020202020202000456D6572676564
:10FF28006E637920202020202020202020004320DC
:10FF3800536F727465643A202020202020202020EE
:10FF4800200057656C636F6D6521202020202020DC
:10FF5800202020200057686963682072756E3F2052
:10FF68002020202020200053746F707065642020AA
:10FF7800202020202020202000412025642C432000
:10FF880025642C3920256420202000303132333478
:10FF980035363738396162636465660073686F7730
:10FFA800696E672025752020202020200072756E3C
:10FFB80073206265666F72652020202020002575F9
:10FFC80020202020202020202020202020004D61DB
:10FFD800696E6C6F6F700020256420002041413AE3
:10FFE800002D31200020433A0039563A00202B00DA
:07FFF800202D002030000065
:020000040020DA
:08000000FFFFFFFFFFFFFFFF00
:020000040030CA
:0E000000FF021F1EFF8381FF0FC00FE00F40A5
:00000001FF
