:0400000007EF00F016
:100008007E82B5ED06F079EF13F08E0E00019B6F3E
:10001800000E00019C6F1FD2250E0001A519D8B44F
:1000280005D00001A5512CEC14F015D2000E0001EA
:10003800A46F000EA36F000E0001A26F05D000018F
:10004800A28500018C4B8D2B8CC0F6FF8DC0F7FF6D
:100058000800F550300AD8B4F2D78CC0F6FF8DC02E
:10006800F7FF0800F5503BEC13F0D8A092D0000E33
:100078000001A46F000EA36FA3C080F0A4C081F09C
:10008800000E0001836F0A0E826FF0EC12F080C040
:10009800A3F081C0A4F0D00E0001946FFF0E000100
:1000A800956F8CC0F6FF8DC0F7FF0800F550000172
:1000B800966F976B000194510001962700019551A6
:1000C80000019723000196510001A32700019751D1
:1000D8000001A42300018C4B8D2B8CC0F6FF8DC032
:1000E800F7FF0800F5503BEC13F0D8A052D0C4D766
:1000F8000001A28F6AD00001A35100019D5D00019B
:10010800A45100019E59D8B009D000019D510001A9
:10011800A35F00019E510001A45B09D0000E0001FD
:10012800A46F000EA36F03D0200E2CEC14F0000176
:10013800A307D8A0A4070001A329F6E10001A42978
:10014800D8B40BD0F1D798C0D9FF99C0DAFFDF50E7
:100158002CEC14F00001984B992B00019D07D8A0B6
:100168009E0700019D29EFE100019E29D8B473D1B3
:10017800EAD7A50E0001986F000E0001996F000ED6
:1001880000019E6F010E9D6FB6D7C00E0001A2132D
:100198001CD08CC0F6FF8DC0F7FF00018C4B8D2B57
:1001A8000800F5CFA5F00001A551000AD8B4120047
:1001B800640AD8B40AD00D0AD8B407D01C0AD8B437
:1001C800E4D70D0AD8B494D7D4D7A2C094F0C00EFF
:1001D80000019417D8A419D09BC0D9FF9CC0DAFF9E
:1001E800DECFA0F0DDCFA1F0020E00019B27000EAC
:1001F8009C230001A1AF53D0030E0001A2130001FC
:10020800A06DA11FD8B0A12B4AD09BC0D9FF9CC01C
:10021800DAFFDECFA0F0DDCFA1F0020E00019B27B0
:10022800000E9C233CD0010E0001A56F050E0001B5
:10023800A519D8B440D00001A551020DC90EF32468
:10024800F66EFD0EF420F76E0900F5500001A05D72
:100258000900F5500001A159D8A02DD00001A52B07
:10026800E5D7010E0001A56F040E0001A519D8B449
:1002780022D00001A551020DD30EF324F66EFD0E17
:10028800F420F76E0900F5500001A05D0900F55053
:100298000001A159D8A00FD00001A52BE5D7000176
:1002A800A251C00B000AD8B4BED7800AD8B4D9D797
:1002B800400AD8B4B8D70001A3510001A411D8B49A
:1002C8000BD0A2C094F0030E00019417D8B404D048
:1002D8000001A307D8A0A407800E0001A5BF7F0EC8
:1002E8000001946F0001A3510001A55D0001A45114
:1002F800800A00019459D8B00BD00001A551000123
:10030800A35F000E0001A5BFFF0E0001A45B05D08E
:10031800000E0001A46F000EA36F0001A2A518D063
:10032800A2C094F0030E00019417D8B403D02D0E88
:100338002CEC14F00001A3510001A411D8B425D06D
:10034800300E2CEC14F00001A307D8A0A407F2D7B4
:100358000001A3510001A411D8B40DD0200E2CEC3B
:1003680014F00001A307D8A0A4070001A3510001BD
:10037800A411D8A4F3D7A2C094F0030E00019417D7
:10038800D8B403D02D0E2CEC14F0A5C09FF05DD08E
:1003980000019F51020DC90EF324F66EFD0EF420E4
:1003A800F76E0900F5CF82F00A00F5CF83F0A0C000
:1003B80080F0A1C081F046EC0FF080C087F081C0CA
:1003C80088F0000E00018A6F0A0E896F0EEC11F09A
:1003D80000018751300F0001A56F33D0A0C080F015
:1003E800A1C081F000019F51020DD30EF324F66ED7
:1003F800FD0EF420F76E0900F5CF82F00A00F5CF64
:1004080083F046EC0FF0000180510F0B00019A6F4A
:1004180000019A51010D930EF324F66EFF0EF4209D
:10042800F76E0800F5CFA5F00CD00001A251C00B63
:10043800000AD8B4ADD7800AD8B4D0D7400AD8B407
:10044800A7D70001A5512CEC14F000019F0700016B
:100458009F29D8A4EAD78CC0F6FF8DC0F7FF00010A
:100468008C4B8D2B0800F5CFA5F00001A551D8B411
:100478001200D2D50F0E186E000E196EBBD1250EC4
:100488002218D8B404D022503CEC14F0B3D1000E9A
:10049800216E000E206E000E1F6E03D01F840D4AC1
:1004A8000E2A0DC0F6FF0EC0F7FF0800F550300AFF
:1004B800D8B4F4D70DC0F6FF0EC0F7FF0800F5500A
:1004C800D6EC13F0D8A06FD0000E216E000E206E6F
:1004D80020C001F021C002F0000E046E0A0E036E67
:1004E800B2EC13F001C020F002C021F0D00E116E62
:1004F800FF0E126E0DC0F6FF0EC0F7FF0800F55094
:10050800136E146A11501326125014221350202609
:10051800145021220D4A0E2A0DC0F6FF0EC0F7FF17
:100528000800F550D6EC13F0D8A03DD0D1D71F8ED7
:1005380054D020501A5C21501B58D8B005D01A50FE
:10054800205E1B50215A08D0000E216E000E206E2E
:1005580003D0200E3CEC14F02006D8A02106202859
:10056800F8E12128D8B40AD0F4D715C0D9FF16C0AD
:10057800DAFFDF503CEC14F0154A162A1A06D8A008
:100588001B061A28F2E11B28D8B434D1EED7220E64
:10059800156E000E166E000E1B6E010E1A6EC9D770
:1005A800C00E1F121AD00DC0F6FF0EC0F7FF0D4A7D
:1005B8000E2A0800F5CF22F02250000AD8B4120003
:1005C800640AD8B40AD00D0AD8B407D01C0AD8B423
:1005D800E7D70D0AD8B4ABD7DAD71FC011F0C00ED1
:1005E8001116D8A415D018C0D9FF19C0DAFFDECF6C
:1005F8001DF0DDCF1EF0020E1826000E19221EAEC9
:1006080044D0030E1F121D6C1E1ED8B01E2A3DD0EA
:1006180018C0D9FF19C0DAFFDECF1DF0DDCF1EF0FC
:10062800020E1826000E192230D0010E226E050E79
:100638002218D8B435D02250020DC90EF324F66E14
:10064800FD0EF420F76E0900F5501D5C0900F55009
:100658001E58D8A025D0222AEAD7010E226E040EF1
:100668002218D8B41DD02250020DD30EF324F66EF2
:10067800FD0EF420F76E0900F5501D5C0900F550D9
:100688001E58D8A00DD0222AEAD71F50C00B000A46
:10069800D8B4CBD7800AD8B4E0D7400AD8B4C5D7E5
:1006A80020502110D8B409D01FC011F0030E111624
:1006B800D8B403D02006D8A02106800E22BE7F0E13
:1006C800116E2050225C2150800A1158D8B007D0F2
:1006D8002250205E000E22BEFF0E215A04D0000ECA
:1006E800216E000E206E1FA414D01FC011F0030E3F
:1006F8001116D8B403D02D0E3CEC14F02050211064
:10070800D8B41ED0300E3CEC14F02006D8A0210638
:10071800F5D720502110D8B40AD0200E3CEC14F0A4
:100728002006D8A0210620502110D8A4F6D71FC033
:1007380011F0030E1116D8B403D02D0E3CEC14F0B2
:1007480022C01CF053D01C50020DC90EF324F66EC3
:10075800FD0EF420F76E0900F5CF03F00A00F5CF7F
:1007680004F01DC001F01EC002F0C6EC11F001C07B
:1007780008F002C009F0000E0B6E0A0E0A6E7AEC41
:1007880012F00850300F226E2ED01DC001F01EC08E
:1007980002F01C50020DD30EF324F66EFD0EF42069
:1007A800F76E0900F5CF03F00A00F5CF04F0C6ECA8
:1007B80011F001500F0B176E1750010D930EF32413
:1007C800F66EFF0EF420F76E0800F5CF22F00BD07E
:1007D8001F50C00B000AD8B4B6D7800AD8B4D5D7F2
:1007E800400AD8B4B0D722503CEC14F01C061C28A0
:1007F800D8A4EED70DC0F6FF0EC0F7FF0D4A0E2A9B
:100808000800F5CF22F02250D8B4120038D671C0B3
:1008180042F072C043F073C044F074C045F06DC03C
:1008280046F06EC047F06FC048F070C049F0D7C0BE
:1008380052F0D8C053F0D9C054F0DAC055F0000EC9
:10084800516E000E506E000E336E000E326E800E2A
:1008580042EC14F0890E0D6EFE0E0E6E3EEC02F0A8
:1008680077C046F0476A78C048F0496A8B8CF088B0
:10087800F09229D1800E42EC14F0520E2A6E000E2E
:100888002B6EF8EC0FF02AC04EF02BC04FF0520E32
:100898002A6E000E2B6EBDEC0FF02AC04CF02BC058
:1008A8004DF0520E2A6E000E2B6E33EC10F02AC05B
:1008B8004AF02BC04BF0D10E0D6EFF0E0E6E3EECC3
:1008C80002F020EEC9F010EE36F0050EDBCFE3FFA4
:1008D800E806FCE220EEC3F010EE3CF0050EDBCF9C
:1008E800E3FFE806FCE2C00E42EC14F0F10E0D6ED8
:1008F800FF0E0E6E3EEC02F04E504F10D8A40DD0F5
:10090800000E3D6E010E3C6EF80E0D6EFF0E0E6E63
:100918003EEC02F0E5EC13F017D04E044F10D8A4CB
:100928000DD0000E376E010E366EF50E0D6EFF0EF1
:100938000E6E3EEC02F0E5EC13F006D0FB0E0D6EE9
:10094800FF0E0E6E3EEC02F0ED0E0D6EFF0E0E6EFB
:100958003EEC02F04C504D10D8A40DD0000E3F6E66
:10096800010E3E6EF80E0D6EFF0E0E6E3EEC02F09E
:10097800E5EC13F017D04C044D10D8A40DD0000EA0
:10098800396E010E386EF50E0D6EFF0E0E6E3EECD2
:1009980002F0E5EC13F006D0FB0E0D6EFF0E0E6EA6
:1009A8003EEC02F0E40E0D6EFF0E0E6E3EEC02F011
:1009B8004A504B10D8A40DD0000E416E010E406E67
:1009C800F80E0D6EFF0E0E6E3EEC02F0E5EC13F025
:1009D80017D04A044B10D8A40DD0000E3B6E010E60
:1009E8003A6EF50E0D6EFF0E0E6E3EEC02F0E5EC63
:1009F80013F006D0FB0E0D6EFF0E0E6E3EEC02F0ED
:100A08003C0E166E000E176EA3EC10F0360E166E26
:100A1800000E176E6CEC10F08B908B928B94770E07
:100A2800046E000E056E82EC0FF077C042F0436A48
:100A380078C044F0456A800E42EC14F044C007F0D8
:100A480045C008F0EFEC11F007C030F008C031F0F5
:100A580048C007F049C008F0EFEC11F0071E081E67
:100A6800074A082A07503024346E08503120356E62
:100A780034C001F035C002F0000E046E3C0E036E67
:100A8800B2EC13F001C030F002C031F042C007F000
:100A980043C008F0EFEC11F007503026085031221F
:100AA80046C007F047C008F0EFEC11F0071E081E1B
:100AB800074A082A07503024506E08503120516EDA
:100AC800C00E42EC14F032503310D8B4D3D6000E16
:100AD800766E020E756EF098000ED4EC12F0C00E11
:100AE80042EC14F0DB0E0D6EFD0E0E6E3EEC02F0C5
:100AF800520E076E000E086E50C009F051C00AF081
:100B08008CEC07F0080E316E1B0E306E270EE82EA7
:100B1800FED7302EFCD7312EFAD700F050C023F084
:100B280051C024F0520E256E000E266EA1EC05F081
:100B3800000E766E000E756E1200800E42EC14F0F8
:100B4800F60E0D6EFD0E0E6E3EEC02F0C00E42EC7F
:100B580014F0710E0D6EFE0E0E6E3EEC02F0000EDD
:100B68002D6E000E2C6E000E2F6E000ED7D0E5EC09
:100B780013F001C02CF002C02DF0D2D0800E42EC50
:100B880014F0410E0D6EFE0E0E6E3EEC02F0C00E1D
:100B980042EC14F00D0E0D6EFF0E0E6E23C00FF01A
:100BA80024C010F03EEC02F0D7D0800E42EC14F0D6
:100BB800590E0D6EFE0E0E6E3EEC02F0C00E42ECAB
:100BC80014F0A10E0D6EFE0E0E6E20EE03F02550F1
:100BD800D9262650DA22DF50276E25C0D9FF26C035
:100BE800DAFFDF50286E296A20EE01F02550D92659
:100BF8002650DA22DF502A6E2A502826000E292293
:100C080020EE02F02550D9262650DA22DF502B6E2E
:100C18002B502826000E2922275028240F6E000E5C
:100C28002920106E3EEC02F097D0800E42EC14F0B2
:100C3800E30E0D6EFE0E0E6E3EEC02F0C00E42ECA0
:100C480014F0C60E0D6EFF0E0E6E25C0D9FF26C01D
:100C5800DAFFDF50276E27500F6E106A3EEC02F065
:100C68007BD0800E42EC14F0360E0D6EFF0E0E6E29
:100C78003EEC02F0C00E42EC14F0C60E0D6EFF0EF4
:100C88000E6E20EE01F02550D9262650DA22DF50CC
:100C9800276E27500F6E106A3EEC02F05DD0800E72
:100CA80042EC14F0F80E0D6EFE0E0E6E3EEC02F0E5
:100CB800C00E42EC14F0C60E0D6EFF0E0E6E20EE46
:100CC80002F02550D9262650DA22DF50276E275009
:100CD8000F6E106A3EEC02F03FD0800E42EC14F02A
:100CE800CE0E0D6EFE0E0E6E3EEC02F0C00E42EC05
:100CF80014F0C60E0D6EFF0E0E6E20EE03F025509A
:100D0800D9262650DA22DF50276E27500F6E106A38
:100D18003EEC02F021D0000E2F6E010E2E6E1CD07C
:100D28002CC027F02DC028F02850000AD8A4F3D7EB
:100D38002750000AD8B422D7010AD8B436D7030AF4
:100D4800D8B473D7060AD8B48CD7010AD8B4A7D7B1
:100D5800030AD8B4C2D7DFD72E502F10D8A4120058
:100D680006D70600FACF58F0FBCF59F0E9CF5AF072
:100D7800EACF5BF0E1CF5CF0E2CF5DF0D9CF5EF077
:100D8800DACF5FF0F3CF60F0F4CF61F0F6CF62F026
:100D9800F7CF63F0F8CF64F0F5CF65F0F29EF0A0DE
:100DA8007ED020EEBDF010EE67F0050EDBCFE3FF3E
:100DB800E806FCE281380F0B0F0B666EF09081A2FB
:100DC80062D0FDD7000E766E020E756EFEEC0AF04C
:100DD800000E766E000E756E62D0000E766E010EF5
:100DE800756EF28E0BEC04F0F29E59D0000E686E10
:100DF800010E676E0B0E0A6EB80E096E000E0C6EB1
:100E08000A0E0B6E670E0D6E000E0E6E85EC0AF064
:100E180046D0000E6A6E010E696E0B0E0A6EB80E91
:100E2800096E000E0C6E0A0E0B6E670E0D6E000E2C
:100E38000E6E85EC0AF033D0000E6C6E010E6B6EF0
:100E48000B0E0A6EB80E096E000E0C6E0A0E0B6EB3
:100E5800670E0D6E000E0E6E85EC0AF020D06650FF
:100E6800030AD8B4E9D7040AD8B4D3D70C0AD8B43B
:100E7800BDD7070AD8B42ED0020AD8B4A3D7010A1E
:100E8800D8B4ABD70CD075C056F076C057F05750D1
:100E9800000AD8A404D05650000AD8B4E0D7F0A26B
:100EA80018D0F09208D0000E766E030E756E010E03
:100EB800D4EC12F00CD075C056F076C057F05750ED
:100EC800000AD8A404D05650010AD8B4ECD781B48B
:100ED800FED7F28E65C0F5FF64C0F8FF63C0F7FF68
:100EE80062C0F6FF61C0F4FF60C0F3FF5FC0DAFFC5
:100EF8005EC0D9FF5DC0E2FF5CC0E1FF5BC0EAFFF6
:100F08005AC0E9FF59C0FBFF58C0FAFF7E92110092
:100F18000001DB2BDBC00DF00E6A0E5004E1040E5D
:100F28000D5CD8A006D0040E0D5E000E0E5A0DC042
:100F3800DBF00DC001F00EC002F0000E046E050ECD
:100F4800036EB2EC13F001C00DF002C00EF00DC03C
:100F58000BF00EC00CF0D8900B360C36D8900B3630
:100F68000C36D8900B360C360BC001F00CC002F0D2
:100F780009C003F09FEC13F00D4A0E2A0DC00BF0C8
:100F88000EC00CF0D8900B360C36D8900B360C36B9
:100F9800D8900B360C360BC001F00CC002F007C01D
:100FA800D9FF08C0DAFFDF50036E9FEC13F00D4A3B
:100FB8000E2A0DC00BF00EC00CF0D8900B360C3674
:100FC800D8900B360C36D8900B360C360BC001F087
:100FD8000CC002F020EE01F00750D9260850DA22A2
:100FE800DF50036E9FEC13F00D4A0E2A0DC00BF074
:100FF8000EC00CF0D8900B360C36D8900B360C3649
:10100800D8900B360C360BC001F00CC002F020EE65
:1010180002F00750D9260850DA22DF50036E9FEC01
:1010280013F00D4A0E2A0DC00BF00EC00CF0D8902C
:101038000B360C36D8900B360C36D8900B360C364F
:101048000BC001F00CC002F020EE03F00750D926C7
:101058000850DA22DF50036E9FEC13F00D4A0E2A77
:10106800000E026EA00E016EDBC003F09FEC13F0C1
:1010780012008EC092F00001936B946B00018D35C5
:101088000001923701E39381000192510001956FAD
:1010980000019551D8A40AD0000E00018C6F000EF3
:1010A80000018D6F000E00018E6F120091C092F04A
:1010B8000001936B946B000190350001923701E3B6
:1010C80093810001925100019A6F00019A51D8A4AE
:1010D8000AD0000E00018C6F000E00018D6F000E0B
:1010E80000018E6F120000019A517B0F00019527B5
:1010F8008EC09AF00001915100019A1B800E0001E8
:101108009A1700018D8F0001908FFF0E00018F1735
:10111800FF0E00019017000E00019117000E00014C
:10112800966F000E0001976F000E0001986F070E72
:101138000001996F00018CA10CD000018F510001B2
:101148009627000190510001972300019151000159
:1011580098230001D8908E338D338C330001D890BA
:101168008F37903791370001992FE4D7090E000186
:10117800996F00018CA10CD000018F5100019627B6
:10118800000190510001972300019151000198231B
:101198000001D8908E338D338C330001D89098336A
:1011A800973396330001992FE4D796C080F097C003
:1011B80081F098C082F095C083F09AC084F085ECE5
:1011C80009F080C08CF081C08DF082C08EF01200D2
:1011D8000B6E0B50F4EC13F0076E0750050DF3CFB0
:1011E8000CF0F4CF0DF00CC007F00DC008F0D8904B
:1011F80007360836D89007360836D89007360836A6
:1012080007C001F008C002F00EEC14F0096E0A6A7B
:1012180005C0D9FF06C0DAFF09C0DEFF0AC0DDFF3E
:101228000C4A0D2A0CC007F00DC008F0D8900736FC
:101238000836D89007360836D8900736083607C0DB
:1012480001F008C002F00EEC14F003C0D9FF04C08E
:10125800DAFFDF6E0C4A0D2A20EE01F00350D92682
:101268000450DA220CC007F00DC008F0D8900736F9
:101278000836D89007360836D8900736083607C09B
:1012880001F008C002F00EEC14F0DF6E0C4A0D2AD3
:1012980020EE02F00350D9260450DA220CC007F0E1
:1012A8000DC008F0D89007360836D89007360836AB
:1012B800D8900736083607C001F008C002F00EECD7
:1012C80014F0DF6E0C4A0D2A20EE03F00350D926E5
:1012D8000450DA220CC007F00DC008F0D890073689
:1012E8000836D89007360836D8900736083607C02B
:1012F80001F008C002F00EEC14F0DF6E0C4A0D2A63
:101308001200000183510001D8B408D000018051B7
:101318000001811100018211D8A411D0000E000132
:10132800806F000E0001816F000E0001826F1200B5
:101338000001832B0001D890823381338033000E63
:10134800000180150001856F000E00018115000164
:10135800866FFE0E000182150001876F000185511E
:101368000001861100018711D8B411D0E1D700011E
:10137800832B010E00018027000E00018123000E3F
:10138800000182230001D890823381338033000E1C
:10139800000180150001856F000E00018115000114
:1013A800866FFF0E000182150001876F00018551CD
:1013B8000001861100018711D8B408D0D8D70001E0
:1013C80083070001D890803781378237000181BFB9
:1013D80004D0020E00018361F2D7000183B102D06C
:1013E8000001819F0001D8908333000183510001DF
:1013F8008213000184510001D8B402D00001828F09
:1014080080C080F081C081F082C082F012000FC0DD
:1014180013F0146A156A0E34133601E3148013505E
:10142800166E1650D8A407D0000E0D6E000E0E6E64
:10143800000E0F6E120012C013F0146A156A1134F0
:10144800133601E3148013501B6E1B50D8A407D029
:10145800000E0D6E000E0E6E000E0F6E12001B5069
:101468007B0F16260FC01BF012501B1A800E1B167E
:101478000E8E118EFF0E1016FF0E1116000E12168C
:10148800000E176E000E186E000E196E070E1A6EFB
:101498000DA006D0105017261150182212501922EC
:1014A800D8900F320E320D32D890103611361236CF
:1014B8001A2EEED7090E1A6E0DA006D01050172658
:1014C8001150182212501922D8900F320E320D32B4
:1014D800D8901932183217321A2EEED717C001F0E9
:1014E80018C002F019C003F016C004F01BC005F0C4
:1014F8002CEC0CF001C00DF002C00EF003C00FF090
:10150800120009C001F00AC002F0000E046E0A0EB3
:10151800036EC5EC0EF001C009F002C00AF009061E
:10152800D8A00A0609C014F00AC015F00CBE1200B3
:101538000C5003E10B04D8A0120009C014F00AC033
:1015480015F0000E116E8BB00DD00DC0D9FF0EC076
:10155800DAFFDECF0FF0DDCF10F00F30D8A002D0C9
:10156800010E116E11B002D08B9001D08B80000E4D
:10157800126E8BB20FD020EE02F00D50D9260E500D
:10158800DA22DECF0FF0DDCF10F00F30D8A002D076
:10159800010E126E12B002D08B9201D08B82000E17
:1015A800136E8BB40FD020EE04F00D50D9260E50D8
:1015B800DA22DECF0FF0DDCF10F00F30D8A002D046
:1015C800010E136E13B002D08B9401D08B8415BE1C
:1015D8000DD0155003E11404D8A008D0030EE82E4E
:1015E800FED700F01406D8A01506F1D70B06D8A030
:1015F8000C069CD7000E65D0800E42EC14F0B80E95
:101608000D6EFE0E0E6E3EEC02F0C00E42EC14F0B3
:101618005D0E0D6EFF0E0E6E3EEC02F0E5EC13F063
:101628000150396E030E3918D8A402D0020E396E53
:10163800040E3918D8A402D0030E396E040E39608E
:101648003FD0CFC032F0D0C033F0D1C034F0D2C0D8
:1016580035F0320E036E000E046E370E056E000E66
:10166800066E3950ECEC08F0800E42EC14F0A40E33
:101678000D6EFF0E0E6E39C00FF0106A3EEC02F0D0
:10168800C00E42EC14F0B50E0D6EFF0E0E6E3EEC61
:1016980002F0080E316E1B0E306E270EE82EFED7B4
:1016A800302EFCD7312EFAD700F037C023F038C0DF
:1016B80024F0320E256E000E266EA1EC05F002D045
:1016C800010E366E3650D8A4120096D700019DAF91
:1016D8001DD09BC0A1F09CC0A2F09DC0A3F000014A
:1016E800A11FA21FA31FA12B000EA223A323000E3C
:1016F8000001A12500019B6F000E0001A22100013D
:101708009C6F800E0001A32100019D6F0001A0AF16
:101718001DD09EC0A1F09FC0A2F0A0C0A3F0000100
:10172800A11FA21FA31FA12B000EA223A323000EFB
:101738000001A12500019E6F000E0001A2210001F9
:101748009F6F800E0001A3210001A06F000E000111
:101758009B1B000E00019C1B800E00019D1B000EB0
:1017680000019E1B000E00019F1B800E0001A01BA4
:1017780000019E5100019B5D00019F5100019C5991
:101788000001A05100019D59D8B002D0D890120094
:10179800D8801200000E0001886F000E896F000EBD
:1017A8008A6F000E8B6F00018451000185110001C2
:1017B800861100018711D8B442D0010E00018C6F48
:1017C80008D00001D89084378537863787370001DD
:1017D8008C2B000187AFF5D70001D890883789375F
:1017E8008A378B37000184510001805D00018551E3
:1017F8000001815900018651000182590001875179
:1018080000018359D8A012D0000184510001805FE3
:10181800000185510001815B000186510001825B56
:10182800000187510001835B000188810001D89085
:10183800873386338533843300018C2FCDD788C016
:1018480080F089C081F08AC082F08BC083F01200DA
:101858000450D8B405D0015002100310D8A40CD0FD
:10186800000E016E000E026E000E036E1200042AB6
:10187800D890033202320132000E0114066E000EB7
:101888000214076EFE0E0314086E065007100810A7
:10189800D8B40CD0ECD7042A010E0126000E02227F
:1018A800000E0322D890033202320132000E0114D6
:1018B800066E000E0214076EFF0E0314086E065023
:1018C80007100810D8B406D0E6D70406D890013619
:1018D8000236033602BE03D0020E0460F6D704A017
:1018E800029ED8900432045003120550D8A4038EE7
:1018F80001C001F002C002F003C003F012000001B1
:10190800A66F0001A6519BEC12F080C0A7F081C021
:10191800A8F00001A8BF08D00001A85109E1320EC3
:101928000001A75DD8B004D00001A469A569120020
:101938009A0E00018F6F590E0001906F3F0E000143
:10194800916FA4C088F0A5C089F058EC12F088C047
:101958008CF089C08DF08AC08EF03DEC08F08CC008
:101968009BF08DC09CF08EC09DF0A7C088F0A8C0E9
:1019780089F058EC12F088C09EF089C09FF08AC0A8
:10198800A0F06AEC0BF00001D8B006D0000E000100
:10199800A56F010EA46F1200000E0001A56F000EC6
:1019A800A46F1200D3C0B7F0D4C0B8F0D5C0B9F056
:1019B800D6C0BAF0800E34EC14F0B70E0001A96F4F
:1019C800000E0001AA6F07EC0FF0A9C0B1F0AAC081
:1019D800B2F0B70E0001A96F000E0001AA6F41EC2A
:1019E8000EF0A9C0B3F0AAC0B4F0B70E0001A96FF9
:1019F800000E0001AA6F83EC0EF0A9C0B5F0AAC0D2
:101A0800B6F0810E00018C6FFF0E00018D6FB1C022
:101A18008EF0B2C08FF0B3C090F0B4C091F0B5C0F2
:101A280092F0B6C093F009EC00F0020E0001B06F1E
:101A3800040E0001AF6FBA0EE82EFED7AF2FFCD709
:101A4800B02FFAD700F012001EAE16D01CC022F03C
:101A58001DC023F01EC024F0221E231E241E222A8D
:101A6800000E23222422000E22241C6E000E2320A6
:101A78001D6E800E24201E6E21AE16D01FC022F0CF
:101A880020C023F021C024F0221E231E241E222A57
:101A9800000E23222422000E22241F6E000E232073
:101AA800206E800E2420216E000E1C1A000E1D1AB6
:101AB800800E1E1A000E1F1A000E201A800E211A00
:101AC8001F501C5C20501D5821501E58D8B002D001
:101AD800D8901200D8801200276E275050EC13F0CF
:101AE80001C028F002C029F029BE06D0295007E11C
:101AF800320E285CD8B003D02568266812009A0EEA
:101B0800106E590E116E3F0E126E25C009F026C0D8
:101B18000AF0B8EC12F009C00DF00AC00EF00BC0C4
:101B28000FF00BEC0AF00DC01CF00EC01DF00FC03A
:101B38001EF028C009F029C00AF0B8EC12F009C05C
:101B48001FF00AC020F00BC021F028EC0DF0D8B02F
:101B580005D0000E266E010E256E1200000E266EB0
:101B6800000E256E1200770E0001836F000E000133
:101B7800846FFCEC0DF0800E34EC14F00F0E0001B5
:101B88008C6FFE0E00018D6F7DC08EF000018F6B93
:101B98007CC090F00001916B7BC092F00001936BC8
:101BA80009EC00F0C00E34EC14F0280E00018C6F24
:101BB800FE0E00018D6F79C08EF000018F6B78C02A
:101BC80090F00001916B77C092F00001936B09ECE3
:101BD80000F0030E0001A76F8A0E0001A66F550ED4
:101BE800E82EFED7A62FFCD7A72FFAD700D01200D1
:101BF800F29E56EC14F0000E0001826FD00E816F39
:101C080048EC14F0000E0001826F000E816F48EC62
:101C180014F052EC14F056EC14F0000E0001826F30
:101C2800D10E816F48EC14F0000E0001856F050E8F
:101C38000001856501D012D000018551010DF350D6
:101C480000018325D96EF45000018421DA6E010E5B
:101C580024EC13F0DF6E0001852BE9D7000120EE9C
:101C680006F08351D9268451DA22000E24EC13F0B1
:101C7800DF6E52EC14F0F28E1200EE0E00018C6F43
:101C8800FF0E00018D6F09EC00F0010E0001A56F39
:101C9800320EA46F000E83EC0CF0A4C0ADF0A5C00A
:101CA800AEF0ADC0A6F0AEC0A7F00BEC13F011D0AB
:101CB800000120EE01F0A951D926AA51DA22DF2A23
:101CC800000120EE03F0A951D926AA51DA22DF2A11
:101CD80011D0ADC0ABF0AEC0ACF00001AC51000A01
:101CE800D8A408D00001AB51000AD8B4E9D7010A3A
:101CF800D8B4DED7ADC0A9F0AEC0AAF01200F10E7C
:101D080000018C6FFF0E00018D6F09EC00F0020ED0
:101D18000001A56FEA0EA46F050E83EC0CF0A4C0B9
:101D2800ADF0A5C0AEF0ADC0A6F0AEC0A7F00BEC0C
:101D380013F011D0000120EE02F0A951D926AA51C2
:101D4800DA22DF2A000120EE03F0A951D926AA5190
:101D5800DA22DF2A11D0ADC0ABF0AEC0ACF0000182
:101D6800AC51000AD8A408D00001AB51000AD8B47D
:101D7800E9D7010AD8B4DED7ADC0A9F0AEC0AAF041
:101D88001200000E066E04AE06D0036C041ED8B016
:101D9800042A010E066E02AE06D0016C021ED8B0EF
:101DA800022A010E061A000E086E000E076E035076
:101DB8000410D8B41CD0010E056E04D0D890033698
:101DC8000436052A04AEFAD7D890073608360350E9
:101DD800015C04500258D8A005D00350015E04509D
:101DE800025A0780D89004320332052EEDD70650E8
:101DF800D8B404D0076C081ED8B0082A07C001F070
:101E080008C002F01200E50E00018C6FFF0E000101
:101E18008D6F09EC00F0010E0001A56F320EA46F62
:101E2800020E83EC0CF0A4C0ADF0A5C0AEF0ADC0BE
:101E3800A6F0AEC0A7F00BEC13F00ED0A9C0D9FFE6
:101E4800AAC0DAFFDF2A000120EE03F0A951D92643
:101E5800AA51DA22DF2A11D0ADC0ABF0AEC0ACF087
:101E68000001AC51000AD8A408D00001AB51000A07
:101E7800D8B4E9D7010AD8B4E1D7ADC0A9F0AEC04B
:101E8800AAF01200000E0001856F000E846F000199
:101E9800825100018311D8B42CD0010E0001866F45
:101EA80006D00001D890823783370001862B0001C5
:101EB80083AFF7D70001D890843785370001825166
:101EC8000001805D0001835100018159D8A00AD02A
:101ED800000182510001805F000183510001815B94
:101EE800000184810001D890833382330001862F5A
:101EF800E1D784C080F085C081F01200F29E5EECCC
:101F080014F0000E036ED00E026E4DEC14F0000EAD
:101F1800036E000E026E4DEC14F05AEC14F05EECF9
:101F280014F0000E036ED10E026E4DEC14F0000E8C
:101F3800066E050E066401D00ED00650010DF35052
:101F48000424D96EF4500520DA6E010E8CEC13F0DF
:101F5800DF6E062AEED720EE06F00450D92605508B
:101F6800DA22000E8CEC13F0DF6E5AEC14F0F28ECD
:101F78001200EE0E0D6EFF0E0E6E3EEC02F0010E1C
:101F8800266E320E256E000E70EC0DF025C02EF078
:101F980026C02FF02EC023F02FC024F065EC13F0DC
:101FA8000FD020EE01F02A50D9262B50DA22DF2A52
:101FB80020EE03F02A50D9262B50DA22DF2A0FD040
:101FC8002EC02CF02FC02DF02D50000AD8A407D019
:101FD8002C50000AD8B4ECD7010AD8B4E2D72EC0E6
:101FE8002AF02FC02BF01200F10E0D6EFF0E0E6EB0
:101FF8003EEC02F0020E266EEA0E256E050E70EC1F
:102008000DF025C02EF026C02FF02EC023F02FC0D3
:1020180024F065EC13F00FD020EE02F02A50D926F8
:102028002B50DA22DF2A20EE03F02A50D9262B5033
:10203800DA22DF2A0FD02EC02CF02FC02DF02D5021
:10204800000AD8A407D02C50000AD8B4ECD7010A4B
:10205800D8B4E2D72EC02AF02FC02BF01200E50E1C
:102068000D6EFF0E0E6E3EEC02F0010E266E320E65
:10207800256E020E70EC0DF025C02EF026C02FF054
:102088002EC023F02FC024F065EC13F00DD02AC029
:10209800D9FF2BC0DAFFDF2A20EE03F02A50D92619
:1020A8002B50DA22DF2A0FD02EC02CF02FC02DF0B3
:1020B8002D50000AD8A407D02C50000AD8B4ECD769
:1020C800010AD8B4E4D72EC02AF02FC02BF0120092
:1020D80020EE04F01650D9261750DA22DECF18F079
:1020E800DDCF19F020EE02F01650D9261750DA226B
:1020F800DECF1AF0DDCF1BF016C0D9FF17C0DAFF0C
:10210800DECF1CF0DDCF1DF01A501C261B501D22FF
:1021180018501C2619501D221C501D10D8B412002E
:102128000B0E0A6EB80E096E000E0C6E600E0B6E6A
:1021380016C00DF017C00EF085EC0AF0120020EE64
:1021480004F01650D9261750DA22DECF18F0DDCF6A
:1021580019F020EE02F01650D9261750DA22DECFF9
:102168001AF0DDCF1BF016C0D9FF17C0DAFFDECF9B
:102178001CF0DDCF1DF01A501C261B501D221850D4
:102188001C2619501D221C501D10D8B41200010E17
:102198000A6E2C0E096E050E0C6E780E0B6E16C0AC
:1021A8000DF017C00EF085EC0AF012000001816FE7
:1021B80000018151F00B0001806F8C500F0B8C6E69
:1021C800000180518C108C6E8C96100EE82EFED774
:1021D80000D08C86100EE82EFED700D00001813981
:1021E800F00B0001816F00018151F00B0001806F3D
:1021F8008C500F0B8C6E000180518C108C6E8C965D
:10220800100EE82EFED700D08C86100EE82EFED7D2
:1022180000D012000001895100018A11D8B426D0DB
:10222800010E00018B6F06D00001D89089378A37DC
:1022380000018B2B00018AAFF7D7000189510001FB
:10224800875D00018A5100018859D8A008D0000193
:1022580089510001875F00018A510001885B0001F4
:10226800D8908A33893300018B2FE7D787C087F04E
:1022780088C088F01200000EC76E280EC66E000EC9
:10228800C56E000E0001806F120E816F7A0E826F8C
:10229800000E836F8DC091F08EC092F08FC093F0C6
:1022A80090C094F0020ED89000019137923793377E
:1022B8009437E82EF8D791C084F092C085F093C087
:1022C80086F094C087F0CEEC0BF000018005C86E54
:1022D80094869488120092689368000E946E000E9B
:1022E800956E0F0E966E13EC12F0000E896E000EAE
:1022F8008A6E000E8B6E000E8C6E000E8D6E000EB8
:10230800C26E090EC16E000EB56EC08E010E34ECA1
:1023180014F0100E00018D6F270E8E6F000E8F6F58
:10232800000E906F3FEC11F0C5EC13F01200026E36
:102338000250F00B016E8C500F0B8C6E01508C10FC
:102348008C6E8C96100EE82EFED700D08C86100E60
:10235800E82EFED700D00238F00B026E0250F00BC8
:10236800016E8C500F0B8C6E01508C108C6E8C96FD
:10237800100EE82EFED700D08C86100EE82EFED761
:1023880000D01200000E066E000E056E03500410F9
:10239800D8B41CD0010E076E04D0D890033604368A
:1023A800072A04AEFAD7D890053606360350015CE2
:1023B80004500258D8A005D00350015E0450025AB8
:1023C8000580D89004320332072EEDD705C001F0FE
:1023D80006C002F0120007C009F008C00AF0040E97
:1023E8000B6ED8900A3209320B2EFBD709C00CF0BD
:1023F8000AC00DF00F0E07140E6E0F6A0CC001F024
:102408000DC002F0000E046E0A0E036EB2EC13F05B
:102418000E500124076E0F500220086E1200270E7E
:102428000001836FF50EE82EFED7832FFCD7330EFD
:1024380034EC14F0320E34EC14F0280E34EC14F0B2
:102448000F0E34EC14F0060E34EC14F0010E34ECDC
:1024580014F0270E0001836FF50EE82EFED7832FA8
:10246800FCD712006FEC11F0800E34EC14F04A0E19
:1024780000018C6FFF0E00018D6F09EC00F0060E55
:102488000001BC6F130E0001BB6FAD0EE82EFED726
:10249800BB2FFCD7BC2FFAD700D0D6EC0CF0FDD759
:1024A800B7EC0DF0FDD7FF00000E00018B6F0001A7
:1024B80089AF08D00001886D891FD8B0892B010E1B
:1024C80000018B6F88C080F089C081F00001826BA9
:1024D8008E0E0001836F8BC084F085EC09F080C0FC
:1024E80088F081C089F082C08AF012000A500B106F
:1024F800D8B418D0010E0C6E04D0D8900A360B361A
:102508000C2A0BAEFAD70A50085C0B500958D8A011
:1025180004D00A50085E0B50095AD8900B320A3280
:102528000C2EF1D708C008F009C009F0120000010C
:10253800846F00018445E846FC0BC26EC280C282EB
:10254800C2B2FED7C350C4CF82F00001836B82C0F1
:1025580083F00001826B000182110001806F00018D
:1025680083510001816F1200000E0C6E0AAE06D076
:10257800096C0A1ED8B00A2A010E0C6E09C001F0B7
:102588000AC002F0036A8E0E046E0CC005F02CEC33
:102598000CF001C009F002C00AF003C00BF01200F1
:1025A800256EF29E000E8B6E800E42EC14F02550C4
:1025B800D8A404D06F0E236EFF0E03D0220E236E14
:1025C800FF0E246E23C00DF024C00EF03EEC02F086
:1025D8002550D8B41200FFD70001805100018203B2
:1025E800F3CF84F0F4CF85F000018051000183031C
:1025F800F350000185270001815100018203F35047
:102608000001852784C080F085C081F01200000198
:10261800A7AF09D0E90E00018C6FFF0E00018D6F86
:1026280009EC00F01200DF0E00018C6FFF0E0001B4
:102638008D6FA6C08EF0A7C08FF009EC00F01200D5
:102648000001816F19EC14F0C58619EC14F0C9CF9C
:1026580082F019EC14F0000181510001D8A402D0D5
:10266800C58A01D0C59AC5880001825112000001AF
:10267800826F000E0001816F3A0E0001826107D05F
:102688002F0E0001826503D0010E0001816F81C009
:1026980080F0000180311200056E0544E846FC0B0D
:1026A800C26EC280C282C2B2FED7C350C4CF03F08A
:1026B800046A03C004F0036A0310016E0450026E3A
:1026C800120024AE07D0E90E0D6EFF0E0E6E3EEC22
:1026D80002F01200DF0E0D6EFF0E0E6E23C00FF01B
:1026E80024C010F03EEC02F0120000EEBDF01F0E08
:1026F800EE6AE806FDE100EE6DF0110EEE6AE806FE
:10270800FDE17E907E92000EF86E000136EF12F029
:10271800026E23EC14F0C58623EC14F0C9CF03F045
:1027280023EC14F00250D8A402D0C58A01D0C59A6F
:10273800C588035012000250AA6E01C0A9FF03C049
:10274800A8FFA69EA69CA684550EA76EAA0EA76EE5
:10275800A682A1A8FED7A198A69412000150030250
:10276800F3CF05F0F4CF06F001500402F35006262B
:1027780002500302F350062605C001F006C002F01D
:102788001200000E0001816FA00E806F02EC14F0A1
:102798000001DB6F030E0001DB651200000E000173
:1027A800DB6F1200036E000E026E3A0E036005D056
:1027B8002F0E036402D0010E026E02C001F0013038
:1027C8001200F29E81A2FED781380F0B0F0B036E09
:1027D80081B2FED7F090F28E03C001F0026A1200B7
:1027E800016E015000080001DB25040F026E040E83
:1027F800026402D0040E025E0250120000018151F0
:10280800AA6E80C0A9FFA69EA69CA680A6B0FED7E9
:10281800A85012000250AA6E01C0A9FFA69EA69C4D
:10282800A680A6B0FED7A8501200C7B4FED7C5CF61
:1028380080F01F0E00018017D8B41200F6D7C7B475
:10284800FED7C5CF01F01F0E0116D8B41200F7D776
:102858000001826F8C8400018251DAEC10F01200C2
:102868000001826F8C9400018251DAEC10F01200A2
:10287800036E8C8403509BEC11F01200036E8C9451
:1028880003509BEC11F0120019EC14F081C0C9FF41
:10289800120023EC14F002C0C9FF120019EC14F066
:1028A800C584120019EC14F0C580120023EC14F052
:0C28B800C584120023EC14F0C58012004F
:10FDC8000001000A006400E8031027010010000089
:10FDD800010010536F7274696E6720436F6D706C09
:10FDE80065746520202020202020202020005072CB
:10FDF8006573732061206E756D6265722020202006
:10FE08002020202020200020202020253032782F7C
:10FE1800253032782F2530327820202020202000ED
:10FE280020202020253032783A253032783A253083
:10FE380032782020202020200054696D6520456CF0
:10FE480061707365643A2020202020202020202023
:10FE580000546F74616C20536F727465643A20208B
:10FE6800202020202020202000466F72206D6F72F5
:10FE78006520696E666F2020202020202020202009
:10FE88000053696D756C6174696E672E2E2E202083
:10FE980020202020202020200025752062617474F5
:10FEA80065726965732020202020202020202000F2
:10FEB8005065726D616E656E74206C6F673A2020B4
:10FEC800202020202000556E636861726765643ABF
:10FED8002020202020202020202000414120536F76
:10FEE800727465643A2020202020202020202000E1
:10FEF800395620536F727465643A202020202020E0
:10FF080020202020002575207365636F6E647320A0
:10FF180020202020202020202000456D6572676564
:10FF28006E637920202020202020202020004320DC
:10FF3800536F727465643A202020202020202020EE
:10FF4800200057656C636F6D6521202020202020DC
:10FF5800202020200057686963682072756E3F2052
:10FF68002020202020200053746F707065642020AA
:10FF7800202020202020202000412025642C432000
:10FF880025642C3920256420202000303132333478
:10FF980035363738396162636465660073686F7730
:10FFA800696E672025752020202020200072756E3C
:10FFB80073206265666F72652020202020002575F9
:10FFC80020202020202020202020202020004D61DB
:10FFD800696E6C6F6F700020256420002041413AE3
:10FFE800002D31200020433A0039563A00202B00DA
:07FFF800202D002030000065
:020000040020DA
:08000000FFFFFFFFFFFFFFFF00
:020000040030CA
:0E000000FF021F1EFF8381FF0FC00FE00F40A5
:00000001FF
