:0400000007EF00F016
:100008007F8221ED1DF044EF28F0410E0101536F6E
:10001800010E0101546FF9EF05F0250E01016A196F
:10002800D8B406D001016A517BEC28F0F9EF05F04D
:10003800000E0101696F000E686F000E0101646F08
:10004800000E636F05D00101638501013F4B402B12
:100058003FC1F6FF40C1F7FF0800F550300AD8B499
:10006800F2D73FC1F6FF40C1F7FF0800F55092EC08
:1000780027F0D8A096D0000E0101696F000E686FB6
:1000880068C10EF169C10FF1000E0101116F0A0E6E
:10009800106FFFEC26F00EC168F10FC169F1D00EA8
:1000A8000101476FFF0E0101486F3FC1F6FF40C1D4
:1000B800F7FF0800F5500101496F4A6B01014751EC
:1000C800010149270101485101014A230101495110
:1000D8000101682701014A510101692301013F4BD0
:1000E800402B3FC1F6FF40C1F7FF0800F55092ECE6
:1000F80027F0D8A056D0C4D7010164856BD0010180
:10010800638F68D0010168510101555D0101695192
:1001180001015659D8B009D0010155510101685F54
:10012800010156510101695B09D0000E0101696F97
:10013800000E686F03D0200E7BEC28F001016807E1
:10014800D8A0690701016829F6E101016929D8B435
:100158000BD0F1D751C1D9FF52C1DAFFDF507BEC88
:1001680028F00101514B522B01015507D8A0560721
:1001780001015529EFE101015629D8B4F9EF05F03D
:10018800E9D76A0E0101516F010E0101526F000E8D
:100198000101566F010E556FB5D7C00E01016313EB
:1001A80019D03FC1F6FF40C1F7FF01013F4B402B7B
:1001B8000800F5CF6AF101016A51000AD8B41200AB
:1001C800660AD8B499D7130AD8B4E7D70D0AD8B4B1
:1001D80096D7D7D7070E01016415D8B47AD3000E85
:1001E80001015C6F060E5B6F53C1D9FF54C1DAFF82
:1001F800DECF65F1DECF66F1DDCF67F1030E0101D9
:100208005327000E5423010167AF11D065C100F1D7
:1002180066C101F167C102F135EC27F000C165F153
:1002280001C166F102C167F1030E01016313000EFB
:100238000101626F000E616F0101655101016611D4
:1002480001016711D8B49BD0820E0101476FFF0EE0
:100258000101486F65C149F166C14AF167C14BF1B7
:1002680068C14CF1100E06D00101D8904C334B33C5
:100278004A334933E82EF8D701014951010147258E
:100288000101616F000E010148210101626F010146
:100298006107D8A0620761C10EF162C10FF1000EBB
:1002A8000101116F030E106FFFEC26F00EC161F112
:1002B8000FC162F161C106F162C107F1000E0101CF
:1002C800096F0A0E086F0EEC21F006C161F107C133
:1002D80062F1010162AF04D001016107D8A0620791
:1002E800010161510008FBEC0AF023C15DF124C152
:1002F8005EF125C15FF15DC114F15EC115F15FC109
:1003080016F165C117F166C118F167C119F107EC5B
:1003180019F014C15DF115C15EF116C15FF15DC13F
:1003280000F15EC101F15FC102F1000E0101036F2E
:10033800800E0101046F3F0E0101056F47EC20F0AC
:100348000101D8B005D001016107D8A0620717D014
:100358005DC100F15EC101F15FC102F1000E010152
:10036800036F200E0101046F410E0101056F47EC78
:1003780020F00101D8A003D00101614B622B0101DB
:100388005CBF08D001015C511DE10D0E01015B5DF0
:10039800D8B018D065C12DF166C12EF167C12FF113
:1003A80001015B5136EC11F023C130F124C131F168
:1003B80025C132F18CEC12F02DC165F12EC166F128
:1003C8002FC167F1010162BF08D0010162512AE122
:1003D8000A0E0101615DD8B025D001016551010106
:1003E800661101016711D8B463D065C12AF166C1ED
:1003F8002BF167C12CF1B6EC19F001012A5101016A
:100408002B1101012C1101012D11D8A451D001018A
:1004180062BF4ED00101625105E1020E0101615D2A
:10042800D8A046D05DC100F15EC101F15FC102F103
:10043800700E0101036F890E0101046F400E010166
:10044800056F47EC20F00101D8B003D00101F70E89
:1004580002D00101F80E6127FF0E622301016151EC
:10046800FBEC0AF023C15DF124C15EF125C15FF107
:1004780065C100F166C101F167C102F15DC103F117
:100488005EC104F15FC105F1C3EC16F000C157F17C
:1004980001C158F102C159F103C15AF1000E01011D
:1004A800656F000E0101666F000E0101676F33D0A2
:1004B80065C12AF166C12BF167C12CF1B6EC19F0C0
:1004C8002AC157F12BC158F12CC159F12DC15AF14C
:1004D80065C139F166C13AF167C13BF157C108F10D
:1004E80058C109F159C10AF15AC10BF154EC24F071
:1004F80008C13CF109C13DF10AC13EF131EC26F0D9
:1005080039C165F13AC166F13BC167F1000E0101DD
:10051800626F000E616F010E01016A6F0A0E010120
:100528006A19D8B41ED001016A51040DE10EF324F2
:10053800F66EFB0EF420F76E0900F5500101575DC9
:100548000900F550010158590900F55001015959A0
:100558000900F55001015A59D8A003D001016A2BAE
:10056800DDD76AC147F10101486B47BF4807010160
:100578005B510101472701015C5101014823010139
:10058800615101014727010162510101482301011D
:1005980047510101685F010148510101695B01018F
:1005A8005B5101015C11D8B404D001016807D8A0DF
:1005B8006907030E010163150101476F000E010170
:1005C80064150101486F0101475101014811D8B470
:1005D80004D001016807D8A06907010163A52DD0DF
:1005E800030E010163150101476F000E0101641537
:1005F8000101486F0101475101014811D8B40BD0DE
:100608002D0E7BEC28F007D0300E7BEC28F0010192
:100618006807D8A06907010169BF74D00101695151
:10062800F3E101016805D8A06DD0EED7200E7BEC70
:1006380028F001016807D8A06907010169BF07D040
:1006480001016951F3E101016805D8B0EFD7030E44
:10065800010163150101476F000E010164150101D5
:10066800486F0101475101014811D8B44BD02D0EF4
:100678007BEC28F047D057C100F158C101F159C1AE
:1006880002F15AC103F101016A51040DE10EF3248C
:10069800F66EFB0EF420F76E0900F5CF04F10900A1
:1006A800F5CF05F10900F5CF06F10A00F5CF07F1FE
:1006B8006DEC21F000C15DF101C15EF102C15FF195
:1006C80003C160F15DC10DF15EC10EF15FC10FF1B3
:1006D80060C110F10A0E0101116F000E126F000EB9
:1006E800136F000E146F73EC22F00DC15DF10EC193
:1006F8005EF10FC15FF110C160F101015D51300F72
:100708007BEC28F001016A0701016A29D8B408D0F6
:10071800B2D7300E7BEC28F001016107D8A0620740
:10072800010162BF07D001016251F3E101016105D6
:10073800D8B0EFD701015CBF0CD001015C5105E1D5
:10074800090E01015B5DD8A004D0080E01016A6F93
:1007580002D05BC16AF101016A5101015B5F000EC1
:1007680001016ABFFF0E01015C5B01016A510101D1
:10077800D8B403D02E0E7BEC28F001016A51FBECB3
:100788000AF023C14DF124C14EF125C14FF165C1D5
:1007980017F166C118F167C119F14DC114F14EC1C5
:1007A80015F14FC116F107EC19F014C12AF115C162
:1007B8002BF116C12CF1B6EC19F02AC157F12BC157
:1007C80058F12CC159F12DC15AF16ED057C100F121
:1007D80058C101F159C102F15AC103F101016A512D
:1007E800040DE10EF324F66EFB0EF420F76E0900FB
:1007F800F5CF04F10900F5CF05F10900F5CF06F1B1
:100808000A00F5CF07F16DEC21F000C15DF101C1DF
:100818005EF102C15FF103C160F15DC10DF15EC11E
:100828000EF15FC10FF160C110F10A0E0101116FE5
:10083800000E126F000E136F000E146F73EC22F08F
:100848000DC15DF10EC15EF10FC15FF110C160F124
:1008580001015D51300F7BEC28F057C10DF158C1F3
:100868000EF159C10FF15AC110F101016A51040D7D
:10087800E10EF324F66EFB0EF420F76E0900F5CFB7
:1008880011F10900F5CF12F10900F5CF13F10A00B3
:10089800F5CF14F173EC22F00DC157F10EC158F1E8
:1008A8000FC159F110C15AF101016A0701016A2902
:1008B800D8B408D08BD7300E7BEC28F001015B0749
:1008C800D8A05C0701015B5101015C11D8B48DD13E
:1008D800F2D753C1D9FF54C1DAFFDECF47F1DDCFDC
:1008E80048F147C157F148C158F10101596B5A6B9A
:1008F800020E01015327000E54234CD0010E0101B2
:100908006A6F0A0E01016A19D8B44DD001016A5103
:10091800040DE10EF324F66EFB0EF420F76E0900C9
:10092800F5500101575D0900F550010158590900BA
:10093800F550010159590900F55001015A59D8A03B
:1009480032D001016A2BDDD7010E01016A6F080E52
:1009580001016A19D8B427D001016A51040D570E54
:10096800F324F66EFC0EF420F76E0900F550010131
:10097800575D0900F550010158590900F55001016A
:1009880059590900F55001015A59D8A00CD0010154
:100998006A2BDDD701016351C00B800AD8B4D4D7C4
:1009A800400AD8B4ABD70101685101016911D8B424
:1009B80014D0030E010163150101476F000E0101F8
:1009C80064150101486F0101475101014811D8B46C
:1009D80004D001016807D8A06907800E01016ABF29
:1009E8007F0E0101476F0101685101016A5D010134
:1009F8006951800A01014759D8B00BD001016A51E9
:100A08000101685F000E01016ABFFF0E0101695B09
:100A180005D0000E0101696F000E686F010163A522
:100A280021D0030E010163150101476F000E01017A
:100A380064150101486F0101475101014811D8B4FB
:100A480003D02D0E7BEC28F00101685101016911DA
:100A5800D8B42ED0300E7BEC28F001016807D8A05E
:100A68006907F2D70101685101016911D8B40DD0A5
:100A7800200E7BEC28F001016807D8A06907010166
:100A8800685101016911D8A4F3D7030E0101631558
:100A98000101476F000E010164150101486F010152
:100AA800475101014811D8B403D02D0E7BEC28F032
:100AB80001016A5101015B6F5C6B5BBF5C078AD007
:100AC8005BC147F15CC148F10101D890473748370D
:100AD8000101D89047374837E10E01014725F66EE6
:100AE800FB0E4821F76E0900F5CF04F10900F5CF98
:100AF80005F10900F5CF06F10A00F5CF07F157C156
:100B080000F158C101F159C102F15AC103F16DEC6C
:100B180021F000C10DF101C10EF102C10FF103C1B5
:100B280010F10A0E0101116F000E126F000E136F03
:100B3800000E146F73EC22F001010D51300F01010A
:100B48006A6F44D057C100F158C101F159C102F18F
:100B58005AC103F15BC147F15CC148F10101D8906A
:100B6800473748370101D89047374837570E0101B2
:100B78004725F66EFC0E4821F76E0900F5CF04F103
:100B88000900F5CF05F10900F5CF06F10A00F5CF08
:100B980007F16DEC21F0010100510F0B0101506FBD
:100BA80001015051010D440EF324F66EFF0EF4209E
:100BB800F76E0800F5CF6AF109D001016351C00B47
:100BC800800AD8B4BFD7400AD8B47AD701016A518D
:100BD8007BEC28F001015B07D8A05C0701015B29C9
:100BE800ECE101015C29D8A4E8D73FC1F6FF40C178
:100BF800F7FF01013F4B402B0800F5CF6AF10101D7
:100C08006A51D8B4120011EF00F0490E596E000E67
:100C18005A6EEDEF0AF0250E7018D8B405D0705052
:100C28008BEC28F0EDEF0AF0000E6F6E000E6E6E82
:100C3800000E6A6E000E696E03D06984474A482A1E
:100C480047C0F6FF48C0F7FF0800F550300AD8B48F
:100C5800F4D747C0F6FF48C0F7FF0800F55018EC76
:100C680028F0D8A072D0000E6F6E000E6E6E6EC0A7
:100C78000FF06FC010F0000E126E0A0E116EE2EC4B
:100C880027F00FC06EF010C06FF0D00E4D6EFF0E43
:100C98004E6E47C0F6FF48C0F7FF0800F5504F6E8C
:100CA800506A4D504F264E5050224F506E2650508D
:100CB8006F22474A482A47C0F6FF48C0F7FF080096
:100CC800F55018EC28F0D8A040D0D1D76A8454D079
:100CD800698E52D06E505B5C6F505C58D8B005D0AE
:100CE8005B506E5E5C506F5A08D0000E6F6E000E3F
:100CF8006E6E03D0200E8BEC28F06E06D8A06F061F
:100D08006E28F8E16F28D8B40AD0F4D756C0D9FFB6
:100D180057C0DAFFDF508BEC28F0564A572A5B069B
:100D2800D8A05C065B28F2E15C28D8B4EDEF0AF0A5
:100D3800EDD7700E566E000E576E000E5C6E010EEB
:100D48005B6EC8D7C00E691217D047C0F6FF48C0FF
:100D5800F7FF474A482A0800F5CF70F07050000A9C
:100D6800D8B41200660AD8B4B1D7130AD8B4EAD7EF
:100D78000D0AD8B4ADD7DDD7070E6A14D8B4ECD2B3
:100D8800000E626E060E616E59C0D9FF5AC0DAFFB6
:100D9800DECF6BF0DECF6CF0DDCF6DF0030E5926A1
:100DA800000E5A226DAE10D06BC001F06CC002F07C
:100DB8006DC003F0F5EC27F001C06BF002C06CF0D9
:100DC80003C06DF0030E6912000E686E000E676EA8
:100DD8006B506C106D10D8B483D0820E4D6EFF0E20
:100DE8004E6E6BC04FF06CC050F06DC051F06EC0CD
:100DF80052F0100E05D0D8905232513250324F3244
:100E0800E82EF9D74F504D24676E000E4E20686EBD
:100E18006706D8A0680667C00FF068C010F0000E1B
:100E2800126E030E116EE2EC27F00FC067F010C0CF
:100E380068F067C007F068C008F0000E0A6E0A0E76
:100E4800096E90EC23F007C067F008C068F068AE40
:100E580003D06706D8A068066750000852EC0DF06A
:100E68002BC063F02CC064F02DC065F063C01CF08B
:100E780064C01DF065C01EF06BC01FF06CC020F090
:100E88006DC021F09DEC1DF01CC063F01DC064F026
:100E98001EC065F063C02BF064C02CF065C02DF057
:100EA800000E2E6E800E2F6E3F0E306EC0EC22F0BC
:100EB800D8B004D06706D8A0680612D063C02BF05B
:100EC80064C02CF065C02DF0000E2E6E200E2F6E23
:100ED800410E306EC0EC22F0D8A002D0674A682AD2
:100EE80062BE06D062501BE10D0E615CD8B017D00F
:100EF8006BC035F06CC036F06DC037F06150C0EC97
:100F080013F02BC038F02CC039F02DC03AF0EDECBE
:100F180015F035C06BF036C06CF037C06DF068BEA8
:100F280006D068501EE10A0E675CD8B01AD06B5024
:100F38006C106D10D8B451D06BC02BF06CC02CF075
:100F48006DC02DF017EC1EF02B502C102D102E100C
:100F5800D8B468BE42D0685004E1020E675CD8A0DD
:100F68003CD063C02BF064C02CF065C02DF0700E2F
:100F78002E6E890E2F6E400E306EC0EC22F0D8B067
:100F880002D0F70E01D0F80E6726FF0E68226750D0
:100F980052EC0DF02BC063F02CC064F02DC065F04E
:100FA8006BC001F06CC002F06DC003F063C004F0C8
:100FB80064C005F065C006F058EC1AF001C05DF099
:100FC80002C05EF003C05FF004C060F0000E6B6EFC
:100FD800000E6C6E000E6D6E32D06BC02BF06CC0C4
:100FE8002CF06DC02DF017EC1EF02BC05DF02CC05E
:100FF8005EF02DC05FF02EC060F06BC041F06CC099
:1010080042F06DC043F05DC009F05EC00AF05FC0F9
:101018000BF060C00CF0D8EC25F009C044F00AC011
:1010280045F00BC046F0C3EC26F041C06BF042C05F
:101038006CF043C06DF0000E686E000E676E010E16
:10104800706E0A0E7018D8B418D07050040DE10EE6
:10105800F324F66EFB0EF420F76E0900F5505D5C84
:101068000900F5505E580900F5505F580900F55021
:101078006058D8A002D0702AE4D770C04DF04E6AEC
:101088004DBE4E0661504D2662504E2267504D2689
:1010980068504E224D506E5E4E506F5A615062102D
:1010A800D8B403D06E06D8A06F06030E69144D6E2F
:1010B800000E6A144E6E4D504E10D8B403D06E0612
:1010C800D8A06F0669A422D0030E69144D6E000ED5
:1010D8006A144E6E4D504E10D8B40AD02D0E8BECBB
:1010E80028F006D0300E8BEC28F06E06D8A06F06DC
:1010F8006FBE65D06F50F6E16E04D8A060D0F2D70D
:10110800200E8BEC28F06E06D8A06F066FBE05D0B7
:101118006F50F6E16E04D8B0F3D7030E69144D6E24
:10112800000E6A144E6E4D504E10D8B448D02D0E95
:101138008BEC28F044D05DC001F05EC002F05FC0C7
:1011480003F060C004F07050040DE10EF324F66E55
:10115800FB0EF420F76E0900F5CF05F00900F5CF76
:1011680006F00900F5CF07F00A00F5CF08F013ECF8
:1011780024F001C063F002C064F003C065F004C04D
:1011880066F063C00EF064C00FF065C010F066C072
:1011980011F00A0E126E000E136E000E146E000E81
:1011A800156E75EC25F00EC063F00FC064F010C02A
:1011B80065F011C066F06350300F8BEC28F07006B4
:1011C8007028D8B407D0B7D7300E8BEC28F0670654
:1011D800D8A0680668BE05D06850F6E16704D8B0A4
:1011E800F3D762BE09D0625004E1090E615CD8A051
:1011F80003D0080E706E02D061C070F07050615E4E
:10120800000E70BEFF0E625A7050D8B403D02E0E76
:101218008BEC28F0705052EC0DF02BC053F02CC022
:1012280054F02DC055F06BC01FF06CC020F06DC09D
:1012380021F053C01CF054C01DF055C01EF09DECA9
:101248001DF01CC02BF01DC02CF01EC02DF017EC9B
:101258001EF02BC05DF02CC05EF02DC05FF02EC0DC
:1012680060F06AD05DC001F05EC002F05FC003F0BC
:1012780060C004F07050040DE10EF324F66EFB0E0E
:10128800F420F76E0900F5CF05F00900F5CF06F058
:101298000900F5CF07F00A00F5CF08F013EC24F0A9
:1012A80001C063F002C064F003C065F004C066F0DA
:1012B80063C00EF064C00FF065C010F066C011F096
:1012C8000A0E126E000E136E000E146E000E156ECE
:1012D80075EC25F00EC063F00FC064F010C065F027
:1012E80011C066F06350300F8BEC28F05DC00EF033
:1012F8005EC00FF05FC010F060C011F07050040DB8
:10130800E10EF324F66EFB0EF420F76E0900F5CF1C
:1013180012F00900F5CF13F00900F5CF14F00A0018
:10132800F5CF15F075EC25F00EC05DF00FC05EF03E
:1013380010C05FF011C060F070067028D8B407D0F4
:1013480091D7300E8BEC28F06106D8A06206615068
:101358006210D8B43ED1F5D759C0D9FF5AC0DAFFC8
:10136800DECF4DF0DDCF4EF04DC05DF04EC05EF0EB
:101378005F6A606A020E5926000E5A223CD0010E9E
:10138800706E0A0E7018D8B43ED07050040DE10E7D
:10139800F324F66EFB0EF420F76E0900F5505D5C41
:1013A8000900F5505E580900F5505F580900F550DE
:1013B8006058D8A028D0702AE4D7010E706E080EA5
:1013C8007018D8B420D07050040D570EF324F66E60
:1013D800FC0EF420F76E0900F5505D5C0900F5502D
:1013E8005E580900F5505F580900F5506058D8A0BC
:1013F8000AD0702AE4D76950C00B800AD8B4DDD768
:10140800400AD8B4BCD76E506F10D8B40DD0030EB4
:1014180069144D6E000E6A144E6E4D504E10D8B4BD
:1014280003D06E06D8A06F06800E70BE7F0E4D6E7C
:101438006E50705C6F50800A4D58D8B007D070500D
:101448006E5E000E70BEFF0E6F5A04D0000E6F6EF7
:10145800000E6E6E69A418D0030E69144D6E000E4E
:101468006A144E6E4D504E10D8B403D02D0E8BEC2E
:1014780028F06E506F10D8B422D0300E8BEC28F0C4
:101488006E06D8A06F06F5D76E506F10D8B40AD084
:10149800200E8BEC28F06E06D8A06F066E506F10E9
:1014A800D8A4F6D7030E69144D6E000E6A144E6E5A
:1014B8004D504E10D8B403D02D0E8BEC28F0705040
:1014C800616E626A61BE62067CD061C04DF062C026
:1014D8004EF0D8904D364E36D8904D364E36E10EF9
:1014E8004D24F66EFB0E4E20F76E0900F5CF05F081
:1014F8000900F5CF06F00900F5CF07F00A00F5CF8F
:1015080008F05DC001F05EC002F05FC003F060C08B
:1015180004F013EC24F001C00EF002C00FF003C079
:1015280010F004C011F00A0E126E000E136E000EB9
:10153800146E000E156E75EC25F00E50300F706E9F
:101548003DD05DC001F05EC002F05FC003F060C036
:1015580004F061C04DF062C04EF0D8904D364E3662
:10156800D8904D364E36570E4D24F66EFC0E4E2052
:10157800F76E0900F5CF05F00900F5CF06F0090070
:10158800F5CF07F00A00F5CF08F013EC24F001506E
:101598000F0B586E5850010D440EF324F66EFF0ED3
:1015A800F420F76E0800F5CF70F008D06950C00B32
:1015B800800AD8B4C6D7400AD8B487D770508BEC05
:1015C80028F06106D8A062066128F0E16228D8A454
:1015D800EDD747C0F6FF48C0F7FF474A482A08003A
:1015E800F5CF70F07050D8B412000FEF06F001017B
:1015F800296F010129AF2AD10101296D0101295162
:10160800800A120FD8A0ACD0000E0101116F030E92
:10161800106F000E0101096F0A0E086F000E01011C
:10162800036F640E026F010129510101006F016B04
:1016380000BF010722EC22F000C106F101C107F149
:101648000EEC21F0090E0101062501010E6F000EB6
:101658000101072101010F6FFFEC26F0300E010197
:101668000E25F66EFC0E01010F21F76E0900F5CF6D
:1016780017F10900F5CF18F10A00F5CF19F1000E9E
:101688000101096F640E086F010129510101066FFC
:10169800076B06BF07070EEC21F0120E01010625A5
:1016A80001010E6F000E0101072101010F6F000EED
:1016B8000101116F030E106FFFEC26F0300E0101CF
:1016C8000E25F66EFC0E01010F21F76E0900F5CF0D
:1016D80014F10900F5CF15F10A00F5CF16F107EC62
:1016E80019F014C126F115C127F116C128F126C138
:1016F80014F127C115F128C116F1000E0101116F6F
:10170800030E106F000E0101036F0A0E026F010134
:1017180029510101006F016B00BF010722EC22F083
:1017280000C10EF101C10FF1FFEC26F0300E0101EE
:101738000E25F66EFC0E01010F21F76E0900F5CF9C
:1017480017F10900F5CF18F10A00F5CF19F107ECE8
:1017580019F014C123F115C124F116C125F11200A5
:1017680001012951800A750FD8A05DD0000E010132
:10177800096F0A0E086F010129510101066F076BF5
:1017880006BF07070EEC21F0090E0101062501012D
:101798000E6F000E0101072101010F6F000E0101FC
:1017A800116F030E106FFFEC26F0300E01010E25AD
:1017B800F66EFC0E01010F21F76E0900F5CF14F14A
:1017C8000900F5CF15F10A00F5CF16F1000E010159
:1017D800116F030E106F000E0101036F0A0E026FE6
:1017E800010129510101006F016B00BF010722ECC3
:1017F80022F000C10EF101C10FF1FFEC26F0300E0E
:1018080001010E25F66EFC0E01010F21F76E09008D
:10181800F5CF17F10900F5CF18F10A00F5CF19F146
:1018280007EC19F096D701012951030D300EF32466
:10183800F66EFC0EF420F76E0900F5CF23F10900CF
:10184800F5CF24F10A00F5CF25F112000101295145
:10185800800A120FD8A0ACD0000E0101116F030E40
:10186800106F000E0101096F0A0E086F000E0101CA
:10187800036F640E026F010129510101006F016BB2
:1018880000BF010722EC22F000C106F101C107F1F7
:101898000EEC21F0090E0101062501010E6F000E64
:1018A8000101072101010F6FFFEC26F0090E01016C
:1018B8000E25F66EFC0E01010F21F76E0900F5CF1B
:1018C80017F10900F5CF18F10A00F5CF19F1000E4C
:1018D8000101096F640E086F010129510101066FAA
:1018E800076B06BF07070EEC21F0120E0101062553
:1018F80001010E6F000E0101072101010F6F000E9B
:101908000101116F030E106FFFEC26F0090E0101A3
:101918000E25F66EFC0E01010F21F76E0900F5CFBA
:1019280014F10900F5CF15F10A00F5CF16F107EC0F
:1019380019F014C126F115C127F116C128F126C1E5
:1019480014F127C115F128C116F1000E0101116F1C
:10195800030E106F000E0101036F0A0E026F0101E2
:1019680029510101006F016B00BF010722EC22F031
:1019780000C10EF101C10FF1FFEC26F0090E0101C3
:101988000E25F66EFC0E01010F21F76E0900F5CF4A
:1019980017F10900F5CF18F10A00F5CF19F107EC96
:1019A80019F014C123F115C124F116C125F1120053
:1019B80001012951800A750FD8A05DD0000E0101E0
:1019C800096F0A0E086F010129510101066F076BA3
:1019D80006BF07070EEC21F0090E010106250101DB
:1019E8000E6F000E0101072101010F6F000E0101AA
:1019F800116F030E106FFFEC26F0090E01010E2582
:101A0800F66EFC0E01010F21F76E0900F5CF14F1F7
:101A18000900F5CF15F10A00F5CF16F1000E010106
:101A2800116F030E106F000E0101036F0A0E026F93
:101A3800010129510101006F016B00BF010722EC70
:101A480022F000C10EF101C10FF1FFEC26F0090EE2
:101A580001010E25F66EFC0E01010F21F76E09003B
:101A6800F5CF17F10900F5CF18F10A00F5CF19F1F4
:101A780007EC19F096D701012951030D090EF3243B
:101A8800F66EFC0EF420F76E0900F5CF23F109007D
:101A9800F5CF24F10A00F5CF25F11200316E31AEF1
:101AA800FBD0316C3150800A120FD8A091D0000EB3
:101AB800126E030E116E000E0A6E0A0E096E000EEB
:101AC800046E640E036E3150016E026A01BE020696
:101AD80009EC25F001C007F002C008F090EC23F0F3
:101AE800090E07240F6E000E0820106EE2EC27F096
:101AF800300E0F24F66EFC0E1020F76E0900F5CF9D
:101B08001FF00900F5CF20F00A00F5CF21F0000EF4
:101B18000A6E640E096E3150076E086A07BE080621
:101B280090EC23F0120E07240F6E000E0820106EA2
:101B3800000E126E030E116EE2EC27F0300E0F2429
:101B4800F66EFC0E1020F76E0900F5CF1CF00900A8
:101B5800F5CF1DF00A00F5CF1EF09DEC1DF01CC05E
:101B68002EF01DC02FF01EC030F02EC01CF02FC06C
:101B78001DF030C01EF0000E126E030E116E000E26
:101B8800046E0A0E036E3150016E026A01BE02062F
:101B980009EC25F001C00FF002C010F0E2EC27F0CC
:101BA800300E0F24F66EFC0E1020F76E0900F5CFEC
:101BB8001FF00900F5CF20F00A00F5CF21F09DECC9
:101BC8001DF01CC02BF01DC02CF01EC02DF0120003
:101BD8003150800A750FD8A04DD0000E0A6E0A0E3B
:101BE800096E3150076E086A07BE080690EC23F0AC
:101BF800090E07240F6E000E0820106E000E126EDC
:101C0800030E116EE2EC27F0300E0F24F66EFC0E78
:101C18001020F76E0900F5CF1CF00900F5CF1DF074
:101C28000A00F5CF1EF0000E126E030E116E000EA4
:101C3800046E0A0E036E3150016E026A01BE02067E
:101C480009EC25F001C00FF002C010F0E2EC27F01B
:101C5800300E0F24F66EFC0E1020F76E0900F5CF3B
:101C68001FF00900F5CF20F00A00F5CF21F09DEC18
:101C78001DF0A7D73150030D300EF324F66EFC0E7D
:101C8800F420F76E0900F5CF2BF00900F5CF2CF002
:101C98000A00F5CF2DF012003150800A120FD8A09B
:101CA80091D0000E126E030E116E000E0A6E0A0E0F
:101CB800096E000E046E640E036E3150016E026AE6
:101CC80001BE020609EC25F001C007F002C008F0C9
:101CD80090EC23F0090E07240F6E000E0820106EFA
:101CE800E2EC27F0090E0F24F66EFC0E1020F76EBA
:101CF8000900F5CF1FF00900F5CF20F00A00F5CF55
:101D080021F0000E0A6E640E096E3150076E086AE3
:101D180007BE080690EC23F0120E07240F6E000E83
:101D28000820106E000E126E030E116EE2EC27F002
:101D3800090E0F24F66EFC0E1020F76E0900F5CF81
:101D48001CF00900F5CF1DF00A00F5CF1EF09DEC40
:101D58001DF01CC02EF01DC02FF01EC030F02EC08C
:101D68001CF02FC01DF030C01EF0000E126E030EC6
:101D7800116E000E046E0A0E036E3150016E026A77
:101D880001BE020609EC25F001C00FF002C010F0F8
:101D9800E2EC27F0090E0F24F66EFC0E1020F76E09
:101DA8000900F5CF1FF00900F5CF20F00A00F5CFA4
:101DB80021F09DEC1DF01CC02BF01DC02CF01EC0A6
:101DC8002DF012003150800A750FD8A04DD0000EAA
:101DD8000A6E0A0E096E3150076E086A07BE0806B9
:101DE80090EC23F0090E07240F6E000E0820106EE9
:101DF800000E126E030E116EE2EC27F0090E0F248E
:101E0800F66EFC0E1020F76E0900F5CF1CF00900E5
:101E1800F5CF1DF00A00F5CF1EF0000E126E030E6E
:101E2800116E000E046E0A0E036E3150016E026AC6
:101E380001BE020609EC25F001C00FF002C010F047
:101E4800E2EC27F0090E0F24F66EFC0E1020F76E58
:101E58000900F5CF1FF00900F5CF20F00A00F5CFF3
:101E680021F09DEC1DF0A7D73150030D090EF32486
:101E7800F66EFC0EF420F76E0900F5CF2BF0090082
:101E8800F5CF2CF00A00F5CF2DF01200D2C098F053
:101E9800D3C099F0D4C09AF0D5C09BF0CEC09CF0C6
:101EA800CFC09DF0D0C09EF0D1C09FF0CAC0A0F0B6
:101EB800CBC0A1F0CCC0A2F0CDC0A3F0000E0001B1
:101EC800A56F000EA46F000E0001916F000E906FB9
:101ED800BDEC28F0F30E476EFC0E486E09EC06F0D8
:101EE800D9C09CF000019D6BDAC09EF000019F6B89
:101EF8008B8A88D1A00E796E000E7A6EABEC20F03A
:101F080079C092F07AC093F0A00E796E000E7A6EC6
:101F18007DEC1FF079C094F07AC095F0A00E796E30
:101F2800000E7A6EE2EC1FF079C096F07AC097F056
:101F380020EEBCF010EE84F0050EDBCFE3FFE806E0
:101F4800FCE220EEB6F010EE8AF0050EDBCFE3FFE0
:101F5800E806FCE20001925100019311D8A40ED0CA
:101F6800000E00018B6F010E8A6FBDEC28F0400E49
:101F7800476EFE0E486E09EC06F01CD00001920573
:101F880000019311D8A40ED0000E0001856F010E38
:101F9800846FBDEC28F0AC0E476EFD0E486E09EC60
:101FA80006F008D0BDEC28F0960E476EFD0E486E80
:101FB80009EC06F00001945100019511D8A40ED047
:101FC800000E00018D6F010E8C6FB9EC28F0F90E30
:101FD800476EFE0E486E09EC06F01CD00001940511
:101FE80000019511D8A40ED0000E0001876F010ED4
:101FF800866FB9EC28F06A0E476EFE0E486E09EC43
:1020080006F008D0B9EC28F02B0E476EFE0E486E8D
:1020180009EC06F00001965100019711D8A40ED0E2
:10202800000E00018F6F010E8E6FBDEC28F0E50EDB
:10203800476EFE0E486E09EC06F01CD000019605AE
:1020480000019711D8A40ED0000E0001896F010E6F
:10205800886FBDEC28F0550E476EFE0E486E09ECF1
:1020680006F008D0BDEC28F0160E476EFE0E486E3E
:1020780009EC06F08A0E716E000E726E7BEC27F08A
:10208800840E716E000E726E64EC27F08B908B924A
:102098008B940001A151A0C080F00001816B000168
:1020A8008027000E81230001A25100018027000E25
:1020B80081230001A35100018027000E8123000124
:1020C80081BF0DD00001815105E10A0E0001805D3C
:1020D800D8A005D0000E0001916F010E906FD90EA7
:1020E800046E000E056ECEEC24F0D9C098F0000105
:1020F800996BDAC09AF000019B6BBDEC28F0940E46
:10210800476EFE0E486E9EC049F09FC04AF09CC0C4
:102118004BF09DC04CF009EC06F0B9EC28F07F0EAE
:10212800476EFE0E486E9AC049F09BC04AF098C0B0
:102138004BF099C04CF009EC06F09AC015F09BC022
:1021480016F07CEC26F015C080F016C081F09EC019
:1021580015F09FC016F07CEC26F0151E161E154AC9
:10216800162A1550000180250001826F16500001C3
:1021780081210001836F82C00FF083C010F0000E30
:10218800126E3C0E116EE2EC27F00FC080F010C00A
:1021980081F098C015F099C016F07CEC26F0155027
:1021A800000180271650000181239CC015F09DC0B6
:1021B80016F07CEC26F0151E161E154A162A155028
:1021C800000180250001A46F165000018121000143
:1021D800A56FB9EC28F0660E476EFF0E486EA4C0D6
:1021E80049F0A5C04AF009EC06F00001A55105E147
:1021F800150E0001A45DD8A005D0000E0001916F56
:10220800010E906F0001905100019111D8B472D65F
:10221800000E0001D76F020ED66F000E1AEC27F0E1
:10222800B9EC28F0770E476EFC0E486E09EC06F004
:10223800A4C071F0A5C072F0A00E736E000E746E8B
:10224800E3EC14F0A00E156E000E166EA4C017F085
:10225800A5C018F056EC18F0000E0001D76F000E5C
:10226800D66F120001012C6F6D0E01012C65BAD0DA
:10227800000E0101116F030E106F000E0101096FAE
:102288000A0E086F000E0101036F640E026F2CC165
:1022980000F10101016B22EC22F000C106F101C13D
:1022A80007F10EEC21F0090E0101062501010E6F60
:1022B800000E0101072101010F6FFFEC26F0300E1F
:1022C80001010E25F66EFC0E01010F21F76E0900C3
:1022D800F5CF17F10900F5CF18F10A00F5CF19F17C
:1022E800000E0101096F640E086F2CC106F101018F
:1022F800076B0EEC21F0120E0101062501010E6F8D
:10230800000E0101072101010F6F000E0101116F7D
:10231800030E106FFFEC26F0300E01010E25F66E4D
:10232800FC0E01010F21F76E0900F5CF14F1090029
:10233800F5CF15F10A00F5CF16F107EC19F014C125
:1023480029F115C12AF116C12BF1000E0101116FF7
:10235800030E106F000E0101036F0A0E026F2CC1ED
:1023680000F10101016B22EC22F000C10EF101C164
:102378000FF1FFEC26F0300E01010E25F66EFC0E73
:1023880001010F21F76E0900F5CF17F10900F5CF0C
:1023980018F10A00F5CF19F129C114F12AC115F174
:1023A8002BC116F107EC19F014C126F115C127F15C
:1023B80016C128F126C114F127C115F128C116F15B
:1023C800000E0101176F000E0101186F3F0E010189
:1023D800196F07EC19F014C123F115C124F116C1C6
:1023E80025F112000A0E01012C656ED0000E0101C4
:1023F800116F030E106F000E0101036F0A0E026FBA
:102408002CC100F10101016B22EC22F000C10EF198
:1024180001C10FF1FFEC26F0300E01010E25F66E1A
:10242800FC0E01010F21F76E0900F5CF17F1090025
:10243800F5CF18F10A00F5CF19F1000E0101096F67
:102448000A0E086F2CC106F10101076B0EEC21F092
:10245800090E0101062501010E6F000E0101072179
:1024680001010F6F000E0101116F030E106FFFECD9
:1024780026F0300E01010E25F66EFC0E01010F212B
:10248800F76E0900F5CF14F10900F5CF15F10A0030
:10249800F5CF16F107EC19F014C129F115C12AF18D
:1024A80016C12BF129C114F12AC115F12BC116F15E
:1024B800000E0101176F000E0101186F3F0E010198
:1024C800196F07EC19F087D701012C51030D300E55
:1024D800F324F66EFC0EF420F76E0900F5CF14F124
:1024E8000900F5CF15F10A00F5CF16F1000E01012C
:1024F800176F000E0101186F3F0E0101196F07ECED
:1025080019F014C123F115C124F116C125F11200E7
:102518002FC133F10101346B356B01012E350101F7
:10252800333701E33481010133510101386F32C17E
:1025380033F10101346B356B01013135010133375A
:1025480001E33481010133510101376F0101385131
:102558000101D8B411D0010137510101385DD8B05B
:1025680012D0010138510008010137250101336FEC
:10257800180E0101336507D030C12DF131C12EF19C
:1025880032C12FF11200010137510101D8B411D025
:10259800010138510101375DD8B012D0010137511E
:1025A8000008010138250101336F180E0101336558
:1025B80007D02DC12DF12EC12EF12FC12FF1120000
:1025C800060E0101366F01012FAF02D00101368FCF
:1025D800010132AF02D00101368D01012E8FFF0EAD
:1025E80001012D17FF0E01012E17000E01012F17F3
:1025F8000101318FFF0E01013017FF0E0101311764
:10260800000E01013217010137510101385DD8B0C0
:1026180025D00101D89030373137323701013707DB
:102628000101385101013719D8B411D00101360719
:1026380036C133F1070E01013317D8B408D0E9D7F2
:102648000101D8902F332E332D330101382B01018E
:10265800375101013819D8B42BD0F2D701013851BC
:102668000101375DD8B024D00101D8902D372E371D
:102678002F37010138070101385101013719D8B442
:1026880011D00101360736C133F1070E01013317A6
:10269800D8B408D0E9D70101D89032333133303378
:1026A8000101372B0101375101013819D8A4F3D79B
:1026B800010136AF12D0FF0E01012D1BFF0E0101E3
:1026C8002E1BFF0E01012F1B010E01012D27000EED
:1026D80001012E23000E01012F23010136AD12D076
:1026E800FF0E0101301BFF0E0101311BFF0E01011E
:1026F800321B010E01013027000E01013123000EAB
:1027080001013223000E0101366F01012D51010133
:10271800302701012E510101312301012F510101FF
:102728003223010132AF15D0FF0E0101301BFF0E1D
:102738000101311BFF0E0101321B010E010130277F
:10274800000E01013123000E01013223010E0101A7
:10275800366F30C100F131C101F132C102F138C127
:1027680003F136C104F11EEC1CF000C12DF101C1CA
:102778002EF102C12FF11200346E6D0E34649FD019
:10278800000E126E030E116E000E0A6E0A0E096E0E
:10279800000E046E640E036E34C001F0026A09EC88
:1027A80025F001C007F002C008F090EC23F0090EF4
:1027B80007240F6E000E0820106EE2EC27F0300E92
:1027C8000F24F66EFC0E1020F76E0900F5CF1FF0EF
:1027D8000900F5CF20F00A00F5CF21F0000E0A6EAF
:1027E800640E096E34C007F0086A90EC23F0120EEC
:1027F80007240F6E000E0820106E000E126E030ED6
:10280800116EE2EC27F0300E0F24F66EFC0E10204D
:10281800F76E0900F5CF1CF00900F5CF1DF00A008E
:10282800F5CF1EF09DEC1DF01CC031F01DC032F03C
:102838001EC033F0000E126E030E116E000E046EF1
:102848000A0E036E34C001F0026A09EC25F001C0DB
:102858000FF002C010F0E2EC27F0300E0F24F66EF5
:10286800FC0E1020F76E0900F5CF1FF00900F5CF18
:1028780020F00A00F5CF21F031C01CF032C01DF065
:1028880033C01EF09DEC1DF01CC02EF01DC02FF0B3
:102898001EC030F02EC01CF02FC01DF030C01EF03E
:1028A800000E1F6E000E206E3F0E216E9DEC1DF077
:1028B8001CC02BF01DC02CF01EC02DF012000A0EFB
:1028C80034645DD0000E126E030E116E000E046E9D
:1028D8000A0E036E34C001F0026A09EC25F001C04B
:1028E8000FF002C010F0E2EC27F0300E0F24F66E65
:1028F800FC0E1020F76E0900F5CF1FF00900F5CF88
:1029080020F00A00F5CF21F0000E0A6E0A0E096EBB
:1029180034C007F0086A90EC23F0090E07240F6E04
:10292800000E0820106E000E126E030E116EE2ECFF
:1029380027F0300E0F24F66EFC0E1020F76E0900FB
:10294800F5CF1CF00900F5CF1DF00A00F5CF1EF0F9
:102958009DEC1DF01CC031F01DC032F01EC033F0DC
:1029680031C01CF032C01DF033C01EF0000E1F6EC7
:10297800000E206E3F0E216E9DEC1DF099D734504D
:10298800030D300EF324F66EFC0EF420F76E0900EA
:10299800F5CF1CF00900F5CF1DF00A00F5CF1EF0A9
:1029A800000E1F6E000E206E3F0E216E9DEC1DF076
:1029B8001CC02BF01DC02CF01EC02DF01200BDEC69
:1029C80028F0920E476EFC0E486E09EC06F0B9EC42
:1029D80028F0DB0E476EFC0E486E09EC06F0000E80
:1029E8007B6E000E7A6E000E7D6E000ECCD027EC4A
:1029F80028F001C07AF002C07BF0C7D0BDEC28F007
:102A0800AB0E476EFC0E486E09EC06F0B9EC28F0E8
:102A1800010E476EFE0E486E71C049F072C04AF052
:102A280009EC06F0D1D0BDEC28F0C30E476EFC0EC1
:102A3800486E09EC06F0B9EC28F0690E476EFD0EF9
:102A4800486E20EE03F07350D9267450DA22DF5016
:102A5800756E73C0D9FF74C0DAFFDF50766E776A7F
:102A680020EE01F07350D9267450DA22DF50786EC8
:102A780078507626000E772220EE02F07350D92681
:102A88007450DA22DF50796E79507626000E77225C
:102A980075507624496E000E77204A6E09EC06F0D0
:102AA80093D0BDEC28F0D70E476EFD0E486E09ECAA
:102AB80006F0B9EC28F0970E476EFF0E486E73C00B
:102AC800D9FF74C0DAFFDF50756E7550496E4A6AD7
:102AD80009EC06F079D0BDEC28F0D10E476EFE0E59
:102AE800486E09EC06F0B9EC28F0970E476EFF0E19
:102AF800486E20EE01F07350D9267450DA22DF5068
:102B0800756E7550496E4A6A09EC06F05DD0BDECE9
:102B180028F0EC0E476EFD0E486E09EC06F0B9EC95
:102B280028F0970E476EFF0E486E20EE02F07350A5
:102B3800D9267450DA22DF50756E7550496E4A6A8C
:102B480009EC06F041D0BDEC28F0C20E476EFD0E30
:102B5800486E09EC06F0B9EC28F0970E476EFF0EA8
:102B6800486E20EE03F07350D9267450DA22DF50F5
:102B7800756E7550496E4A6A09EC06F025D0FF005B
:102B8800000E7D6E010E7C6E1FD07AC075F07BC082
:102B980076F07650000AD8A4F3D77550000AD8B456
:102BA8002DD7010AD8B43FD7030AD8B47AD7010A77
:102BB800D8B491D7070AD8B4AAD7010AD8B4C3D7CA
:102BC8000A0AD8B4DCD7DCD77C507D10D8A4120010
:102BD8000ED737C03BF03C6A3D6A36343B3601E3DA
:102BE8003C803B50406E3AC03BF03C6A3D6A393409
:102BF8003B3601E33C803B503F6E4050D8B40BD08D
:102C08003F50405CD8B00ED0405000083F243B6E87
:102C1800180E3B6407D038C035F039C036F03AC0DA
:102C280037F012003F50D8B40BD040503F5CD8B0BA
:102C38000ED03F50000840243B6E180E3B6407D06E
:102C480035C035F036C036F037C037F01200060E02
:102C58003E6E37BE3E8E3ABE3E8C368EFF0E351621
:102C6800FF0E3616000E3716398EFF0E3816FF0E79
:102C78003916000E3A163F50405CD8B01BD0D89099
:102C8800383639363A363F0640503F18D8B40DD05A
:102C98003E063EC03BF0070E3B16D8B406D0EFD731
:102CA800D890373236323532402A3F504018D8B49F
:102CB8001FD0F6D740503F5CD8B01AD0D8903536E0
:102CC80036363736400640503F18D8B40DD03E0649
:102CD8003EC03BF0070E3B16D8B406D0EFD7D890CD
:102CE8003A32393238323F2A3F504018D8A4F7D701
:102CF8003EAE0CD0FF0E351AFF0E361AFF0E371AED
:102D0800010E3526000E3622000E37223EAC0CD0BE
:102D1800FF0E381AFF0E391AFF0E3A1A010E38261E
:102D2800000E3922000E3A22000E3E6E355038262B
:102D38003650392237503A223AAE0ED0FF0E381AA2
:102D4800FF0E391AFF0E3A1A010E3826000E3922E4
:102D5800000E3A22010E3E6E38C001F039C002F072
:102D68003AC003F040C004F03EC005F0CBEC21F0BF
:102D780001C035F002C036F003C037F0120002C1BE
:102D880006F10101076B086B0101013501010637E6
:102D980001E307810101065101010E6F01010E5186
:102DA800D8A40AD0000E0101006F000E016F000EBA
:102DB800026F000E036F120005C106F10101076BD7
:102DC800086B010104350101063701E307810101A0
:102DD800065101010D6F01010D51D8A40AD0000E52
:102DE8000101006F000E016F000E026F000E036FED
:102DF80012000101018FFF0E01010017FF0E0101F2
:102E08000117000E010102170101048FFF0E0101D5
:102E18000317FF0E01010417000E01010517000E2C
:102E28000101096F000E0A6F000E0B6F000E0C6F88
:102E38007F0E01010E5F01010D51980F01010E5F18
:102E4800180E01010D6F0101D89009370A370B37A9
:102E58000C37010103510101005D01010451010119
:102E680001590101055101010259D8A00ED00101F3
:102E780003510101005F010104510101015B0101DE
:102E880005510101025B010109810101D890003758
:102E98000137023701010D2FD6D701010EAF1AD025
:102EA80001010E51800A970FD8B00AD0000E010117
:102EB800006F000E016F000E026F000E036F12000C
:102EC8000101D8900C330B330A33093301010E3F4B
:102ED800F7D71BD0170E01010E6512D0000E0101A5
:102EE800006F000E016F000E026F000E036F1200DC
:102EF8000101D89009370A370B370C3701010E0743
:102F080001010E510101D8A4F3D709C100F10AC18A
:102F180001F10BC102F10CC103F1120001010235EC
:102F2800033501010B6F01010B51D8A40AD0000E23
:102F38000101006F000E016F000E026F000E036F9B
:102F4800120001010535063501010A6F01010A5118
:102F5800D8A40AD0000E0101006F000E016F000E08
:102F6800026F000E036F12000101028FFF0E0101B4
:102F78000017FF0E0117FF0E0217000E03170101BD
:102F8800058FFF0E01010317FF0E0417FF0E05172B
:102F9800000E0617000E0101066F000E076F000EE7
:102FA800086F000E096F7F0E01010B5F01010A51C6
:102FB800A00F01010B5F200E01010A6F0101D890DB
:102FC8000637073708370937010103510101005D4A
:102FD8000101045101010159010105510101025981
:102FE8000101065101010359D8A012D00101035172
:102FF8000101005F010104510101015B010105515B
:103008000101025B010106510101035B0101068117
:103018000101D890003701370237033701010A2F21
:10302800CDD701010BAF1AD001010B51800A9F0FB8
:10303800D8B00AD0000E0101006F000E016F000E1B
:10304800026F000E036F12000101D8900933083394
:103058000733063301010B3FF7D71BD01F0E0101C1
:103068000B6512D0000E0101006F000E016F000EFB
:10307800026F000E036F12000101D8900637073760
:103088000837093701010B0701010B510101D8A4C9
:10309800F3D706C100F107C101F108C102F109C166
:1030A80003F112000001D82BD8C01BF01C6A1C5079
:1030B80004E1040E1B5CD8A006D0040E1B5E000EB3
:1030C8001C5A1BC0D8F01BC00FF01CC010F0000E1B
:1030D800126E050E116EE2EC27F00FC01BF010C047
:1030E8001CF01BC019F01CC01AF0D89019361A36FB
:1030F800D89019361A36D89019361A3619C001F0F0
:103108001AC002F017C003F0CFEC27F01B4A1C2AA4
:103118001BC019F01CC01AF0D89019361A36D8906E
:1031280019361A36D89019361A3619C001F01AC04D
:1031380002F015C0D9FF16C0DAFFDF50036ECFECDE
:1031480027F01B4A1C2A1BC019F01CC01AF0D89083
:1031580019361A36D89019361A36D89019361A36BA
:1031680019C001F01AC002F020EE01F01550D9265E
:103178001650DA22DF50036ECFEC27F01B4A1C2AC8
:103188001BC019F01CC01AF0D89019361A36D890FE
:1031980019361A36D89019361A3619C001F01AC0DD
:1031A80002F020EE02F01550D9261650DA22DF5030
:1031B800036ECFEC27F01B4A1C2A1BC019F01CC059
:1031C8001AF0D89019361A36D89019361A36D89077
:1031D80019361A3619C001F01AC002F020EE03F0B1
:1031E8001550D9261650DA22DF50036ECFEC27F09F
:1031F8001B4A1C2A000E026EA00E016ED8C003F0F6
:10320800CFEC27F0120016C11AF101011B6B1C6BE1
:103218000101153501011A3701E31B8101011A511A
:1032280001011D6F01011D51D8A40AD0000E010132
:10323800146F000E0101156F000E0101166F1200C8
:1032480019C11AF101011B6B1C6B01011835010131
:103258001A3701E31B8101011A510101226F010193
:103268002251D8A40AD0000E0101146F000E0101EA
:10327800156F000E0101166F1200010122517B0F1C
:1032880001011D2716C122F1010119510101221B5B
:10329800800E010122170101158F0101188FFF0E01
:1032A80001011717FF0E01011817000E0101191768
:1032B800000E01011E6F000E01011F6F000E0101BB
:1032C800206F070E0101216F010114A10CD001012B
:1032D800175101011E270101185101011F23010186
:1032E8001951010120230101D890163315331433E5
:1032F8000101D8901737183719370101212FE4D762
:10330800090E0101216F010114A10CD0010117510F
:1033180001011E270101185101011F230101195143
:10332800010120230101D89016331533143301010C
:10333800D89020331F331E330101212FE4D71EC13B
:1033480000F11FC101F120C102F11DC103F122C129
:1033580004F11EEC1CF000C114F101C115F102C109
:1033680016F112002CC12EF101012F6B306B0101F7
:103378002B3501012E3701E32F8101012E51010167
:10338800386F01013851D8A40AD0000E01012A6F04
:10339800000E2B6F000E2C6F000E2D6F1200170EF3
:1033A80001012E6F2AC12FF12BC130F12CC131F14F
:1033B80001012E290101326F05D00101D890313366
:1033C80030332F330101322FF8D701012F5101017A
:1033D800336F01012B8FFF0E01012A17FF0E010128
:1033E8002B17000E01012C1701012A510101346F1E
:1033F80001012B510101356F01012C510101366F7B
:103408000101376B8E0E0101385F010138AF1AD008
:1034180001013851800A8F0FD8B00AD0000E01017F
:103428002A6F000E2B6F000E2C6F000E2D6F1200EE
:103438000101D89037333633353334330101383FFF
:10344800F7D71BD0170E0101386512D0000E010105
:103458002A6F000E2B6F000E2C6F000E2D6F1200BE
:103468000101D890343735373637373701013807F7
:10347800010138510101D8A4F3D7010133510101E9
:10348800D8B409D00101371F361F351F346D000E1F
:1034980035233623372334C12AF135C12BF136C100
:1034A8002CF137C12DF1120003C007F0086A096A30
:1034B8000234073601E3088007500F6E0F50D8A476
:1034C80009D0000E016E000E026E000E036E000E93
:1034D800046E120006C007F0086A096A0534073648
:1034E80001E3088007500E6E0E50D8A409D0000ED4
:1034F800016E000E026E000E036E000E046E1200C6
:10350800028EFF0E0116FF0E0216000E0316058E20
:10351800FF0E0416FF0E0516000E0616000E0A6EA4
:10352800000E0B6E000E0C6E000E0D6E7F0E0F5E01
:103538000E50980F0F5E180E0E6ED8900A360B3686
:103548000C360D360450015C0550025806500358DD
:10355800D8A007D00450015E0550025A0650035AFD
:103568000A80D8900136023603360E2EE6D70FAE03
:1035780016D00F50800A970FD8B009D0000E016EF0
:10358800000E026E000E036E000E046E1200D8903C
:103598000D320C320B320A320F3EF9D715D0170E06
:1035A8000F640FD0000E016E000E026E000E036E47
:1035B800000E046E1200D8900A360B360C360D3603
:1035C8000F060F50D8A4F7D70AC001F00BC002F0BD
:1035D8000CC003F00DC004F012000B6E0B5036EC5B
:1035E80028F0076E0750050DF3CF0CF0F4CF0DF05F
:1035F8000CC007F00DC008F0D89007360836D890F0
:1036080007360836D8900736083607C001F008C0D4
:1036180002F05DEC28F0096E0A6A05C0D9FF06C001
:10362800DAFF09C0DEFF0AC0DDFF0C4A0D2A0CC014
:1036380007F00DC008F0D89007360836D89007363E
:103648000836D8900736083607C001F008C002F0DF
:103658005DEC28F003C0D9FF04C0DAFFDF6E0C4A26
:103668000D2A20EE01F00350D9260450DA220CC0AE
:1036780007F00DC008F0D89007360836D8900736FE
:103688000836D8900736083607C001F008C002F09F
:103698005DEC28F0DF6E0C4A0D2A20EE02F0035094
:1036A800D9260450DA220CC007F00DC008F0D890D3
:1036B80007360836D89007360836D89007360836C1
:1036C80007C001F008C002F05DEC28F0DF6E0C4A7C
:1036D8000D2A20EE03F00350D9260450DA220CC03C
:1036E80007F00DC008F0D89007360836D89007368E
:1036F8000836D8900736083607C001F008C002F02F
:103708005DEC28F0DF6E0C4A0D2A120003340434F5
:103718000C6E0C50D8A409D0000E016E000E026E7B
:10372800000E036E000E046E1200063407340B6E92
:103738000B50D8A409D0000E016E000E026E000EC8
:10374800036E000E046E1200038EFF0E0116FF0EAC
:103758000216FF0E0316000E0416068EFF0E041640
:10376800FF0E0516FF0E0616000E0716000E076E52
:10377800000E086E000E096E000E0A6E7F0E0C5EBB
:103788000B50A00F0C5E200E0B6ED8900736083633
:1037980009360A360450015C055002580650035891
:1037A80007500458D8A009D00450015E0550025AA9
:1037B8000650035A0750045A0780D890013602363B
:1037C800033604360B2EE1D70CAE16D00C50800A07
:1037D8009F0FD8B009D0000E016E000E026E000EC9
:1037E800036E000E046E1200D8900A3209320832B5
:1037F80007320C3EF9D715D01F0E0C640FD0000EFF
:10380800016E000E026E000E036E000E046E1200B2
:10381800D8900736083609360A360C060C50D8A454
:10382800F7D707C001F008C002F009C003F00AC0CA
:1038380004F01200010103510101D8B408D00101BC
:1038480000510101011101010211D8A411D0000E8B
:103858000101006F000E0101016F000E0101026FEE
:1038680012000101032B0101D89002330133003308
:10387800000E010100150101056F000E010101157F
:103888000101066FFE0E010102150101076F01011A
:1038980005510101061101010711D8B411D0E1D772
:1038A8000101032B010E01010027000E0101012374
:1038B800000E010102230101D890023301330033C5
:1038C800000E010100150101056F000E010101152F
:1038D8000101066FFF0E010102150101076F0101C9
:1038E80005510101061101010711D8B408D0D8D734
:1038F800010103070101D8900037013702370101A0
:1039080001BF04D0020E01010361F2D7010103B126
:1039180002D00101019F0101D89003330101035135
:1039280001010213010104510101D8B402D00101BF
:10393800028F00C100F101C101F102C102F11200C0
:10394800B9EC28F0000E106E800E116E440E126E47
:1039580071C009F072C00AF0E3EC26F009C00DF05E
:103968000AC00EF00BC00FF00AEC1FF00DC01CF0DF
:103978000EC01DF00FC01EF0330E1F6E830E206E9A
:10398800400E216E9DEC1DF01CC076F01DC077F036
:103998001EC078F0200E476EFF0E486E76C049F0C4
:1039A80077C04AF078C04BF009EC06F072BE06D03A
:1039B800725009E1320E715CD8B005D0000E726EFB
:1039C800000E716E1200330E106E830E116E400ED3
:1039D800126E630E1F6E590E206E440E216E73C058
:1039E8001CF074C01DF075C01EF09DEC1DF01CC0CD
:1039F8000DF01DC00EF01EC00FF00AEC1FF00DC038
:103A08002BF00EC02CF00FC02DF071C009F072C061
:103A18000AF0E3EC26F009C02EF00AC02FF00BC024
:103A280030F0C0EC22F0D8B005D0000E726E010E56
:103A3800716E12007168726812000600FACFA8F061
:103A4800FBCFA9F0E9CFAAF0EACFABF0E1CFACF019
:103A5800E2CFADF0D9CFAEF0DACFAFF0F3CFB0F020
:103A6800F4CFB1F0F6CFB2F0F7CFB3F0F8CFB4F0AF
:103A7800F5CFB5F0F29EF0A03DD081380F0B0F0BBB
:103A88007E6EF09081A225D0FDD7040E7E600ED008
:103A9800000E0001D76F020ED66F7E50D2EC23F0D5
:103AA800000E0001D76F000ED66F24D0000E000163
:103AB800D76F010ED66FF28E4AEC0FF0F29E1AD035
:103AC800000E0001D76F030ED66F010E1AEC27F017
:103AD80011D0D6C0A6F0D7C0A7F00001A751000AA0
:103AE800D8A408D00001A651000AD8B4CED7010A3C
:103AF800D8B4E6D7F28EB5C0F5FFB4C0F8FFB3C0AE
:103B0800F7FFB2C0F6FFB1C0F4FFB0C0F3FFAFC01B
:103B1800DAFFAEC0D9FFADC0E2FFACC0E1FFABC079
:103B2800EAFFAAC0E9FFA9C0FBFFA8C0FAFF7F927D
:103B380011001EC022F0236A246A1D34223601E3D4
:103B480023802250256E2550D8A407D0000E1C6E65
:103B5800000E1D6E000E1E6E120021C022F0236A98
:103B6800246A2034223601E3238022502A6E2A5008
:103B7800D8A407D0000E1C6E000E1D6E000E1E6E1F
:103B880012002A507B0F25261EC02AF021502A1A1F
:103B9800800E2A161D8E208EFF0E1F16FF0E201671
:103BA800000E2116000E266E000E276E000E286EDF
:103BB800070E296E1CA006D01F502626205027224B
:103BC80021502822D8901E321D321C32D8901F3620
:103BD80020362136292EEED7090E296E1CA006D0D4
:103BE8001F5026262050272221502822D8901E32E6
:103BF8001D321C32D890283227322632292EEED791
:103C080026C001F027C002F028C003F025C004F048
:103C18002AC005F0CBEC21F001C01CF002C01DF059
:103C280003C01EF012002DC02FF0306A316A2C3408
:103C38002F3601E330802F50396E3950D8A409D07F
:103C4800000E2B6E000E2C6E000E2D6E000E2E6ECA
:103C58001200170E2F6E2BC030F02CC031F02DC083
:103C680032F02F28336E04D0D890323231323032CD
:103C7800332EFAD73050346E2C8EFF0E2B16FF0ED3
:103C88002C16000E2D162B50356E2C50366E2D50DE
:103C9800376E386A8E0E395E39AE16D03950800AC2
:103CA8008F0FD8B009D0000E2B6E000E2C6E000EB0
:103CB8002D6E000E2E6E1200D89038323732363202
:103CC8003532393EF9D715D0170E39640FD0000EAA
:103CD8002B6E000E2C6E000E2D6E000E2E6E120036
:103CE800D890353636363736383639063950D8A46E
:103CF800F7D73450D8B408D0381E371E361E356C66
:103D0800000E36223722382235C02BF036C02CF070
:103D180037C02DF038C02EF012000FC007F010C0C9
:103D280008F0000E0A6E0A0E096E90EC23F007C028
:103D38000FF008C010F00F06D8A010060FC01AF038
:103D480010C01BF012BE1200125003E11104D8A0DB
:103D580012000FC01AF010C01BF0000E176E8BB0C7
:103D68000DD013C0D9FF14C0DAFFDECF15F0DDCFB8
:103D780016F01530D8A002D0010E176E17B002D079
:103D88008B9001D08B80000E186E8BB20FD020EE76
:103D980002F01350D9261450DA22DECF15F0DDCF09
:103DA80016F01530D8A002D0010E186E18B002D047
:103DB8008B9201D08B82000E196E8BB40FD020EE3F
:103DC80004F01350D9261450DA22DECF15F0DDCFD7
:103DD80016F01530D8A002D0010E196E19B002D015
:103DE8008B9401D08B841BBE0DD01B5003E11A04A9
:103DF800D8A008D0030EE82EFED700F01A06D8A0E7
:103E08001B06F1D71106D8A012069CD70FC013F0D5
:103E1800146A156A0E34133601E3148013501A6EAF
:103E28001A50D8A407D0000E0D6E000E0E6E000EAC
:103E38000F6E120012C013F0146A156A113413368B
:103E480001E3148013501B6E1B50D8A407D0000E3A
:103E58000D6E000E0E6E000E0F6E1200000E176E25
:103E6800000E186E000E196E1B50890F1A5E0FC0D7
:103E78001BF012501B1A800E1B160E8EFF0E0D160D
:103E8800FF0E0E16000E0F16118EFF0E1016FF0EE7
:103E98001116000E1216180E166ED8901736183610
:103EA800193610500D5C11500E5812500F58D8A0EA
:103EB80007D010500D5E11500E5A12500F5A17802D
:103EC800D8900D360E360F36162EE7D717C001F0EC
:103ED80018C002F019C003F01AC004F01BC005F0A6
:103EE800CBEC21F001C00DF002C00EF003C00FF0C2
:103EF8001200BDEC28F0D20E476EFF0E486E09EC9A
:103F080006F038D0BDEC28F0820E476EFD0E486EE4
:103F180009EC06F020EE01F07950D9267A50DA2221
:103F2800DF2A000E7A6E010E796E1200BDEC28F0C1
:103F3800800E476EFD0E486E09EC06F020EE03F089
:103F48007950D9267A50DA22DF2A000E7A6E000ECE
:103F5800796E1200BDEC28F0A70E476EFF0E486E72
:103F680009EC06F079687A681200000E7A6E000E85
:103F7800796E1200010EA7EC27F001C071F002C0A3
:103F880072F0000E736EC00E746E3F0E756EA4EC68
:103F98001CF07250000AD8B404D0FF0AD8B409D073
:103FA800E4D77150000AD8B4D5D7010AD8B4AAD733
:103FB800DCD77150FF0AD8B4B9D7D7D7BDEC28F0F1
:103FC800C40E476EFF0E486E09EC06F038D0BDEC03
:103FD80028F0540E476EFD0E486E09EC06F020EEF0
:103FE80002F07950D9267A50DA22DF2A000E7A6E4A
:103FF800010E796E1200BDEC28F0520E476EFD0ED0
:10400800486E09EC06F020EE03F07950D9267A5074
:10401800DA22DF2A000E7A6E000E796E1200BDECED
:1040280028F0870E476EFF0E486E09EC06F0796897
:104038007A681200000E7A6E000E796E1200020E77
:10404800A7EC27F001C071F002C072F0000E736E89
:10405800800E746E400E756EA4EC1CF07250000A4F
:10406800D8B404D0FF0AD8B409D0E4D77150000AF4
:10407800D8B4D5D7010AD8B4AAD7DCD77150FF0A6B
:10408800D8B4B9D7D7D7010102AF1DD000C106F106
:1040980001C107F102C108F10101061F071F081F2E
:1040A800062B000E07230823000E01010625010137
:1040B800006F000E010107210101016F800E01014F
:1040C80008210101026F010105AF1DD003C106F1EE
:1040D80004C107F105C108F10101061F071F081FE8
:1040E800062B000E07230823000E010106250101F7
:1040F800036F000E010107210101046F800E010109
:1041080008210101056F000E0101001B000E0101CD
:10411800011B800E0101021B000E0101031B000E92
:104128000101041B800E0101051B0101035101015E
:10413800005D01010451010101590101055101010D
:104148000259D8B002D0D8901200D8801200BDEC25
:1041580028F0B60E476EFF0E486E09EC06F036D012
:10416800BDEC28F03D0E476EFD0E486E09EC06F0DA
:1041780079C0D9FF7AC0DAFFDF2A000E7A6E010E05
:10418800796E1200BDEC28F03B0E476EFD0E486EAE
:1041980009EC06F020EE03F07950D9267A50DA229D
:1041A800DF2A000E7A6E000E796E1200BDEC28F040
:1041B800770E476EFF0E486E09EC06F079687A684C
:1041C8001200000E7A6E000E796E1200000EA7EC37
:1041D80027F001C071F002C072F0000E736EC00EBD
:1041E800746E3F0E756EA4EC1CF07250000AD8B4C1
:1041F80004D0FF0AD8B409D0E4D77150000AD8B463
:10420800D5D7010AD8B4ACD7DCD77150FF0AD8B4D7
:10421800B9D7D7D7000E01010B6F010109AF08D03C
:104228000101086D091FD8B0092B010E01010B6FA0
:10423800010107AF08D00101066D071FD8B0072B91
:10424800010E01010B1B000E01010D6F000E0C6F1A
:104258000101085101010911D8B42CD0010E010146
:104268000A6F06D00101D8900837093701010A2BD7
:10427800010109AFF7D70101D8900C370D370101BB
:1042880008510101065D0101095101010759D8A032
:104298000AD0010108510101065F0101095101011C
:1042A800075B01010C810101D89009330833010132
:1042B8000A2FE1D701010B510101D8B405D0010142
:1042C8000C6D0D1FD8B00D2B0CC106F10DC107F1F7
:1042D8001200000E0101086F000E096F000E0A6F30
:1042E800000E0B6F010104510101051101010611B6
:1042F80001010711D8B442D0010E01010C6F08D09A
:104308000101D890043705370637073701010C2B10
:10431800010107AFF5D70101D890083709370A37E7
:104328000B37010104510101005D01010551010133
:104338000159010106510101025901010751010109
:104348000359D8A012D0010104510101005F0101F5
:1043580005510101015B010106510101025B0101E7
:1043680007510101035B010108810101D89007335E
:1043780006330533043301010C2FCDD708C100F1F2
:1043880009C101F10AC102F10BC103F11200045085
:10439800D8B405D0015002100310D8A40CD0000ED8
:1043A800016E000E026E000E036E1200042AD890F1
:1043B800033202320132000E0114066E000E02149E
:1043C800076EFE0E0314086E065007100810D8B4C6
:1043D8000CD0ECD7042A010E0126000E0222000E92
:1043E8000322D890033202320132000E0114066E05
:1043F800000E0214076EFF0E0314086E0650071015
:104408000810D8B406D0E6D70406D890013602368C
:10441800033602BE03D0020E0460F6D704A0029E43
:10442800D8900432045003120550D8A4038E01C05A
:1044380001F002C002F003C003F01200000E0101F7
:10444800056F010101AF08D00101006D011FD8B04F
:10445800012B010E0101056F010103AF05D0010118
:10446800026D031FD8B0032B010102510101031192
:10447800D8B426D0010E0101046F06D00101D890EE
:10448800023703370101042B010103AFF7D70101FC
:1044980002510101005D0101035101010159D8A038
:1044A80008D0010102510101005F0101035101011E
:1044B800015B0101D890033302330101042FE7D7D0
:1044C800010105510101D8B405D00101006D011F9A
:1044D800D8B0012B00C100F101C101F112000101A6
:1044E8001151010112110101131101011411D8B464
:1044F8003AD0010E0101156F08D00101D89011378B
:104508001237133714370101152B010114AFF5D7F2
:104518000101115101010D5D0101125101010E59F5
:104528000101135101010F590101145101011059E1
:10453800D8A010D00101115101010D5F01011251E4
:1045480001010E5B0101135101010F5B01011451BF
:104558000101105B0101D890143313331233113366
:104568000101152FD5D70DC10DF10EC10EF10FC1E7
:104578000FF110C110F112002DAE16D02BC031F082
:104588002CC032F02DC033F0311E321E331E312ABA
:10459800000E32223322000E31242B6E000E322000
:1045A8002C6E800E33202D6E30AE16D02EC031F01A
:1045B8002FC032F030C033F0311E321E331E312A84
:1045C800000E32223322000E31242E6E000E3220CD
:1045D8002F6E800E3320306E000E2B1A000E2C1A10
:1045E800800E2D1A000E2E1A000E2F1A800E301A69
:1045F8002E502B5C2F502C5830502D58D8B002D04C
:10460800D8901200D8801200F29EADEC28F0000E6F
:104618000101026FD00E016F97EC28F0000E010126
:10462800026F000E016F97EC28F0A9EC28F0ADECB2
:1046380028F0000E0101026FD10E016F97EC28F0EF
:10464800000E0101056F050E0101056501D012D0AC
:1046580001010551010DF35001010325D96EF450F4
:1046680001010421DA6E010E4DEC27F0DF6E010125
:10467800052BE9D7010120EE06F00351D926045194
:10468800DA22000E4DEC27F0DF6EA9EC28F0F28E4E
:104698001200D90E0101036F000E0101046F08EC2E
:1046A80023F0A5EC28F00B0E01013F6FFD0E010170
:1046B800406FDFC041F10101426BDEC043F10101EF
:1046C800446BDDC045F10101466B09EC00F0A1EC3B
:1046D80028F0230E01013F6FFD0E0101406FDBC082
:1046E80041F10101426BDAC043F10101446BD9C0C9
:1046F80045F10101466B09EC00F0030E01016C6FF6
:104708008A0E01016B6F550EE82EFED76B2FFCD772
:104718006C2FFAD700D01200000E0C6E0AAE06D02D
:10472800096C0A1ED8B00A2A010E0C6E08AE06D013
:10473800076C081ED8B0082A010E0C1A000E0E6E5F
:10474800000E0D6E09500A10D8B41CD0010E0B6E65
:1047580004D0D89009360A360B2A0AAEFAD7D89070
:104768000D360E360950075C0A500858D8A005D0F7
:104778000950075E0A50085A0D80D8900A3209324B
:104788000B2EEDD70C50D8B404D00D6C0E1ED8B03B
:104798000E2A0DC007F00EC008F012000001866F47
:1047A800C2C082F0C3C083F0C4C084F0C5C085F025
:1047B800820E036E000E046E870E056E000E066EE6
:1047C80000018651F1EC1AF0BDEC28F0EB0E476EB3
:1047D800FF0E486E86C049F04A6A09EC06F0B9EC4B
:1047E80028F0DF0E476EFF0E486E09EC06F0080E43
:1047F8000001816F1B0E0001806F270EE82EFED787
:10480800802FFCD7812FFAD787C071F088C072F04B
:10481800820E736E000E746EE3EC14F01200000E3C
:10482800096E000E0A6E000E0B6E000E0C6E05501F
:10483800061007100810D8B42AD0010E0D6E06D045
:10484800D89005360636073608360D2A08AEF8D74A
:10485800D89009360A360B360C360550015C0650DE
:1048680002580750035808500458D8A009D00550DA
:10487800015E0650025A0750035A0850045A09802C
:10488800D89008320732063205320D2EE1D709C01A
:1048980001F00AC002F00BC003F00CC004F01200D3
:1048A8008E0E0101106F08D00101D8900B330A3326
:1048B800093308330101102B000E0101081501010D
:1048C8000C6F000E0101091501010D6F000E0101A9
:1048D8000A1501010E6FFF0E01010B1501010F6F83
:1048E80001010C5101010D1101010E1101010F11FE
:1048F800D8A4DAD708C100F109C101F10AC102F14F
:1049080010C103F1000E0101046F1EEC1CF000C180
:1049180008F101C109F102C10AF112009268936815
:10492800000E946E000E956E000E966E000E896E47
:10493800000E8A6E000E8B6E000E8C6E000E8D6E51
:10494800000EC26E0C0EC16E000EB56EC08EA0ECCD
:1049580026F0010E83EC28F0800E83EC28F0100E70
:1049680001010D6F270E0E6F000E0F6F000E106FF6
:10497800A8EC25F007EC28F0030E0101166F080ECD
:104988000101156F770EE82EFED7152FFCD7162FCD
:10499800FAD71200F29EB5EC28F0000E036ED00E86
:1049A800026E9CEC28F0000E036E000E026E9CEC6A
:1049B80028F0B1EC28F0B5EC28F0000E036ED10E0B
:1049C800026E9CEC28F0000E066E050E066401D0FF
:1049D8000ED00650010DF3500424D96EF450052072
:1049E800DA6E010EBCEC27F0DF6E062AEED720EE59
:1049F80006F00450D9260550DA22000EBCEC27F048
:104A0800DF6EB1EC28F0F28E1200000E066E02AED8
:104A180006D0016C021ED8B0022A010E066E04AE42
:104A280004D0036C041ED8B0042A03500410D8B470
:104A380018D0010E056E04D0D89003360436052A26
:104A480004AEFAD70350015C04500258D8A004D031
:104A58000350015E0450025AD89004320332052EE6
:104A6800F1D70650D8B404D0016C021ED8B0022A7F
:104A780001C001F002C002F012000101016F010142
:104A88000151F00B0101006F8C500F0B8C6E01016E
:104A980000518C108C6E8C96100EE82EFED700D02C
:104AA8008C86100EE82EFED700D001010139F00BDC
:104AB8000101016F01010151F00B0101006F8C50E0
:104AC8000F0B8C6E010100518C108C6E8C96100EA1
:104AD800E82EFED700D08C86100EE82EFED700D028
:104AE80012001250131014101510D8B424D0010E4F
:104AF800166E06D0D8901236133614361536162A86
:104B080015AEF8D712500E5C13500F5814501058A9
:104B180015501158D8A008D012500E5E13500F5AD5
:104B28001450105A1550115AD890153214321332A5
:104B38001232162EE7D70EC00EF00FC00FF010C0BD
:104B480010F011C011F01200000EC76E280EC66ECC
:104B5800000EC56E000E0101006F120E016F7A0E75
:104B6800026F000E036F0DC111F10EC112F10FC1DA
:104B780013F110C114F1020ED89001011137123748
:104B880013371437E82EF8D711C104F112C105F113
:104B980013C106F114C107F16DEC21F00101000504
:104BA800C86E9486948812008E0E116E06D0D89026
:104BB8000C320B320A320932112A000E09140D6E1A
:104BC800000E0A140E6E000E0B140F6EFF0E0C145E
:104BD800106E0D500E100F101010D8A4E8D709C091
:104BE80001F00AC002F00BC003F011C004F0000E7F
:104BF800056ECBEC21F001C009F002C00AF003C039
:104C08000BF01200026E0250F00B016E8C500F0B6D
:104C18008C6E01508C108C6E8C96100EE82EFED780
:104C280000D08C86100EE82EFED700D00238F00B8C
:104C3800026E0250F00B016E8C500F0B8C6E0150FF
:104C48008C108C6E8C96100EE82EFED700D08C86B9
:104C5800100EE82EFED700D0120001013C510101D0
:104C68003D1101013E11D8B409D0000E01013C1BD1
:104C7800000E01013D1B800E01013E1B39C12DF1C3
:104C88003AC12EF13BC12FF13CC130F13DC131F1A8
:104C98003EC132F18CEC12F02DC139F12EC13AF13E
:104CA8002FC13BF1120092EC24F0A5EC28F00D0E78
:104CB80001013F6FFF0E0101406F09EC00F00B0E80
:104CC8000101736F260E0101726F5D0EE82EFED78B
:104CD800722FFCD7732FFAD700D0F086F28E000E11
:104CE8000001D76F000ED66F4DEC23F0FDD7FF0003
:104CF80015C017F016C018F0040E196ED8901832A7
:104D08001732192EFBD717C01AF018C01BF00F0E58
:104D180015141C6E1D6A1AC00FF01BC010F0000E8F
:104D2800126E0A0E116EE2EC27F01C500F24156E5D
:104D38001D501020166E1200270E0101036FF50E8C
:104D4800E82EFED7032FFCD7330E83EC28F0320E63
:104D580083EC28F0280E83EC28F00F0E83EC28F063
:104D6800060E83EC28F0010E83EC28F0270E0101D3
:104D7800036FF50EE82EFED7032FFCD71200445020
:104D880045104610D8B406D0000E441A000E451A35
:104D9800800E461A41C035F042C036F043C037F0A5
:104DA80044C038F045C039F046C03AF0EDEC15F093
:104DB80035C041F036C042F037C043F01200000E53
:104DC8000C6E0AAE06D0096C0A1ED8B00A2A010E6B
:104DD8000C6E09C001F00AC002F0036A8E0E046E60
:104DE8000CC005F0CBEC21F001C009F002C00AF0BC
:104DF80003C00BF0120001010E5101011003F3CFA3
:104E080012F1F4CF13F101010E5101011103F35016
:104E18000101132701010F5101011003F350010192
:104E2800132712C10EF113C10FF11200736EF29E17
:104E3800000E8B6EBDEC28F07350D8A404D0320E4F
:104E4800716EFF0E03D0A90E716EFE0E726E71C0E8
:104E580047F072C048F009EC06F07350D8B412005D
:104E6800FFD7010100510101011101010211D8B45C
:104E780009D0000E0101001B000E0101011B800E6C
:104E88000101021B00C100F101C101F102C102F1DF
:104E980012000101016F68EC28F0C58668EC28F063
:104EA800C9CF02F168EC28F0010101510101D8A431
:104EB80002D0C58A01D0C59AC588010102511200E5
:104EC800BDEC28F0550E476EFF0E486E09EC06F053
:104ED8000B0E106EB80E0F6E000E126E600E116E75
:104EE80071C013F072C014F091EC1EF01200B9EC0E
:104EF80028F0BD0E476EFE0E486E09EC06F0010E56
:104F0800106E900E0F6E020E126EBC0E116E71C0F6
:104F180013F072C014F091EC1EF012000101026F40
:104F2800000E0101016F3A0E0101026107D02F0E38
:104F38000101026503D0010E0101016F01C100F1F9
:104F4800010100311200056E0544E846FC0BC26EF3
:104F5800C280C282C2B2FED7C350C4CF03F0046A73
:104F680003C004F0036A0310016E0450026E1200BD
:104F7800026E72EC28F0C58672EC28F0C9CF03F0F7
:104F880072EC28F00250D8A402D0C58A01D0C59A84
:104F9800C588035012000250AA6E01C0A9FF03C0C1
:104FA800A8FFA69EA69CA684550EA76EAA0EA76E5D
:104FB800A682A1A8FED7A198A69412000F501102AC
:104FC800F3CF13F0F4CF14F00F501202F35014265D
:104FD80010501102F350142613C00FF014C010F033
:104FE8001200015002100310D8B406D0000E011AA6
:104FF800000E021A800E031A01C001F002C002F06E
:1050080003C003F01200000E0101016FA00E006F33
:1050180051EC28F00001D86F030E0001D86512008A
:10502800000E0001D86F1200036E000E026E3A0ED9
:10503800036005D02F0E036402D0010E026E02C079
:1050480001F001301200F29E81A2FED781380F0BC9
:105058000F0B036E81B2FED7F090F28E03C001F001
:10506800026A1200016E015000080001D825040FE1
:10507800026E040E026402D0040E025E0250120098
:1050880000EEB6F02A0EEE6AE806FDE17F907F9208
:10509800000EF86E000157EF26F001010151AA6ECB
:1050A80000C1A9FFA69EA69CA680A6B0FED7A850C0
:1050B80012000250AA6E01C0A9FFA69EA69CA68057
:1050C800A6B0FED7A8501200C7B4FED7C5CF00F1CE
:1050D8001F0E01010017D8B41200F6D7C7B4FED7C7
:1050E800C5CF01F01F0E0116D8B41200F7D7010181
:1050F800026F8C840101025141EC25F0120001017C
:10510800026F8C940101025141EC25F01200036EEC
:105118008C84035006EC26F01200036E8C94035026
:1051280006EC26F0120068EC28F001C1C9FF120055
:1051380072EC28F002C0C9FF1200C00E83EC28F000
:105148001200800E83EC28F0120068EC28F0C58469
:10515800120068EC28F0C580120072EC28F0C584B3
:10516800120072EC28F0C5801200C00E91EC28F0F5
:0A5178001200800E91EC28F01200E6
:10FBE00000010000000A00000064000000E80300BB
:10FBF0000010270000A086010040420F0080969868
:10FC00000000E1F50500CA9A3B00803F002041005A
:10FC1000C842007A44401C4650C347247449971890
:10FC20004BBCBE4C6B6E4E03155079AD60F3497101
:10FC300000803FCDCC3DD7233C12833AB7D138C6A4
:10FC40002737388635C0D633CC2B32708930E7DB86
:10FC50002EE53C1E42A20D01000000100000000035
:10FC60000100000010000000000100000010000072
:10FC700000000100000010536F7274696E6720432A
:10FC80006F6D706C6574652020202020202020205E
:10FC9000200050726573732061206E756D6265720D
:10FCA000202020202020202020200054696D652065
:10FCB000456C61707365643A20202020202020204C
:10FCC000202000546F74616C20536F727465643A25
:10FCD0002020202020202020202000466F72206D30
:10FCE0006F726520696E666F202020202020202002
:10FCF00020200053696D756C6174696E672E2E2E1D
:10FD00002020202020202020202000253032782F85
:10FD1000253032782F2530327820202020202020D6
:10FD2000202000253032783A253032783A2530329A
:10FD30007820202020202020202000756E6368611C
:10FD4000726765642041412020202020202020204F
:10FD50002000756E636861726765642039562020E3
:10FD6000202020202020202000257520626174742E
:10FD7000657269657320202020202020202020002B
:10FD8000756E6368617267656420432020202020BF
:10FD90002020202020004141536572766F5374610A
:10FDA000797320202020202020202000414153650D
:10FDB00072766F52696768742020202020202020EE
:10FDC0002000556E636861726765643A20202020C8
:10FDD00020202020202000414120536F7274656450
:10FDE0003A20202020202020202020003956205397
:10FDF0006F727465643A202020202020202020206B
:10FE0000002575207365636F6E64732020202020A9
:10FE100020202020200039536572766F5374617959
:10FE2000732020202020202020200043536572765C
:10FE30006F5374617973202020202020202020001F
:10FE40004141536572766F4C6566742020202020F6
:10FE5000202020200039536572766F5269676874DC
:10FE60002020202020202020200043536572766F20
:10FE70005269676874202020202020202020006EF6
:10FE80006F7720253032783A2530327820202020B4
:10FE900020202000737461727420253032783A2556
:10FEA000303278202020202000456D657267656E15
:10FEB000637920202020202020202020006D6F76D4
:10FEC000652063636C6F636B776973652020202006
:10FED000004320536F727465643A20202020202054
:10FEE000202020200039536572766F4C656674209F
:10FEF00020202020202020200043536572766F4C64
:10FF00006566742020202020202020200057656C6A
:10FF1000636F6D65212020202020202020202000DC
:10FF2000256630322072656365697665642020201D
:10FF3000200053746F7070656420202020202020E2
:10FF40002020200030313233343536373839616281
:10FF500063646566006D6F766520636C6F636B77B5
:10FF6000697365202000506572696F643A202575B9
:10FF7000202020202020006E6F20414120202020C2
:10FF8000202020202020006E6F20395620202020A5
:10FF90002020202020200025752020202020202027
:10FFA000202020202020006E6F20432020202020B1
:10FFB00020202020200041413A2020202020202005
:10FFC0002020200039563A202020202020202020E8
:10FFD0002000433A202020202020202020200072D2
:10FFE000756E73206265666F72650073686F7769FE
:10FFF0006E67202575004D61696E6C6F6F70000033
:020000040020DA
:08000000FFFFFFFFFFFFFFFF00
:020000040030CA
:0E000000FF021F1EFF8381FF0FC00FE00F40A5
:00000001FF
