:0400000007EF00F016
:100008007D822FED07F015EF12F08E0E00019B6F29
:10001800000E00019C6F1FD2250E0001A519D8B44F
:1000280005D00001A55103EC14F015D2000E000113
:10003800A46F000EA36F000E0001A26F05D000018F
:10004800A28500018C4B8D2B8CC0F6FF8DC0F7FF6D
:100058000800F550300AD8B4F2D78CC0F6FF8DC02E
:10006800F7FF0800F550FCEC12F0D8A092D0000E73
:100078000001A46F000EA36FA3C080F0A4C081F09C
:10008800000E0001836F0A0E826FB4EC12F080C07C
:10009800A3F081C0A4F0D00E0001946FFF0E000100
:1000A800956F8CC0F6FF8DC0F7FF0800F550000172
:1000B800966F976B000194510001962700019551A6
:1000C80000019723000196510001A32700019751D1
:1000D8000001A42300018C4B8D2B8CC0F6FF8DC032
:1000E800F7FF0800F550FCEC12F0D8A052D0C4D7A6
:1000F8000001A28F6AD00001A35100019D5D00019B
:10010800A45100019E59D8B009D000019D510001A9
:10011800A35F00019E510001A45B09D0000E0001FD
:10012800A46F000EA36F03D0200E03EC14F000019F
:10013800A307D8A0A4070001A329F6E10001A42978
:10014800D8B40BD0F1D798C0D9FF99C0DAFFDF50E7
:1001580003EC14F00001984B992B00019D07D8A0DF
:100168009E0700019D29EFE100019E29D8B473D1B3
:10017800EAD7A50E0001986F000E0001996F000ED6
:1001880000019E6F010E9D6FB6D7C00E0001A2132D
:100198001CD08CC0F6FF8DC0F7FF00018C4B8D2B57
:1001A8000800F5CFA5F00001A551000AD8B4120047
:1001B800640AD8B40AD00D0AD8B407D01C0AD8B437
:1001C800E4D70D0AD8B494D7D4D7A2C094F0C00EFF
:1001D80000019417D8A419D09BC0D9FF9CC0DAFF9E
:1001E800DECFA0F0DDCFA1F0020E00019B27000EAC
:1001F8009C230001A1AF53D0030E0001A2130001FC
:10020800A06DA11FD8B0A12B4AD09BC0D9FF9CC01C
:10021800DAFFDECFA0F0DDCFA1F0020E00019B27B0
:10022800000E9C233CD0010E0001A56F050E0001B5
:10023800A519D8B440D00001A551020DE70EF3244A
:10024800F66EFD0EF420F76E0900F5500001A05D72
:100258000900F5500001A159D8A02DD00001A52B07
:10026800E5D7010E0001A56F040E0001A519D8B449
:1002780022D00001A551020DF10EF324F66EFD0EF9
:10028800F420F76E0900F5500001A05D0900F55053
:100298000001A159D8A00FD00001A52BE5D7000176
:1002A800A251C00B000AD8B4BED7800AD8B4D9D797
:1002B800400AD8B4B8D70001A3510001A411D8B49A
:1002C8000BD0A2C094F0030E00019417D8B404D048
:1002D8000001A307D8A0A407800E0001A5BF7F0EC8
:1002E8000001946F0001A3510001A55D0001A45114
:1002F800800A00019459D8B00BD00001A551000123
:10030800A35F000E0001A5BFFF0E0001A45B05D08E
:10031800000E0001A46F000EA36F0001A2A518D063
:10032800A2C094F0030E00019417D8B403D02D0E88
:1003380003EC14F00001A3510001A411D8B425D096
:10034800300E03EC14F00001A307D8A0A407F2D7DD
:100358000001A3510001A411D8B40DD0200E03EC64
:1003680014F00001A307D8A0A4070001A3510001BD
:10037800A411D8A4F3D7A2C094F0030E00019417D7
:10038800D8B403D02D0E03EC14F0A5C09FF05DD0B7
:1003980000019F51020DE70EF324F66EFD0EF420C6
:1003A800F76E0900F5CF82F00A00F5CF83F0A0C000
:1003B80080F0A1C081F08DEC0FF080C087F081C083
:1003C80088F0000E00018A6F0A0E896FE7EC10F0C2
:1003D80000018751300F0001A56F33D0A0C080F015
:1003E800A1C081F000019F51020DF10EF324F66EB9
:1003F800FD0EF420F76E0900F5CF82F00A00F5CF64
:1004080083F08DEC0FF0000180510F0B00019A6F03
:1004180000019A51010D9C0EF324F66EFF0EF42094
:10042800F76E0800F5CFA5F00CD00001A251C00B63
:10043800000AD8B4ADD7800AD8B4D0D7400AD8B407
:10044800A7D70001A55103EC14F000019F07000194
:100458009F29D8A4EAD78CC0F6FF8DC0F7FF00010A
:100468008C4B8D2B0800F5CFA5F00001A551D8B411
:100478001200D2D50F0E186E000E196EBBD1250EC4
:100488002218D8B404D0225013EC14F0B3D1000EC3
:10049800216E000E206E000E1F6E03D01F840D4AC1
:1004A8000E2A0DC0F6FF0EC0F7FF0800F550300AFF
:1004B800D8B4F4D70DC0F6FF0EC0F7FF0800F5500A
:1004C800A4EC13F0D8A06FD0000E216E000E206EA1
:1004D80020C001F021C002F0000E046E0A0E036E67
:1004E80060EC13F001C020F002C021F0D00E116EB4
:1004F800FF0E126E0DC0F6FF0EC0F7FF0800F55094
:10050800136E146A11501326125014221350202609
:10051800145021220D4A0E2A0DC0F6FF0EC0F7FF17
:100528000800F550A4EC13F0D8A03DD0D1D71F8E09
:1005380054D020501A5C21501B58D8B005D01A50FE
:10054800205E1B50215A08D0000E216E000E206E2E
:1005580003D0200E13EC14F02006D8A02106202882
:10056800F8E12128D8B40AD0F4D715C0D9FF16C0AD
:10057800DAFFDF5013EC14F0154A162A1A06D8A031
:100588001B061A28F2E11B28D8B434D1EED7220E64
:10059800156E000E166E000E1B6E010E1A6EC9D770
:1005A800C00E1F121AD00DC0F6FF0EC0F7FF0D4A7D
:1005B8000E2A0800F5CF22F02250000AD8B4120003
:1005C800640AD8B40AD00D0AD8B407D01C0AD8B423
:1005D800E7D70D0AD8B4ABD7DAD71FC011F0C00ED1
:1005E8001116D8A415D018C0D9FF19C0DAFFDECF6C
:1005F8001DF0DDCF1EF0020E1826000E19221EAEC9
:1006080044D0030E1F121D6C1E1ED8B01E2A3DD0EA
:1006180018C0D9FF19C0DAFFDECF1DF0DDCF1EF0FC
:10062800020E1826000E192230D0010E226E050E79
:100638002218D8B435D02250020DE70EF324F66EF6
:10064800FD0EF420F76E0900F5501D5C0900F55009
:100658001E58D8A025D0222AEAD7010E226E040EF1
:100668002218D8B41DD02250020DF10EF324F66ED4
:10067800FD0EF420F76E0900F5501D5C0900F550D9
:100688001E58D8A00DD0222AEAD71F50C00B000A46
:10069800D8B4CBD7800AD8B4E0D7400AD8B4C5D7E5
:1006A80020502110D8B409D01FC011F0030E111624
:1006B800D8B403D02006D8A02106800E22BE7F0E13
:1006C800116E2050225C2150800A1158D8B007D0F2
:1006D8002250205E000E22BEFF0E215A04D0000ECA
:1006E800216E000E206E1FA414D01FC011F0030E3F
:1006F8001116D8B403D02D0E13EC14F0205021108D
:10070800D8B41ED0300E13EC14F02006D8A0210661
:10071800F5D720502110D8B40AD0200E13EC14F0CD
:100728002006D8A0210620502110D8A4F6D71FC033
:1007380011F0030E1116D8B403D02D0E13EC14F0DB
:1007480022C01CF053D01C50020DE70EF324F66EA5
:10075800FD0EF420F76E0900F5CF03F00A00F5CF7F
:1007680004F01DC001F01EC002F0A1EC11F001C0A0
:1007780008F002C009F0000E0B6E0A0E0A6E5BEC60
:1007880012F00850300F226E2ED01DC001F01EC08E
:1007980002F01C50020DF10EF324F66EFD0EF4204B
:1007A800F76E0900F5CF03F00A00F5CF04F0A1ECCD
:1007B80011F001500F0B176E1750010D9C0EF3240A
:1007C800F66EFF0EF420F76E0800F5CF22F00BD07E
:1007D8001F50C00B000AD8B4B6D7800AD8B4D5D7F2
:1007E800400AD8B4B0D7225013EC14F01C061C28C9
:1007F800D8A4EED70DC0F6FF0EC0F7FF0D4A0E2A9B
:100808000800F5CF22F02250D8B4120038D665C0BF
:1008180039F066C03AF067C03BF068C03CF0B8C039
:100828003DF0B9C03EF0BAC03FF0BBC040F0B4C024
:1008380044F0B5C045F0B6C046F0B7C047F0000E6A
:10084800436E000E426E000E366E800E19EC14F0E8
:100858003C0E0D6EFF0E0E6E3EEC02F076C03DF0C3
:100868003E6A77C03FF0406A8B8CF088F092CB0EDE
:10087800356EEC0E346E840EE82EFED7342EFCD77F
:10088800352EFAD700D084EC13F0000E416E1ED13D
:100898008B9C800E19EC14F0440E2E6E000E2F6EF9
:1008A8003FEC10F02EC04AF02FC04BF0440E2E6ED5
:1008B800000E2F6E04EC10F02EC048F02FC049F047
:1008C800440E2E6E000E2F6E7AEC10F02EC04CF0F7
:1008D8002FC04DF0DA0E0D6EFF0E0E6E3EEC02F0DC
:1008E8004A280DE14B28D8A40AD0482808E149280D
:1008F800D8A405D04C2803E14D28D8B402D0000E66
:10090800416EC00E19EC14F0F10E0D6EFF0E0E6E56
:100918003EEC02F04A504B10D8A407D0F50E0D6EED
:10092800FF0E0E6E3EEC02F00AD04A044B10D8A41B
:1009380009D0F80E0D6EFF0E0E6E3EEC02F04C68FC
:100948004D6806D0FB0E0D6EFF0E0E6E3EEC02F0EB
:100958004A5014EC0DF0ED0E0D6EFF0E0E6E3EECCF
:1009680002F048504910D8A407D0F50E0D6EFF0EBE
:100978000E6E3EEC02F011D048044910D8A407D0FE
:10098800F80E0D6EFF0E0E6E3EEC02F006D0FB0E5A
:100998000D6EFF0E0E6E3EEC02F048506EEC0DF040
:1009A800E40E0D6EFF0E0E6E3EEC02F04C504D1034
:1009B800D8A407D0F80E0D6EFF0E0E6E3EEC02F0B6
:1009C80011D04C044D10D8A407D0F50E0D6EFF0EB3
:1009D8000E6E3EEC02F006D0FB0E0D6EFF0E0E6E94
:1009E8003EEC02F04C50C8EC0DF08B8C4450D8B45F
:1009F8000DD04550D8B40AD04650D8B407D0475087
:100A0800D8B404D0000E756E020E746E760E046EA5
:100A1800000E056EC9EC0FF076C039F03A6A77C05F
:100A28003BF03C6A3BC007F03CC008F0F1EC11F029
:100A380007C034F008C035F03FC007F040C008F0E8
:100A4800F1EC11F0071E081E074A082A0750342443
:100A5800376E08503520386E37C001F038C002F0C4
:100A6800000E046E3C0E036E60EC13F001C034F00F
:100A780002C035F039C007F03AC008F0F1EC11F0C7
:100A880007503426085035223DC007F03EC008F014
:100A9800F1EC11F0071E081E074A082A07503424F3
:100AA800426E08503520436E435004E1970E425C75
:100AB800D8A004D0000E756E020E746E412AC80EBE
:100AC800416404D0000E756E020E746E74047510C5
:100AD800D8B4DED6F098000E7CEC12F094EC13F04B
:100AE800C00E19EC14F0F90E0D6EFD0E0E6E3EECF4
:100AF80002F0440E076E000E086E42C009F043C0B3
:100B08000AF093EC09F0080E356E1B0E346E270EB2
:100B1800E82EFED7342EFCD7352EFAD700F042C087
:100B280023F043C024F0440E256E000E266E7FECA1
:100B380008F0000E756E000E746E12006DC039F06C
:100B48006EC03AF06FC03BF070C03CF069C03DF039
:100B58006AC03EF06BC03FF06CC040F0BCC044F0CF
:100B6800BDC045F0BEC046F0BFC047F0000E436EA2
:100B7800000E426E000E366E800E19EC14F03C0E1C
:100B88000D6EFF0E0E6E3EEC02F076C03DF03E6A32
:100B980077C03FF0406A8B8CF088F09284EC13F0B9
:100BA800000E416E20D1800E19EC14F0440E2E6E0A
:100BB800000E2F6E3FEC10F02EC04AF02FC04BF005
:100BC800440E2E6E000E2F6E04EC10F02EC048F06E
:100BD8002FC049F0440E2E6E000E2F6E7AEC10F0E6
:100BE8002EC04CF02FC04DF0DA0E0D6EFF0E0E6EBB
:100BF8003EEC02F04A280DE14B28D8A40AD0482838
:100C080008E14928D8A405D04C2803E14D28D8B4D8
:100C180002D0000E416EC00E19EC14F0F10E0D6EEC
:100C2800FF0E0E6E3EEC02F04A504B10D8A40CD0CA
:100C3800F50E0D6EFF0E0E6E3EEC02F04C684D6820
:100C48004A5014EC0DF016D04A044B10D8A40CD01E
:100C5800F80E0D6EFF0E0E6E3EEC02F04C684D68FD
:100C68004A5014EC0DF006D0FB0E0D6EFF0E0E6E02
:100C78003EEC02F0ED0E0D6EFF0E0E6E3EEC02F035
:100C880048504910D8A40AD0F50E0D6EFF0E0E6E0E
:100C98003EEC02F048506EEC0DF014D048044910B8
:100CA800D8A40AD0F80E0D6EFF0E0E6E3EEC02F0C0
:100CB80048506EEC0DF006D0FB0E0D6EFF0E0E6E5A
:100CC8003EEC02F0E40E0D6EFF0E0E6E3EEC02F0EE
:100CD8004C504D10D8A40AD0F80E0D6EFF0E0E6EB3
:100CE8003EEC02F04C50C8EC0DF014D04C044D1002
:100CF800D8A40AD0F50E0D6EFF0E0E6E3EEC02F073
:100D08004C50C8EC0DF006D0FB0E0D6EFF0E0E6EAB
:100D18003EEC02F04450D8B40DD04550D8B40AD0B7
:100D28004650D8B407D04750D8B404D0000E756EDA
:100D3800020E746E760E046E000E056EC9EC0FF08E
:100D480076C039F03A6A77C03BF03C6A3BC007F09E
:100D58003CC008F0F1EC11F007C034F008C035F0E1
:100D68003FC007F040C008F0F1EC11F0071E081E64
:100D7800074A082A07503424376E08503520386E41
:100D880037C001F038C002F0000E046E3C0E036E4E
:100D980060EC13F001C034F002C035F039C007F040
:100DA8003AC008F0F1EC11F007503426085035220B
:100DB8003DC007F03EC008F0F1EC11F0071E081E18
:100DC800074A082A07503424426E08503520436EDB
:100DD800435004E1970E425CD8A004D0000E756E13
:100DE800020E746E412A74047510D8B4DCD6F098DB
:100DF800000E7CEC12F094EC13F0C00E19EC14F019
:100E0800F90E0D6EFD0E0E6E3EEC02F0440E076EEE
:100E1800000E086E42C009F043C00AF093EC09F0D6
:100E2800080E356E1B0E346E270EE82EFED7342EB4
:100E3800FCD7352EFAD700F042C023F043C024F087
:100E4800440E256E000E266E7FEC08F0000E756EBF
:100E5800000E746E12000600FACF50F0FBCF51F06E
:100E6800E9CF52F0EACF53F0E1CF54F0E2CF55F09A
:100E7800D9CF56F0DACF57F0F3CF58F0F4CF59F076
:100E8800F6CF5AF0F7CF5BF0F8CF5CF0F5CF5DF016
:100E9800F29EF0A0EBD020EEAAF010EE5FF0050E67
:100EA800DBCFE3FFE806FCE281380F0B0F0B5E6E29
:100EB800F09081A2CFD0FDD7E6EC12F0D7D0000E8B
:100EC800646E010E636E0B0E0A6EB80E096E000E8C
:100ED8000C6E1E0E0B6E5F0E0D6E000E0E6E57EC36
:100EE8000BF0010E0A6E900E096E000E0C6E020ECB
:100EF8000B6E5F0E0D6E000E0E6E57EC0BF0B6D03B
:100F0800000E626E010E616E0B0E0A6EB80E096E4F
:100F1800000E0C6E1E0E0B6E5F0E0D6E000E0E6E2A
:100F280057EC0BF0010E0A6E900E096E000E0C6E57
:100F3800020E0B6E5F0E0D6E000E0E6E57EC0BF070
:100F480095D08BBC02D08B8C91D08B9C8FD08B9EF4
:100F58008B8A020E4F6ED40E4E6E850EE82EFED78B
:100F68004E2EFCD74F2EFAD700F08B9A7FD08B9A53
:100F78008B8E020E4F6E040E4E6EBA0EE82EFED702
:100F88004E2EFCD74F2EFAD700D08B9E6FD0000E76
:100F9800606E010E5F6EC00E19EC14F00B0E0A6E37
:100FA800B80E096E000E0C6E1E0E0B6E5F0E0D6EE7
:100FB800000E0E6E57EC0BF0010E0A6E900E096EC5
:100FC800000E0C6E020E0B6E5F0E0D6E000E0E6E96
:100FD80057EC0BF04BD0000E756E010E746EF28E4E
:100FE800A2EC05F012D0000E756E020E746E48EC7D
:100FF8000CF0000E756E000E746E38D0000E756E13
:10100800010E746EF28E0BEC04F0F29E2FD05E503F
:10101800000AD8B451D7030AD8B451D7040AD8B4AF
:101028006FD70F0AD8B48DD7010AD8B490D7030A5E
:10103800D8B49DD7010AD8B4AAD7070AD8B43DD0E6
:10104800010AD8B4C8D7030AD8B4CDD7010AD8B48E
:10105800D5D70CD074C04EF075C04FF04F50000A71
:10106800D8A404D04E50000AD8B4D1D7F0A224D0C6
:10107800F092020E4F6E040E4E6EBA0EE82EFED798
:101088004E2EFCD74F2EFAD700D081A409D014D009
:10109800000E756E030E746E010E7CEC12F00CD00F
:1010A80074C04EF075C04FF04F50000AD8A404D059
:1010B8004E50010AD8B4ECD7F28E5DC0F5FF5CC083
:1010C800F8FF5BC0F7FF5AC0F6FF59C0F4FF58C0DD
:1010D800F3FF57C0DAFF56C0D9FF55C0E2FF54C02E
:1010E800E1FF53C0EAFF52C0E9FF51C0FBFF50C007
:1010F800FAFF7D921100800E19EC14F0E70E0D6EC8
:10110800FE0E0E6E3EEC02F0C00E19EC14F0760ED8
:101118000D6EFE0E0E6E3EEC02F0000E2D6E000EF1
:101128002C6E000E2F6E000ED7D0B3EC13F001C05A
:101138002CF002C02DF0D2D0800E19EC14F0460E1F
:101148000D6EFE0E0E6E3EEC02F0C00E19EC14F0A1
:10115800270E0D6EFF0E0E6E23C00FF024C010F088
:101168003EEC02F0D7D0800E19EC14F05E0E0D6E36
:10117800FE0E0E6E3EEC02F0C00E19EC14F08E0E50
:101188000D6EFE0E0E6E20EE03F02550D926265069
:10119800DA22DF50276E25C0D9FF26C0DAFFDF50DC
:1011A800286E296A20EE01F02550D9262650DA2229
:1011B800DF502A6E2A502826000E292220EE02F03F
:1011C8002550D9262650DA22DF502B6E2B502826A0
:1011D800000E2922275028240F6E000E2920106E99
:1011E8003EEC02F097D0800E19EC14F0BB0E0D6E99
:1011F800FE0E0E6E3EEC02F0C00E19EC14F0CF0E8F
:101208000D6EFF0E0E6E25C0D9FF26C0DAFFDF5027
:10121800276E27500F6E106A3EEC02F07BD0800ECE
:1012280019EC14F0FD0E0D6EFE0E0E6E3EEC02F083
:10123800C00E19EC14F0CF0E0D6EFF0E0E6E20EEE0
:1012480001F02550D9262650DA22DF50276E275084
:101258000F6E106A3EEC02F05DD0800E19EC14F0AF
:10126800D10E0D6EFE0E0E6E3EEC02F0C00E19ECA5
:1012780014F0CF0E0D6EFF0E0E6E20EE02F025500C
:10128800D9262650DA22DF50276E27500F6E106AB3
:101298003EEC02F03FD0800E19EC14F0120E0D6EE9
:1012A800FF0E0E6E3EEC02F0C00E19EC14F0CF0EDD
:1012B8000D6EFF0E0E6E20EE03F02550D926265037
:1012C800DA22DF50276E27500F6E106A3EEC02F0CC
:1012D80021D0000E2F6E010E2E6E1CD02CC027F0D0
:1012E8002DC028F02850000AD8A4F3D72750000AA8
:1012F800D8B422D7010AD8B436D7030AD8B473D7DA
:10130800060AD8B48CD7010AD8B4A7D7030AD8B428
:10131800C2D7DFD72E502F10D8A4120006D700014D
:10132800C02BC0C00DF00E6A0E5004E1040E0D5C17
:10133800D8A006D0040E0D5E000E0E5A0DC0C0F0E7
:101348000DC001F00EC002F0000E046E050E036E13
:1013580060EC13F001C00DF002C00EF00DC00BF0F0
:101368000EC00CF0D8900B360C36D8900B360C36D5
:10137800D8900B360C360BC001F00CC002F009C037
:1013880003F04DEC13F00D4A0E2A0DC00BF00EC001
:101398000CF0D8900B360C36D8900B360C36D8900B
:1013A8000B360C360BC001F00CC002F007C0D9FF99
:1013B80008C0DAFFDF50036E4DEC13F00D4A0E2A19
:1013C8000DC00BF00EC00CF0D8900B360C36D89030
:1013D8000B360C36D8900B360C360BC001F00CC00F
:1013E80002F020EE01F00750D9260850DA22DF502B
:1013F800036E4DEC13F00D4A0E2A0DC00BF00EC013
:101408000CF0D8900B360C36D8900B360C36D8909A
:101418000B360C360BC001F00CC002F020EE02F0C7
:101428000750D9260850DA22DF50036E4DEC13F02E
:101438000D4A0E2A0DC00BF00EC00CF0D8900B36DA
:101448000C36D8900B360C36D8900B360C360BC0B1
:1014580001F00CC002F020EE03F00750D926085026
:10146800DA22DF50036E4DEC13F00D4A0E2A000EFF
:10147800026EA00E016EC0C003F04DEC13F0120016
:101488000B6E0B50C2EC13F0076E0750050DF3CF2F
:101498000CF0F4CF0DF00CC007F00DC008F0D89098
:1014A80007360836D89007360836D89007360836F3
:1014B80007C001F008C002F0DCEC13F0096E0A6AFC
:1014C80005C0D9FF06C0DAFF09C0DEFF0AC0DDFF8C
:1014D8000C4A0D2A0CC007F00DC008F0D89007364A
:1014E8000836D89007360836D8900736083607C029
:1014F80001F008C002F0DCEC13F003C0D9FF04C00F
:10150800DAFFDF6E0C4A0D2A20EE01F00350D926CF
:101518000450DA220CC007F00DC008F0D890073646
:101528000836D89007360836D8900736083607C0E8
:1015380001F008C002F0DCEC13F0DF6E0C4A0D2A53
:1015480020EE02F00350D9260450DA220CC007F02E
:101558000DC008F0D89007360836D89007360836F8
:10156800D8900736083607C001F008C002F0DCEC56
:1015780013F0DF6E0C4A0D2A20EE03F00350D92633
:101588000450DA220CC007F00DC008F0D8900736D6
:101598000836D89007360836D8900736083607C078
:1015A80001F008C002F0DCEC13F0DF6E0C4A0D2AE3
:1015B80012000FC013F0146A156A0E34133601E3D3
:1015C80014801350166E1650D8A407D0000E0D6E56
:1015D800000E0E6E000E0F6E120012C013F0146A89
:1015E800156A1134133601E3148013501B6E1B5017
:1015F800D8A407D0000E0D6E000E0E6E000E0F6EF2
:1016080012001B507B0F16260FC01BF012501B1A1E
:10161800800E1B160E8E118EFF0E1016FF0E111661
:10162800000E1216000E176E000E186E000E196EC0
:10163800070E1A6E0DA006D010501726115018224A
:1016480012501922D8900F320E320D32D89010361F
:10165800113612361A2EEED7090E1A6E0DA006D0C4
:10166800105017261150182212501922D8900F32F4
:101678000E320D32D8901932183217321A2EEED790
:1016880017C001F018C002F019C003F016C004F02A
:101698001BC005F022EC0EF001C00DF002C00EF0E8
:1016A80003C00FF0120009C001F00AC002F0000EDA
:1016B800046E0A0E036E4BEC0FF001C009F002C075
:1016C8000AF00906D8A00A0609C014F00AC015F0E5
:1016D8000CBE12000C5003E10B04D8A0120009C084
:1016E80014F00AC015F0000E116E8BB00DD00DC0AD
:1016F800D9FF0EC0DAFFDECF0FF0DDCF10F00F30CC
:10170800D8A002D0010E116E11B002D08B9001D07A
:101718008B80000E126E8BB20FD020EE02F00D50AF
:10172800D9260E50DA22DECF0FF0DDCF10F00F30C1
:10173800D8A002D0010E126E12B002D08B9201D046
:101748008B82000E136E8BB40FD020EE04F00D5078
:10175800D9260E50DA22DECF0FF0DDCF10F00F3091
:10176800D8A002D0010E136E13B002D08B9401D012
:101778008B8415BE0DD0155003E11404D8A008D0F1
:10178800030EE82EFED700F01406D8A01506F1D7F0
:101798000B06D8A00C069CD72B6E2B5011EC13F01F
:1017A80001C02CF002C02DF02DBE06D02D5007E14F
:1017B800140E2C5CD8B003D0256826681200030EDE
:1017C800276E980EE82EFED7272EFCD72B5011EC4B
:1017D80013F00ED029C02CF02AC02DF0030E276E6E
:1017E800980EE82EFED7272EFCD72B5011EC13F0BD
:1017F80001C029F002C02AF02CC027F02DC028F023
:10180800271E281E274A282A295027262A502822F8
:1018180028BE06D02850DEE1060E275CD8B0DAD7FD
:101828009A0E106E590E116E3F0E126E25C009F0F9
:1018380026C00AF098EC12F009C00DF00AC00EF0AC
:101848000BC00FF0DDEC0AF00DC01CF00EC01DF04F
:101858000FC01EF02CC009F02DC00AF098EC12F051
:1018680009C01FF00AC020F00BC021F079EC0EF07F
:10187800D8B005D0000E266E010E256E1200000E9F
:10188800266E000E256E1200000E67D0800E19EC31
:1018980014F0A50E0D6EFE0E0E6E3EEC02F0C00E9C
:1018A80019EC14F0780E0D6EFF0E0E6E3EEC02F081
:1018B800B3EC13F0F80E0124396EFF0E02203A6ED5
:1018C8003ABE4AD03ABE06D03A5046E1040E395CD8
:1018D800D8B042D0B0C032F0B1C033F0B2C034F0AA
:1018E800B3C035F0320E036E000E046E370E056E6F
:1018F800000E066E395044EC0AF0800E19EC14F014
:10190800AD0E0D6EFF0E0E6E010E39240F6E000E19
:101918003A20106E3EEC02F0C00E19EC14F0BE0E28
:101928000D6EFF0E0E6E3EEC02F0080E316E1B0EB1
:10193800306E270EE82EFED7302EFCD7312EFAD780
:1019480000F037C023F038C024F0320E256E000EA8
:10195800266E7FEC08F002D0010E366E3650D8A401
:10196800120094D7000E0001886F000E896F000ED8
:101978008A6F000E8B6F00018451000185110001F0
:10198800861100018711D8B442D0010E00018C6F76
:1019980008D00001D890843785378637873700010B
:1019A8008C2B000187AFF5D70001D890883789378D
:1019B8008A378B37000184510001805D0001855111
:1019C80000018159000186510001825900018751A7
:1019D80000018359D8A012D0000184510001805F12
:1019E800000185510001815B000186510001825B85
:1019F800000187510001835B000188810001D890B4
:101A0800873386338533843300018C2FCDD788C044
:101A180080F089C081F08AC082F08BC083F0120008
:101A2800176E20EECDF010EE18F0050EDBCFE3FFB9
:101A3800E806FCE2000E8B6E1ED0010E0A6E900EB8
:101A4800096E030E0C6EE80E0B6E180E0D6E000E6E
:101A58000E6E57EC0BF016D00B0E0A6EB80E096E10
:101A6800000E0C6EB40E0B6E180E0D6E000E0E6E80
:101A780057EC0BF007D01750000AD8B4EDD7010A7D
:101A8800D8B4DBD7340E166EF20EE82EFED7162E1B
:101A9800FCD77350D8B40FD0010E0A6EC20E096E6F
:101AA800000E0C6E140E0B6E180E0D6E000E0E6EE0
:101AB80057EC0BF01200130E0A6E880E096E000E1A
:101AC8000C6E140E0B6E180E0D6E000E0E6E57EC8B
:101AD8000BF01200176E20EEC7F010EE18F0050E8E
:101AE800DBCFE3FFE806FCE2000E8B6E1ED0010E92
:101AF8000A6E900E096E030E0C6E200E0B6E180EF9
:101B08000D6E000E0E6E57EC0BF016D00B0E0A6E13
:101B1800B80E096E000E0C6EB40E0B6E180E0D6E1C
:101B2800000E0E6E57EC0BF007D01750000AD8B411
:101B3800EDD7010AD8B4DBD7340E166EF20EE82EB4
:101B4800FED7162EFCD77250D8B40FD0010E0A6EED
:101B5800C20E096E000E0C6E140E0B6E180E0D6E72
:101B6800000E0E6E57EC0BF01200130E0A6E880E64
:101B7800096E000E0C6E140E0B6E180E0D6E000E14
:101B88000E6E57EC0BF01200176E20EEC1F010EE3F
:101B980018F0050EDBCFE3FFE806FCE2000E8B6EC3
:101BA8001ED00B0E0A6EB80E096E000E0C6EB40E27
:101BB8000B6E180E0D6E000E0E6E57EC0BF016D055
:101BC800010E0A6E900E096E030E0C6E200E0B6E3F
:101BD800180E0D6E000E0E6E57EC0BF007D0175056
:101BE800000AD8B4EDD7010AD8B4DBD7340E166E84
:101BF800F20EE82EFED7162EFCD77150D8B40FD0AF
:101C0800010E0A6EC20E096E000E0C6E140E0B6EDB
:101C1800180E0D6E000E0E6E57EC0BF01200130E20
:101C28000A6E880E096E000E0C6E140E0B6E180EDE
:101C38000D6E000E0E6E57EC0BF012000450D8B467
:101C480005D0015002100310D8A40CD0000E016E6C
:101C5800000E026E000E036E1200042AD8900332A2
:101C680002320132000E0114066E000E0214076ED5
:101C7800FE0E0314086E065007100810D8B40CD0D6
:101C8800ECD7042A010E0126000E0222000E0322C0
:101C9800D890033202320132000E0114066E000E93
:101CA8000214076EFF0E0314086E06500710081082
:101CB800D8B406D0E6D70406D890013602360336E3
:101CC80002BE03D0020E0460F6D704A0029ED8908C
:101CD8000432045003120550D8A4038E01C001F049
:101CE80002C002F003C003F012001EAE16D01CC0E2
:101CF80022F01DC023F01EC024F0221E231E241E25
:101D0800222A000E23222422000E22241C6E000EFA
:101D180023201D6E800E24201E6E21AE16D01FC0FB
:101D280022F020C023F021C024F0221E231E241EEE
:101D3800222A000E23222422000E22241F6E000EC7
:101D48002320206E800E2420216E000E1C1A000E07
:101D58001D1A800E1E1A000E1F1A000E201A800E61
:101D6800211A1F501C5C20501D5821501E58D8B0F5
:101D780002D0D8901200D8801200760E0001836F2E
:101D8800000E0001846F06EC0FF0800E0BEC14F0CF
:101D9800140E00018C6FFE0E00018D6F7CC08EF05A
:101DA80000018F6B7BC090F00001916B7AC092F0BC
:101DB8000001936B09EC00F0C00E0BEC14F02D0E33
:101DC80000018C6FFE0E00018D6F78C08EF000014F
:101DD8008F6B77C090F00001916B76C092F0000194
:101DE800936B09EC00F0030E0001A76F8A0E000147
:101DF800A66F550EE82EFED7A62FFCD7A72FFAD729
:101E080000D01200F29E2DEC14F0000E0001826F3B
:101E1800D00E816F1FEC14F0000E0001826F000ECF
:101E2800816F1FEC14F029EC14F02DEC14F0000E67
:101E38000001826FD10E816F1FEC14F0000E0001BB
:101E4800856F050E0001856501D012D0000185510E
:101E5800010DF35000018325D96EF450000184214F
:101E6800DA6E010ECFEC12F0DF6E0001852BE9D798
:101E7800000120EE06F08351D9268451DA22000EA3
:101E8800CFEC12F0DF6E29EC14F0F28E1200000E87
:101E9800066E04AE06D0036C041ED8B0042A010EE8
:101EA800066E02AE06D0016C021ED8B0022A010EE0
:101EB800061A000E086E000E076E03500410D8B400
:101EC8001CD0010E056E04D0D89003360436052ABE
:101ED80004AEFAD7D890073608360350015C045090
:101EE8000258D8A005D00350015E0450025A07805A
:101EF800D89004320332052EEDD70650D8B404D05A
:101F0800076C081ED8B0082A07C001F008C002F004
:101F18001200000E0001856F000E846F00018251CF
:101F280000018311D8B42CD0010E0001866F06D0B1
:101F38000001D890823783370001862B000183AFD8
:101F4800F7D70001D8908437853700018251000106
:101F5800805D0001835100018159D8A00AD0000199
:101F680082510001805F000183510001815B000103
:101F780084810001D890833382330001862FE1D712
:101F880084C080F085C081F01200F29E35EC14F018
:101F9800000E036ED00E026E24EC14F0000E036ED9
:101FA800000E026E24EC14F031EC14F035EC14F051
:101FB800000E036ED10E026E24EC14F0000E066EB5
:101FC800050E066401D00ED00650010DF35004240E
:101FD800D96EF4500520DA6E010E3AEC13F0DF6E7C
:101FE800062AEED720EE06F00450D9260550DA224C
:101FF800000E3AEC13F0DF6E31EC14F0F28E1200A2
:10200800EE0E0D6EFF0E0E6E3EEC02F0010E266E09
:10201800320E256E000ED0EC0BF025C032F026C033
:1020280033F032C023F033C024F026EC13F00FD085
:1020380020EE01F02E50D9262F50DA22DF2A20EE8A
:1020480003F02E50D9262F50DA22DF2A0FD032C0C3
:1020580030F033C031F03150000AD8A407D03050E6
:10206800000AD8B4ECD7010AD8B4E2D732C02EF0AF
:1020780033C02FF01200F10E0D6EFF0E0E6E3EEC07
:1020880002F0020E266EEA0E256E050ED0EC0BF05D
:1020980025C032F026C033F032C023F033C024F01C
:1020A80026EC13F00FD020EE02F02E50D9262F5038
:1020B800DA22DF2A20EE03F02E50D9262F50DA221A
:1020C800DF2A0FD032C030F033C031F03150000A6F
:1020D800D8A407D03050000AD8B4ECD7010AD8B435
:1020E800E2D732C02EF033C02FF01200E50E0D6E8D
:1020F800FF0E0E6E3EEC02F0010E266E320E256EBD
:10210800020ED0EC0BF025C032F026C033F032C0FE
:1021180023F033C024F026EC13F00DD02EC0D9FFE5
:102128002FC0DAFFDF2A20EE03F02E50D9262F50D9
:10213800DA22DF2A0FD032C030F033C031F031500C
:10214800000AD8A407D03050000AD8B4ECD7010A46
:10215800D8B4E4D732C02EF033C02FF012000001FB
:10216800816F00018151F00B0001806F8C500F0BC3
:102178008C6E000180518C108C6E8C96100EE82E9F
:10218800FED700D08C86100EE82EFED700D00001B6
:102198008139F00B0001816F00018151F00B0001C2
:1021A800806F8C500F0B8C6E000180518C108C6EE0
:1021B8008C96100EE82EFED700D08C86100EE82ED6
:1021C800FED700D012000001895100018A11D8B44D
:1021D80026D0010E00018B6F06D00001D8908937F8
:1021E8008A3700018B2B00018AAFF7D7000189518C
:1021F8000001875D00018A5100018859D8A008D0E4
:10220800000189510001875F00018A510001885B44
:102218000001D8908A33893300018B2FE7D787C014
:1022280087F088C088F01200000EC76E280EC66EB0
:10223800000EC56E000E0001806F120E816F7A0EBF
:10224800826F000E836F8DC091F08EC092F08FC0A8
:1022580093F090C094F0020ED89000019137923715
:1022680093379437E82EF8D791C084F092C085F060
:1022780093C086F094C087F0B6EC0CF0000180059E
:10228800C86E94869488120092689368000E946EC3
:10229800000E956E0F0E966E38EC12F0000E896ED9
:1022A800000E8A6E8A84000E8B6E000E8C6E000EF5
:1022B8008D6E000EC26E090EC16E000EB56EC08E18
:1022C800010E0BEC14F0100E00018D6F270E8E6FAF
:1022D800000E8F6F000E906F18EC11F073EC13F076
:1022E800F1981200026E0250F00B016E8C500F0B29
:1022F8008C6E01508C108C6E8C96100EE82EFED7CA
:1023080000D08C86100EE82EFED700D00238F00BD5
:10231800026E0250F00B016E8C500F0B8C6E015048
:102328008C108C6E8C96100EE82EFED700D08C8602
:10233800100EE82EFED700D01200000E066E000E1A
:10234800056E03500410D8B41CD0010E076E04D0DB
:10235800D89003360436072A04AEFAD7D890053643
:1023680006360350015C04500258D8A005D003502B
:10237800015E0450025A0580D89004320332072EB9
:10238800EDD705C001F006C002F0120048EC11F0CC
:10239800800E0BEC14F0650E00018C6FFF0E00012F
:1023A8008D6F09EC00F0060E0001A96F130E0001F5
:1023B800A86FAD0EE82EFED7A82FFCD7A92FFAD705
:1023C80000D0F086F090F098F28E000E756E000E38
:1023D800746EC1EC0EF0FDD7FF0007C009F008C00D
:1023E8000AF0040E0B6ED8900A3209320B2EFBD776
:1023F80009C00CF00AC00DF00F0E07140E6E0F6A1C
:102408000CC001F00DC002F0000E046E0A0E036E3F
:1024180060EC13F00E500124076E0F500220086E76
:102428001200E20EF66E270EF76E000EF86E00EE42
:10243800C1F010EE12F00900F5CFEEFFE550E150C3
:10244800FAE100EEAAF0170EEE6AE806FDE100EEEA
:1024580065F0180EEE6AE806FDE17D907D92000EAB
:10246800F86E0001CAEF11F0270E0001836FF50E18
:10247800E82EFED7832FFCD7330E0BEC14F0320E68
:102488000BEC14F0280E0BEC14F00F0E0BEC14F000
:10249800060E0BEC14F0010E0BEC14F0270E0001E5
:1024A800836FF50EE82EFED7832FFCD712000A5053
:1024B8000B10D8B418D0010E0C6E04D0D8900A3680
:1024C8000B360C2A0BAEFAD70A50085C0B50095889
:1024D800D8A004D00A50085E0B50095AD8900B3285
:1024E8000A320C2EF1D708C008F009C009F0120012
:1024F800256EF29E000E8B6E800E19EC14F025509E
:10250800D8A404D08A0E236EFF0E03D0510E236E7A
:10251800FF0E246E23C00DF024C00EF03EEC02F036
:102528002550D8B41200FFD7000E0C6E0AAE06D0A4
:10253800096C0A1ED8B00A2A010E0C6E09C001F0F7
:102548000AC002F0036A8E0E046E0CC005F022EC7D
:102558000EF001C009F002C00AF003C00BF012002F
:102568000001805100018203F3CF84F0F4CF85F09D
:102578000001805100018303F35000018527000109
:10258800815100018203F3500001852784C080F047
:1025980085C081F012000001816FE7EC13F0C58659
:1025A800E7EC13F0C9CF82F0E7EC13F0000181519A
:1025B8000001D8A402D0C58A01D0C59AC5880001F7
:1025C80082511200010E14EC0DF0010EC8EC0DF052
:1025D800010E6EEC0DF0030E1F6E080E1E6E770EC8
:1025E800E82EFED71E2EFCD71F2EFAD700F0EAD70A
:1025F8000001826F000E0001816F3A0E00018261B6
:1026080007D02F0E0001826503D0010E0001816FF3
:1026180081C080F0000180311200056E0544E84653
:10262800FC0BC26EC280C282C2B2FED7C350C4CFF6
:1026380003F0046A03C004F0036A0310016E045037
:10264800026E120024AE07D0E90E0D6EFF0E0E6E5C
:102658003EEC02F01200DF0E0D6EFF0E0E6E23C070
:102668000FF024C010F03EEC02F01200026EFAECFB
:1026780013F0C586FAEC13F0C9CF03F0FAEC13F0A7
:102688000250D8A402D0C58A01D0C59AC588035083
:1026980012000250AA6E01C0A9FF03C0A8FFA69E9F
:1026A800A69CA684550EA76EAA0EA76EA682A1A800
:1026B800FED7A198A694120001500302F3CF05F0AB
:1026C800F4CF06F001500402F3500626025003022C
:1026D800F350062605C001F006C002F01200000EF5
:1026E8000001816FA00E806FD0EC13F00001C06F65
:1026F800030E0001C0651200000E0001C06F120039
:102708008B9E8B8A020E026EA00E016E920EE82E30
:10271800FED7012EFCD7022EFAD700D08B9A1200D2
:102728008B9A8B8E020E026EA00E016E920EE82E10
:10273800FED7012EFCD7022EFAD700D08B9E1200AE
:10274800036E000E026E3A0E036005D02F0E03646E
:1027580002D0010E026E02C001F001301200F29E9A
:1027680081A2FED781380F0B0F0B036E81B2FED703
:10277800F090F28E03C001F0026A1200016E01505F
:1027880000080001C025040F026E040E026402D086
:10279800040E025E0250120000018151AA6E80C030
:1027A800A9FFA69EA69CA680A6B0FED7A850120098
:1027B8000250AA6E01C0A9FFA69EA69CA680A6B03C
:1027C800FED7A8501200C7B4FED7C5CF80F01F0EA1
:1027D80000018017D8B41200F6D7010000000000ED
:1027E800000001000000000000000100C7B4FED78F
:1027F800C5CF01F01F0E0116D8B41200F7D700019B
:10280800826F8C8400018251B3EC10F01200000139
:10281800826F8C9400018251B3EC10F01200036EA9
:102828008C84035076EC11F01200036E8C940350E4
:1028380076EC11F01200E7EC13F081C0C9FF12002A
:10284800FAEC13F002C0C9FF1200E7EC13F0C584DC
:102858001200E7EC13F0C5801200FAEC13F0C584FF
:0A2868001200FAEC13F0C580120014
:10FDE6000001000A006400E803102701001000006B
:10FDF600010010536F7274696E6720436F6D706CEB
:10FE0600657465202020202020202020200020202E
:10FE16002020253032782F253032782F2530327841
:10FE26002020202020200020202020253032783A53
:10FE3600253032783A2530327820202020202000C4
:10FE460054696D6520456C61707365643A202020A5
:10FE56002020202020202000546F74616C20536FD6
:10FE6600727465643A202020202020202020200063
:10FE7600466F72206D6F726520696E666F20202056
:10FE860020202020202020002575206261747465C2
:10FE96007269657320202020202020202020005019
:10FEA60065726D616E656E74206C6F673A202020F6
:10FEB6002020202000436861726765642041413A32
:10FEC6002020202020202020202000436861726707
:10FED60065642039563A202020202020202020202A
:10FEE6000050726573732061206B65792020202095
:10FEF600202020202020004368617267656420432B
:10FF06003A2020202020202020202000556E6368E3
:10FF160061726765643A202020202020202020205E
:10FF2600002575207365636F6E6473202020202082
:10FF3600202020202000536F7274696E672E2E2EAB
:10FF46002020202020202020202000456D6572677B
:10FF5600656E637920202020202020202020005755
:10FF6600656C636F6D6521202020202020202020D5
:10FF7600200057686963682072756E3F2020202034
:10FF86002020200053746F7070656420202020208C
:10FF960020202020200030313233343536373839AE
:10FFA6006162636465660073686F77696E672025B2
:10FFB600752020202020200072756E7320626566F1
:10FFC6006F7265202020202000257520202020200B
:10FFD60020202020202020200020256420002041F1
:10FFE600413A002D31200020433A0039563A00208C
:09FFF6002B00202D00203000003A
:020000040020DA
:08000000FFFFFFFFFFFFFFFF00
:020000040030CA
:0E000000FF021F1EFF8381FF0FC00FE00F40A5
:00000001FF
