:0400000007EF00F016
:100008007C8232ED06F0D1EF10F0B80E0001C26F1D
:10001800000E0001C36FCED1250E0001CF19D8B450
:1000280005D00001CF5154EC11F0C4D1000E0001ED
:10003800CE6F000ECD6F000E0001CC6F05D0000111
:10004800CC850001B64BB72BB6C0F6FFB7C0F7FF9B
:100058000800F550300AD8B4F2D7B6C0F6FFB7C0DA
:10006800F7FF0800F5505DEC10F0D8A092D0000E14
:100078000001CE6F000ECD6FCDC0AAF0CEC0ABF0A0
:10008800000E0001AD6F0A0EAC6F2BEC10F0AAC089
:10009800CDF0ABC0CEF0D00E0001BE6FFF0E000158
:1000A800BF6FB6C0F6FFB7C0F7FF0800F5500001F4
:1000B800C06FC16B0001BE510001C0270001BF51D4
:1000C8000001C1230001C0510001CD270001C15129
:1000D8000001CE230001B64BB72BB6C0F6FFB7C060
:1000E800F7FF0800F5505DEC10F0D8A052D0C4D747
:1000F8000001CC8F64D00001CD510001C75D000123
:10010800CE510001C859D8B009D00001C75100012B
:10011800CD5F0001C8510001CE5B09D0000E00017F
:10012800CE6F000ECD6F03D0200E54EC11F00001FD
:10013800CD07D8A0CE070001CD29F6E10001CE29D0
:10014800D8B40BD0F1D7C4C0D9FFC5C0DAFFDF508F
:1001580054EC11F00001C44BC52B0001C707D8A00F
:10016800C8070001C729EFE10001C829D8B422D186
:10017800EAD7CF0E0001C46F000E0001C56F000E54
:100188000001C86F010EC76FB6D7C00E0001CC13AF
:1001980016D0B6C0F6FFB7C0F7FF0001B64BB72BB5
:1001A8000800F5CFCFF00001CF51000AD8B41200F3
:1001B800750AD8B4EAD70D0AD8B49AD7DAD7C2C024
:1001C800D9FFC3C0DAFFDECFCAF0DDCFCBF0020E15
:1001D8000001C227000EC3233CD0010E0001CF6FDF
:1001E800050E0001CF19D8B43DD00001CF51020D42
:1001F800AD0EF324F66EFD0EF420F76E0900F550EF
:100208000001CA5D0900F5500001CB59D8A02AD0D9
:100218000001CF2BE5D7010E0001CF6F040E0001BE
:10022800CF19D8B41FD00001CF51020DB70EF32457
:10023800F66EFD0EF420F76E0900F5500001CA5D58
:100248000900F5500001CB59D8A00CD00001CF2BE4
:10025800E5D70001CC51C00B800AD8B4DCD7400ADE
:10026800D8B4BBD7800E0001CFBF7F0E0001BE6F90
:100278000001CD510001CF5D0001CE51800A00017F
:10028800BE59D8B00BD00001CF510001CD5F000E90
:100298000001CFBFFF0E0001CE5B05D0000E0001AC
:1002A800CE6F000ECD6F0001CCA50ED00001CD5150
:1002B8000001CE11D8B41BD0300E54EC11F000015F
:1002C800CD07D8A0CE07F2D70001CD510001CE113D
:1002D800D8B40DD0200E54EC11F00001CD07D8A0F1
:1002E800CE070001CD510001CE11D8A4F3D7CFC05D
:1002F800C9F05AD00001C951020DAD0EF324F66EB3
:10030800FD0EF420F76E0900F5CFACF00A00F5CF2A
:10031800ADF0CAC0AAF0CBC0ABF0DCEC0DF0AAC0BF
:10032800B1F0ABC0B2F0000E0001B46F0A0EB36FAB
:1003380087EC0EF00001B151300F0001CF6F30D0C3
:10034800CAC0AAF0CBC0ABF00001C951020DB70E6C
:10035800F324F66EFD0EF420F76E0900F5CFACF02D
:100368000A00F5CFADF0DCEC0DF00001AA510F0B3F
:100378000001C66F0001C651010D910EF324F66EFF
:10038800FF0EF420F76E0800F5CFCFF009D000017A
:10039800CC51C00B800AD8B4D3D7400AD8B4AAD756
:1003A8000001CF5154EC11F00001C9070001C9291F
:1003B800D8A4EDD7B6C0F6FFB7C0F7FF0001B64B1B
:1003C800B72B0800F5CFCFF00001CF51D8B41200F9
:1003D80023D69EC055F09FC056F0A0C057F0A1C0CC
:1003E80058F09AC059F09BC05AF09CC05BF09DC071
:1003F8005CF096C05DF097C05EF098C05FF099C061
:1004080060F0000E626E000E616E000E406E000E0F
:100418003F6E800E6AEC11F0860E0D6EFE0E0E6EAB
:1004280097EC03F0A3C059F05A6AA4C05BF05C6A69
:100438008B8CF088F0923DD1800E6AEC11F05D0E45
:100448003B6E000E3C6E82EC0BF03BC053F03CC0A0
:1004580054F05D0E3B6E000E3C6E28EC0BF03BC07A
:1004680051F03CC052F05D0E3B6E000E3C6EDCEC71
:100478000BF03BC04FF03CC050F0CF0E0D6EFF0E9E
:100488000E6E97EC03F020EE8CF010EE43F0050EA4
:10049800DBCFE3FFE806FCE220EE86F010EE49F041
:1004A800050EDBCFE3FFE806FCE2C00E6AEC11F0B4
:1004B800F20E0D6EFF0E0E6E97EC03F053505410B3
:1004C800D8A40BD0000E4A6E010E496EF90E0D6EBF
:1004D800FF0E0E6E97EC03F015D04F045010D8A401
:1004E8000BD0000E446E010E436EF60E0D6EFF0E1D
:1004F8000E6E97EC03F006D0FC0E0D6EFF0E0E6E1E
:1005080097EC03F0EE0E0D6EFF0E0E6E97EC03F0F7
:1005180051505210D8A40BD0000E4C6E010E4B6EE9
:10052800F90E0D6EFF0E0E6E97EC03F015D0510408
:100538005210D8A40BD0000E466E010E456EF60E72
:100548000D6EFF0E0E6E97EC03F006D0FC0E0D6ECE
:10055800FF0E0E6E97EC03F0DD0E0D6EFF0E0E6EA5
:1005680097EC03F04F505010D8A40BD0000E4E6EED
:10057800010E4D6EF90E0D6EFF0E0E6E97EC03F028
:1005880015D053045410D8A40BD0000E486E010E99
:10059800476EF60E0D6EFF0E0E6E97EC03F006D04A
:1005A800FC0E0D6EFF0E0E6E97EC03F0490E166EE4
:1005B800000E176EEFEC10F0430E166E000E176E5D
:1005C800E0EC10F08B908B928B94A30E046E000ECF
:1005D800056E18EC0EF0A3C055F0566AA4C057F08B
:1005E800586A800E6AEC11F0250E0D6EFE0E0E6E26
:1005F8005BC00FF05CC010F059C011F05AC012F087
:1006080057C013F058C014F055C015F056C016F076
:1006180097EC03F057C007F058C008F08BEC0FF0C8
:1006280007C03DF008C03EF05BC007F05CC008F0B2
:100638008BEC0FF0071E081E074A082A07503D24B6
:10064800416E08503E20426E41C001F042C002F0A7
:10065800000E046E3C0E036EADEC10F001C03DF0D0
:1006680002C03EF055C007F056C008F08BEC0FF002
:1006780007503D2608503E2259C007F05AC008F0DE
:100688008BEC0FF0071E081E074A082A07503D2466
:10069800616E08503E20626EC00E6AEC11F05A0E70
:1006A8000D6EFF0E0E6E61C00FF062C010F097EC79
:1006B80003F03F504010D8B4BFD6000E7B6E020E38
:1006C8007A6EF098000EF3EC0FF0C00E6AEC11F0A1
:1006D800BF0E0D6EFD0E0E6E97EC03F05D0E076EED
:1006E800000E086E61C009F062C00AF009EC07F05C
:1006F800080E3E6E1B0E3D6E270EE82EFED73D2ED1
:10070800FCD73E2EFAD700F061C029F062C02AF06B
:100718005D0E2B6E000E2C6E1EEC05F0000E7B6E2F
:10072800000E7A6E12000F0E1B6E000E1C6E75D135
:10073800250E2818D8B404D0285064EC11F06DD1D7
:10074800000E276E000E266E000E256E03D025843F
:100758000D4A0E2A0DC0F6FF0EC0F7FF0800F5502F
:10076800300AD8B4F4D70DC0F6FF0EC0F7FF080062
:10077800F550FEEC10F0D8A06FD0000E276E000EDA
:10078800266E26C001F027C002F0000E046E0A0E85
:10079800036EADEC10F001C026F002C027F0D00EB9
:1007A800176EFF0E186E0DC0F6FF0EC0F7FF08009B
:1007B800F550196E1A6A1750192618501A2219502E
:1007C80026261A5027220D4A0E2A0DC0F6FF0EC003
:1007D800F7FF0800F550FEEC10F0D8A03DD0D1D7B7
:1007E800258E4ED02650205C27502158D8B005D0F1
:1007F8002050265E2150275A08D0000E276E000E82
:10080800266E03D0200E64EC11F02606D8A0270629
:100818002628F8E12728D8B40AD0F4D71DC0D9FF74
:100828001EC0DAFFDF5064EC11F01D4A1E2A2006B4
:10083800D8A021062028F2E12128D8B4EED0EED79E
:10084800280E1D6E000E1E6E000E216E010E206E0B
:10085800C9D7C00E251214D00DC0F6FF0EC0F7FF81
:100868000D4A0E2A0800F5CF28F02850000AD8B4FF
:100878001200750AD8B4EDD70D0AD8B4B1D7E0D7AD
:100888001BC0D9FF1CC0DAFFDECF23F0DDCF24F078
:10089800020E1B26000E1C2230D0010E286E050EFB
:1008A8002818D8B432D02850020DAD0EF324F66EB5
:1008B800FD0EF420F76E0900F550235C0900F55091
:1008C8002458D8A022D0282AEAD7010E286E040E70
:1008D8002818D8B41AD02850020DB70EF324F66E93
:1008E800FD0EF420F76E0900F550235C0900F55061
:1008F8002458D8A00AD0282AEAD72550C00B800A45
:10090800D8B4E3D7400AD8B4C8D7800E28BE7F0E23
:10091800176E2650285C2750800A1758D8B007D081
:100928002850265E000E28BEFF0E275A04D0000E5F
:10093800276E000E266E25A40BD026502710D8B49B
:1009480015D0300E64EC11F02606D8A02706F5D78E
:1009580026502710D8B40AD0200E64EC11F02606D1
:10096800D8A0270626502710D8A4F6D728C022F0EA
:1009780050D02250020DAD0EF324F66EFD0EF42079
:10098800F76E0900F5CF03F00A00F5CF04F023C095
:1009980001F024C002F013EC0FF001C008F002C00F
:1009A80009F0000E0B6E0A0E0A6ED2EC0FF008501A
:1009B800300F286E2BD023C001F024C002F0225043
:1009C800020DB70EF324F66EFD0EF420F76E090043
:1009D800F5CF03F00A00F5CF04F013EC0FF0015047
:1009E8000F0B1F6E1F50010D910EF324F66EFF0EB4
:1009F800F420F76E0800F5CF28F008D02550C00B7A
:100A0800800AD8B4D8D7400AD8B4B3D7285064ECF1
:100A180011F022062228D8A4F1D70DC0F6FF0EC087
:100A2800F7FF0D4A0E2A0800F5CF28F02850D8B451
:100A380012007ED6800E6AEC11F0DA0E0D6EFD0EF5
:100A48000E6E97EC03F0C00E6AEC11F06E0E0D6E90
:100A5800FE0E0E6E97EC03F0000E336E000E326E33
:100A6800000E356E000ED7D00DEC11F001C032F03B
:100A780002C033F0D2D0800E6AEC11F03E0E0D6E3B
:100A8800FE0E0E6E97EC03F0C00E6AEC11F00A0E23
:100A98000D6EFF0E0E6E29C00FF02AC010F097ECF5
:100AA80003F0D7D0800E6AEC11F0560E0D6EFE0ED4
:100AB8000E6E97EC03F0C00E6AEC11F09E0E0D6EF0
:100AC800FE0E0E6E20EE03F02B50D9262C50DA22A3
:100AD800DF502D6E2BC0D9FF2CC0DAFFDF502E6EF1
:100AE8002F6A20EE01F02B50D9262C50DA22DF5045
:100AF800306E30502E26000E2F2220EE02F02B50A2
:100B0800D9262C50DA22DF50316E31502E26000EB5
:100B18002F222D502E240F6E000E2F20106E97ECD2
:100B280003F097D0800E6AEC11F0E00E0D6EFE0E09
:100B38000E6E97EC03F0C00E6AEC11F0C40E0D6E49
:100B4800FF0E0E6E2BC0D9FF2CC0DAFFDF502D6EC2
:100B58002D500F6E106A97EC03F07BD0800E6AEC74
:100B680011F0330E0D6EFF0E0E6E97EC03F0C00EF3
:100B78006AEC11F0C40E0D6EFF0E0E6E20EE01F041
:100B88002B50D9262C50DA22DF502D6E2D500F6EA7
:100B9800106A97EC03F05DD0800E6AEC11F0F50E48
:100BA8000D6EFE0E0E6E97EC03F0C00E6AEC11F09F
:100BB800C40E0D6EFF0E0E6E20EE02F02B50D926DD
:100BC8002C50DA22DF502D6E2D500F6E106A97ECE4
:100BD80003F03FD0800E6AEC11F0CB0E0D6EFE0EC6
:100BE8000E6E97EC03F0C00E6AEC11F0C40E0D6E99
:100BF800FF0E0E6E20EE03F02B50D9262C50DA2271
:100C0800DF502D6E2D500F6E106A97EC03F021D037
:100C1800000E356E010E346E1CD032C02DF033C07C
:100C28002EF02E50000AD8A4F3D72D50000AD8B4BD
:100C380022D7010AD8B436D7030AD8B473D7060A1C
:100C4800D8B48CD7010AD8B4A7D7030AD8B4C2D766
:100C5800DFD734503510D8A4120006D70600FACFD3
:100C680065F0FBCF66F0E9CF67F0EACF68F0E1CF37
:100C780069F0E2CF6AF0D9CF6BF0DACF6CF0F3CF3E
:100C88006DF0F4CF6EF0F6CF6FF0F7CF70F0F8CFCD
:100C980071F0F5CF72F0F29EF0A07ED020EE80F0D9
:100CA80010EE74F0050EDBCFE3FFE806FCE28138B6
:100CB8000F0B0F0B736EF09081A262D0FDD7000E60
:100CC8007B6E020E7A6E5EEC0AF0000E7B6E000EF2
:100CD8007A6E62D0000E7B6E010E7A6EF28EEDECAB
:100CE80001F0F29E59D0000E756E010E746E0B0E57
:100CF8000A6EB80E096E000E0C6E0A0E0B6E740E9C
:100D08000D6E000E0E6E72EC09F046D0000E776E76
:100D1800010E766E0B0E0A6EB80E096E000E0C6E82
:100D28000A0E0B6E740E0D6E000E0E6E72EC09F04C
:100D380033D0000E796E010E786E0B0E0A6EB80E67
:100D4800096E000E0C6E0A0E0B6E740E0D6E000E00
:100D58000E6E72EC09F020D07350030AD8B4E9D7AC
:100D6800040AD8B4D3D70C0AD8B4BDD7070AD8B464
:100D78002ED0020AD8B4A3D7010AD8B4ABD70CD066
:100D88007AC063F07BC064F06450000AD8A404D031
:100D98006350000AD8B4E0D7F0A218D0F09208D077
:100DA800000E7B6E030E7A6E010EF3EC0FF00CD082
:100DB8007AC063F07BC064F06450000AD8A404D001
:100DC8006350010AD8B4ECD781B4FED7F28E72C052
:100DD800F5FF71C0F8FF70C0F7FF6FC0F6FF6EC077
:100DE800F4FF6DC0F3FF6CC0DAFF6BC0D9FF6AC0B7
:100DF800E2FF69C0E1FF68C0EAFF67C0E9FF66C0BB
:100E0800FBFF65C0FAFF7C9211000001A22BA2C073
:100E18000DF00E6A0E5004E1040E0D5CD8A006D049
:100E2800040E0D5E000E0E5A0DC0A2F00DC001F0AA
:100E38000EC002F0000E046E050E036EADEC10F04D
:100E480001C00DF002C00EF00DC00BF00EC00CF08A
:100E5800D8900B360C36D8900B360C36D8900B360B
:100E68000C360BC001F00CC002F009C003F09AEC7C
:100E780010F00D4A0E2A0DC00BF00EC00CF0D890E1
:100E88000B360C36D8900B360C36D8900B360C3601
:100E98000BC001F00CC002F007C0D9FF08C0DAFF90
:100EA800DF50036E9AEC10F00D4A0E2A0DC00BF0BD
:100EB8000EC00CF0D8900B360C36D8900B360C368A
:100EC800D8900B360C360BC001F00CC002F020EEA7
:100ED80001F00750D9260850DA22DF50036E9AEC49
:100EE80010F00D4A0E2A0DC00BF00EC00CF0D89071
:100EF8000B360C36D8900B360C36D8900B360C3691
:100F08000BC001F00CC002F020EE02F00750D92609
:100F18000850DA22DF50036E9AEC10F00D4A0E2AC0
:100F28000DC00BF00EC00CF0D8900B360C36D890D4
:100F38000B360C36D8900B360C360BC001F00CC0B3
:100F480002F020EE03F00750D9260850DA22DF50CD
:100F5800036E9AEC10F00D4A0E2A000E026EA00ED7
:100F6800016EA2C003F09AEC10F01200305072EC3F
:100F780010F001C039F002C03AF0305072EC10F0B5
:100F880001C035F002C036F0305072EC10F001C0EC
:100F980037F002C038F03ABE06D0210E395C030E95
:100FA8003A58D8B010D036BE06D0210E355C030EA4
:100FB8003658D8B008D038BE0BD0210E375C030E97
:100FC8003858D8A005D0000E316E000E306E1200D1
:100FD80039C001F03AC002F035C003F036C004F061
:100FE8003CEC0FF00009D8A41AD035C001F036C087
:100FF80002F037C003F038C004F03CEC0FF00009F1
:10100800D8A40DD039C001F03AC002F037C003F0BF
:1010180038C004F03CEC0FF00009D8B405D0000E3D
:10102800316E000E306E12003ABE06D03A5009E119
:10103800320E395CD8B005D0000E316E000E306E1D
:101048001200330E1B6E830E1C6E400E1D6E630E57
:101058000C6E590E0D6E440E0E6E32C009F033C080
:101068000AF034C00BF0F8EC08F009C018F00AC018
:1010780019F00BC01AF0EBEC09F018C027F019C0F2
:1010880028F01AC029F039C009F03AC00AF00FEC6C
:1010980010F009C02AF00AC02BF00BC02CF08BEC22
:1010A8000CF0D8B005D0000E316E010E306E120073
:1010B8003068316812000B6E0B501CEC11F0076E93
:1010C8000750050DF3CF0CF0F4CF0DF00CC007F06E
:1010D8000DC008F0D89007360836D890073608367D
:1010E800D8900736083607C001F008C002F036EC81
:1010F80011F0096E0A6A05C0D9FF06C0DAFF09C0F7
:10110800DEFF0AC0DDFF0C4A0D2A0CC007F00DC037
:1011180008F0D89007360836D89007360836D890A1
:101128000736083607C001F008C002F036EC11F0A7
:1011380003C0D9FF04C0DAFFDF6E0C4A0D2A20EE87
:1011480001F00350D9260450DA220CC007F00DC074
:1011580008F0D89007360836D89007360836D89061
:101168000736083607C001F008C002F036EC11F067
:10117800DF6E0C4A0D2A20EE02F00350D9260450E7
:10118800DA220CC007F00DC008F0D89007360836F0
:10119800D89007360836D8900736083607C001F0C9
:1011A80008C002F036EC11F0DF6E0C4A0D2A20EE72
:1011B80003F00350D9260450DA220CC007F00DC002
:1011C80008F0D89007360836D89007360836D890F1
:1011D8000736083607C001F008C002F036EC11F0F7
:1011E800DF6E0C4A0D2A12000BC00FF0106A116A4C
:1011F8000A340F3601E310800F50126E1250D8A433
:1012080007D0000E096E000E0A6E000E0B6E12005B
:101218000EC00FF0106A116A0D340F3601E310800A
:101228000F50176E1750D8A407D0000E096E000E85
:101238000A6E000E0B6E120017507B0F12260BC0A1
:1012480017F00E50171A800E17160A8E0D8EFF0E05
:101258000C16FF0E0D16000E0E16000E136E000E65
:10126800146E000E156E070E166E09A006D00C50EF
:1012780013260D5014220E501522D8900B320A3224
:101288000932D8900C360D360E36162EEED7090ECA
:10129800166E09A006D00C5013260D5014220E50BD
:1012A8001522D8900B320A320932D89015321432EE
:1012B8001332162EEED713C001F014C002F015C079
:1012C80003F012C004F017C005F034EC0CF001C0B4
:1012D80009F002C00AF003C00BF0120009C001F0C7
:1012E8000AC002F0000E046E0A0E036E5CEC0DF0EC
:1012F80001C009F002C00AF00906D8A00A0609C010
:1013080014F00AC015F00CBE12000C5003E10B04D7
:10131800D8A0120009C014F00AC015F0000E116E12
:101328008BB00DD00DC0D9FF0EC0DAFFDECF0FF0A5
:10133800DDCF10F00F30D8A002D0010E116E11B021
:1013480002D08B9001D08B80000E126E8BB20FD022
:1013580020EE02F00D50D9260E50DA22DECF0FF023
:10136800DDCF10F00F30D8A002D0010E126E12B0EF
:1013780002D08B9201D08B82000E136E8BB40FD0EB
:1013880020EE04F00D50D9260E50DA22DECF0FF0F1
:10139800DDCF10F00F30D8A002D0010E136E13B0BD
:1013A80002D08B9401D08B8415BE0DD0155003E16B
:1013B8001404D8A008D0030EE82EFED700F01406B7
:1013C800D8A01506F1D70B06D8A00C069CD71AC0D2
:1013D8001EF01F6A206A19341E3601E31F801E5052
:1013E800256E2550D8A407D0000E186E000E196E71
:1013F800000E1A6E12001DC01EF01F6A206A1C34EF
:101408001E3601E31F801E50266E2650D8A407D032
:10141800000E186E000E196E000E1A6E1200000EE5
:10142800226E000E236E000E246E2650890F255E54
:101438001AC026F01D50261A800E2616198EFF0E89
:101448001816FF0E1916000E1A161C8EFF0E1B1604
:10145800FF0E1C16000E1D16180E216ED89022368F
:10146800233624361B50185C1C5019581D501A5826
:10147800D8A007D01B50185E1C50195A1D501A5A74
:101488002280D890183619361A36212EE7D722C06E
:1014980001F023C002F024C003F025C004F026C0E8
:1014A80005F034EC0CF001C018F002C019F003C0CC
:1014B8001AF01200000E65D0800E6AEC11F0B50E1D
:1014C8000D6EFE0E0E6E97EC03F0C00E6AEC11F076
:1014D8006D0E0D6EFF0E0E6E97EC03F00DEC11F015
:1014E80001503F6E030E3F18D8A402D0020E3F6E83
:1014F800040E3F18D8A402D0030E3F6E040E3F60BE
:101508003FD092C038F093C039F094C03AF095C0FB
:101518003BF0380E036E000E046E3D0E056E000E95
:10152800066E3F505FEC08F0800E6AEC11F0A20ED8
:101538000D6EFF0E0E6E3FC00FF0106A97EC03F0B1
:10154800C00E6AEC11F0B30E0D6EFF0E0E6E97EC26
:1015580003F0080E376E1B0E366E270EE82EFED7E8
:10156800362EFCD7372EFAD700F03DC029F03EC002
:101578002AF0380E2B6E000E2C6E1EEC05F002D0F1
:10158800010E3C6E3C50D8A4120096D7000E000104
:10159800B26F000EB36F000EB46F000EB56F00018E
:1015A800AE510001AF110001B0110001B111D8B462
:1015B80042D0010E0001B66F08D00001D890AE37B6
:1015C800AF37B037B1370001B62B0001B1AFF5D74F
:1015D8000001D890B237B337B437B5370001AE51F0
:1015E8000001AA5D0001AF510001AB590001B051E3
:1015F8000001AC590001B1510001AD59D8A012D079
:101608000001AE510001AA5F0001AF510001AB5BC0
:101618000001B0510001AC5B0001B1510001AD5BAC
:101628000001B2810001D890B133B033AF33AE338B
:101638000001B62FCDD7B2C0AAF0B3C0ABF0B4C08A
:10164800ACF0B5C0ADF01200EF0E0D6EFF0E0E6ED1
:1016580097EC03F032D0E60E0D6EFF0E0E6E97EC8F
:1016680003F020EE01F03B50D9263C50DA22DF2A65
:10167800000E3C6E010E3B6E1200E20E0D6EFF0E68
:101688000E6E97EC03F020EE03F03B50D9263C5049
:10169800DA22DF2A000E3C6E000E3B6E1200EA0EC4
:1016A8000D6EFF0E0E6E97EC03F03B683C6812005F
:1016B800000E3C6E000E3B6E1200000E316E000EE6
:1016C800306E000E326EC00E336E3F0E346EBAECC2
:1016D80007F03150000AD8B404D0FF0AD8B409D0B2
:1016E800E7D73050000AD8B4DAD7010AD8B4B3D74C
:1016F800DFD73050FF0AD8B4C0D7DAD7F20E0D6E54
:10170800FF0E0E6E97EC03F032D0E60E0D6EFF0E54
:101718000E6E97EC03F020EE02F03B50D9263C50B9
:10172800DA22DF2A000E3C6E010E3B6E1200E20E3A
:101738000D6EFF0E0E6E97EC03F020EE03F03B509B
:10174800D9263C50DA22DF2A000E3C6E000E3B6E92
:101758001200EA0E0D6EFF0E0E6E97EC03F03B685A
:101768003C681200000E3C6E000E3B6E1200000E2C
:10177800316E050E306E000E326E800E336E400EE6
:10178800346EBAEC07F03150000AD8B404D0FF0A1E
:10179800D8B409D0E7D73050000AD8B4DAD7010A4C
:1017A800D8B4B3D7DFD73050FF0AD8B4C0D7DAD708
:1017B800DE0E0D6EFF0E0E6E97EC03F030D0E60EC7
:1017C8000D6EFF0E0E6E97EC03F03BC0D9FF3CC0C8
:1017D800DAFFDF2A000E3C6E010E3B6E1200E20EAD
:1017E8000D6EFF0E0E6E97EC03F020EE03F03B50EB
:1017F800D9263C50DA22DF2A000E3C6E000E3B6EE2
:101808001200EA0E0D6EFF0E0E6E97EC03F03B68A9
:101818003C681200000E3C6E000E3B6E1200000E7B
:10182800316E020E306E000E326EC00E336E3F0EF9
:10183800346EBAEC07F03150000AD8B404D0FF0A6D
:10184800D8B409D0E7D73050000AD8B4DAD7010A9B
:10185800D8B4B5D7DFD73050FF0AD8B4C0D7DAD755
:101868000450D8B405D0015002100310D8A40CD0ED
:10187800000E016E000E026E000E036E1200042AA6
:10188800D890033202320132000E0114066E000EA7
:101898000214076EFE0E0314086E06500710081097
:1018A800D8B40CD0ECD7042A010E0126000E02226F
:1018B800000E0322D890033202320132000E0114C6
:1018C800066E000E0214076EFF0E0314086E065013
:1018D80007100810D8B406D0E6D70406D890013609
:1018E8000236033602BE03D0020E0460F6D704A007
:1018F800029ED8900432045003120550D8A4038ED7
:1019080001C001F002C002F003C003F0120029AECA
:1019180016D027C02DF028C02EF029C02FF02D1E7C
:101928002E1E2F1E2D2A000E2E222F22000E2D24B1
:10193800276E000E2E20286E800E2F20296E2CAECA
:1019480016D02AC02DF02BC02EF02CC02FF02D1E43
:101958002E1E2F1E2D2A000E2E222F22000E2D2481
:101968002A6E000E2E202B6E800E2F202C6E000E5D
:10197800271A000E281A800E291A000E2A1A000E9D
:101988002B1A800E2C1A2A50275C2B5028582C50C2
:101998002958D8B002D0D8901200D8801200F29EF0
:1019A8007EEC11F0000E0001AC6FD00EAB6F70EC46
:1019B80011F0000E0001AC6F000EAB6F70EC11F06F
:1019C8007AEC11F07EEC11F0000E0001AC6FD10E34
:1019D800AB6F70EC11F0000E0001AF6F050E000147
:1019E800AF6501D012D00001AF51010DF3500001D5
:1019F800AD25D96EF4500001AE21DA6E010E46EC29
:101A080010F0DF6E0001AF2BE9D7000120EE06F0E1
:101A1800AD51D926AE51DA22000E46EC10F0DF6E39
:101A28007AEC11F0F28E1200A30E0001AD6F000ED9
:101A38000001AE6FD3EC0CF0800E5CEC11F0F30EED
:101A48000001B66FFD0E0001B76FA9C0B8F0000124
:101A5800B96BA8C0BAF00001BB6BA7C0BCF000010D
:101A6800BD6B09EC00F0C00E5CEC11F00C0E00012F
:101A7800B66FFE0E0001B76FA5C0B8F00001B96BD4
:101A8800A4C0BAF00001BB6BA3C0BCF00001BD6BE1
:101A980009EC00F0030E0001D16F080E0001D06FB1
:101AA800770EE82EFED7D02FFCD7D12FFAD7120009
:101AB800000E066E04AE06D0036C041ED8B0042ACD
:101AC800010E066E02AE06D0016C021ED8B0022AC4
:101AD800010E061A000E086E000E076E0350041061
:101AE800D8B41CD0010E056E04D0D8900336043645
:101AF800052A04AEFAD7D890073608360350015C99
:101B080004500258D8A005D00350015E0450025A70
:101B18000780D89004320332052EEDD70650D8B48A
:101B280004D0076C081ED8B0082A07C001F008C006
:101B380002F0120092689368000E946E000E956E83
:101B48000F0E966E000E896E000E8A6E000E8B6E5A
:101B5800000E8C6E000E8D6E000EC26E090EC16EE8
:101B6800000EB56EC08EAFEC0FF0010E5CEC11F0FC
:101B7800820E0001BF6FDD0EE82EFED7BF2FFCD707
:101B880000D0100E0001B76F270EB86F000EB96FA6
:101B9800000EBA6FB8EC0EF0820E0001BF6FDD0EBA
:101BA800E82EFED7BF2FFCD700D0C0EC10F01200F3
:101BB800000E0001AF6F000EAE6F0001AC510001C6
:101BC800AD11D8B42CD0010E0001B06F06D00001C1
:101BD800D890AC37AD370001B02B0001ADAFF7D7C7
:101BE8000001D890AE37AF370001AC510001AA5DB3
:101BF8000001AD510001AB59D8A00AD00001AC5189
:101C08000001AA5F0001AD510001AB5B0001AE818C
:101C18000001D890AD33AC330001B02FE1D7AEC08E
:101C2800AAF0AFC0ABF01200F29E86EC11F0000EE5
:101C3800036ED00E026E75EC11F0000E036E000EEE
:101C4800026E75EC11F082EC11F086EC11F0000ECA
:101C5800036ED10E026E75EC11F0000E066E050EC5
:101C6800066401D00ED00650010DF3500424D96E3D
:101C7800F4500520DA6E010E87EC10F0DF6E062AAC
:101C8800EED720EE06F00450D9260550DA22000ED1
:101C980087EC10F0DF6E82EC11F0F28E120000017A
:101CA800AB6F0001AB51F00B0001AA6F8C500F0B0A
:101CB8008C6E0001AA518C108C6E8C96100EE82E3A
:101CC800FED700D08C86100EE82EFED700D000017B
:101CD800AB39F00B0001AB6F0001AB51F00B000109
:101CE800AA6F8C500F0B8C6E0001AA518C108C6E51
:101CF8008C96100EE82EFED700D08C86100EE82E9B
:101D0800FED700D012000001B3510001B411D8B4BD
:101D180026D0010E0001B56F06D00001D890B33768
:101D2800B4370001B52B0001B4AFF7D70001B351A8
:101D38000001B15D0001B4510001B259D8A008D02A
:101D48000001B3510001B15F0001B4510001B25B61
:101D58000001D890B433B3330001B52FE7D7B1C031
:101D6800B1F0B2C0B2F01200000EC76E280EC66EF7
:101D7800000EC56E000E0001AA6F120EAB6F7A0E30
:101D8800AC6F000EAD6FB7C0BBF0B8C0BCF0B9C047
:101D9800BDF0BAC0BEF0020ED8900001BB37BC3708
:101DA800BD37BE37E82EF8D7BBC0AEF0BCC0AFF029
:101DB800BDC0B0F0BEC0B1F0CAEC0AF00001AA057F
:101DC800C86E948694881200026E0250F00B016E61
:101DD8008C500F0B8C6E01508C108C6E8C96100EE4
:101DE800E82EFED700D08C86100EE82EFED700D045
:101DF8000238F00B026E0250F00B016E8C500F0B84
:101E08008C6E01508C108C6E8C96100EE82EFED7BE
:101E180000D08C86100EE82EFED700D01200000EDF
:101E2800066E000E056E03500410D8B41CD0010EC7
:101E3800076E04D0D89003360436072A04AEFAD7C2
:101E4800D890053606360350015C04500258D8A0D5
:101E580005D00350015E0450025A0580D890043220
:101E68000332072EEDD705C001F006C002F01200BC
:101E780003C005F004C006F0051E061E054A062A22
:101E880001500524076E02500620086E0350015CBD
:101E98000250800A056E0450800A0558D8B004D054
:101EA800076C081ED8B0082A08BE08D0085004E1FC
:101EB800C90E075CD8A002D0010E1200000E120055
:101EC8009EEC0DF0800E5CEC11F0470E0001B66F31
:101ED800FF0E0001B76F09EC00F0060E0001D36F8A
:101EE800130E0001D26FAD0EE82EFED7D22FFCD70D
:101EF800D32FFAD700D0F086F090F098F28E000E2B
:101F08007B6E000E7A6E18EC0DF0FDD7FF0007C04F
:101F180009F008C00AF0040E0B6ED8900A32093294
:101F28000B2EFBD709C00CF00AC00DF00F0E0714DA
:101F38000E6E0F6A0CC001F00DC002F0000E046EA8
:101F48000A0E036EADEC10F00E500124076E0F5010
:101F58000220086E1200270E0001AD6FF50EE82E64
:101F6800FED7AD2FFCD7330E5CEC11F0320E5CECD3
:101F780011F0280E5CEC11F00F0E5CEC11F0060E5F
:101F88005CEC11F0010E5CEC11F0270E0001AD6F56
:101F9800F50EE82EFED7AD2FFCD712000A500B1015
:101FA800D8B418D0010E0C6E04D0D8900A360B366F
:101FB8000C2A0BAEFAD70A50085C0B500958D8A067
:101FC80004D00A50085E0B50095AD8900B320A32D6
:101FD8000C2EF1D708C008F009C009F012002B6ECA
:101FE800F29E000E8B6E800E6AEC11F02B50D8A476
:101FF80004D07F0E296EFF0E03D01F0E296EFF0E30
:102008002A6E29C00DF02AC00EF097EC03F02B5071
:10201800D8B41200FFD7000E0C6E0AAE06D0096CB9
:102028000A1ED8B00A2A010E0C6E09C001F00AC0B7
:1020380002F0036A8E0E046E0CC005F034EC0CF04E
:1020480001C009F002C00AF003C00BF01200000141
:10205800AA510001AC03F3CFAEF0F4CFAFF000010A
:10206800AA510001AD03F3500001AF270001AB51A5
:102078000001AC03F3500001AF27AEC0AAF0AFC017
:10208800ABF012000001AB6F41EC11F0C58641ECDA
:1020980011F0C9CFACF041EC11F00001AB510001D7
:1020A800D8A402D0C58A01D0C59AC5880001AC5110
:1020B80012000001AC6F000E0001AB6F3A0E000178
:1020C800AC6107D02F0E0001AC6503D0010E0001F2
:1020D800AB6FABC0AAF00001AA311200056E05442F
:1020E800E846FC0BC26EC280C282C2B2FED7C350A1
:1020F800C4CF03F0046A03C004F0036A0310016E3E
:102108000450026E1200026E4BEC11F0C5864BECC7
:1021180011F0C9CF03F04BEC11F00250D8A402D053
:10212800C58A01D0C59AC588035012000250AA6E0C
:1021380001C0A9FF03C0A8FFA69EA69CA684550EB1
:10214800A76EAA0EA76EA682A1A8FED7A198A694EC
:10215800120001500302F3CF05F0F4CF06F001504E
:102168000402F350062602500302F350062605C067
:1021780001F006C002F01200000E0001AB6FA00EC5
:10218800AA6F2AEC11F00001A26F030E0001A265EC
:102198001200000E0001A26F120000EE80F02A0E5D
:1021A800EE6AE806FDE17B6A7A6A7C907C92000E12
:1021B800F86E000164EF0FF00B0E0A6EB80E096E90
:1021C800000E0C6E600E0B6E16C00DF017C00EF0F0
:1021D80072EC09F01200010E0A6E2C0E096E050E43
:1021E8000C6E780E0B6E16C00DF017C00EF072EC68
:1021F80009F01200036E000E026E3A0E036005D05D
:102208002F0E036402D0010E026E02C001F00130ED
:102218001200F29E81A2FED781380F0B0F0B036EBE
:1022280081B2FED7F090F28E03C001F0026A12006C
:10223800016E015000080001A225040F026E040E71
:10224800026402D0040E025E025012000001AB517B
:10225800AA6EAAC0A9FFA69EA69CA680A6B0FED775
:10226800A85012000250AA6E01C0A9FFA69EA69C03
:10227800A680A6B0FED7A8501200C7B4FED7C5CF17
:10228800AAF01F0E0001AA17D8B41200F6D7C7B4D7
:10229800FED7C5CF01F01F0E0116D8B41200F7D72C
:1022A8000001AC6F8C840001AC5153EC0EF01200AD
:1022B8000001AC6F8C940001AC5153EC0EF012008D
:1022C800036E8C840350E8EC0EF01200036E8C94BD
:1022D8000350E8EC0EF0120041EC11F0ABC0C9FF5E
:1022E80012004BEC11F002C0C9FF120041EC11F0D2
:1022F800C584120041EC11F0C58012004BEC11F0BE
:0C230800C58412004BEC11F0C5801200DF
:10FDAC000001000A006400E80310270100100000A5
:10FDBC00010010536F7274696E6720436F6D706C25
:10FDCC0065746520202020202020202020005072E7
:10FDDC006573732061206E756D6265722020202022
:10FDEC002020202020200020202020253032782F99
:10FDFC00253032782F25303278202020202020000A
:10FE0C0020202020253032783A253032783A25309F
:10FE1C00327820202020202000253032783A2530DE
:10FE2C00327820746F20253032783A2530327820A1
:10FE3C00200054696D6520456C61707365643A20CF
:10FE4C0020202020202020202000546F74616C2062
:10FE5C00536F727465643A202020202020202020CB
:10FE6C002000466F72206D6F726520696E666F2080
:10FE7C002020202020202020200053696D756C61EB
:10FE8C0074696E672E2E2E2020202020202020200A
:10FE9C002000257520626174746572696573202079
:10FEAC002020202020202020005065726D616E657E
:10FEBC006E74206C6F673A20202020202020005583
:10FECC006E636861726765643A20202020202020D0
:10FEDC0020202000414120536F727465643A202029
:10FEEC00202020202020202000395620536F7274AF
:10FEFC0065643A2020202020202020202000257519
:10FF0C00207365636F6E64732020202020202020D6
:10FF1C00202000456D657267656E63792020202076
:10FF2C00202020202020004320536F727465643AF7
:10FF3C00202020202020202020200057656C636F7B
:10FF4C006D652120202020202020202020005065BD
:10FF5C0072696F643A2025752020202020202020F3
:10FF6C000057686963682072756E3F20202020203E
:10FF7C0020200053746F7070656420202020202096
:10FF8C002020202000303132333435363738396177
:10FF9C0062636465660073686F77696E67202575A8
:10FFAC002020202020200072756E73206265666F01
:10FFBC007265202020202000257520202020202064
:10FFCC0020202020202020004D61696E6C6F6F7006
:10FFDC00002041413A0020302000203120002D31FA
:10FFEC00200020433A0039563A00202B00202D00E7
:04FFFC0020300000B1
:020000040020DA
:08000000FFFFFFFFFFFFFFFF00
:020000040030CA
:0E000000FF021F1EFF8381FF0FC00FE00F40A5
:00000001FF
