:0400000007EF00F016
:100008007D8258ED09F0A9EF10F08E0E00019B6F6C
:10001800000E00019C6F1FD2250E0001A519D8B44F
:1000280005D00001A5515CEC11F015D2000E0001BD
:10003800A46F000EA36F000E0001A26F05D000018F
:10004800A28500018C4B8D2B8CC0F6FF8DC0F7FF6D
:100058000800F550300AD8B4F2D78CC0F6FF8DC02E
:10006800F7FF0800F55094EC10F0D8A092D0000EDD
:100078000001A46F000EA36FA3C080F0A4C081F09C
:10008800000E0001836F0A0E826F34EC10F080C0FE
:10009800A3F081C0A4F0D00E0001946FFF0E000100
:1000A800956F8CC0F6FF8DC0F7FF0800F550000172
:1000B800966F976B000194510001962700019551A6
:1000C80000019723000196510001A32700019751D1
:1000D8000001A42300018C4B8D2B8CC0F6FF8DC032
:1000E800F7FF0800F55094EC10F0D8A052D0C4D710
:1000F8000001A28F6AD00001A35100019D5D00019B
:10010800A45100019E59D8B009D000019D510001A9
:10011800A35F00019E510001A45B09D0000E0001FD
:10012800A46F000EA36F03D0200E5CEC11F0000149
:10013800A307D8A0A4070001A329F6E10001A42978
:10014800D8B40BD0F1D798C0D9FF99C0DAFFDF50E7
:100158005CEC11F00001984B992B00019D07D8A089
:100168009E0700019D29EFE100019E29D8B473D1B3
:10017800EAD7A50E0001986F000E0001996F000ED6
:1001880000019E6F010E9D6FB6D7C00E0001A2132D
:100198001CD08CC0F6FF8DC0F7FF00018C4B8D2B57
:1001A8000800F5CFA5F00001A551000AD8B4120047
:1001B800640AD8B40AD00D0AD8B407D01C0AD8B437
:1001C800E4D70D0AD8B494D7D4D7A2C094F0C00EFF
:1001D80000019417D8A419D09BC0D9FF9CC0DAFF9E
:1001E800DECFA0F0DDCFA1F0020E00019B27000EAC
:1001F8009C230001A1AF53D0030E0001A2130001FC
:10020800A06DA11FD8B0A12B4AD09BC0D9FF9CC01C
:10021800DAFFDECFA0F0DDCFA1F0020E00019B27B0
:10022800000E9C233CD0010E0001A56F050E0001B5
:10023800A519D8B440D00001A551020D6D0EF324C4
:10024800F66EFC0EF420F76E0900F5500001A05D73
:100258000900F5500001A159D8A02DD00001A52B07
:10026800E5D7010E0001A56F040E0001A519D8B449
:1002780022D00001A551020D770EF324F66EFC0E74
:10028800F420F76E0900F5500001A05D0900F55053
:100298000001A159D8A00FD00001A52BE5D7000176
:1002A800A251C00B000AD8B4BED7800AD8B4D9D797
:1002B800400AD8B4B8D70001A3510001A411D8B49A
:1002C8000BD0A2C094F0030E00019417D8B404D048
:1002D8000001A307D8A0A407800E0001A5BF7F0EC8
:1002E8000001946F0001A3510001A55D0001A45114
:1002F800800A00019459D8B00BD00001A551000123
:10030800A35F000E0001A5BFFF0E0001A45B05D08E
:10031800000E0001A46F000EA36F0001A2A518D063
:10032800A2C094F0030E00019417D8B403D02D0E88
:100338005CEC11F00001A3510001A411D8B425D040
:10034800300E5CEC11F00001A307D8A0A407F2D787
:100358000001A3510001A411D8B40DD0200E5CEC0B
:1003680011F00001A307D8A0A4070001A3510001C0
:10037800A411D8A4F3D7A2C094F0030E00019417D7
:10038800D8B403D02D0E5CEC11F0A5C09FF05DD061
:1003980000019F51020D6D0EF324F66EFC0EF42041
:1003A800F76E0900F5CF82F00A00F5CF83F0A0C000
:1003B80080F0A1C081F0CDEC0DF080C087F081C045
:1003C80088F0000E00018A6F0A0E896FB4EC0EF0F7
:1003D80000018751300F0001A56F33D0A0C080F015
:1003E800A1C081F000019F51020D770EF324F66E33
:1003F800FC0EF420F76E0900F5CF82F00A00F5CF65
:1004080083F0CDEC0DF0000180510F0B00019A6FC5
:1004180000019A51010D380EF324F66EFF0EF420F8
:10042800F76E0800F5CFA5F00CD00001A251C00B63
:10043800000AD8B4ADD7800AD8B4D0D7400AD8B407
:10044800A7D70001A5515CEC11F000019F0700013E
:100458009F29D8A4EAD78CC0F6FF8DC0F7FF00010A
:100468008C4B8D2B0800F5CFA5F00001A551D8B411
:100478001200D2D570C051F071C052F072C053F062
:1004880073C054F0C3C055F0C4C056F0C5C057F08F
:10049800C6C058F0BFC059F0C0C05AF0C1C05BF028
:1004A800C2C05CF0000E5E6E000E5D6E76C055F048
:1004B800566A77C057F0586A800E72EC11F0FB0E3E
:1004C8000D6EFC0E0E6E3DEC04F0080E3A6E1B0E1F
:1004D800396E270EE82EFED7392EFCD73A2EFAD7DA
:1004E80000F0000E4A6E000E496E4B684C684D686D
:1004F8004E684F6850688B8A83D1590E376E000E4C
:10050800386E68EC0BF037C04BF038C04CF0080E72
:100518003A6E1B0E396E270EE82EFED7392EFCD701
:100528003A2EFAD700F0590E376E000E386EA4EC4A
:100538000AF037C04DF038C04EF0080E3A6E1B0E68
:10054800396E270EE82EFED7392EFCD73A2EFAD769
:1005580000F0590E376E000E386E06EC0BF037C0FF
:100568004FF038C050F0800E72EC11F020EEB5F06C
:1005780010EE3DF0050EDBCFE3FFE806FCE220EECF
:10058800AFF010EE43F0050EDBCFE3FFE806FCE228
:100598004B504C10D8A40BD0000E446E010E436E85
:1005A8005D0E0D6EFE0E0E6E3DEC04F015D04B0484
:1005B8004C10D8A40BD0000E3E6E010E3D6EB40E4A
:1005C8000D6EFD0E0E6E3DEC04F006D09E0E0D6E07
:1005D800FD0E0E6E3DEC04F0800E72EC11F0080E6C
:1005E8003A6E1B0E396E270EE82EFED7392EFCD731
:1005F8003A2EFAD700F04D504E10D8A40BD0000E6A
:10060800466E010E456ED80E0D6EFE0E0E6E3DEC5A
:1006180004F015D04D044E10D8A40BD0000E406E37
:10062800010E3F6E870E0D6EFE0E0E6E3DEC04F051
:1006380006D0480E0D6EFE0E0E6E3DEC04F0800ED8
:1006480072EC11F0080E3A6E1B0E396E270EE82E6A
:10065800FED7392EFCD73A2EFAD700F04F5050105B
:10066800D8A40BD0000E486E010E476EC40E0D6E56
:10067800FE0E0E6E3DEC04F015D04F045010D8A4B9
:100688000BD0000E426E010E416E720E0D6EFE0E04
:100698000E6E3DEC04F006D0330E0D6EFE0E0E6E9F
:1006A8003DEC04F0430E256E000E266E7DEC10F036
:1006B800080E3A6E1B0E396E270EE82EFED7392E1D
:1006C800FCD73A2EFAD700F03D0E256E000E266EA6
:1006D80066EC10F08B908B928B945A5059C039F07D
:1006E8003A6A3926000E3A225B503926000E3A2221
:1006F8005C503926000E3A223ABE0AD03A5004E13C
:10070800050E395CD8A004D0000E4A6E010E496E61
:10071800760E046E000E056E45EC0EF076C051F0B4
:10072800526A77C053F0546A800E72EC11F0EC0EE6
:100738000D6EFE0E0E6E57C00FF058C010F055C06B
:1007480011F056C012F03DEC04F096EC11F0130EC7
:100758000D6EFF0E0E6E53C00FF054C010F051C056
:1007680011F052C012F03DEC04F0080E3A6E1B0E68
:10077800396E270EE82EFED7392EFCD73A2EFAD737
:1007880000F055C039F056C03AF0391E3A1E394AC1
:100798003A2A20EE57F0DECF3BF0DDCF3CF03B1E8F
:1007A8003C1E3B4A3C2A53503B24016E54503C208B
:1007B800026E000E046E3C0E036EE2EC10F039502F
:1007C80001263A500222515001245D6E52500220F7
:1007D8005E6E800E72EC11F0F40E0D6EFF0E0E6E52
:1007E8005DC00FF05EC010F03DEC04F05E5004E117
:1007F8003D0E5D5CD8A004D0000E4A6E010E496E15
:1008080049504A10D8B479D6000E756E020E746E2F
:10081800000E15EC0FF0800E72EC11F07F0E0D6ECD
:10082800FC0E0E6E3DEC04F0080E3A6E1B0E396E8F
:10083800270EE82EFED7392EFCD73A2EFAD700F02D
:100848005DC025F05EC026F0590E276E000E286E9A
:100858000AEC06F0590E076E000E086E5DC009F02E
:100868005EC00AF01BEC07F0000E756E000E746E89
:1008780012000F0E1A6E000E1B6EBBD1250E241827
:10088800D8B404D024506CEC11F0B3D1000E236E10
:10089800000E226E000E216E03D021840D4A0E2A0E
:1008A8000DC0F6FF0EC0F7FF0800F550300AD8B4A7
:1008B800F4D70DC0F6FF0EC0F7FF0800F55006ECA0
:1008C80011F0D8A06FD0000E236E000E226E22C049
:1008D80001F023C002F0000E046E0A0E036EE2EC73
:1008E80010F001C022F002C023F0D00E136EFF0EEC
:1008F800146E0DC0F6FF0EC0F7FF0800F550156E18
:10090800166A135015261450162215502226165012
:1009180023220D4A0E2A0DC0F6FF0EC0F7FF08006D
:10092800F55006EC11F0D8A03DD0D1D7218E54D087
:1009380022501C5C23501D58D8B005D01C50225E94
:100948001D50235A08D0000E236E000E226E03D0CD
:10095800200E6CEC11F02206D8A023062228F8E11C
:100968002328D8B40AD0F4D717C0D9FF18C0DAFFA3
:10097800DF506CEC11F0174A182A1C06D8A01D0687
:100988001C28F2E11D28D8B434D1EED7240E176EF6
:10099800000E186E000E1D6E010E1C6EC9D7C00E1B
:1009A80021121AD00DC0F6FF0EC0F7FF0D4A0E2A0D
:1009B8000800F5CF24F02450000AD8B41200640AC5
:1009C800D8B40AD00D0AD8B407D01C0AD8B4E7D7CF
:1009D8000D0AD8B4ABD7DAD721C013F0C00E13165E
:1009E800D8A415D01AC0D9FF1BC0DAFFDECF1FF07C
:1009F800DDCF20F0020E1A26000E1B2220AE44D0B6
:100A0800030E21121F6C201ED8B0202A3DD01AC018
:100A1800D9FF1BC0DAFFDECF1FF0DDCF20F0020EBA
:100A28001A26000E1B2230D0010E246E050E241843
:100A3800D8B435D02450020D6D0EF324F66EFC0E9A
:100A4800F420F76E0900F5501F5C0900F550205896
:100A5800D8A025D0242AEAD7010E246E040E241823
:100A6800D8B41DD02450020D770EF324F66EFC0E78
:100A7800F420F76E0900F5501F5C0900F550205866
:100A8800D8A00DD0242AEAD72150C00B000AD8B428
:100A9800CBD7800AD8B4E0D7400AD8B4C5D72250FB
:100AA8002310D8B409D021C013F0030E1316D8B4FC
:100AB80003D02206D8A02306800E24BE7F0E136E14
:100AC8002250245C2350800A1358D8B007D02450F1
:100AD800225E000E24BEFF0E235A04D0000E236EA1
:100AE800000E226E21A414D021C013F0030E131699
:100AF800D8B403D02D0E6CEC11F022502310D8B4CA
:100B08001ED0300E6CEC11F02206D8A02306F5D7C3
:100B180022502310D8B40AD0200E6CEC11F0220613
:100B2800D8A0230622502310D8A4F6D721C013F04A
:100B3800030E1316D8B403D02D0E6CEC11F024C09C
:100B48001EF053D01E50020D6D0EF324F66EFC0EEF
:100B5800F420F76E0900F5CF03F00A00F5CF04F092
:100B68001FC001F020C002F06CEC0FF001C008F0CB
:100B780002C009F0000E0B6E0A0E0A6ED9EC0FF0D7
:100B88000850300F246E2ED01FC001F020C002F094
:100B98001E50020D770EF324F66EFC0EF420F76E4D
:100BA8000900F5CF03F00A00F5CF04F06CEC0FF064
:100BB80001500F0B196E1950010D380EF324F66E03
:100BC800FF0EF420F76E0800F5CF24F00BD021506B
:100BD800C00B000AD8B4B6D7800AD8B4D5D7400A13
:100BE800D8B4B0D724506CEC11F01E061E28D8A437
:100BF800EED70DC0F6FF0EC0F7FF0D4A0E2A08000B
:100C0800F5CF24F02450D8B4120038D6800E72ECF8
:100C180011F09A0E0D6EFC0E0E6E3DEC04F096EC83
:100C280011F0E30E0D6EFC0E0E6E3DEC04F0000E9E
:100C38002F6E000E2E6E000E316E000ED2D015EC07
:100C480011F001C02EF002C02FF0CDD0800E72EC52
:100C580011F0B30E0D6EFC0E0E6E3DEC04F096EC2A
:100C680011F0090E0D6EFE0E0E6E25C00FF026C097
:100C780010F03DEC04F0D6D0800E72EC11F0CB0EE3
:100C88000D6EFC0E0E6E3DEC04F096EC11F0710E3C
:100C98000D6EFD0E0E6E20EE03F02750D92628505B
:100CA800DA22DF50296E27C0D9FF28C0DAFFDF50CB
:100CB8002A6E2B6A20EE01F02750D9262850DA2216
:100CC800DF502C6E2C502A26000E2B2220EE02F02C
:100CD8002750D9262850DA22DF502D6E2D502A268B
:100CE800000E2B2229502A240F6E000E2B20106E86
:100CF8003DEC04F097D0800E72EC11F0DF0E0D6E13
:100D0800FD0E0E6E3DEC04F096EC11F0890E0D6EA2
:100D1800FF0E0E6E27C0D9FF28C0DAFFDF50296EFC
:100D280029500F6E106A3DEC04F07CD0800E72ECF6
:100D380011F0B00E0D6EFE0E0E6E3DEC04F096EC4A
:100D480011F0890E0D6EFF0E0E6E20EE01F0275089
:100D5800D9262850DA22DF50296E29500F6E106AE2
:100D68003DEC04F05FD0800E72EC11F0F40E0D6EC5
:100D7800FD0E0E6E3DEC04F096EC11F0890E0D6E32
:100D8800FF0E0E6E20EE02F02750D9262850DA22E8
:100D9800DF50296E29500F6E106A3DEC04F042D0E6
:100DA800800E72EC11F0CA0E0D6EFD0E0E6E3DEC4B
:100DB80004F096EC11F0890E0D6EFF0E0E6E20EE0B
:100DC80003F02750D9262850DA22DF50296E2950FF
:100DD8000F6E106A3DEC04F025D0FF00000E316E56
:100DE800010E306E1FD02EC029F02FC02AF02A50D5
:100DF800000AD8A4F3D72950000AD8B427D7010A83
:100E0800D8B43AD7030AD8B476D7010AD8B48ED75B
:100E1800070AD8B4A8D7010AD8B4C2D70A0AD8B4DE
:100E2800DCD7DCD730503110D8A4120008D7000125
:100E3800CB2BCBC00DF00E6A0E5004E1040E0D5CF6
:100E4800D8A006D0040E0D5E000E0E5A0DC0CBF0D1
:100E58000DC001F00EC002F0000E046E050E036E08
:100E6800E2EC10F001C00DF002C00EF00DC00BF066
:100E78000EC00CF0D8900B360C36D8900B360C36CA
:100E8800D8900B360C360BC001F00CC002F009C02C
:100E980003F0CFEC10F00D4A0E2A0DC00BF00EC077
:100EA8000CF0D8900B360C36D8900B360C36D89000
:100EB8000B360C360BC001F00CC002F007C0D9FF8E
:100EC80008C0DAFFDF50036ECFEC10F00D4A0E2A8F
:100ED8000DC00BF00EC00CF0D8900B360C36D89025
:100EE8000B360C36D8900B360C360BC001F00CC004
:100EF80002F020EE01F00750D9260850DA22DF5020
:100F0800036ECFEC10F00D4A0E2A0DC00BF00EC088
:100F18000CF0D8900B360C36D8900B360C36D8908F
:100F28000B360C360BC001F00CC002F020EE02F0BC
:100F38000750D9260850DA22DF50036ECFEC10F0A4
:100F48000D4A0E2A0DC00BF00EC00CF0D8900B36CF
:100F58000C36D8900B360C36D8900B360C360BC0A6
:100F680001F00CC002F020EE03F00750D92608501B
:100F7800DA22DF50036ECFEC10F00D4A0E2A000E75
:100F8800026EA00E016ECBC003F0CFEC10F0120081
:100F98000B6E0B5024EC11F0076E0750050DF3CFC4
:100FA8000CF0F4CF0DF00CC007F00DC008F0D8908D
:100FB80007360836D89007360836D89007360836E8
:100FC80007C001F008C002F03EEC11F0096E0A6A91
:100FD80005C0D9FF06C0DAFF09C0DEFF0AC0DDFF81
:100FE8000C4A0D2A0CC007F00DC008F0D89007363F
:100FF8000836D89007360836D8900736083607C01E
:1010080001F008C002F03EEC11F003C0D9FF04C0A3
:10101800DAFFDF6E0C4A0D2A20EE01F00350D926C4
:101028000450DA220CC007F00DC008F0D89007363B
:101038000836D89007360836D8900736083607C0DD
:1010480001F008C002F03EEC11F0DF6E0C4A0D2AE8
:1010580020EE02F00350D9260450DA220CC007F023
:101068000DC008F0D89007360836D89007360836ED
:10107800D8900736083607C001F008C002F03EECE9
:1010880011F0DF6E0C4A0D2A20EE03F00350D9262A
:101098000450DA220CC007F00DC008F0D8900736CB
:1010A8000836D89007360836D8900736083607C06D
:1010B80001F008C002F03EEC11F0DF6E0C4A0D2A78
:1010C80012000BC00FF0106A116A0A340F3601E3E0
:1010D80010800F50126E1250D8A407D0000E096E5F
:1010E800000E0A6E000E0B6E12000EC00FF0106A92
:1010F800116A0D340F3601E310800F50176E175028
:10110800D8A407D0000E096E000E0A6E000E0B6EF2
:10111800120017507B0F12260BC017F00E50171A2B
:10112800800E17160A8E0D8EFF0E0C16FF0E0D166A
:10113800000E0E16000E136E000E146E000E156EC5
:10114800070E166E09A006D00C5013260D50142257
:101158000E501522D8900B320A320932D8900C362C
:101168000D360E36162EEED7090E166E09A006D0CD
:101178000C5013260D5014220E501522D8900B3205
:101188000A320932D890153214321332162EEED79D
:1011980013C001F014C002F015C003F012C004F02F
:1011A80017C005F026EC0CF001C009F002C00AF0E7
:1011B80003C00BF0120009C001F00AC002F0000ED3
:1011C800046E0A0E036E4DEC0DF001C009F002C06A
:1011D8000AF00906D8A00A0609C014F00AC015F0DA
:1011E8000CBE12000C5003E10B04D8A0120009C079
:1011F80014F00AC015F0000E116E8BB00DD00DC0A2
:10120800D9FF0EC0DAFFDECF0FF0DDCF10F00F30C0
:10121800D8A002D0010E116E11B002D08B9001D06F
:101228008B80000E126E8BB20FD020EE02F00D50A4
:10123800D9260E50DA22DECF0FF0DDCF10F00F30B6
:10124800D8A002D0010E126E12B002D08B9201D03B
:101258008B82000E136E8BB40FD020EE04F00D506D
:10126800D9260E50DA22DECF0FF0DDCF10F00F3086
:10127800D8A002D0010E136E13B002D08B9401D007
:101288008B8415BE0DD0155003E11404D8A008D0E6
:10129800030EE82EFED700F01406D8A01506F1D7E5
:1012A8000B06D8A00C069CD70600FACF61F0FBCF3E
:1012B80062F0E9CF63F0EACF64F0E1CF65F0E2CF06
:1012C80066F0D9CF67F0DACF68F0F3CF69F0F4CFE2
:1012D8006AF0F6CF6BF0F7CF6CF0F8CF6DF0F5CF82
:1012E8006EF0F29EF0A037D081380F0B0F0B6F6EA7
:1012F800F09081A221D0FDD7040E6F600CD0000EB3
:10130800756E020E746E6F508FEC0DF0000E756ED8
:10131800000E746E20D0000E756E010E746EF28E83
:101328003EEC02F0F29E17D0000E756E030E746E3E
:10133800010E15EC0FF00FD074C05FF075C060F0AF
:101348006050000AD8A407D05F50000AD8B4D4D798
:10135800010AD8B4E9D7F28E6EC0F5FF6DC0F8FF68
:101368006CC0F7FF6BC0F6FF6AC0F4FF69C0F3FFFB
:1013780068C0DAFF67C0D9FF66C0E2FF65C0E1FF59
:1013880064C0EAFF63C0E9FF62C0FBFF61C0FAFF07
:101398007D9211001AC01EF01F6A206A19341E3689
:1013A80001E31F801E50256E2550D8A407D0000EDB
:1013B800186E000E196E000E1A6E12001DC01EF077
:1013C8001F6A206A1C341E3601E31F801E50266ED9
:1013D8002650D8A407D0000E186E000E196E000E05
:1013E8001A6E1200000E226E000E236E000E246E7E
:1013F8002650890F255E1AC026F01D50261A800E29
:101408002616198EFF0E1816FF0E1916000E1A163C
:101418001C8EFF0E1B16FF0E1C16000E1D16180E36
:10142800216ED8902236233624361B50185C1C5067
:1014380019581D501A58D8A007D01B50185E1C50B8
:10144800195A1D501A5A2280D890183619361A3649
:10145800212EE7D722C001F023C002F024C003F0F8
:1014680025C004F026C005F026EC0CF001C018F0E9
:1014780002C019F003C01AF01200690E0D6EFF0EBB
:101488000E6E30C00FF031C010F03DEC04F096EC59
:1014980011F0000E366E090E366401D00AD0FF0E28
:1014A800356E8A0EE82EFED7352EFCD700D0362AA8
:1014B800F2D731BE06D0315009E1320E305CD8B0D7
:1014C80005D0000E316E000E306E1200000E1B6E3D
:1014D800A00E1C6E400E1D6E630E0C6E590E0D6E26
:1014E800440E0E6E32C009F033C00AF034C00BF05F
:1014F80065EC08F009C018F00AC019F00BC01AF022
:10150800CEEC09F018C027F019C028F01AC029F04D
:1015180030C009F031C00AF018EC10F009C02AF008
:101528000AC02BF00BC02CF07DEC0CF0D8B005D025
:10153800000E316E010E306E1200306831681200F4
:10154800800E72EC11F0C40E0D6EFF0E0E6E3DECA7
:1015580004F096EC11F032D08A0E0D6EFD0E0E6E70
:101568003DEC04F020EE01F03750D9263850DA224D
:10157800DF2A000E386E010E376E1200880E0D6ECF
:10158800FD0E0E6E3DEC04F020EE03F03750D92628
:101598003850DA22DF2A000E386E000E376E12003D
:1015A800990E0D6EFF0E0E6E3DEC04F0376838682C
:1015B8001200000E386E000E376E1200010EFAECA3
:1015C8000FF001C030F002C031F0000E326EC00ED4
:1015D800336E3F0E346E41EC0AF03150000AD8B435
:1015E80004D0FF0AD8B409D0E4D73050000AD8B4E0
:1015F800D7D7010AD8B4B0D7DCD73050FF0AD8B44F
:10160800BDD7D7D7800E72EC11F0B60E0D6EFF0E57
:101618000E6E3DEC04F096EC11F032D05C0E0D6EBF
:10162800FD0E0E6E3DEC04F020EE02F03750D92688
:101638003850DA22DF2A000E386E010E376E12009B
:101648005A0E0D6EFD0E0E6E3DEC04F020EE03F00A
:101658003750D9263850DA22DF2A000E386E000EAD
:10166800376E1200590E0D6EFF0E0E6E3DEC04F033
:10167800376838681200000E386E000E376E120098
:10168800020EFAEC0FF001C030F002C031F0000E8B
:10169800326E800E336E400E346E41EC0AF03150DB
:1016A800000AD8B404D0FF0AD8B409D0E4D730501F
:1016B800000AD8B4D7D7010AD8B4B0D7DCD730508D
:1016C800FF0AD8B4BDD7D7D7800E72EC11F0A80E98
:1016D8000D6EFF0E0E6E3DEC04F096EC11F030D05E
:1016E800450E0D6EFD0E0E6E3DEC04F037C0D9FFB1
:1016F80038C0DAFFDF2A000E386E010E376E12008E
:10170800430E0D6EFD0E0E6E3DEC04F020EE03F060
:101718003750D9263850DA22DF2A000E386E000EEC
:10172800376E1200490E0D6EFF0E0E6E3DEC04F082
:10173800376838681200000E386E000E376E1200D7
:10174800000EFAEC0FF001C030F002C031F0000ECC
:10175800326EC00E336E3F0E346E41EC0AF03150DB
:10176800000AD8B404D0FF0AD8B409D0E4D730505E
:10177800000AD8B4D7D7010AD8B4B2D7DCD73050CA
:10178800FF0AD8B4BDD7D7D7000E0001886F000E66
:10179800896F000E8A6F000E8B6F00018451000163
:1017A80085110001861100018711D8B442D0010EBD
:1017B80000018C6F08D00001D890843785378637B0
:1017C800873700018C2B000187AFF5D70001D8902F
:1017D800883789378A378B37000184510001805D4B
:1017E800000185510001815900018651000182598B
:1017F8000001875100018359D8A012D000018451FB
:101808000001805F000185510001815B0001865164
:101818000001825B000187510001835B0001888120
:101828000001D890873386338533843300018C2FA9
:10183800CDD788C080F089C081F08AC082F08BC083
:1018480083F012000450D8B405D0015002100310E0
:10185800D8A40CD0000E016E000E026E000E036EAE
:101868001200042AD890033202320132000E011409
:10187800066E000E0214076EFE0E0314086E065064
:1018880007100810D8B40CD0ECD7042A010E012692
:10189800000E0222000E0322D890033202320132D7
:1018A800000E0114066E000E0214076EFF0E0314DC
:1018B800086E065007100810D8B406D0E6D70406FC
:1018C800D89001360236033602BE03D0020E0460F9
:1018D800F6D704A0029ED890043204500312055093
:1018E800D8A4038E01C001F002C002F003C003F0C7
:1018F800120029AE16D027C02DF028C02EF029C01E
:101908002FF02D1E2E1E2F1E2D2A000E2E222F22C6
:10191800000E2D24276E000E2E20286E800E2F20FC
:10192800296E2CAE16D02AC02DF02BC02EF02CC05C
:101938002FF02D1E2E1E2F1E2D2A000E2E222F2296
:10194800000E2D242A6E000E2E202B6E800E2F20C6
:101958002C6E000E271A000E281A800E291A000E67
:101968002A1A000E2B1A800E2C1A2A50275C2B508C
:1019780028582C502958D8B002D0D8901200D880B6
:101988001200F29E86EC11F0000E0001826FD00E5C
:10199800816F78EC11F0000E0001826F000E816FEC
:1019A80078EC11F082EC11F086EC11F0000E0001D9
:1019B800826FD10E816F78EC11F0000E0001856FF7
:1019C800050E0001856501D012D000018551010D79
:1019D800F35000018325D96EF45000018421DA6E9A
:1019E800010E4FEC10F0DF6E0001852BE9D70001E6
:1019F80020EE06F08351D9268451DA22000E4FECEE
:101A080010F0DF6E82EC11F0F28E1200760E0001FB
:101A1800836F000E0001846FC5EC0CF0800E64EC3F
:101A280011F0130E00018C6FFD0E00018D6F7CC04C
:101A38008EF000018F6B7BC090F00001916B7AC033
:101A480092F00001936B09EC00F08AEC11F02B0E78
:101A580000018C6FFD0E00018D6F78C08EF00001C3
:101A68008F6B77C090F00001916B76C092F0000107
:101A7800936B09EC00F0080E0001A76F1B0E000124
:101A8800A66F270EE82EFED7A62FFCD7A72FFAD7CA
:101A98001200000E066E04AE06D0036C041ED8B009
:101AA800042A010E066E02AE06D0016C021ED8B0E2
:101AB800022A010E061A000E086E000E076E035069
:101AC8000410D8B41CD0010E056E04D0D89003368B
:101AD8000436052A04AEFAD7D890073608360350DC
:101AE800015C04500258D8A005D00350015E045090
:101AF800025A0780D89004320332052EEDD70650DB
:101B0800D8B404D0076C081ED8B0082A07C001F062
:101B180008C002F01200386EBBC034F0BCC035F00B
:101B2800BDC036F0BEC037F0340E036E000E046E32
:101B3800390E056E000E066E3850CCEC07F0800E9C
:101B480072EC11F0E90E0D6EFF0E0E6E38C00FF03C
:101B5800106A3DEC04F096EC11F0D10E0D6EFF0EFC
:101B68000E6E3DEC04F00B0E336E260E326E5E0EDA
:101B7800E82EFED7322EFCD7332EFAD739C025F0FF
:101B88003AC026F0340E276E000E286E0AEC06F0D6
:101B98001200000E0001856F000E846F0001825153
:101BA80000018311D8B42CD0010E0001866F06D035
:101BB8000001D890823783370001862B000183AF5C
:101BC800F7D70001D890843785370001825100018A
:101BD800805D0001835100018159D8A00AD000011D
:101BE80082510001805F000183510001815B000187
:101BF80084810001D890833382330001862FE1D796
:101C080084C080F085C081F0120092689368000E4D
:101C1800946E000E956E000E966E000E896E000E84
:101C28008A6E000E8B6E000E8C6E000E8D6E000E8E
:101C3800C26E0C0EC16E000EB56EC08E95EC0FF024
:101C4800010E64EC11F0800E64EC11F0100E00012E
:101C58008D6F270E8E6F000E8F6F000E906FE5EC64
:101C68000EF0F5EC10F0030E0001966F080E00015F
:101C7800956F770EE82EFED7952FFCD7962FFAD7BB
:101C88001200F29E92EC11F0000E036ED00E026E5E
:101C98007DEC11F0000E036E000E026E7DEC11F06B
:101CA8008EEC11F092EC11F0000E036ED10E026E64
:101CB8007DEC11F0000E066E050E066401D00ED004
:101CC8000650010DF3500424D96EF4500520DA6E45
:101CD800010EBCEC10F0DF6E062AEED720EE06F0FF
:101CE8000450D9260550DA22000EBCEC10F0DF6E45
:101CF8008EEC11F0F28E12000001816F000181510B
:101D0800F00B0001806F8C500F0B8C6E000180511E
:101D18008C108C6E8C96100EE82EFED700D08C8618
:101D2800100EE82EFED700D000018139F00B00011B
:101D3800816F00018151F00B0001806F8C500F0BF7
:101D48008C6E000180518C108C6E8C96100EE82ED3
:101D5800FED700D08C86100EE82EFED700D01200D9
:101D68000001895100018A11D8B426D0010E000162
:101D78008B6F06D00001D89089378A3700018B2BEA
:101D880000018AAFF7D7000189510001875D000182
:101D98008A5100018859D8A008D000018951000152
:101DA800875F00018A510001885B0001D8908A335F
:101DB800893300018B2FE7D787C087F088C088F068
:101DC8001200000EC76E280EC66E000EC56E000EFD
:101DD8000001806F120E816F7A0E826F000E836F82
:101DE8008DC091F08EC092F08FC093F090C094F0A7
:101DF800020ED89000019137923793379437E82E26
:101E0800F8D791C084F092C085F093C086F094C052
:101E180087F0C8EC0BF000018005C86E94869488A2
:101E28001200286EF29E800E72EC11F0000E8B6E7E
:101E38002850D8A404D0260E266EFF0E03D09C0E80
:101E4800266EFE0E276E26C00DF027C00EF03DEC64
:101E580004F0000E296E090E296401D00AD0FF0E85
:101E6800256E8A0EE82EFED7252EFCD700D0292A0B
:101E7800F2D72850D8B41200FFD7026E0250F00BE8
:101E8800016E8C500F0B8C6E01508C108C6E8C96E2
:101E9800100EE82EFED700D08C86100EE82EFED746
:101EA80000D00238F00B026E0250F00B016E8C501D
:101EB8000F0B8C6E01508C108C6E8C96100EE82EC9
:101EC800FED700D08C86100EE82EFED700D0120068
:101ED800000E066E000E056E03500410D8B41CD018
:101EE800010E076E04D0D89003360436072A04AED4
:101EF800FAD7D890053606360350015C04500258CC
:101F0800D8A005D00350015E0450025A0580D8902D
:101F180004320332072EEDD705C001F006C002F0E7
:101F28001200270E0001836FF50EE82EFED7832FCF
:101F3800FCD7330E64EC11F0320E64EC11F0280E6D
:101F480064EC11F00F0E64EC11F0060E64EC11F065
:101F5800010E64EC11F0270E0001836FF50EE82ED8
:101F6800FED7832FFCD7120009EC0EF0000E0001FB
:101F78008C6FFF0E00018D6F09EC00F0080E000158
:101F8800AE6F1B0E0001AD6F270EE82EFED7AD2FEA
:101F9800FCD7AE2FFAD7F086F28E000E756E000EC3
:101FA800746E0AEC0DF0FDD7FF000A500B10D8B480
:101FB80018D0010E0C6E04D0D8900A360B360C2AB5
:101FC8000BAEFAD70A50085C0B500958D8A004D0B9
:101FD8000A50085E0B50095AD8900B320A320C2E60
:101FE800F1D708C008F009C009F01200056E0544D1
:101FF800E846FC0BC26EC280C28208D01A0E036E7D
:10200800F80EE82EFED7032EFCD700D0C2B2F6D7C2
:10201800C350C4CF03F0046A03C004F0036A03107A
:10202800016E0450026E1200000E0C6E0AAE06D04D
:10203800096C0A1ED8B00A2A010E0C6E09C001F0FC
:102048000AC002F0036A8E0E046E0CC005F026EC7E
:102058000CF001C009F002C00AF003C00BF0120036
:102068000001805100018203F3CF84F0F4CF85F0A2
:102078000001805100018303F3500001852700010E
:10208800815100018203F3500001852784C080F04C
:1020980085C081F012000001816F49EC11F0C586FE
:1020A80049EC11F0C9CF82F049EC11F000018151DF
:1020B8000001D8A402D0C58A01D0C59AC5880001FC
:1020C8008251120096EC11F0DD0E0D6EFF0E0E6EB1
:1020D8003DEC04F00B0E0A6EB80E096E000E0C6E85
:1020E800600E0B6E25C00DF026C00EF0DFEC08F078
:1020F800120096EC11F0790E0D6EFF0E0E6E3DEC8F
:1021080004F0010E0A6E900E096E020E0C6EBC0EE3
:102118000B6E25C00DF026C00EF0DFEC08F01200A3
:102128000001826F000E0001816F3A0E000182618A
:1021380007D02F0E0001826503D0010E0001816FC8
:1021480081C080F000018031120000EEAFF01D0E5A
:10215800EE6AE806FDE100EE70F00D0EEE6AE806A4
:10216800FDE17D907D92000EF86E0001B8EF0FF052
:10217800026E53EC11F0C58653EC11F0C9CF03F091
:1021880053EC11F00250D8A402D0C58A01D0C59AE8
:10219800C588035012000250AA6E01C0A9FF03C0EF
:1021A800A8FFA69EA69CA684550EA76EAA0EA76E8B
:1021B800A682A1A8FED7A198A694120001500302F6
:1021C800F3CF05F0F4CF06F001500402F3500626D1
:1021D80002500302F350062605C001F006C002F0C3
:1021E8001200000E0001816FA00E806F32EC11F01A
:1021F8000001CB6F030E0001CB651200000E000139
:10220800CB6F1200036E000E026E3A0E036005D00B
:102218002F0E036402D0010E026E02C001F00130DD
:102228001200F29E81A2FED781380F0B0F0B036EAE
:1022380081B2FED7F090F28E03C001F0026A12005C
:10224800016E015000080001CB25040F026E040E38
:10225800026402D0040E025E025012000001815195
:10226800AA6E80C0A9FFA69EA69CA680A6B0FED78F
:10227800A85012000250AA6E01C0A9FFA69EA69CF3
:10228800A680A6B0FED7A8501200C7B4FED7C5CF07
:1022980080F01F0E00018017D8B41200F6D7C7B41B
:1022A800FED7C5CF01F01F0E0116D8B41200F7D71C
:1022B8000001826F8C840001825180EC0EF01200C4
:1022C8000001826F8C940001825180EC0EF01200A4
:1022D800036E8C84035041EC0FF01200036E8C9453
:1022E800035041EC0FF0120049EC11F081C0C9FF16
:1022F800120053EC11F002C0C9FF120049EC11F0B2
:10230800C584120049EC11F0C5801200C00E64ECBF
:1023180011F0120053EC11F0C584120053EC11F0C7
:0C232800C5801200C00E72EC11F0120013
:10FC6C000001000A006400E80310270100100000E6
:10FC7C00010010536F7274696E6720436F6D706C66
:10FC8C006574652020202020202020202000507228
:10FC9C006573732061206E756D6265722020202063
:10FCAC002020202020200054696D6520456C617057
:10FCBC007365643A2020202020202020202000542E
:10FCCC006F74616C20536F727465643A202020202D
:10FCDC0020202020202000466F72206D6F7265203E
:10FCEC00696E666F202020202020202020200053C9
:10FCFC00696D756C6174696E672E2E2E2020202024
:10FD0C0020202020202000253032782F25303278FA
:10FD1C002F25303278202020202020202020002564
:10FD2C003032783A253032783A253032782020201B
:10FD3C0020202020202000756E6368617267656446
:10FD4C002041412020202020202020202000756EE2
:10FD5C00636861726765642039562020202020205A
:10FD6C00202020200025642062617474657269650E
:10FD7C00732020202020202020202000756E636816
:10FD8C0061726765642043202020202020202020E1
:10FD9C0020004141536572766F5374617973202052
:10FDAC0020202020202020004141536572766F5284
:10FDBC006967687420202020202020202000556EA8
:10FDCC00636861726765643A20202020202020201F
:10FDDC00202000414120536F727465643A2020202A
:10FDEC002020202020202000395620536F7274656B
:10FDFC00643A20202020202020202020002575205F
:10FE0C007365636F6E6473202020202020202020D7
:10FE1C002000536F7274696E672E2E2E20202020C6
:10FE2C002020202020200039536572766F53746196
:10FE3C00797320202020202020202000435365723D
:10FE4C00766F53746179732020202020202020208D
:10FE5C00004141536572766F4C65667420202020FA
:10FE6C0020202020200039536572766F5269676814
:10FE7C0074202020202020202020004353657276FF
:10FE8C006F526967687420202020202020202000D9
:10FE9C00456D657267656E637920202020202020D7
:10FEAC00202020004320536F727465643A20202078
:10FEBC00202020202020200039536572766F4C655D
:10FECC0066742020202020202020200043536572BF
:10FEDC00766F4C6566742020202020202020200086
:10FEEC00737461727420253032783A253032782060
:10FEFC002020200057656C636F6D65212020202029
:10FF0C00202020202020006E6F7720253032783A78
:10FF1C002530327820202020200053746F707065BB
:10FF2C00642020202020202020202000303132335B
:10FF3C00343536373839616263646566006E6F201C
:10FF4C00414120202020202020202020006E6F20E6
:10FF5C00395620202020202020202020002564201D
:10FF6C0072656365697665642020202000632D63CB
:10FF7C006C6F636B776973652020202000256420EB
:10FF8C00202020202020202020202020006E6F20E8
:10FF9C0043202020202020202020200041413A20F6
:10FFAC002020202020202020200039563A202020FC
:10FFBC002020202020202000433A20202020202018
:10FFCC00202020200072756E73206265666F72654A
:10FFDC0000636C6F636B7769736520200073686FC7
:10FFEC0077696E6720257500506572696F643A20D9
:04FFFC002575000067
:020000040020DA
:08000000FFFFFFFFFFFFFFFF00
:020000040030CA
:0E000000FF021F1EFF8381FF0FC00FE00F40A5
:00000001FF
