:0400000007EF00F016
:100008005A82ADED07F0E1EF08F0800E25EC0AF01A
:10001800CD0E326EFD0E336E9DEC02F0000E000127
:10002800976F000E966F20EEBBF010EEAEF0070E45
:10003800DBCFE3FFE806FCE20001A469A569000143
:10004800A669A7690001A869A9698B8641D105EC51
:100058000AF0AE0E0001926F000E0001936F1EECC5
:1000680006F092C0A4F093C0A5F0000E0001AA6F9C
:10007800090E0001AA6501D00CD0FF0E0001946F93
:100088008A0EE82EFED7942FFCD700F00001AA2B89
:10009800EFD7AE0E0001926F000E0001936F3AEC9D
:1000A80005F092C0A6F093C0A7F0000E0001AB6F58
:1000B800090E0001AB6501D00CD0FF0E0001946F52
:1000C8008A0EE82EFED7942FFCD700F00001AB2B48
:1000D800EFD7AE0E0001926F000E0001936FACECEB
:1000E80005F092C0A8F093C0A9F0800E25EC0AF0A4
:1000F80005EC0AF020EEC9F010EE98F0050EDBCF03
:10010800E3FFE806FCE220EEC3F010EE9EF0050ED9
:10011800DBCFE3FFE806FCE20001A4510001A511D2
:10012800D8A40CD0000E00019F6F010E9E6FD50E53
:10013800326EFE0E336E9DEC02F011D00001A40564
:100148000001A511D8A40BD0000E0001996F010E73
:10015800986F560E326EFE0E336E9DEC02F0800ED6
:1001680025EC0AF0000E0001AC6F090E0001AC6529
:1001780001D00CD0FF0E0001946F8A0EE82EFED736
:10018800942FFCD700F00001AC2BEFD70001A6514B
:100198000001A711D8A40CD0000E0001A16F010E18
:1001A800A06F500E326EFF0E336E9DEC02F011D030
:1001B8000001A6050001A711D8A40BD0000E00016C
:1001C8009B6F010E9A6FFF0E326EFE0E336E9DEC22
:1001D80002F0800E25EC0AF0000E0001AD6F090E4A
:1001E8000001AD6501D00CD0FF0E0001946F8A0E9E
:1001F800E82EFED7942FFCD700F00001AD2BEFD7E7
:100208000001A8510001A911D8A40CD0000E0001CA
:10021800A36F010EA26F3C0E326EFF0E336E9DEC83
:1002280002F011D00001A8050001A911D8A40BD033
:10023800000E00019D6F010E9C6FEA0E326EFE0EDD
:10024800336E9DEC02F005EC0AF09E0E3B6E000E3C
:100258003C6EE9EC09F0340E0001946FF10EE82EC3
:10026800FED7942FFCD700D0980E3B6E000E3C6E44
:10027800DAEC09F0080E8B6E0001B2510001B025CE
:100288000001946F0001B3510001B1210001956F85
:100298000001B451000194270001B55100019523D4
:1002A8000001AE51000194270001AF5100019523D0
:1002B800000195BF0DD00001955105E10F0E000119
:1002C800945DD8A005D0000E0001976F010E966FBF
:1002D8000001965100019711D8B4B9D6F29E000ECC
:1002E8003F6EB30E3E6EAE0E406E000E416E80EC59
:1002F80001F0F8EC09F01200F29E800E25EC0AF0ED
:10030800510E326EFD0E336E9DEC02F00B0E436EF5
:10031800260E426E5E0EE82EFED7422EFCD7432EE6
:10032800FAD7800E25EC0AF06C0E326EFD0E336E95
:100338009DEC02F03BEC0AF0B50E326EFD0E336E0A
:100348009DEC02F0000E0001816F000E806F05EC3D
:100358000AF026C080F027C081F0CCD0800E25ECB2
:100368000AF0850E326EFD0E336E9DEC02F03BEC0A
:100378000AF0AB0E326EFE0E336E3EC034F03FC054
:1003880035F09DEC02F0E3D7800E25EC0AF09D0EC7
:10039800326EFD0E336E9DEC02F03BEC0AF0130E4C
:1003A800326EFE0E336E20EE06F04050D9264150D4
:1003B800DA22DECF42F0DDCF43F020EE04F04050E9
:1003C800D9264150DA22DECF44F0DDCF45F020EEC9
:1003D80002F04050D9264150DA22DECF46F0DDCF78
:1003E80047F040C0D9FF41C0DAFFDECF48F0DDCF8B
:1003F80049F046504826475049224450482645501F
:10040800492242504824346E43504920356E9DECB1
:1004180002F09DD7800E25EC0AF0810E326EFE0E9A
:10042800336E9DEC02F03BEC0AF0F10E326EFF0EDB
:10043800336E40C0D9FF41C0DAFFDECF34F0DDCFE4
:1004480035F09DEC02F083D7800E25EC0AF0140EEF
:10045800326EFF0E336E9DEC02F03BEC0AF0F10EAB
:10046800326EFF0E336E20EE02F04050D926415016
:10047800DA22DECF34F0DDCF35F09DEC02F067D71D
:10048800800E25EC0AF0960E326EFE0E336E9DEC51
:1004980002F03BEC0AF0F10E326EFF0E336E20EEE6
:1004A80004F04050D9264150DA22DECF34F0DDCFB7
:1004B80035F09DEC02F04BD7800E25EC0AF06C0E5F
:1004C800326EFE0E336E9DEC02F03BEC0AF0F10E3C
:1004D800326EFF0E336E20EE06F04050D9264150A2
:1004E800DA22DECF34F0DDCF35F09DEC02F02FD7E5
:1004F800FF002DD780C042F081C043F04350000A6E
:10050800D8A425D74250000AD8B428D7010AD8B4AD
:100518003BD7030AD8B47ED7010AD8B495D7070ABF
:10052800D8B4AED7010AD8B4C7D70A0AD8B4E0D726
:100538000ED7340E376E000E386E82D0250E3D1859
:10054800D8B404D03D501FEC0AF07AD0000E396EB2
:1005580004D03D501FEC0AF073D032C0F6FF33C010
:10056800F7FF324A332A0800F5CF3DF03D50000A24
:10057800D8B41200640AD8B403D00D0AD8A4E9D7B5
:1005880037C0D9FF38C0DAFFDECF3BF0DDCF3CF013
:10059800020E3726000E38223CAE06D0030E391262
:1005A8003B6C3C1ED8B03C2A010E3D6E050E3D1832
:1005B800D8B412D03D50020D470EF324F66EFD0E4E
:1005C800F420F76E0900F5503B5C0900F5503C58E3
:1005D800D8A002D03D2AEAD739C036F0030E361625
:1005E800D8B403D02D0E1FEC0AF03DC03AF024D049
:1005F8003A50020D470EF324F66EFD0EF420F76E06
:100608000900F5CF28F00A00F5CF29F03BC026F005
:100618003CC027F08FEC08F026C02DF027C02EF044
:10062800000E306E0A0E2F6E49EC09F02D50300F77
:100638003D6E3D501FEC0AF03A063A28D8A4D8D7A8
:1006480032C0F6FF33C0F7FF324A332A0800F5CF2D
:100658003DF03D50D8B4120071D70F0E106E000E49
:10066800116E82D0250E1618D8B404D016502BEC73
:100678000AF07AD0000E126E04D016502BEC0AF055
:1006880073D00DC0F6FF0EC0F7FF0D4A0E2A080002
:10069800F5CF16F01650000AD8B41200640AD8B480
:1006A80003D00D0AD8A4E9D710C0D9FF11C0DAFFCA
:1006B800DECF14F0DDCF15F0020E1026000E112249
:1006C80015AE06D0030E1212146C151ED8B0152ADA
:1006D800010E166E050E1618D8B412D01650020D5B
:1006E800470EF324F66EFD0EF420F76E0900F55060
:1006F800145C0900F5501558D8A002D0162AEAD77C
:1007080012C00FF0030E0F16D8B403D02D0E2BEC29
:100718000AF016C013F024D01350020D470EF3242C
:10072800F66EFD0EF420F76E0900F5CF03F00A000F
:10073800F5CF04F014C001F015C002F0B8EC08F0D1
:1007480001C008F002C009F0000E0B6E0A0E0A6E16
:100758006AEC09F00850300F166E16502BEC0AF0B0
:1007680013061328D8A4D8D70DC0F6FF0EC0F7FF7C
:100778000D4A0E2A0800F5CF16F01650D8B412000C
:1007880071D73FC043F0446A456A3E34433601E3BB
:10079800448043500001846F00018451D8A407D0DD
:1007A800000E3D6E000E3E6E000E3F6E120042C0FF
:1007B80043F0446A456A4134433601E34480435078
:1007C8000001856F00018551D8A407D0000E3D6E49
:1007D800000E3E6E000E3F6E1200000E0001816F8B
:1007E800000E0001826F000E0001836F0001855129
:1007F800890F0001845F3FC085F042500001851BCE
:10080800800E000185173E8EFF0E3D16FF0E3E1628
:10081800000E3F16418EFF0E4016FF0E4116000EC9
:100828004216180E0001806F0001D8908137823778
:10083800833740503D5C41503E5842503F58D8A005
:1008480008D040503D5E41503E5A42503F5A000148
:100858008181D8903D363E363F360001802FE4D75F
:1008680081C026F082C027F083C028F084C029F018
:1008780085C02AF056EC07F026C03DF027C03EF0B0
:1008880028C03FF0120030C034F0356A366A2F3481
:10089800343601E335803450376E3750D8A407D04A
:1008A800000E2E6E000E2F6E000E306E120033C03A
:1008B80034F0356A366A3234343601E335803450E0
:1008C8003C6E3C50D8A407D0000E2E6E000E2F6E42
:1008D800000E306E12003C507B0F372630C03CF0C3
:1008E80033503C1A800E3C162F8E328EFF0E311676
:1008F800FF0E3216000E3316000E386E000E396EDB
:10090800000E3A6E070E3B6E2EA006D031503826E8
:100918003250392233503A22D89030322F322E3288
:10092800D8903136323633363B2EEED7090E3B6E31
:100938002EA006D0315038263250392233503A2270
:10094800D89030322F322E32D8903A32393238326B
:100958003B2EEED738C026F039C027F03AC028F031
:1009680037C029F03CC02AF056EC07F026C02EF01C
:1009780027C02FF028C030F012002EC026F02FC05C
:1009880027F0000E296E0A0E286EF7EC07F026C035
:100998002EF027C02FF02E06D8A02F062EC039F033
:1009A8002FC03AF031BE1200315003E13004D8A014
:1009B80012002EC039F02FC03AF0000E366E8BB000
:1009C8000DD032C0D9FF33C0DAFFDECF34F0DDCF2F
:1009D80035F03430D8A002D0010E366E36B002D0D1
:1009E8008B9001D08B80000E376E8BB20FD020EE2B
:1009F80002F03250D9263350DA22DECF34F0DDCF80
:100A080035F03430D8A002D0010E376E37B002D09E
:100A18008B9201D08B82000E386E8BB40FD020EEF3
:100A280004F03250D9263350DA22DECF34F0DDCF4D
:100A380035F03430D8A002D0010E386E38B002D06C
:100A48008B9401D08B843ABE0DD03A5003E139041F
:100A5800D8A008D0030EE82EFED700F03906D8A09B
:100A68003A06F1D73006D8A031069CD7800E25EC7F
:100A78000AF0E40E326EFF0E336E9DEC02F03BEC92
:100A88000AF03CD02C0E326EFE0E336E9DEC02F056
:100A9800000120EE02F09251D9269351DA22DE2A83
:100AA800000EDD22000E0001936F010E926F1200FE
:100AB8002A0E326EFE0E336E9DEC02F0000120EE1F
:100AC80006F09251D9269351DA22DE2A000EDD2251
:100AD800000E0001936F000E926F1200B90E326E75
:100AE800FF0E336E9DEC02F00001926993691200CB
:100AF800000E0001936F000E926F1200010E8BEC36
:100B080009F026C08CF027C08DF0000E00018E6F12
:100B1800C00E00018F6F3F0E0001906F8DEC06F044
:100B280000018D51000AD8B404D0FF0AD8B40AD005
:100B3800DFD700018C51000AD8B4D0D7010AD8B445
:100B4800A1D7D6D700018C51FF0AD8B4B1D7D0D7D6
:100B5800800E25EC0AF0D60E326EFF0E336E9DEC39
:100B680002F03BEC0AF03CD0FE0E326EFD0E336E06
:100B78009DEC02F0000120EE04F09251D926935129
:100B8800DA22DE2A000EDD22000E0001936F010E2C
:100B9800926F1200FC0E326EFD0E336E9DEC02F069
:100BA800000120EE06F09251D9269351DA22DE2A6E
:100BB800000EDD22000E0001936F000E926F1200EE
:100BC800990E326EFF0E336E9DEC02F000019269B1
:100BD80093691200000E0001936F000E926F1200CD
:100BE800020E8BEC09F026C08CF027C08DF0000EA9
:100BF80000018E6F800E00018F6F400E0001906F14
:100C08008DEC06F000018D51000AD8B404D0FF0A1B
:100C1800D8B40AD0DFD700018C51000AD8B4D0D795
:100C2800010AD8B4A1D7D6D700018C51FF0AD8B48D
:100C3800B1D7D0D7800E25EC0AF0C80E326EFF0E61
:100C4800336E9DEC02F03BEC0AF039D0E70E326EC1
:100C5800FD0E336E9DEC02F092C0D9FF93C0DAFF0F
:100C6800DE2A000EDD22000E0001936F010E926F46
:100C78001200E50E326EFD0E336E9DEC02F000019F
:100C880020EE06F09251D9269351DA22DE2A000E80
:100C9800DD22000E0001936F000E926F1200890E84
:100CA800326EFF0E336E9DEC02F00001926993697B
:100CB8001200000E0001936F000E926F1200000EDA
:100CC8008BEC09F026C08CF027C08DF0000E0001D7
:100CD8008E6FC00E00018F6F3F0E0001906F8DEC7C
:100CE80006F000018D51000AD8B404D0FF0AD8B428
:100CF8000AD0DFD700018C51000AD8B4D0D7010A36
:100D0800D8B4A4D7D6D700018C51FF0AD8B4B1D72C
:100D1800D0D7A90E326EFF0E336E8CC034F08DC062
:100D280035F09DEC02F03BEC0AF0000E0001916FEB
:100D3800090E0001916501D00BD0FF0E496E8A0E95
:100D4800E82EFED7492EFCD700D00001912BF0D712
:100D580000018DBF08D000018D510BE1320E00015A
:100D68008C5DD8B006D0000E00018D6F000E8C6F20
:100D78001200000E406EA00E416E400E426E630ED1
:100D8800316E590E326E440E336E8EC02EF08FC007
:100D98002FF090C030F047EC04F02EC03DF02FC08B
:100DA8003EF030C03FF0C5EC03F03DC086F03EC0D9
:100DB80087F03FC088F08CC02EF08DC02FF0A9ECD2
:100DC80009F02EC089F02FC08AF030C08BF0FAEC01
:100DD80006F00001D8B006D0000E00018D6F010E9C
:100DE8008C6F120000018C698D691200000188AFB8
:100DF80019D086C046F087C047F088C048F0461E24
:100E0800471E481E462A000E47224822000E462446
:100E18000001866F000E47200001876F800E482072
:100E28000001886F00018BAF19D089C046F08AC0D5
:100E380047F08BC048F0461E471E481E462A000E43
:100E480047224822000E46240001896F000E4720E1
:100E580000018A6F800E482000018B6F000E000190
:100E6800861B000E0001871B800E0001881B000EE8
:100E78000001891B000E00018A1B800E00018B1BDC
:100E8800000189510001865D00018A5100018759DE
:100E980000018B5100018859D8B002D0D8901200B7
:100EA800D88012002950D8B405D026502710281011
:100EB800D8A40CD0000E266E000E276E000E286EE9
:100EC8001200292AD890283227322632000E2614FA
:100ED8002B6E000E27142C6EFE0E28142D6E2B5030
:100EE8002C102D10D8B40CD0ECD7292A010E2626A8
:100EF800000E2722000E2822D890283227322632C8
:100F0800000E26142B6E000E27142C6EFF0E2814CC
:100F18002D6E2B502C102D10D8B406D0E6D72906EC
:100F2800D89026362736283627BE03D0020E2960E9
:100F3800F6D729A0279ED8902932295028122A505E
:100F4800D8A4288E26C026F027C027F028C028F06D
:100F580012000600FACF17F0FBCF18F0E9CF19F00E
:100F6800EACF1AF0E1CF1BF0E2CF1CF0D9CF1DF089
:100F7800DACF1EF0F3CF1FF0F4CF20F0F6CF21F038
:100F8800F7CF22F0F8CF23F0F5CF24F0F0A00DD062
:100F980081380F0B0F0B256EF090280E0D6EFF0E8B
:100FA8000E6E31EC03F012EC0AF024C0F5FF23C0FA
:100FB800F8FF22C0F7FF21C0F6FF20C0F4FF1FC0D2
:100FC800F3FF1EC0DAFF1DC0D9FF1CC0E2FF1BC023
:100FD800E1FF1AC0EAFF19C0E9FF18C0FBFF17C0FC
:100FE800FAFF5A921100000E2B6E29AE06D0286C1B
:100FF800291ED8B0292A010E2B6E27AE06D0266CE2
:10100800271ED8B0272A010E2B1A000E2D6E000EAF
:101018002C6E28502910D8B41CD0010E2A6E04D08A
:10102800D890283629362A2A29AEFAD7D8902C36CD
:101038002D362850265C29502758D8A005D028508E
:10104800265E2950275A2C80D890293228322A2EF9
:10105800EDD72B50D8B404D02C6C2D1ED8B02D2A27
:101068002CC026F02DC027F01200276E2750F00B59
:10107800266E8C500F0B8C6E26508C108C6E8C96B6
:10108800100EE82EFED700D08C86100EE82EFED764
:1010980000D02738F00B276E2750F00B266E8C50A7
:1010A8000F0B8C6E26508C108C6E8C96100EE82EC2
:1010B800FED700D08C86100EE82EFED700D0120086
:1010C800026E0250F00B016E8C500F0B8C6E0150AB
:1010D8008C108C6E8C96100EE82EFED700D08C8665
:1010E800100EE82EFED700D00238F00B026E025028
:1010F800F00B016E8C500F0B8C6E01508C108C6EA7
:101108008C96100EE82EFED700D08C86100EE82E96
:10111800FED700D01200000E2C6E000E2B6E285049
:101128002910D8B41CD0010E2A6E04D0D8902836C5
:1011380029362A2A29AEFAD7D8902B362C362850A9
:10114800265C29502758D8A005D02850265E29505B
:10115800275A2B80D890293228322A2EEDD72BC037
:1011680026F02CC027F01200000E066E000E056E49
:1011780003500410D8B41CD0010E076E04D0D890C8
:1011880003360436072A04AEFAD7D8900536063651
:101198000350015C04500258D8A005D00350015EEA
:1011A8000450025A0580D89004320332072EEDD736
:1011B80005C001F006C002F012006E0EF66E140EA5
:1011C800F76E000EF86E00EE52F010EE08F009000F
:1011D800F5CFEEFFE550E150FAE100EEBBF0140E5A
:1011E800EE6AE806FDE100EE4AF0080EEE6AE8064F
:1011F800FDE15A905A92000EF86E0001C5EF09F011
:10120800270E296EF50EE82EFED7292EFCD700F002
:10121800330E25EC0AF0320E25EC0AF0280E25ECE8
:101228000AF00F0E25EC0AF0060E25EC0AF0010E66
:1012380025EC0AF0270E296EF50EE82EFED7292E8A
:10124800FCD700F0120092689368000E946E000EAE
:10125800956E000E966E000E896E000E8A6E000E58
:101268008B6E000E8C6E000E8D6E000EC26E0C0E14
:10127800C16E000EB56EC08E04EC09F0010E25ECAF
:101288000AF0800E25EC0AF012002F503010D8B466
:1012980018D0010E316E04D0D8902F363036312A4E
:1012A80030AEFAD72F502D5C30502E58D8A004D02D
:1012B8002F502D5E30502E5AD89030322F32312E8A
:1012C800F1D72DC02DF02EC02EF012000A500B10B1
:1012D800D8B418D0010E0C6E04D0D8900A360B364C
:1012E8000C2A0BAEFAD70A50085C0B500958D8A044
:1012F80004D00A50085E0B50095AD8900B320A32B3
:101308000C2EF1D708C008F009C009F012002A6EA7
:101318002A44E846FC0BC26EC280C28208D01A0E6C
:10132800286EF80EE82EFED7282EFCD700D0C2B2C1
:10133800F6D7C350C4CF28F0296A28C029F0286AF4
:101348002810266E2950276E1200000E316E2FAE1F
:1013580006D02E6C2F1ED8B02F2A010E316E2EC04B
:1013680026F02FC027F0286A8E0E296E31C02AF089
:1013780056EC07F026C02EF027C02FF028C030F01A
:10138800120027EC09F0640E326EFF0E336E9DECEE
:1013980002F03BEC0AF0400E326EFE0E336E9DEC0E
:1013A80002F009EC00F0FF0007EF00F00B0E2F6EC3
:1013B800B80E2E6E000E316E400E306E3BC032F00D
:1013C8003CC033F0C1EC04F01200010E2F6E900EF9
:1013D8002E6E010E316EC20E306E3BC032F03CC034
:1013E80033F0C1EC04F01200F29E800E25EC0AF0F6
:1013F800000E8B6E770E326EFF0E336E9DEC02F090
:10140800FFD781A2FED781380F0B0F0B286E81B250
:10141800FED7F09028C026F0276A1200F29E800EB0
:1014280031EC0AF0000E8B6E770E0D6EFF0E0E6E0D
:1014380031EC03F0FFD7286E8C84285039EC08F083
:101448001200286E8C94285039EC08F01200036EB4
:101458008C84035064EC08F01200036E8C940350E3
:1014680064EC08F012000100010001000100C00E48
:0614780025EC0AF0120051
:10FD46000001000A006400E8031027536F7274690B
:10FD56006E6720436F6D706C6574652020202020CF
:10FD660020202020200050726573732061206E755C
:10FD76006D62657220202020202020202020005443
:10FD8600696D6520456C61707365643A202020209A
:10FD960020202020202000546F74616C20536F7245
:10FDA6007465643A20202020202020202020004650
:10FDB6006F72206D6F726520696E666F202020203D
:10FDC6002020202020200053696D756C6174696EB7
:10FDD600672E2E2E20202020202020202020007577
:10FDE6006E6368617267656420414120202020208F
:10FDF600202020202000756E63686172676564208C
:10FE06003956202020202020202020200025642074
:10FE16006261747465726965732020202020202039
:10FE260020202000756E6368617267656420432038
:10FE3600202020202020202020005072657373206F
:10FE4600537461727420202020202020202020005E
:10FE56004141536572766F5269676874202020208D
:10FE6600202020202000556E636861726765643A21
:10FE76002020202020202020202000414120536FD8
:10FE8600727465643A202020202020202020200043
:10FE9600395620536F727465643A20202020202042
:10FEA60020202020002564207365636F6E64732014
:10FEB60020202020202020202000536F7274696E9D
:10FEC600672E2E2E202020202020202020200041BA
:10FED60041536572766F4C65667420202020202081
:10FEE6002020200039536572766F52696768742046
:10FEF60020202020202020200043536572766F5258
:10FF060069676874202020202020202020004320BC
:10FF1600536F727465643A20202020202020202010
:10FF26002000456D657267656E637920202020206C
:10FF360020202020200039536572766F4C65667448
:10FF46002020202020202020200043536572766F39
:10FF56004C65667420202020202020202000576534
:10FF66006C636F6D6521202020202020202020201A
:10FF76000053746F7070656420202020202020209C
:10FF86002020006E6F2041412020202020202020AC
:10FF96002020006E6F20395620202020202020208F
:10FFA60020200025642072656365697665642020DB
:10FFB6002020006E6F20432020202020202020209B
:10FFC600200041413A20202020202020202020000F
:10FFD60039563A2020202020202020202000433A95
:10FFE60020202020202020202020002564202020E2
:09FFF60020202020202020000022
:020000040020DA
:08000000FFFFFFFFFFFFFFFF00
:020000040030CA
:0E000000FF021F1EFF8381FF0FC00FE00F40A5
:00000001FF
