:0400000007EF00F016
:10000800508231ED01F0F5EF02F0340E376E000E3C
:10001800386E82D0250E3D18D8B404D03D501AEC65
:1000280003F07AD0000E396E04D03D501AEC03F07C
:1000380073D032C0F6FF33C0F7FF324A332A0800C4
:10004800F5CF3DF03D50000AD8B41200640AD8B488
:1000580003D00D0AD8A4E9D737C0D9FF38C0DAFFD2
:10006800DECF3BF0DDCF3CF0020E3726000E382203
:100078003CAE06D0030E39123B6C3C1ED8B03C2A6D
:10008800010E3D6E050E3D18D8B412D03D50020D3C
:10009800790EF324F66EFD0EF420F76E0900F55084
:1000A8003B5C0900F5503C58D8A002D03D2AEAD75D
:1000B80039C036F0030E3616D8B403D02D0E1AEC1C
:1000C80003F03DC03AF024D03A50020D790EF324E3
:1000D800F66EFD0EF420F76E0900F5CF28F00A0041
:1000E800F5CF29F03BC026F03CC027F00CEC02F01D
:1000F80026C02DF027C02EF0000E306E0A0E2F6E8F
:1001080081EC02F02D50300F3D6E3D501AEC03F09B
:100118003A063A28D8A4D8D732C0F6FF33C0F7FF3A
:10012800324A332A0800F5CF3DF03D50D8B41200CA
:1001380071D70F0E106E000E116E82D0250E161894
:10014800D8B404D0165026EC03F07AD0000E126E04
:1001580004D0165026EC03F073D00DC0F6FF0EC085
:10016800F7FF0D4A0E2A0800F5CF16F01650000AC0
:10017800D8B41200640AD8B403D00D0AD8A4E9D7B9
:1001880010C0D9FF11C0DAFFDECF14F0DDCF15F0B3
:10019800020E1026000E112215AE06D0030E121202
:1001A800146C151ED8B0152A010E166E050E1618F9
:1001B800D8B412D01650020D790EF324F66EFD0E47
:1001C800F420F76E0900F550145C0900F550155835
:1001D800D8A002D0162AEAD712C00FF0030E0F16C5
:1001E800D8B403D02D0E26EC03F016C013F024D09B
:1001F8001350020D790EF324F66EFD0EF420F76EFF
:100208000900F5CF03F00A00F5CF04F014C001F09F
:1002180015C002F035EC02F001C008F002C009F088
:10022800000E0B6E0A0E0A6EA2EC02F00850300F98
:10023800166E165026EC03F013061328D8A4D8D748
:100248000DC0F6FF0EC0F7FF0D4A0E2A0800F5CFC5
:1002580016F01650D8B4120071D70600FACF17F06E
:10026800FBCF18F0E9CF19F0EACF1AF0E1CF1BF075
:10027800E2CF1CF0D9CF1DF0DACF1EF0F3CF1FF07C
:10028800F4CF20F0F6CF21F0F7CF22F0F8CF23F00B
:10029800F5CF24F0F0A00DD081380F0B0F0B256E91
:1002A800F090430E0D6EFF0E0E6E9DEC00F00FECFD
:1002B80003F024C0F5FF23C0F8FF22C0F7FF21C0D8
:1002C800F6FF20C0F4FF1FC0F3FF1EC0DAFF1DC0F9
:1002D800D9FF1CC0E2FF1BC0E1FF1AC0EAFF19C02A
:1002E800E9FF18C0FBFF17C0FAFF5092110002EC9B
:1002F80003F0010E406EF40E3F6E800E20EC03F00A
:100308009C0E326EFF0E336E3FC034F040C035F0A5
:1003180009EC00F0000E426E000E416E42BE06D09F
:10032800E80E415C030E4258D8B0E1D78BB402D036
:100338008B8401D08B94030E3E6E980EE82EFED768
:100348003E2EFCD78BB402D08B8401D08B94060E42
:100358003E6E300EE82EFED73E2EFCD700D0414A26
:10036800422ADCD7276E2750F00B266E8C500F0BD5
:100378008C6E26508C108C6E8C96100EE82EFED744
:1003880000D08C86100EE82EFED700D02738F00B50
:10039800276E2750F00B266E8C500F0B8C6E265054
:1003A8008C108C6E8C96100EE82EFED700D08C86A2
:1003B800100EE82EFED700D01200026E0250F00B8D
:1003C800016E8C500F0B8C6E01508C108C6E8C96BD
:1003D800100EE82EFED700D08C86100EE82EFED721
:1003E80000D00238F00B026E0250F00B016E8C50F8
:1003F8000F0B8C6E01508C108C6E8C96100EE82EA4
:10040800FED700D08C86100EE82EFED700D0120042
:10041800000E2B6E000E2A6E28502910D8B41CD05E
:10042800010E2C6E04D0D890283629362C2A29AEF5
:10043800FAD7D8902A362B362850265C29502758C8
:10044800D8A005D02850265E2950275A2A80D8904F
:10045800293228322C2EEDD72AC026F02BC027F0BF
:100468001200000E066E000E056E03500410D8B47C
:100478001CD0010E076E04D0D89003360436072A24
:1004880004AEFAD7D890053606360350015C0450FE
:100498000258D8A005D00350015E0450025A0580C6
:1004A800D89004320332072EEDD705C001F006C0FC
:1004B80002F01200270E296EF50EE82EFED7292E1F
:1004C800FCD700F0330E20EC03F0320E20EC03F0E2
:1004D800280E20EC03F00F0E20EC03F0060E20ECA3
:1004E80003F0010E20EC03F0270E296EF50EE82E1E
:1004F800FED7292EFCD700F012002F503010D8B4A8
:1005080018D0010E316E04D0D8902F363036312AEB
:1005180030AEFAD72F502D5C30502E58D8A004D0CA
:100528002F502D5E30502E5AD89030322F32312E27
:10053800F1D72DC02DF02EC02EF012000A500B104E
:10054800D8B418D0010E0C6E04D0D8900A360B36E9
:100558000C2A0BAEFAD70A50085C0B500958D8A0E1
:1005680004D00A50085E0B50095AD8900B320A3250
:100578000C2EF1D708C008F009C009F012009268E3
:100588009368000E946E000E956E000E966E000E27
:10059800896E000E8A6E000E8B6E000E8C6E000E39
:1005A8008D6E000EC26E0B0EC16E000EB56EC08E43
:1005B8005EEC02F0800E20EC03F01200C3EC02F0B7
:1005C800570E326EFF0E336E09EC00F0870E326E56
:1005D800FE0E336E09EC00F07BEC01F0FF0007EF34
:1005E80000F000EE48F0080EEE6AE806FDE15090D3
:1005F8005092000EF86E0001E2EF02F081A2FED7E1
:1006080081380F0B0F0B286E81B2FED7F09028C0EF
:1006180026F0276A1200F29E800E2CEC03F06A0E78
:100628000D6EFF0E0E6E9DEC00F0FFD7286E8C84C9
:100638002850B6EC01F01200286E8C942850B6ECC5
:1006480001F01200036E8C840350E1EC01F01200FB
:0C065800036E8C940350E1EC01F01200E2
:10FD78000001000A006400E8031027536F727469D9
:10FD88006E6720436F6D706C65746520202020209D
:10FD980020202020200050726573732061206E752A
:10FDA8006D62657220202020202020202020005411
:10FDB800696D6520456C61707365643A2020202068
:10FDC80020202020202000546F74616C20536F7213
:10FDD8007465643A2020202020202020202000461E
:10FDE8006F72206D6F726520696E666F202020200B
:10FDF80020202020202000756E636861726765648A
:10FE08002041412020202020202020202000756E25
:10FE1800636861726765642039562020202020209D
:10FE28002020202000736D616C6C4E6F7365207408
:10FE38006F20202020202020202020002564206200
:10FE48006174746572696573202020202020202049
:10FE5800202000756E636861726765642043202006
:10FE6800202020202020202000526F746174696EA9
:10FE78006720587320202020202020202020005098
:10FE880072657373205374617274202020202020BF
:10FE980020202020006269674E6F736520746F20F0
:10FEA80020202020202020202000556E63686172C9
:10FEB8006765643A2020202020202020202000414F
:10FEC8004120536F727465643A202020202020203E
:10FED80020202000395620536F727465643A202020
:10FEE8002020202020202020002564207365636FB7
:10FEF8006E64732020202020202020202000536FB3
:10FF08007274696E672E2E2E20202020202020203B
:10FF1800202000756E636861726765642020202068
:10FF2800202020202020004320536F727465643AFB
:10FF38002020202020202020202000456D65726789
:10FF4800656E637920202020202020202020005763
:10FF5800656C636F6D6521202020202020202020E3
:10FF6800200053746F7070656420202020202020AA
:10FF7800202020006E6F20414120202020202020BA
:10FF880020202000256420726563656976656420F9
:10FF98002020200077696474683A202564207573EE
:10FFA800202020006E6F20392020202020202020B3
:10FFB80020200041413A20202020202020202020FD
:10FFC800006368616E6E656C2025642020200056F1
:10FFD800332020202020202020202000393A2020F3
:10FFE80020202020202020200025642020202020E0
:07FFF8002020202020000062
:020000040020DA
:08000000FFFFFFFFFFFFFFFF00
:020000040030CA
:0E000000FF021F1EFF8381FF0FC00FE00F40A5
:00000001FF
