:0400000007EF00F016
:100008005A8224ED0AF013EF0CF0080E8D6E800E64
:1000180072EC0CF0F20E326EFF0E336E2AEC05F025
:1000280039D1800E72EC0CF0F50E326EFF0E336E85
:100038002AEC05F00B0E0001906F260E00018F6F61
:100048005D0EE82EFED78F2FFCD7902FFAD700D061
:10005800000E0001946F010E936F000194BF0AD047
:100068000001945106E1030E0001935DD8B0BCD0A5
:1000780001D0BAD0C00E72EC0CF0090E326EFF0E31
:10008800336E93C034F094C035F02AEC05F0800E3E
:1000980072EC0CF00A0E0001906F220E00018F6FB7
:1000A800A10EE82EFED78F2FFCD7902FFAD700018C
:1000B800930500019411D8B405D0000E0001926F89
:1000C800060E04D0000E0001926F000E916F91C0D1
:1000D8008DFF58D0800E72EC0CF04F0E326EFF0E72
:1000E800336E2AEC05F00B0E0001906F260E00010E
:1000F8008F6F5D0EE82EFED78F2FFCD7902FFAD783
:1001080000D0000120EE04F08D51D9268E51DA225C
:10011800DE2A000EDD22000E00018E6F020E8D6FAA
:100128001200C00E72EC0CF0AC0E326EFE0E336E86
:100138002AEC05F00B0E0001906F260E00018F6F60
:100148005D0EE82EFED78F2FFCD7902FFAD700D060
:10015800000120EE06F08D51D9268E51DA22DE2AD2
:10016800000EDD22000E00018E6F000E8D6F120052
:10017800800E72EC0CF0E20E326EFF0E336E2AEC3B
:1001880005F028D000019351BEEC0BF026C086F094
:1001980027C087F0660E0001886F660E0001896F20
:1001A800400E00018A6F3FEC07F000018751000AFA
:1001B800D8B404D0FF0AD8B407D0DAD700018651E2
:1001C800010AD8B487D7D4D700018651FF0AD8B41A
:1001D800A8D7CED70001934B942B000194BF4AD7E0
:1001E8000001945101E13FD700018D698E69120029
:1001F800800E72EC0CF08E0E326EFE0E336E2AEC10
:1002080005F00B0E0001906F260E00018F6F5D0E3A
:10021800E82EFED78F2FFCD7902FFAD700D00001F9
:1002280020EE02F08D51D9268E51DA22DE2A000EF8
:10023800DD22000E00018E6F010E8D6F1200C00EC0
:1002480072EC0CF08C0E326EFE0E336E2AEC05F05A
:100258000B0E0001906F260E00018F6F5D0EE82EC9
:10026800FED78F2FFCD7902FFAD700D0000120EEB1
:1002780006F08D51D9268E51DA22DE2A000EDD22B3
:10028800000E00018E6F000E8D6F120000018D6947
:100298008E691200030EBEEC0BF026C086F027C054
:1002A80087F0000E0001886FC00E0001896F3F0EB5
:1002B80000018A6F3FEC07F000018751000AD8B4AB
:1002C80004D0FF0AD8B40AD0E1D700018651000A49
:1002D800D8B4A7D6010AD8B48BD7D8D7000186518D
:1002E800FF0AD8B4ACD7D2D7F29E800E72EC0CF0CD
:1002F8007B0E326EFE0E336E2AEC05F00B0E436E4B
:10030800260E426E5E0EE82EFED7422EFCD7432EF6
:10031800FAD7800E72EC0CF0FA0E326EFE0E336EC7
:100328002AEC05F0C00E72EC0CF0410E326EFF0E96
:10033800336E2AEC05F0000E4B6E000E4A6E38EC58
:100348000CF026C04AF027C04BF0CFD0800E72ECDC
:100358000CF0250E326EFF0E336E2AEC05F0C00E3F
:1003680072EC0CF0B90E326EFF0E336E3EC034F0F4
:100378003FC035F02AEC05F0E2D7800E72EC0CF0A5
:10038800330E326EFF0E336E2AEC05F05C0E326EC1
:10039800FF0E336E20EE06F04050D9264150DA2287
:1003A800DECF42F0DDCF43F020EE04F04050D926F6
:1003B8004150DA22DECF44F0DDCF45F020EE02F0E6
:1003C8004050D9264150DA22DECF46F0DDCF47F043
:1003D80040C0D9FF41C0DAFFDECF48F0DDCF49F099
:1003E80046504826475049224450482645504922FD
:1003F80042504824346E43504920356E2AEC05F0AB
:100408009ED7800E72EC0CF0A30E326EFF0E336E88
:100418002AEC05F0C00E72EC0CF0FB0E326EFF0EEB
:10042800336E40C0D9FF41C0DAFFDECF34F0DDCFF4
:1004380035F02AEC05F083D7800E72EC0CF0CF0E65
:10044800326EFF0E336E2AEC05F0C00E72EC0CF023
:10045800FB0E326EFF0E336E20EE02F04050D926AE
:100468004150DA22DECF34F0DDCF35F02AEC05F04A
:1004780066D7800E72EC0CF0AE0E326EFF0E336E45
:100488002AEC05F0C00E72EC0CF0FB0E326EFF0E7B
:10049800336E20EE04F04050D9264150DA22DECFE8
:1004A80034F0DDCF35F02AEC05F049D7800E72EC38
:1004B8000CF0980E326EFF0E336E2AEC05F0C00E6B
:1004C80072EC0CF0FB0E326EFF0E336E20EE06F06F
:1004D8004050D9264150DA22DECF34F0DDCF35F056
:1004E8002AEC05F02CD7FF002AD74AC042F04BC0AF
:1004F80043F04350000AD8A422D74250000AD8B487
:1005080025D7010AD8B439D7030AD8B47AD7010A4B
:10051800D8B492D7070AD8B4ACD7010AD8B4C6D78A
:100528000A0AD8B4E0D70BD7C00E72EC0CF0C40E90
:10053800326EFF0E336E2AEC05F0000E0001A66F36
:10054800000EA56F20EEC1F010EEABF0070EDBCF6A
:10055800E3FFE806FCE25BEC0CF026C0A3F027C042
:10056800A4F0000E0001A86F000EA76F000E000196
:10057800AA6F000EA96FF0867AD038EC0CF09FC0F5
:100588003EF0A0C03FF0A7C040F0A8C041F088EC02
:1005980009F09DC03EF09EC03FF0A9C040F0AAC03F
:1005A80041F0AEEC07F013EC0BF0AB0E00018D6FD1
:1005B800000E00018E6F4EEC03F08DC0A7F08EC0C8
:1005C800A8F00001A7290CE10001A829D8A408D0A7
:1005D8009FC0D9FFA0C0DAFFDECFA7F0DDCFA8F01B
:1005E800AB0E00018D6F000E00018E6F09EC00F05C
:1005F8008DC0A9F08EC0AAF00001A9290CE1000164
:10060800AA29D8A408D09DC0D9FF9EC0DAFFDECFA2
:10061800A9F0DDCFAAF00001AF510001AD2500011E
:10062800A16F0001B0510001AE210001A26F0001CD
:10063800B1510001A1270001B2510001A22300011C
:10064800AB510001A1270001AC510001A223000118
:10065800A2BF0DD00001A25105E1050E0001A15D68
:10066800D8A005D0000E0001A66F010EA56F0001ED
:10067800A5510001A611D8B480D7000E3F6EB30E65
:100688003E6EAB0E406E000E416E78EC01F045EC0C
:100698000CF01200800E72EC0CF0D90E326EFF0EC8
:1006A800336E2AEC05F0C00E72EC0CF00B0E000154
:1006B800906F260E00018F6F5D0EE82EFED78F2FEC
:1006C800FCD7902FFAD700D05ED0800E72EC0CF0D9
:1006D800DC0E326EFE0E336E2AEC05F00B0E0001B6
:1006E800906F260E00018F6F5D0EE82EFED78F2FBC
:1006F800FCD7902FFAD700D08DC0D9FF8EC0DAFF73
:10070800DE2A000EDD22000E00018E6F010E8D6FB5
:100718001200C00E72EC0CF0690E326EFE0E336ED3
:100728002AEC05F00B0E0001906F260E00018F6F6A
:100738005D0EE82EFED78F2FFCD7902FFAD700D06A
:10074800000120EE06F08D51D9268E51DA22DE2ADC
:10075800000EDD22000E00018E6F000E8D6F12005C
:10076800800E72EC0CF08D0E326EFF0E336E2AEC9A
:1007780005F000018D698E691200000E00018E6F70
:10078800000E8D6F1200000EBEEC0BF026C086F036
:1007980027C087F0000E0001886FC00E0001896F26
:1007A8003F0E00018A6F3FEC07F000018751000AF5
:1007B800D8B404D0FF0AD8B40AD0DFD700018651D4
:1007C800000AD8B4CDD7010AD8B47FD7D6D700014C
:1007D8008651FF0AD8B49DD7D0D782C084F00001D3
:1007E800856B866B000181350001843701E38581C3
:1007F8000001845100018E6F00018E51D8A40AD0E7
:10080800000E0001806F000E816F000E826F000ED7
:10081800836F1200170E0001846F80C085F081C0BD
:1008280086F082C087F0000184290001886F05D016
:100838000001D8908733863385330001882FF8D795
:10084800000185510001896F0001818FFF0E0001B1
:100858008017FF0E00018117000E000182170001AA
:10086800805100018A6F0001815100018B6F0001E6
:10087800825100018C6F00018D6B8E0E00018E5F1E
:1008880000018EAF1AD000018E51800A8F0FD8B0A8
:100898000AD0000E0001806F000E816F000E826F7B
:1008A800000E836F12000001D8908D338C338B3388
:1008B8008A3300018E3FF7D71BD0170E00018E65D3
:1008C80012D0000E0001806F000E816F000E826F43
:1008D800000E836F12000001D8908A378B378C374F
:1008E8008D3700018E0700018E510001D8A4F3D77F
:1008F800000189510001D8B409D000018D1F8C1F57
:100908008B1F8A6D000E8B238C238D238AC080F069
:100918008BC081F08CC082F08DC083F012009FECF8
:100928000BF0000E0001B96F090E0001B96501D086
:100938000CD0FF0E0001B86F8A0EE82EFED7B82F34
:10094800FCD700F00001B92BEFD7750E326EFF0E01
:10095800336E2AEC05F0000E0001BA6F090E000193
:10096800BA6501D00CD0FF0E0001B86F8A0EE82ED0
:10097800FED7B82FFCD700F00001BA2BEFD7000E36
:100988000001BE6F000EBD6F000E0001C06F000EAB
:10099800BF6FBD0E3E6E000E3F6E000E416E000E24
:1009A800406EAEEC07F0000E0001BB6F090E0001AF
:1009B800BB6501D00CD0FF0E0001B86F8A0EE82E7F
:1009C800FED7B82FFCD700F00001BB2BEFD7BF0E26
:1009D8003E6E000E3F6E000E416E000E406E88ECBB
:1009E80009F0000E0001BC6F090E0001BC6501D0C2
:1009F8000CD0FF0E0001B86F8A0EE82EFED7B82F74
:100A0800FCD700F00001BC2BEFD7C00E72EC0CF045
:100A1800810E326EFF0E336E2AEC05F038EC0CF0C6
:100A28000F0E26182710D8A4F9D7BD0E00019D6F08
:100A3800000E00019E6FBF0E00019F6F000E0001A7
:100A4800A06F98EC02F0FF0007EF00F0340E376E4D
:100A5800000E386E82D0250E3D18D8B404D03D5013
:100A68006CEC0CF07AD0000E396E04D03D506CEC72
:100A78000CF073D032C0F6FF33C0F7FF324A332A86
:100A88000800F5CF3DF03D50000AD8B41200640AC2
:100A9800D8B403D00D0AD8A4E9D737C0D9FF38C0D5
:100AA800DAFFDECF3BF0DDCF3CF0020E3726000E3A
:100AB80038223CAE06D0030E39123B6C3C1ED8B02F
:100AC8003C2A010E3D6E050E3D18D8B412D03D509B
:100AD800020D5F0EF324F66EFE0EF420F76E090089
:100AE800F5503B5C0900F5503C58D8A002D03D2A8F
:100AF800EAD739C036F0030E3616D8B403D02D0E17
:100B08006CEC0CF03DC03AF024D03A50020D5F0E68
:100B1800F324F66EFE0EF420F76E0900F5CF28F0E8
:100B28000A00F5CF29F03BC026F03CC027F0C1EC05
:100B38000AF026C02DF027C02EF0000E306E0A0EE7
:100B48002F6E5DEC0BF02D50300F3D6E3D506CEC70
:100B58000CF03A063A28D8A4D8D732C0F6FF33C0EA
:100B6800F7FF324A332A0800F5CF3DF03D50D8B49C
:100B7800120071D70F0E106E000E116E82D0250E66
:100B88001618D8B404D0165078EC0CF07AD0000EB1
:100B9800126E04D0165078EC0CF073D00DC0F6FF2E
:100BA8000EC0F7FF0D4A0E2A0800F5CF16F01650B2
:100BB800000AD8B41200640AD8B403D00D0AD8A425
:100BC800E9D710C0D9FF11C0DAFFDECF14F0DDCFAE
:100BD80015F0020E1026000E112215AE06D0030ED7
:100BE8001212146C151ED8B0152A010E166E050EB9
:100BF8001618D8B412D01650020D5F0EF324F66EF4
:100C0800FE0EF420F76E0900F550145C0900F5504B
:100C18001558D8A002D0162AEAD712C00FF0030E32
:100C28000F16D8B403D02D0E78EC0CF016C013F0C4
:100C380024D01350020D5F0EF324F66EFE0EF4203E
:100C4800F76E0900F5CF03F00A00F5CF04F014C0E1
:100C580001F015C002F0EAEC0AF001C008F002C089
:100C680009F0000E0B6E0A0E0A6E7EEC0BF00850AF
:100C7800300F166E165078EC0CF013061328D8A413
:100C8800D8D70DC0F6FF0EC0F7FF0D4A0E2A080090
:100C9800F5CF16F01650D8B4120071D742C046F0FE
:100CA800476A486A4134463601E347804650496EF0
:100CB8004950D8A407D0000E406E000E416E000EB9
:100CC800426E120045C046F0476A486A44344636C8
:100CD80001E3478046504E6E4E50D8A407D0000E10
:100CE800406E000E416E000E426E12004E507B0F99
:100CF800492642C04EF045504E1A800E4E16418E7F
:100D0800448EFF0E4316FF0E4416000E4516000EC5
:100D18004A6E000E4B6E000E4C6E070E4D6E40A0D4
:100D280006D043504A2644504B2245504C22D89076
:100D3800423241324032D8904336443645364D2E01
:100D4800EED7090E4D6E40A006D043504A264450B7
:100D58004B2245504C22D890423241324032D890F2
:100D68004C324B324A324D2EEED74AC026F04BC099
:100D780027F04CC028F049C029F04EC02AF0DEEC1C
:100D880008F026C040F027C041F028C042F0120009
:100D980033C037F0386A396A3234373601E338807D
:100DA80037503E6E3E50D8A407D0000E316E000E6C
:100DB800326E000E336E120036C037F0386A396A68
:100DC8003534373601E3388037503F6E3F50D8A46A
:100DD80007D0000E316E000E326E000E336E120018
:100DE800000E3B6E000E3C6E000E3D6E3F50890FAC
:100DF8003E5E33C03FF036503F1A800E3F16328EAB
:100E0800FF0E3116FF0E3216000E3316358EFF0E0A
:100E18003416FF0E3516000E3616180E3A6ED89098
:100E28003B363C363D363450315C355032583650BE
:100E38003358D8A007D03450315E3550325A365026
:100E4800335A3B80D8903136323633363A2EE7D78C
:100E58003BC026F03CC027F03DC028F03EC029F03A
:100E68003FC02AF0DEEC08F026C031F027C032F08F
:100E780028C033F01200C00E72EC0CF09C0E326EDB
:100E8800FE0E336E86C034F087C035F02AEC05F0CC
:100E9800000E00018C6F090E00018C6501D00CD08A
:100EA800FF0E00018B6F8A0EE82EFED78B2FFCD722
:100EB80000F000018C2BEFD7000187BF0ED0330E56
:100EC8000001865D030E00018759D8A006D0000EE8
:100ED8000001876F000E866F1200000E346EA00EA0
:100EE800356E400E366E630E436E590E446E440ED8
:100EF800456E88C040F089C041F08AC042F052EC8B
:100F080006F040C031F041C032F042C033F0CCECC2
:100F180006F031C080F032C081F033C082F086C064
:100F28002EF087C02FF0DCEC0BF02EC083F02FC022
:100F380084F030C085F082EC08F00001D8B006D00B
:100F4800000E0001876F010E866F1200000186698E
:100F580087691200800E72EC0CF0EB0E326EFE0EFA
:100F6800336E2AEC05F0C00E72EC0CF01CD0170E94
:100F7800326EFF0E336E2AEC05F028D0960E326ED4
:100F8800FE0E336E2AEC05F021D0EB0E326EFF0E0A
:100F9800336E2AEC05F01AD0170E326EFF0E336E40
:100FA8002AEC05F013D040C042F041C043F0435052
:100FB800000AD8A4F1D74250000AD8B4D8D7010AF9
:100FC800D8B4DCD7030AD8B4E0D7E6D73EC0D9FFF7
:100FD8003FC0DAFF4050DE1809E14150DE18D8B4AE
:100FE800120004D0020E3E26000E3F223EC0D9FF5A
:100FF8003FC0DAFF4050DE5CDE50800A446E41504C
:10100800800A4458D8B005D0EDD7020E3E5E000ED7
:101018003F5A3EC0D9FF3FC0DAFFDE50405C415026
:10102800800A446EDE50800A4458D8B01200EDD7CA
:10103800000E2F6E2DAE0AD02D1E2C1E2B1E2A6CD4
:10104800000E2B222C222D22010E2F6E29AE0AD043
:10105800291E281E271E266C000E27222822292238
:10106800010E2F1A000E306E000E316E000E326E19
:10107800000E336E2A502B102C102D10D8B42AD005
:10108800010E2E6E06D0D8902A362B362C362D36E9
:101098002E2A2DAEF8D7D890303631363236333640
:1010A8002A50265C2B5027582C5028582D50295848
:1010B800D8A009D02A50265E2B50275A2C50285ADF
:1010C8002D50295A3080D8902D322C322B322A328A
:1010D8002E2EE1D72F50D8B408D0331E321E311E21
:1010E800306C000E31223222332230C026F031C05B
:1010F80027F032C028F033C029F01200000182AF77
:1011080019D080C04FF081C050F082C051F04F1EFE
:10111800501E511E4F2A000E50225122000E4F24FD
:101128000001806F000E50200001816F800E512059
:101138000001826F000185AF19D083C04FF084C0D1
:1011480050F085C051F04F1E501E511E4F2A000E00
:1011580050225122000E4F240001836F000E5020B0
:101168000001846F800E51200001856F000E000180
:10117800801B000E0001811B800E0001821B000EE7
:101188000001831B000E0001841B800E0001851BDB
:10119800000183510001805D0001845100018159E3
:1011A8000001855100018259D8B002D0D8901200B0
:1011B800D88012002950D8B405D0265027102810FE
:1011C800D8A40CD0000E266E000E276E000E286ED6
:1011D8001200292AD890283227322632000E2614E7
:1011E8002B6E000E27142C6EFE0E28142D6E2B501D
:1011F8002C102D10D8B40CD0ECD7292A010E262695
:10120800000E2722000E2822D890283227322632B4
:10121800000E26142B6E000E27142C6EFF0E2814B9
:101228002D6E2B502C102D10D8B406D0E6D72906D9
:10123800D89026362736283627BE03D0020E2960D6
:10124800F6D729A0279ED8902932295028122A504B
:10125800D8A4288E26C026F027C027F028C028F05A
:101268001200000E266E120E276E7A0E286E000EE1
:10127800296E34C038F035C039F036C03AF037C07E
:101288003BF0020ED890383639363A363B36E82EDF
:10129800F9D7040ED890383639363A363B36E82E28
:1012A800F9D738C02AF039C02BF03AC02CF03BC02F
:1012B8002DF01CEC08F02604CB6E000E266E120EE4
:1012C800276E7A0E286E000E296E34C038F035C0AD
:1012D80039F036C03AF037C03BF0040ED8903836B3
:1012E80039363A363B36E82EF9D738C02AF039C0B5
:1012F8002BF03AC02CF03BC02DF01CEC08F026C0B7
:1013080034F027C035F01200800E72EC0CF0CC0ED1
:10131800326EFE0E336E2AEC05F0C00E72EC0CF045
:1013280040504110D8B407D0F80E326EFF0E336E1D
:101338002AEC05F006D0170E326EFF0E336E2AEC3B
:1013480005F03EC0D9FF3FC0DAFF4050DE1809E182
:101358004150DE18D8B4120004D0020E3E26000E0A
:101368003F223EC0D9FF3FC0DAFF4050DE5CDE506E
:10137800800A446E4150800A4458D8B005D0EDD751
:10138800020E3E5E000E3F5A3EC0D9FF3FC0DAFF54
:10139800DE50405C4150800A446EDE50800A44585A
:1013A800D8B01200EDD7040E0001905DD8B012003D
:1013B80091C02EF092C02FF0DCEC0BF02EC043F061
:1013C8002FC044F030C045F0C00E346E7F0E356E2D
:1013D800440E366E8FC02EF090C02FF026EC0CF025
:1013E8002EC031F02FC032F030C033F0CCEC06F014
:1013F80031C040F032C041F033C042F052EC06F048
:1014080040C080F041C081F042C082F0F1EC03F0AE
:1014180080C08FF081C090F0BD9A00018FA102D0EA
:10142800BD8801D0BD988FC04FF090C050F0D890C3
:1014380050324F32D89050324F324F50BE6E120059
:101448000600FACF17F0FBCF18F0E9CF19F0EACF72
:101458001AF0E1CF1BF0E2CF1CF0D9CF1DF0DACFA4
:101468001EF0F3CF1FF0F4CF20F0F6CF21F0F7CF26
:1014780022F0F8CF23F0F5CF24F0F0A00AD081387D
:101488000F0B0F0B256EF090C00E7EEC0CF050EC9D
:101498000CF024C0F5FF23C0F8FF22C0F7FF21C0DD
:1014A800F6FF20C0F4FF1FC0F3FF1EC0DAFF1DC007
:1014B800D9FF1CC0E2FF1BC0E1FF1AC0EAFF19C038
:1014C800E9FF18C0FBFF17C0FAFF5A921100276EF8
:1014D8002750F00B266E8C500F0B8C6E26508C10FC
:1014E8008C6E8C96100EE82EFED700D08C86100ECF
:1014F800E82EFED700D02738F00B276E2750F00BC8
:10150800266E8C500F0B8C6E26508C108C6E8C9621
:10151800100EE82EFED700D08C86100EE82EFED7CF
:1015280000D01200026E0250F00B016E8C500F0BAF
:101538008C6E01508C108C6E8C96100EE82EFED797
:1015480000D08C86100EE82EFED700D00238F00BA3
:10155800026E0250F00B016E8C500F0B8C6E015016
:101568008C108C6E8C96100EE82EFED700D08C86D0
:10157800100EE82EFED700D01200000E2C6E000EC2
:101588002B6E28502910D8B41CD0010E2A6E04D016
:10159800D890283629362A2A29AEFAD7D8902B3659
:1015A8002C362850265C29502758D8A005D028501A
:1015B800265E2950275A2B80D890293228322A2E85
:1015C800EDD72BC026F02CC027F01200000E066EB7
:1015D800000E056E03500410D8B41CD0010E076E1F
:1015E80004D0D89003360436072A04AEFAD7D89028
:1015F800053606360350015C04500258D8A005D0C1
:101608000350015E0450025A0580D8900432033218
:10161800072EEDD705C001F006C002F01200BC0E7F
:10162800326EFE0E336E2AEC05F0010E0001946F47
:10163800000E936F1C0E0001956F0C0E966F000E36
:10164800976F000E986FF8EC0BF00B0E00019C6F73
:10165800260E00019B6F5D0EE82EFED79B2FFCD750
:101668009C2FFAD700D084EC0CF01200270E296EBC
:10167800F50EE82EFED7292EFCD700F0330E72ECBB
:101688000CF0320E72EC0CF0280E72EC0CF00F0E0F
:1016980072EC0CF0060E72EC0CF0010E72EC0CF011
:1016A800270E296EF50EE82EFED7292EFCD700F05E
:1016B80012002F503010D8B418D0010E316E04D05B
:1016C800D8902F363036312A30AEFAD72F502D5CCD
:1016D80030502E58D8A004D02F502D5E30502E5A9E
:1016E800D89030322F32312EF1D72DC02DF02EC0A8
:1016F8002EF012000A500B10D8B418D0010E0C6E40
:1017080004D0D8900A360B360C2A0BAEFAD70A50FA
:10171800085C0B500958D8A004D00A50085E0B503A
:10172800095AD8900B320A320C2EF1D708C008F0AB
:1017380009C009F0120092689368000E946E000EBA
:10174800956E000E966E000E896E000E8A6E000E63
:101758008B6E000E8C6E000E8D6E000EC26E0B0E20
:10176800C16E000EB56EC08E3AEC0BF0010E72EC35
:101778000CF012002A6E2A44E846FC0BC26EC280A6
:10178800C28208D01A0E286EF80EE82EFED7282E30
:10179800FCD700D0C2B2F6D7C350C4CF28F0296A0C
:1017A80028C029F0286A2810266E2950276E1200B2
:1017B800000E316E2FAE06D02E6C2F1ED8B02F2AF9
:1017C800010E316E2EC026F02FC027F0286A8E0E2B
:1017D800296E31C02AF0DEEC08F026C02EF027C0B2
:1017E8002FF028C030F0120064EC0CF095C034F0F3
:1017F80096C035F097C036F098C037F035EC09F050
:1018080034C099F035C09AF093C08FF094C090F02E
:1018180099C091F09AC092F0D7EC09F0120000EE4E
:10182800C1F0080EEE6AE806FDE100EE52F0080E7F
:10183800EE6AE806FDE15A905A92000EF86E000131
:1018480093EF04F02EC026F02FC027F0286A8E0EE2
:10185800296E000E2A6EDEEC08F026C02EF027C096
:101868002FF028C030F0120081A2FED781380F0B6C
:101878000F0B286E81B2FED7F09028C026F0276A99
:101888001200F29E800E72EC0CF0690E326EFF0EA2
:10189800336E2AEC05F0FFD7F29E800E7EEC0CF03A
:1018A800690E0D6EFF0E0E6EBEEC05F0FFD7000E32
:1018B800296E000E286E28C026F029C027F01200D5
:1018C800BD9EBD9CBD86BD84BD92BD90CA841200DC
:1018D800286E8C8428506BEC0AF01200286E8C94C9
:1018E80028506BEC0AF01200036E8C84035096ECBF
:1018F8000AF01200036E8C94035096EC0AF0120062
:0A190800BD96BD94BD92BD90120083
:10FE5E000001000A006400E8031027756E636861F4
:10FE6E0072676564204141202020202000536F726C
:10FE7E0074696E6720436F6D706C65746500756E86
:10FE8E00636861726765642043202020200025642A
:10FE9E002072656365697665642020202000756E8A
:10FEAE006368617267656420395620202000526FA6
:10FEBE00746174696E672058732020202000736D62
:10FECE00616C6C4E6F736520746F20202000636828
:10FEDE0061726765642041412020202000626967BD
:10FEEE004E6F736520746F20202020005072657352
:10FEFE00732061206E756D626572006368616E6E4F
:10FF0E00656C20256420202000756E636861726721
:10FF1E006564202020200054696D6520456C617059
:10FF2E007365643A00546F74616C20536F7274651C
:10FF3E00643A00466F72206D6F726520696E666F4F
:10FF4E00006368617267656420395620200025645D
:10FF5E00206261747465726965730053746F70709A
:10FF6E006564202020200057656C636F6D6521202D
:10FF7E002020005072657373205374617274006E8A
:10FF8E006F204141202020202000556E6368617251
:10FF9E006765643A00414120536F727465643A009C
:10FFAE00395620536F727465643A00256420736568
:10FFBE00636F6E647300536F7274696E672E2E2EAC
:10FFCE00004320536F727465643A0041413A202019
:10FFDE00202020006E6F203920202020003956204E
:10FFEE0020202000563300393A004141002564009C
:01FFFE000002
:020000040020DA
:08000000FFFFFFFFFFFFFFFF00
:020000040030CA
:0E000000FF021F1EFF8381FF0FC00FE00F40A5
:00000001FF
