:0400000007EF00F016
:0A0008007082E0ED09F004EF0BF048
:1010000000536F7274696E6720436F6D706C657406
:10101000650050726573732061206E756D62657234
:1010200000456D657267656E63792120416C6C00C7
:1010300054696D6520456C61707365643A00546F46
:1010400074616C20536F727465643A00466F72204D
:101050006D6F726520696E666F004D6F746F72738D
:101060002053746F7000556E636861726765643AEF
:1010700000414120536F727465643A003956205321
:101080006F727465643A00536F7274696E672E2EC6
:101090002E005374616E6462792E2E2E004320530D
:1010A0006F727465643A00456D657267656E637949
:1010B00000286E756C6C2900526573756D65003182
:1010C000352E363273003135002573002000300094
:0110D000001F
:1010D20074D0010E1D6E100E1E6E22EC0AF0CC0EA4
:1010E2001D6E100E1E6E22EC0AF00B0E4F6E260EB7
:1010F2004E6E5E0EE82EFED74E2EFCD74F2EFAD73E
:10110200120E1D6E100E1E6E22EC0AF04C0E1D6E9B
:10111200100E1E6E22EC0AF077D0300E1D6E100EED
:101122001E6E22EC0AF0BF0E1D6E100E1E6E22EC19
:101132000AF06AD03E0E1D6E100E1E6E22EC0AF0F0
:10114200C60E1D6E100E1E6E22EC0AF05DD0710EE0
:101152001D6E100E1E6E22EC0AF0C70E1D6E100ED2
:101162001E6E22EC0AF050D09D0E1D6E100E1E6EE9
:1011720022EC0AF0C70E1D6E100E1E6E22EC0AF053
:1011820043D07C0E1D6E100E1E6E22EC0AF0C70EAE
:101192001D6E100E1E6E22EC0AF036D0660E1D6E0B
:1011A200100E1E6E22EC0AF0CE0E1D6E100E1E6E7A
:1011B20022EC0AF029D0FF0027D04CC04EF04DC0DF
:1011C2004FF04F50000AD8B404D0FF0AD8B418D058
:1011D2001BD04E50000AD8B4A0D7010AD8B4AAD75F
:1011E200030AD8B4B4D7010AD8B4BED7070AD8B410
:1011F200C8D7010AD8B4D2D70A0AD8B4DCD704D0E7
:101202004E50FF0AD8B465D743EC0BF010C04CF037
:1012120011C04DF0D2D7150E186E000E196E5BD0AC
:10122200250E1A18D8B404D01A5058EC0BF053D02B
:10123200000E176E3FD018C0D9FF19C0DAFFDECFFB
:101242001BF0DDCF1CF0020E1826000E19221B50D7
:101252001C10D8A41AD0B10E1B6E100E1C6E15D025
:101262001BC0F6FF1CC0F7FF000EF86E0F0EF764EE
:1012720003D00800F55005D0F6CFE9FFF7CFEAFF1B
:10128200EF5058EC0BF01B4A1C2A1BC0F6FF1CC087
:10129200F7FF000EF86E0F0EF76403D00800F5504A
:1012A20005D0F6CFE9FFF7CFEAFFEF500009D8B437
:1012B20012D0D6D713C0F6FF14C0F7FF134A142A70
:1012C200F86A0800F5CF1AF01A50000AD8B41200D2
:1012D200730AD8B4B0D713C0F6FF14C0F7FF134A8D
:1012E200142AF86A0800F5CF1AF01A50D8B412007E
:1012F20097D7870E1D6E100E1E6E22EC0AF0000E9E
:10130200676E000E666E20EE68F010EE5CF0070E5F
:10131200DBCFE3FFE806FCE2000E656E000E646EB2
:10132200000E596E000E586E000E5B6E000E5A6E65
:101332003AD08B50CF098B6E660E4C6E000E4D6EFE
:1013420061EC0AF060505E24566E61505F20576E69
:1013520062505626635057225C5056265D505722E3
:101362000F0E56185710D8A404D0000E676E010E47
:10137200666E64C056F065C057F0561E571E564A38
:10138200572A4FEC0BF0565010265750112211BE1F
:101392000AD0115004E1B40E105CD8A004D0000EA3
:1013A200676E010E666E66506710D8B4C2D7FF0E24
:1013B2004D6E4C6869EC08F0000E8B6E1200060050
:1013C200FACF01F0FBCF02F0E9CF03F0EACF04F04D
:1013D200E1CF05F0E2CF06F0D9CF07F0DACF08F07F
:1013E200F3CF09F0F4CF0AF0F6CF0BF0F7CF0CF001
:1013F200F8CF0DF0F5CF0EF0F0A005D081380F0B2D
:101402000F0B0F6EF0900EC0F5FF0DC0F8FF0CC071
:10141200F7FF0BC0F6FF0AC0F4FF09C0F3FF08C0D4
:10142200DAFF07C0D9FF06C0E2FF05C0E1FF04C032
:10143200EAFF03C0E9FF02C0FBFF01C0FAFF70929E
:101442001100000E4B6E000E4A6E20EE80F010EE80
:1014520021F0280EDBCFE3FFE806FCE216D04A506B
:101462001D241F6E4B501E20206E1FC0F6FF20C091
:10147200F7FFF86A210E4A24D96E000E4B20DA6E6D
:101482000800F5CFDFFF4A4A4B2A4A501D241F6E3F
:101492004B501E20206E1FC0F6FF20C0F7FFF86AD7
:1014A2000800F5500009D8A4DAD7C90E136E100E41
:1014B200146E210E156E000E166E0CEC09F0120061
:1014C20043EC0BF010C050F011C051F01AD0210EB5
:1014D2001D6E100E1E6E22EC0AF0000E8B6E5A0E5E
:1014E2001D6E100E1E6E22EC0AF0000E8B6EFFD7E0
:1014F2004CC0D9FF4DC0DAFF010EDE6E000EDD6E6C
:10150200120050C04EF051C04FF04F50000AD8A404
:1015120012004E500B0AD8B4EBD7040AD8A412001A
:10152200D6D7116E1150F00B106E8C500F0B8C6EC3
:1015320010508C108C6E8C96100EE82EFED700D0B8
:101542008C86100EE82EFED700D01138F00B116EEB
:101552001150F00B106E8C500F0B8C6E10508C10C3
:101562008C6E8C96100EE82EFED700D08C86100E54
:10157200E82EFED700D0120034EC0BF0920E1D6E56
:10158200100E1E6E22EC0AF0000E0001AF6F000E6C
:10159200AE6F000E0001B16F000EB06F43EC0BF0A6
:1015A2000F0E10181110D8A4E7D7AE0E526E000E0F
:1015B200536EB00E546E000E556E7AEC09F0DCD705
:1015C200270E136EF50EE82EFED7132EFCD700F071
:1015D200330E5EEC0BF0320E5EEC0BF0280E5EEC7E
:1015E2000BF00F0E5EEC0BF0060E5EEC0BF0010E34
:1015F2005EEC0BF0270E136EF50EE82EFED7132EBF
:10160200FCD700F012003E0EF66E160EF76E000EBC
:10161200F86E00EE80F010EE29F00900F5CFEEFF33
:10162200E550E150FAE100EE68F0080EEE6AE806D5
:10163200FDE1709070920001BDEF0AF020202020A1
:101642002020202020202020202020202020202098
:101652002020202020202020202020202020202088
:05166200202020200003
:10166800000E946E000E956E9368000E8A6E000E42
:101678008B6E000EC26EC168E1EC0AF0120081A206
:10168800FED781380F0B0F0B126E81B2FED712C036
:1016980010F0116A1200000E136E000E126E12C0C6
:1016A80010F013C011F01200126E8C84125092ECDC
:1016B8000AF01200126E8C94125092EC0AF012008A
:020000040020DA
:08000000FFFFFFFFFFFFFFFF00
:020000040030CA
:0E000000FF021F1EFF8381FF0FC00FE00F40A5
:00000001FF
