:0400000007EF00F016
:100008007E82FCED06F0FEEF10F08E0E00019B6F75
:10001800000E00019C6F1FD2250E0001A519D8B44F
:1000280005D00001A551B1EC11F015D2000E000168
:10003800A46F000EA36F000E0001A26F05D000018F
:10004800A28500018C4B8D2B8CC0F6FF8DC0F7FF6D
:100058000800F550300AD8B4F2D78CC0F6FF8DC02E
:10006800F7FF0800F550C0EC10F0D8A092D0000EB1
:100078000001A46F000EA36FA3C080F0A4C081F09C
:10008800000E0001836F0A0E826F8EEC10F080C0A4
:10009800A3F081C0A4F0D00E0001946FFF0E000100
:1000A800956F8CC0F6FF8DC0F7FF0800F550000172
:1000B800966F976B000194510001962700019551A6
:1000C80000019723000196510001A32700019751D1
:1000D8000001A42300018C4B8D2B8CC0F6FF8DC032
:1000E800F7FF0800F550C0EC10F0D8A052D0C4D7E4
:1000F8000001A28F6AD00001A35100019D5D00019B
:10010800A45100019E59D8B009D000019D510001A9
:10011800A35F00019E510001A45B09D0000E0001FD
:10012800A46F000EA36F03D0200EB1EC11F00001F4
:10013800A307D8A0A4070001A329F6E10001A42978
:10014800D8B40BD0F1D798C0D9FF99C0DAFFDF50E7
:10015800B1EC11F00001984B992B00019D07D8A034
:100168009E0700019D29EFE100019E29D8B473D1B3
:10017800EAD7A50E0001986F000E0001996F000ED6
:1001880000019E6F010E9D6FB6D7C00E0001A2132D
:100198001CD08CC0F6FF8DC0F7FF00018C4B8D2B57
:1001A8000800F5CFA5F00001A551000AD8B4120047
:1001B800640AD8B40AD00D0AD8B407D01C0AD8B437
:1001C800E4D70D0AD8B494D7D4D7A2C094F0C00EFF
:1001D80000019417D8A419D09BC0D9FF9CC0DAFF9E
:1001E800DECFA0F0DDCFA1F0020E00019B27000EAC
:1001F8009C230001A1AF53D0030E0001A2130001FC
:10020800A06DA11FD8B0A12B4AD09BC0D9FF9CC01C
:10021800DAFFDECFA0F0DDCFA1F0020E00019B27B0
:10022800000E9C233CD0010E0001A56F050E0001B5
:10023800A519D8B440D00001A551020DDB0EF32456
:10024800F66EFD0EF420F76E0900F5500001A05D72
:100258000900F5500001A159D8A02DD00001A52B07
:10026800E5D7010E0001A56F040E0001A519D8B449
:1002780022D00001A551020DE50EF324F66EFD0E05
:10028800F420F76E0900F5500001A05D0900F55053
:100298000001A159D8A00FD00001A52BE5D7000176
:1002A800A251C00B000AD8B4BED7800AD8B4D9D797
:1002B800400AD8B4B8D70001A3510001A411D8B49A
:1002C8000BD0A2C094F0030E00019417D8B404D048
:1002D8000001A307D8A0A407800E0001A5BF7F0EC8
:1002E8000001946F0001A3510001A55D0001A45114
:1002F800800A00019459D8B00BD00001A551000123
:10030800A35F000E0001A5BFFF0E0001A45B05D08E
:10031800000E0001A46F000EA36F0001A2A518D063
:10032800A2C094F0030E00019417D8B403D02D0E88
:10033800B1EC11F00001A3510001A411D8B425D0EB
:10034800300EB1EC11F00001A307D8A0A407F2D732
:100358000001A3510001A411D8B40DD0200EB1ECB6
:1003680011F00001A307D8A0A4070001A3510001C0
:10037800A411D8A4F3D7A2C094F0030E00019417D7
:10038800D8B403D02D0EB1EC11F0A5C09FF05DD00C
:1003980000019F51020DDB0EF324F66EFD0EF420D2
:1003A800F76E0900F5CF82F00A00F5CF83F0A0C000
:1003B80080F0A1C081F01DEC0DF080C087F081C0F5
:1003C80088F0000E00018A6F0A0E896FE5EC0EF0C6
:1003D80000018751300F0001A56F33D0A0C080F015
:1003E800A1C081F000019F51020DE50EF324F66EC5
:1003F800FD0EF420F76E0900F5CF82F00A00F5CF64
:1004080083F01DEC0DF0000180510F0B00019A6F75
:1004180000019A51010D930EF324F66EFF0EF4209D
:10042800F76E0800F5CFA5F00CD00001A251C00B63
:10043800000AD8B4ADD7800AD8B4D0D7400AD8B407
:10044800A7D70001A551B1EC11F000019F070001E9
:100458009F29D8A4EAD78CC0F6FF8DC0F7FF00010A
:100468008C4B8D2B0800F5CFA5F00001A551D8B411
:100478001200D2D571C035F072C036F073C037F0B3
:1004880074C038F06DC039F06EC03AF06FC03BF000
:1004980070C03CF0C0C052F0C1C053F0C2C054F0AC
:1004A800C3C055F0000E516E000E506E000E436E24
:1004B800800EC7EC11F09B0E0D6EFE0E0E6E1BEC3F
:1004C80004F077C039F03A6A78C03BF03C6A8B8C0C
:1004D800F088F09276D1432A4304306E320E3064AD
:1004E80003D08B9C000E436E000E8BBC010E346E45
:1004F800800EC7EC11F08B9C520E2A6E000E2B6EEC
:10050800CFEC0DF02AC041F02BC042F0520E2A6EFB
:10051800000E2B6E94EC0DF02AC03FF02BC040F07B
:10052800520E2A6E000E2B6E0AEC0EF02AC03DF019
:100538002BC03EF0D10E0D6EFF0E0E6E1BEC04F0BC
:1005480020EEB6F010EE44F0050EDBCFE3FFE80630
:10055800FCE220EEB0F010EE4AF0050EDBCFE3FF30
:10056800E806FCE2C00EC7EC11F0F10E0D6EFF0EAE
:100578000E6E1BEC04F041504210D8A40DD0000EB2
:100588004B6E010E4A6EF80E0D6EFF0E0E6E1BECD2
:1005980004F06AEC11F017D041044210D8A40DD031
:1005A800000E456E010E446EF50E0D6EFF0E0E6EBA
:1005B8001BEC04F06AEC11F006D0FB0E0D6EFF0E7A
:1005C8000E6E1BEC04F0ED0E0D6EFF0E0E6E1BECA6
:1005D80004F03F504010D8A40DD0000E4D6E010E0F
:1005E8004C6EF80E0D6EFF0E0E6E1BEC04F06AECEE
:1005F80011F017D03F044010D8A40DD0000E476E5C
:10060800010E466EF50E0D6EFF0E0E6E1BEC04F01D
:100618006AEC11F006D0FB0E0D6EFF0E0E6E1BEC91
:1006280004F0E40E0D6EFF0E0E6E1BEC04F03D5050
:100638003E10D8A40DD0000E4F6E010E4E6EF80E6F
:100648000D6EFF0E0E6E1BEC04F06AEC11F017D065
:100658003D043E10D8A40DD0000E496E010E486E20
:10066800F50E0D6EFF0E0E6E1BEC04F06AEC11F029
:1006780006D0FB0E0D6EFF0E0E6E1BEC04F04A0E3C
:10068800166E000E176E7AEC0EF0440E166E000E03
:10069800176E43EC0EF034A002D08B8C01D08B9CEB
:1006A80044504A1806E145504B18D8A402D0010E10
:1006B80001D0000E306E316A30C032F031C033F0F4
:1006C80046504C1806E147504D18D8A402D0010EE8
:1006D80001D0000E306E316A30C034F031C035F0D0
:1006E80048504E1806E149504F18D8A402D0010EC0
:1006F80001D0000E306E316A30C036F031C037F0AC
:10070800320E166E000E176EAFEC09F08B908B92BE
:100718008B94770E046E000E056E59EC0DF077C0C1
:1007280035F0366A78C037F0386A800EC7EC11F0B9
:1007380037C007F038C008F0EEEC0FF007C030F013
:1007480008C031F03BC007F03CC008F0EEEC0FF0F9
:10075800071E081E074A082A07503024326E085020
:100768003120336E32C001F033C002F0000E046E47
:100778003C0E036E37EC11F001C030F002C031F0CE
:1007880035C007F036C008F0EEEC0FF00750302601
:100798000850312239C007F03AC008F0EEEC0FF0EB
:1007A800071E081E074A082A07503024506E0850B2
:1007B8003120516EC00EC7EC11F0190E4318D8B491
:1007C8008B8C75047610D8B486D6F098000E56EC4B
:1007D80010F0C00EC7EC11F0ED0E0D6EFD0E0E6E92
:1007E8001BEC04F0520E076E000E086E50C009F0A4
:1007F80051C00AF0EBEC07F0080E316E1B0E306E9C
:10080800270EE82EFED7302EFCD7312EFAD700F06F
:1008180050C023F051C024F0520E256E000E266EF3
:10082800E8EC05F0000E766E000E756E12000F0EE5
:10083800186E000E196EBBD1250E2218D8B404D03C
:100848002250C1EC11F0B3D1000E216E000E206EC3
:10085800000E1F6E03D01F840D4A0E2A0DC0F6FF2E
:100868000EC0F7FF0800F550300AD8B4F4D70DC011
:10087800F6FF0EC0F7FF0800F5505BEC11F0D8A0AA
:100888006FD0000E216E000E206E20C001F021C036
:1008980002F0000E046E0A0E036E37EC11F001C070
:1008A80020F002C021F0D00E116EFF0E126E0DC0A6
:1008B800F6FF0EC0F7FF0800F550136E146A1150CA
:1008C80013261250142213502026145021220D4AA8
:1008D8000E2A0DC0F6FF0EC0F7FF0800F5505BECBE
:1008E80011F0D8A03DD0D1D71F8E54D020501A5C1B
:1008F80021501B58D8B005D01A50205E1B50215AE1
:1009080008D0000E216E000E206E03D0200EC1EC20
:1009180011F02006D8A021062028F8E12128D8B413
:100928000AD0F4D715C0D9FF16C0DAFFDF50C1ECE2
:1009380011F0154A162A1A06D8A01B061A28F2E141
:100948001B28D8B434D1EED7220E156E000E166EC1
:10095800000E1B6E010E1A6EC9D7C00E1F121AD0D8
:100968000DC0F6FF0EC0F7FF0D4A0E2A0800F5CF9E
:1009780022F02250000AD8B41200640AD8B40AD06F
:100988000D0AD8B407D01C0AD8B4E7D70D0AD8B4D2
:10099800ABD7DAD71FC011F0C00E1116D8A415D0E6
:1009A80018C0D9FF19C0DAFFDECF1DF0DDCF1EF069
:1009B800020E1826000E19221EAE44D0030E1F1276
:1009C8001D6C1E1ED8B01E2A3DD018C0D9FF19C0F4
:1009D800DAFFDECF1DF0DDCF1EF0020E1826000E66
:1009E800192230D0010E226E050E2218D8B435D047
:1009F8002250020DDB0EF324F66EFD0EF420F76E86
:100A08000900F5501D5C0900F5501E58D8A025D0E6
:100A1800222AEAD7010E226E040E2218D8B41DD05D
:100A28002250020DE50EF324F66EFD0EF420F76E4B
:100A38000900F5501D5C0900F5501E58D8A00DD0CE
:100A4800222AEAD71F50C00B000AD8B4CBD7800A95
:100A5800D8B4E0D7400AD8B4C5D720502110D8B4AC
:100A680009D01FC011F0030E1116D8B403D0200608
:100A7800D8A02106800E22BE7F0E116E2050225C67
:100A88002150800A1158D8B007D02250205E000E9D
:100A980022BEFF0E215A04D0000E216E000E206ED9
:100AA8001FA414D01FC011F0030E1116D8B403D020
:100AB8002D0EC1EC11F020502110D8B41ED0300EEC
:100AC800C1EC11F02006D8A02106F5D7205021103E
:100AD800D8B40AD0200EC1EC11F02006D8A0210607
:100AE80020502110D8A4F6D71FC011F0030E1116FC
:100AF800D8B403D02D0EC1EC11F022C01CF053D095
:100B08001C50020DDB0EF324F66EFD0EF420F76E7A
:100B18000900F5CF03F00A00F5CF04F01DC001F07D
:100B28001EC002F09EEC0FF001C008F002C009F0F0
:100B3800000E0B6E0A0E0A6E35EC10F00850300FDE
:100B4800226E2ED01DC001F01EC002F01C50020DF6
:100B5800E50EF324F66EFD0EF420F76E0900F5CFCE
:100B680003F00A00F5CF04F09EEC0FF001500F0BD4
:100B7800176E1750010D930EF324F66EFF0EF42036
:100B8800F76E0800F5CF22F00BD01F50C00B000AFB
:100B9800D8B4B6D7800AD8B4D5D7400AD8B4B0D715
:100BA8002250C1EC11F01C061C28D8A4EED70DC0A9
:100BB800F6FF0EC0F7FF0D4A0E2A0800F5CF22F007
:100BC8002250D8B4120038D6800EC7EC11F0080EA7
:100BD8000D6EFE0E0E6E1BEC04F0C00EC7EC11F08D
:100BE800830E0D6EFE0E0E6E1BEC04F0000E2D6EC5
:100BF800000E2C6E000E2F6E000ED7D06AEC11F08E
:100C080001C02CF002C02DF0D2D0800EC7EC11F03C
:100C1800530E0D6EFE0E0E6E1BEC04F0C00EC7ECEC
:100C280011F01F0E0D6EFF0E0E6E23C00FF024C0C4
:100C380010F01BEC04F0D7D0800EC7EC11F06B0E4F
:100C48000D6EFE0E0E6E1BEC04F0C00EC7EC11F01C
:100C5800B30E0D6EFE0E0E6E20EE03F02550D92653
:100C68002650DA22DF50276E25C0D9FF26C0DAFFCA
:100C7800DF50286E296A20EE01F02550D92626502B
:100C8800DA22DF502A6E2A502826000E292220EE6A
:100C980002F02550D9262650DA22DF502B6E2B5031
:100CA8002826000E2922275028240F6E000E2920FE
:100CB800106E1BEC04F097D0800EC7EC11F0F50E07
:100CC8000D6EFE0E0E6E1BEC04F0C00EC7EC11F09C
:100CD800C60E0D6EFF0E0E6E25C0D9FF26C0DAFFB8
:100CE800DF50276E27500F6E106A1BEC04F07BD084
:100CF800800EC7EC11F0480E0D6EFF0E0E6E1BEC49
:100D080004F0C00EC7EC11F0C60E0D6EFF0E0E6E8D
:100D180020EE01F02550D9262650DA22DF50276E22
:100D280027500F6E106A1BEC04F05DD0800EC7ECE4
:100D380011F00A0E0D6EFF0E0E6E1BEC04F0C00EC5
:100D4800C7EC11F0C60E0D6EFF0E0E6E20EE02F00F
:100D58002550D9262650DA22DF50276E27500F6EED
:100D6800106A1BEC04F03FD0800EC7EC11F0E00EC7
:100D78000D6EFE0E0E6E1BEC04F0C00EC7EC11F0EB
:100D8800C60E0D6EFF0E0E6E20EE03F02550D9260E
:100D98002650DA22DF50276E27500F6E106A1BECA0
:100DA80004F021D0000E2F6E010E2E6E1CD02CC028
:100DB80027F02DC028F02850000AD8A4F3D72750D0
:100DC800000AD8B422D7010AD8B436D7030AD8B44F
:100DD80073D7060AD8B48CD7010AD8B4A7D7030AA0
:100DE800D8B4C2D7DFD72E502F10D8A4120006D7F8
:100DF8000600FACF58F0FBCF59F0E9CF5AF0EACF06
:100E08005BF0E1CF5CF0E2CF5DF0D9CF5EF0DACFF6
:100E18005FF0F3CF60F0F4CF61F0F6CF62F0F7CF78
:100E280063F0F8CF64F0F5CF65F0F29EF0A096D0AD
:100E380020EEAAF010EE66F0050EDBCFE3FFE80621
:100E4800FCE281380F0B0F0B6C6EF09081A277D00B
:100E5800FDD7000E6B6E010E6A6E010E0A6E900EC3
:100E6800096E000E0C6E060E0B6E660E0D6E000EF1
:100E78000E6E28EC0AF072D0000E696E010E686ED4
:100E8800010E0A6E900E096E000E0C6E060E0B6EA9
:100E9800660E0D6E000E0E6E28EC0AF05FD08BBC4D
:100EA80002D08B8C5BD08B9C59D0000E676E010EE4
:100EB800666EC00EC7EC11F0010E0A6E900E096E38
:100EC800000E0C6E060E0B6E660E0D6E000E0E6E8C
:100ED80028EC0AF043D0000E766E020E756EA1EC77
:100EE8000AF0000E766E000E756E38D0000E766E23
:100EF800010E756EF28E3EEC02F0F29E2FD06C5011
:100F0800030AD8B4A6D7040AD8B4B6D70F0AD8B4F7
:100F1800C6D7030AD8B4C9D7070AD8B43AD0020A40
:100F2800D8B4D9D7010AD8B4E1D718D00D0E6C18A7
:100F3800D8A414D0000E766E020E756E2AD075C035
:100F480056F076C057F05750000AD8A407D056502C
:100F5800000AD8B4D4D7010AD8B4E8D7F0A218D078
:100F6800F09208D0000E766E030E756E010E56ECE8
:100F780010F00CD075C056F076C057F05750000AE4
:100F8800D8A404D05650010AD8B4ECD781A4FED70F
:100F9800F28E65C0F5FF64C0F8FF63C0F7FF62C05A
:100FA800F6FF61C0F4FF60C0F3FF5FC0DAFF5EC008
:100FB800D9FF5DC0E2FF5CC0E1FF5BC0EAFF5AC039
:100FC800E9FF59C0FBFF58C0FAFF7E9211000001EB
:100FD800C42BC4C00DF00E6A0E5004E1040E0D5C63
:100FE800D8A006D0040E0D5E000E0E5A0DC0C4F037
:100FF8000DC001F00EC002F0000E046E050E036E67
:1010080037EC11F001C00DF002C00EF00DC00BF06E
:101018000EC00CF0D8900B360C36D8900B360C3628
:10102800D8900B360C360BC001F00CC002F009C08A
:1010380003F024EC11F00D4A0E2A0DC00BF00EC07F
:101048000CF0D8900B360C36D8900B360C36D8905E
:101058000B360C360BC001F00CC002F007C0D9FFEC
:1010680008C0DAFFDF50036E24EC11F00D4A0E2A97
:101078000DC00BF00EC00CF0D8900B360C36D89083
:101088000B360C36D8900B360C360BC001F00CC062
:1010980002F020EE01F00750D9260850DA22DF507E
:1010A800036E24EC11F00D4A0E2A0DC00BF00EC091
:1010B8000CF0D8900B360C36D8900B360C36D890EE
:1010C8000B360C360BC001F00CC002F020EE02F01B
:1010D8000750D9260850DA22DF50036E24EC11F0AD
:1010E8000D4A0E2A0DC00BF00EC00CF0D8900B362E
:1010F8000C36D8900B360C36D8900B360C360BC005
:1011080001F00CC002F020EE03F00750D926085079
:10111800DA22DF50036E24EC11F00D4A0E2A000E7D
:10112800026EA00E016EC4C003F024EC11F0120090
:101138000B6E0B5079EC11F0076E0750050DF3CFCD
:101148000CF0F4CF0DF00CC007F00DC008F0D890EB
:1011580007360836D89007360836D8900736083646
:1011680007C001F008C002F093EC11F0096E0A6A9A
:1011780005C0D9FF06C0DAFF09C0DEFF0AC0DDFFDF
:101188000C4A0D2A0CC007F00DC008F0D89007369D
:101198000836D89007360836D8900736083607C07C
:1011A80001F008C002F093EC11F003C0D9FF04C0AD
:1011B800DAFFDF6E0C4A0D2A20EE01F00350D92623
:1011C8000450DA220CC007F00DC008F0D89007369A
:1011D8000836D89007360836D8900736083607C03C
:1011E80001F008C002F093EC11F0DF6E0C4A0D2AF2
:1011F80020EE02F00350D9260450DA220CC007F082
:101208000DC008F0D89007360836D890073608364B
:10121800D8900736083607C001F008C002F093ECF2
:1012280011F0DF6E0C4A0D2A20EE03F00350D92688
:101238000450DA220CC007F00DC008F0D890073629
:101248000836D89007360836D8900736083607C0CB
:1012580001F008C002F093EC11F0DF6E0C4A0D2A81
:1012680012000FC013F0146A156A0E34133601E326
:1012780014801350166E1650D8A407D0000E0D6EA9
:10128800000E0E6E000E0F6E120012C013F0146ADC
:10129800156A1134133601E3148013501B6E1B506A
:1012A800D8A407D0000E0D6E000E0E6E000E0F6E45
:1012B80012001B507B0F16260FC01BF012501B1A72
:1012C800800E1B160E8E118EFF0E1016FF0E1116B5
:1012D800000E1216000E176E000E186E000E196E14
:1012E800070E1A6E0DA006D010501726115018229E
:1012F80012501922D8900F320E320D32D890103673
:10130800113612361A2EEED7090E1A6E0DA006D017
:10131800105017261150182212501922D8900F3247
:101328000E320D32D8901932183217321A2EEED7E3
:1013380017C001F018C002F019C003F016C004F07D
:101348001BC005F06BEC0BF001C00DF002C00EF0F5
:1013580003C00FF0120020EE04F01650D9261750E3
:10136800DA22DECF18F0DDCF19F020EE02F01650A9
:10137800D9261750DA22DECF1AF0DDCF1BF016C0BF
:10138800D9FF17C0DAFFDECF1CF0DDCF1DF01A50F1
:101398001C261B501D2218501C2619501D221C509B
:1013A8001D10D8B41200010E0A6EC20E096E000E8E
:1013B8000C6EA00E0B6E16C00DF017C00EF028ECC8
:1013C8000AF0130E0A6E880E096E000E0C6E020EDD
:1013D8000B6E16C00DF017C00EF028EC0AF0050EC3
:1013E800196E0F0E186EF10EE82EFED7182EFCD7C8
:1013F800192EFAD700F0130E0A6E880E096E000E29
:101408000C6E140E0B6E16C00DF017C00EF028EC03
:101418000AF0010E0A6EC20E096E000E0C6E020E64
:101428000B6E16C00DF017C00EF028EC0AF0040E73
:10143800196EF50E186EF80EE82EFED7182EFCD78A
:10144800192EFAD700D0120009C001F00AC002F024
:10145800000E046E0A0E036EDBEC0CF001C009F0FE
:1014680002C00AF00906D8A00A0609C014F00AC08A
:1014780015F00CBE12000C5003E10B04D8A01200AA
:1014880009C014F00AC015F0000E116E8BB00DD013
:101498000DC0D9FF0EC0DAFFDECF0FF0DDCF10F0A0
:1014A8000F30D8A002D0010E116E11B002D08B906F
:1014B80001D08B80000E126E8BB20FD020EE02F09E
:1014C8000D50D9260E50DA22DECF0FF0DDCF10F006
:1014D8000F30D8A002D0010E126E12B002D08B923B
:1014E80001D08B82000E136E8BB40FD020EE04F067
:1014F8000D50D9260E50DA22DECF0FF0DDCF10F0D6
:101508000F30D8A002D0010E136E13B002D08B9406
:1015180001D08B8415BE0DD0155003E11404D8A05A
:1015280008D0030EE82EFED700F01406D8A0150642
:10153800F1D70B06D8A00C069CD7000E65D0800EFC
:10154800C7EC11F0CA0E0D6EFE0E0E6E1BEC04F009
:10155800C00EC7EC11F06F0E0D6EFF0E0E6E1BEC79
:1015680004F06AEC11F00150396E030E3918D8A452
:1015780002D0020E396E040E3918D8A402D0030E18
:10158800396E040E39603FD0BCC032F0BDC033F0B4
:10159800BEC034F0BFC035F0320E036E000E046ECC
:1015A800370E056E000E066E39509CEC08F0800E62
:1015B800C7EC11F0A40E0D6EFF0E0E6E39C00FF0C1
:1015C800106A1BEC04F0C00EC7EC11F0B50E0D6EDE
:1015D800FF0E0E6E1BEC04F0080E316E1B0E306E03
:1015E800270EE82EFED7302EFCD7312EFAD700F082
:1015F80037C023F038C024F0320E256E000E266E58
:10160800E8EC05F002D0010E366E3650D8A4120070
:1016180096D7000E0001886F000E896F000E8A6F42
:10162800000E8B6F000184510001851100018611A5
:1016380000018711D8B442D0010E00018C6F08D088
:101648000001D890843785378637873700018C2B7F
:10165800000187AFF5D70001D890883789378A37D6
:101668008B37000184510001805D00018551000124
:1016780081590001865100018259000187510001FA
:101688008359D8A012D0000184510001805F000165
:1016980085510001815B000186510001825B0001D8
:1016A80087510001835B000188810001D89087334E
:1016B80086338533843300018C2FCDD788C080F0E2
:1016C80089C081F08AC082F08BC083F01200045078
:1016D800D8B405D0015002100310D8A40CD0000EC5
:1016E800016E000E026E000E036E1200042AD890DE
:1016F800033202320132000E0114066E000E02148B
:10170800076EFE0E0314086E065007100810D8B4B2
:101718000CD0ECD7042A010E0126000E0222000E7E
:101728000322D890033202320132000E0114066EF1
:10173800000E0214076EFF0E0314086E0650071001
:101748000810D8B406D0E6D70406D8900136023679
:10175800033602BE03D0020E0460F6D704A0029E30
:10176800D8900432045003120550D8A4038E01C047
:1017780001F002C002F003C003F012001EAE16D042
:101788001CC022F01DC023F01EC024F0221E231E00
:10179800241E222A000E23222422000E22241C6E3C
:1017A800000E23201D6E800E24201E6E21AE16D042
:1017B8001FC022F020C023F021C024F0221E231EC7
:1017C800241E222A000E23222422000E22241F6E09
:1017D800000E2320206E800E2420216E000E1C1A7D
:1017E800000E1D1A800E1E1A000E1F1A000E201A57
:1017F800800E211A1F501C5C20501D5821501E5865
:10180800D8B002D0D8901200D8801200276E275086
:10181800D5EC10F001C028F002C029F029BE06D08E
:10182800295007E1320E285CD8B003D02568266815
:1018380012009A0E106E590E116E3F0E126E25C0D0
:1018480009F026C00AF072EC10F009C00DF00AC0C9
:101858000EF00BC00FF035EC09F00DC01CF00EC0F7
:101868001DF00FC01EF028C009F029C00AF072EC64
:1018780010F009C01FF00AC020F00BC021F0C2EC24
:101888000BF0D8B005D0000E266E010E256E1200A2
:10189800000E266E000E256E1200770E0001836F73
:1018A800000E0001846F96EC0CF0800EB9EC11F07C
:1018B800210E00018C6FFE0E00018D6F7DC08EF031
:1018C80000018F6B7CC090F00001916B7BC092F09F
:1018D8000001936B09EC00F0C00EB9EC11F03A0E60
:1018E80000018C6FFE0E00018D6F79C08EF0000133
:1018F8008F6B78C090F00001916B77C092F0000177
:10190800936B09EC00F0030E0001A76F8A0E00012B
:10191800A66F550EE82EFED7A62FFCD7A72FFAD70D
:1019280000D01200F29EDBEC11F0000E0001826F75
:10193800D00E816FCDEC11F0000E0001826F000E09
:10194800816FCDEC11F0D7EC11F0DBEC11F0000E4B
:101958000001826FD10E816FCDEC11F0000E0001F5
:10196800856F050E0001856501D012D000018551F3
:10197800010DF35000018325D96EF4500001842134
:10198800DA6E010EA9EC10F0DF6E0001852BE9D7A5
:10199800000120EE06F08351D9268451DA22000E88
:1019A800A9EC10F0DF6ED7EC11F0F28E1200000EE9
:1019B800066E04AE06D0036C041ED8B0042A010ECD
:1019C800066E02AE06D0016C021ED8B0022A010EC5
:1019D800061A000E086E000E076E03500410D8B4E5
:1019E8001CD0010E056E04D0D89003360436052AA3
:1019F80004AEFAD7D890073608360350015C045075
:101A08000258D8A005D00350015E0450025A07803E
:101A1800D89004320332052EEDD70650D8B404D03E
:101A2800076C081ED8B0082A07C001F008C002F0E9
:101A38001200000E0001856F000E846F00018251B4
:101A480000018311D8B42CD0010E0001866F06D096
:101A58000001D890823783370001862B000183AFBD
:101A6800F7D70001D89084378537000182510001EB
:101A7800805D0001835100018159D8A00AD000017E
:101A880082510001805F000183510001815B0001E8
:101A980084810001D890833382330001862FE1D7F7
:101AA80084C080F085C081F01200F29EE3EC11F052
:101AB800000E036ED00E026ED2EC11F0000E036E13
:101AC800000E026ED2EC11F0DFEC11F0E3EC11F035
:101AD800000E036ED10E026ED2EC11F0000E066EEF
:101AE800050E066401D00ED00650010DF3500424F3
:101AF800D96EF4500520DA6E010E11EC11F0DF6E8C
:101B0800062AEED720EE06F00450D9260550DA2230
:101B1800000E11EC11F0DF6EDFEC11F0F28E120006
:101B2800EE0E0D6EFF0E0E6E1BEC04F0010E266E0F
:101B3800320E256E000E0AEC0CF025C02EF026C0E1
:101B48002FF02EC023F02FC024F0EAEC10F00FD0B5
:101B580020EE01F02A50D9262B50DA22DF2A20EE77
:101B680003F02A50D9262B50DA22DF2A0FD02EC0B4
:101B78002CF02FC02DF02D50000AD8A407D02C50DF
:101B8800000AD8B4ECD7010AD8B4E2D72EC02AF09C
:101B98002FC02BF01200F10E0D6EFF0E0E6E1BEC17
:101BA80004F0020E266EEA0E256E050E0AEC0CF005
:101BB80025C02EF026C02FF02EC023F02FC024F011
:101BC800EAEC10F00FD020EE02F02A50D9262B5064
:101BD800DA22DF2A20EE03F02A50D9262B50DA2207
:101BE800DF2A0FD02EC02CF02FC02DF02D50000A68
:101BF800D8A407D02C50000AD8B4ECD7010AD8B41E
:101C0800E2D72EC02AF02FC02BF01200E50E0D6E81
:101C1800FF0E0E6E1BEC04F0010E266E320E256EC2
:101C2800020E0AEC0CF025C02EF026C02FF02EC0B4
:101C380023F02FC024F0EAEC10F00DD02AC0D9FF11
:101C48002BC0DAFFDF2A20EE03F02A50D9262B50CA
:101C5800DA22DF2A0FD02EC02CF02FC02DF02D5005
:101C6800000AD8A407D02C50000AD8B4ECD7010A2F
:101C7800D8B4E4D72EC02AF02FC02BF0120020EEE3
:101C880004F01650D9261750DA22DECF18F0DDCF2F
:101C980019F020EE02F01650D9261750DA22DECFBE
:101CA8001AF0DDCF1BF016C0D9FF17C0DAFFDECF60
:101CB8001CF0DDCF1DF01A501C261B501D22185099
:101CC8001C2619501D221C501D10D8B412000B0ED2
:101CD8000A6EB80E096E000E0C6E780E0B6E16C0EA
:101CE8000DF017C00EF028EC0AF0120020EE04F0F8
:101CF8001650D9261750DA22DECF18F0DDCF19F0AA
:101D080020EE02F01650D9261750DA22DECF1AF04C
:101D1800DDCF1BF016C0D9FF17C0DAFFDECF1CF0ED
:101D2800DDCF1DF01A501C261B501D2218501C26F2
:101D380019501D221C501D10D8B41200010E0A6E35
:101D4800900E096E030E0C6EE80E0B6E16C00DF0A9
:101D580017C00EF028EC0AF012000001816F000194
:101D68008151F00B0001806F8C500F0B8C6E0001BD
:101D780080518C108C6E8C96100EE82EFED700D0F9
:101D88008C86100EE82EFED700D000018139F00BAA
:101D98000001816F00018151F00B0001806F8C50B0
:101DA8000F0B8C6E000180518C108C6E8C96100E6F
:101DB800E82EFED700D08C86100EE82EFED700D075
:101DC80012000001895100018A11D8B426D0010EF1
:101DD80000018B6F06D00001D89089378A3700013F
:101DE8008B2B00018AAFF7D7000189510001875D6D
:101DF80000018A5100018859D8A008D000018951F2
:101E08000001875F00018A510001885B0001D890BA
:101E18008A33893300018B2FE7D787C087F088C0C2
:101E280088F01200000EC76E280EC66E000EC56E32
:101E3800000E0001806F120E816F7A0E826F000E05
:101E4800836F8DC091F08EC092F08FC093F090C0D8
:101E580094F0020ED8900001913792379337943757
:101E6800E82EF8D791C084F092C085F093C086F030
:101E780094C087F00DEC0BF000018005C86E9486C5
:101E88009488120092689368000E946E000E956E06
:101E98000F0E966E12EC10F0000E896E000E8A6E10
:101EA800000E8B6E000E8C6E000E8D6E000EC26ED4
:101EB800090EC16E000EB56EC08E010EB9EC11F0A0
:101EC800100E00018D6F270E8E6F000E8F6F000EA3
:101ED800906F16EC0FF04AEC11F0F1981200026EB8
:101EE8000250F00B016E8C500F0B8C6E01508C1051
:101EF8008C6E8C96100EE82EFED700D08C86100EB5
:101F0800E82EFED700D00238F00B026E0250F00B1C
:101F1800016E8C500F0B8C6E01508C108C6E8C9651
:101F2800100EE82EFED700D08C86100EE82EFED7B5
:101F380000D01200000E066E000E056E035004104D
:101F4800D8B41CD0010E076E04D0D89003360436DE
:101F5800072A04AEFAD7D890053606360350015C36
:101F680004500258D8A005D00350015E0450025A0C
:101F78000580D89004320332072EEDD705C001F052
:101F880006C002F0120046EC0FF0800EB9EC11F01A
:101F98005C0E00018C6FFF0E00018D6F09EC00F0E4
:101FA800060E0001A96F130E0001A86FAD0EE82EF2
:101FB800FED7A82FFCD7A92FFAD700D0F086F0902B
:101FC800F098F28E000E766E000E756E51EC0CF0E5
:101FD800FDD7FF0007C009F008C00AF0040E0B6E19
:101FE800D8900A3209320B2EFBD709C00CF00AC070
:101FF8000DF00F0E07140E6E0F6A0CC001F00DC025
:1020080002F0000E046E0A0E036E37EC11F00E504B
:102018000124076E0F500220086E1200270E0001DF
:10202800836FF50EE82EFED7832FFCD7330EB9EC5D
:1020380011F0320EB9EC11F0280EB9EC11F00F0EB8
:10204800B9EC11F0060EB9EC11F0010EB9EC11F073
:10205800270E0001836FF50EE82EFED7832FFCD7DD
:1020680012000A500B10D8B418D0010E0C6E04D010
:10207800D8900A360B360C2A0BAEFAD70A50085CF1
:102088000B500958D8A004D00A50085E0B50095AC2
:10209800D8900B320A320C2EF1D708C008F009C0CC
:1020A80009F01200256EF29E000E8B6E800EC7ECB2
:1020B80011F02550D8A404D0810E236EFF0E03D052
:1020C800340E236EFF0E246E23C00DF024C00EF0D4
:1020D8001BEC04F02550D8B41200FFD7000E0C6E8C
:1020E8000AAE06D0096C0A1ED8B00A2A010E0C6E78
:1020F80009C001F00AC002F0036A8E0E046E0CC01B
:1021080005F06BEC0BF001C009F002C00AF003C047
:102118000BF012000001805100018203F3CF84F01C
:10212800F4CF85F00001805100018303F3500001D2
:1021380085270001815100018203F35000018527A2
:1021480084C080F085C081F012000001816F9EEC90
:1021580011F0C5869EEC11F0C9CF82F09EEC11F00B
:10216800000181510001D8A402D0C58A01D0C59AC6
:10217800C5880001825112000001826F000E000123
:10218800816F3A0E0001826107D02F0E000182652F
:1021980003D0010E0001816F81C080F00001803101
:1021A8001200056E0544E846FC0BC26EC280C2826E
:1021B800C2B2FED7C350C4CF03F0046A03C004F010
:1021C800036A0310016E0450026E120024AE07D099
:1021D800E90E0D6EFF0E0E6E1BEC04F01200DF0E02
:1021E8000D6EFF0E0E6E23C00FF024C010F01BEC16
:1021F80004F0120000EEAAF01B0EEE6AE806FDE1FC
:1022080000EE6DF0110EEE6AE806FDE17E907E921A
:10221800000EF86E0001C7EF0FF0026EA8EC11F087
:10222800C586A8EC11F0C9CF03F0A8EC11F0025054
:10223800D8A402D0C58A01D0C59AC5880350120017
:102248000250AA6E01C0A9FF03C0A8FFA69EA69CC3
:10225800A684550EA76EAA0EA76EA682A1A8FED7C1
:10226800A198A694120001500302F3CF05F0F4CF11
:1022780006F001500402F350062602500302F35000
:10228800062605C001F006C002F01200000E00018B
:10229800816FA00E806F87EC11F00001C46F030EF0
:1022A8000001C4651200000E0001C46F1200036E25
:1022B800000E026E3A0E036005D02F0E036402D0A2
:1022C800010E026E02C001F001301200F29E81A2DE
:1022D800FED781380F0B0F0B036E81B2FED7F0903B
:1022E800F28E03C001F0026A1200016E015000086C
:1022F8000001C425040F026E040E026402D0040E0D
:10230800025E0250120000018151AA6E80C0A9FF2E
:10231800A69EA69CA680A6B0FED7A8501200025082
:10232800AA6E01C0A9FFA69EA69CA680A6B0FED74D
:10233800A8501200C7B4FED7C5CF80F01F0E000109
:102348008017D8B41200F6D7C7B4FED7C5CF01F0AE
:102358001F0E0116D8B41200F7D70001826F8C84C3
:1023680000018251B1EC0EF012000001826F8C94D2
:1023780000018251B1EC0EF01200036E8C84035000
:1023880073EC0FF01200036E8C94035073EC0FF093
:1023980012009EEC11F081C0C9FF1200A8EC11F0E8
:1023A80002C0C9FF12009EEC11F0C58412009EEC19
:1023B80011F0C5801200A8EC11F0C5841200A8EC39
:0623C80011F0C5801200B7
:10FDDA000001000A006400E8031027010010000077
:10FDEA00010010536F7274696E6720436F6D706CF7
:10FDFA0065746520202020202020202020005072B9
:10FE0A006573732061206E756D62657220202020F3
:10FE1A002020202020200020202020253032782F6A
:10FE2A00253032782F2530327820202020202000DB
:10FE3A0020202020253032783A253032783A253071
:10FE4A0032782020202020200054696D6520456CDE
:10FE5A0061707365643A2020202020202020202011
:10FE6A0000546F74616C20536F727465643A202079
:10FE7A00202020202020202000466F72206D6F72E3
:10FE8A006520696E666F20202020202020202020F7
:10FE9A000053696D756C6174696E672E2E2E202071
:10FEAA0020202020202020200025752062617474E3
:10FEBA0065726965732020202020202020202000E0
:10FECA005065726D616E656E74206C6F673A2020A2
:10FEDA00202020202000556E636861726765643AAD
:10FEEA002020202020202020202000414120536F64
:10FEFA00727465643A2020202020202020202000CF
:10FF0A00395620536F727465643A202020202020CD
:10FF1A0020202020002575207365636F6E6473208E
:10FF2A0020202020202020202000456D6572676552
:10FF3A006E637920202020202020202020004320CA
:10FF4A00536F727465643A202020202020202020DC
:10FF5A00200057656C636F6D6521202020202020CA
:10FF6A00202020200057686963682072756E3F2040
:10FF7A002020202020200053746F70706564202098
:10FF8A002020202020202020003031323334353602
:10FF9A003738396162636465660073686F77696EC2
:10FFAA00672025752020202020200072756E73207E
:10FFBA006265666F7265202020202000257520204A
:10FFCA002020202020202020202020004D61696E42
:10FFDA006C6F6F700020256420002041413A002D8B
:10FFEA0031200020433A0039563A00202B00202DB8
:05FFFA000020300000B2
:020000040020DA
:08000000FFFFFFFFFFFFFFFF00
:020000040030CA
:0E000000FF021F1EFF8381FF0FC00FE00F40A5
:00000001FF
