:0400000007EF00F016
:100008007D8211ED08F0F5EF0FF08E0E0001986F6C
:10001800000E0001996FCED1250E0001A519D8B4A4
:1000280005D00001A551C6EC10F0C4D1000E0001A6
:10003800A46F000EA36F000E0001A26F05D000018F
:10004800A28500018C4B8D2B8CC0F6FF8DC0F7FF6D
:100058000800F550300AD8B4F2D78CC0F6FF8DC02E
:10006800F7FF0800F550CBEC0FF0D8A092D0000EA7
:100078000001A46F000EA36FA3C080F0A4C081F09C
:10008800000E0001836F0A0E826F7EEC0FF080C0B5
:10009800A3F081C0A4F0D00E0001946FFF0E000100
:1000A800956F8CC0F6FF8DC0F7FF0800F550000172
:1000B800966F976B000194510001962700019551A6
:1000C80000019723000196510001A32700019751D1
:1000D8000001A42300018C4B8D2B8CC0F6FF8DC032
:1000E800F7FF0800F550CBEC0FF0D8A052D0C4D7DA
:1000F8000001A28F64D00001A35100019D5D0001A1
:10010800A45100019E59D8B009D000019D510001A9
:10011800A35F00019E510001A45B09D0000E0001FD
:10012800A46F000EA36F03D0200EC6EC10F00001E0
:10013800A307D8A0A4070001A329F6E10001A42978
:10014800D8B40BD0F1D79AC0D9FF9BC0DAFFDF50E3
:10015800C6EC10F000019A4B9B2B00019D07D8A01C
:100168009E0700019D29EFE100019E29D8B422D104
:10017800EAD7A50E00019A6F000E00019B6F000ED2
:1001880000019E6F010E9D6FB6D7C00E0001A2132D
:1001980016D08CC0F6FF8DC0F7FF00018C4B8D2B5D
:1001A8000800F5CFA5F00001A551000AD8B4120047
:1001B800750AD8B4EAD70D0AD8B49AD7DAD798C04E
:1001C800D9FF99C0DAFFDECFA0F0DDCFA1F0020E93
:1001D80000019827000E99233CD0010E0001A56F5D
:1001E800050E0001A519D8B43DD00001A551020D96
:1001F800D50EF324F66EFD0EF420F76E0900F550C7
:100208000001A05D0900F5500001A159D8A02AD02D
:100218000001A52BE5D7010E0001A56F040E000112
:10022800A519D8B41FD00001A551020DDF0EF32483
:10023800F66EFD0EF420F76E0900F5500001A05D82
:100248000900F5500001A159D8A00CD00001A52B38
:10025800E5D70001A251C00B800AD8B4DCD7400A08
:10026800D8B4BBD7800E0001A5BF7F0E0001946FE4
:100278000001A3510001A55D0001A451800A0001FD
:100288009459D8B00BD00001A5510001A35F000E0E
:100298000001A5BFFF0E0001A45B05D0000E000100
:1002A800A46F000EA36F0001A2A50ED00001A351F8
:1002B8000001A411D8B41BD0300EC6EC10F0000118
:1002C800A307D8A0A407F2D70001A3510001A411E5
:1002D800D8B40DD0200EC6EC10F00001A307D8A0AA
:1002E800A4070001A3510001A411D8A4F3D7A5C005
:1002F8009FF05AD000019F51020DD50EF324F66EDF
:10030800FD0EF420F76E0900F5CF82F00A00F5CF54
:1003180083F0A0C080F0A1C081F04CEC0DF080C04B
:1003280087F081C088F0000E00018A6F0A0E896F7D
:10033800F7EC0DF000018751300F0001A56F30D0A8
:10034800A0C080F0A1C081F000019F51020DDF0E16
:10035800F324F66EFD0EF420F76E0900F5CF82F057
:100368000A00F5CF83F04CEC0DF0000180510F0B23
:1003780000019C6F00019C51010D910EF324F66E53
:10038800FF0EF420F76E0800F5CFA5F009D00001A4
:10039800A251C00B800AD8B4D3D7400AD8B4AAD780
:1003A8000001A551C6EC10F000019F0700019F292C
:1003B800D8A4EDD78CC0F6FF8DC0F7FF00018C4B99
:1003C8008D2B0800F5CFA5F00001A551D8B4120077
:1003D80023D6C2C055F0C3C056F0C4C057F0C5C03C
:1003E80058F0BEC059F0BFC05AF0C0C05BF0C1C0E1
:1003F8005CF0BAC05DF0BBC05EF0BCC05FF0BDC0D1
:1004080060F0000E626E000E616E000E406E000E0F
:100418003F6E08EC11F0AE0E0D6EFE0E0E6E91ECF6
:1004280003F076C059F05A6A77C05BF05C6A8B8A31
:10043800F088F09239D108EC11F05D0E3B6E000E99
:100448003C6E0EEC0BF03BC04FF03CC050F05D0E24
:100458003B6E000E3C6E5AEC0AF03BC051F03CC0BB
:1004680052F05D0E3B6E000E3C6EB4EC0AF03BC0E1
:1004780053F03CC054F0CF0E0D6EFF0E0E6E91EC93
:1004880003F020EEB0F010EE43F0050EDBCFE3FFF3
:10049800E806FCE220EEAAF010EE49F0050EDBCFEC
:1004A800E3FFE806FCE204EC11F0EE0E0D6EFF0E21
:1004B8000E6E91EC03F04F505010D8A40BD0000EE4
:1004C8004A6E010E496EF90E0D6EFF0E0E6E91EC1E
:1004D80003F015D04F045010D8A40BD0000E446E72
:1004E800010E436EF60E0D6EFF0E0E6E91EC03F0CC
:1004F80006D0FC0E0D6EFF0E0E6E91EC03F0F20EA0
:100508000D6EFF0E0E6E91EC03F051505210D8A4F0
:100518000BD0000E4C6E010E4B6EF90E0D6EFF0ED9
:100528000E6E91EC03F015D051045210D8A40BD0E4
:10053800000E466E010E456EF60E0D6EFF0E0E6E27
:1005480091EC03F006D0FC0E0D6EFF0E0E6E91ECD2
:1005580003F0DD0E0D6EFF0E0E6E91EC03F053509E
:100568005410D8A40BD0000E4E6E010E4D6EF90E2D
:100578000D6EFF0E0E6E91EC03F015D0530454105F
:10058800D8A40BD0000E486E010E476EF60E0D6E05
:10059800FF0E0E6E91EC03F006D0FC0E0D6EFF0EF2
:1005A8000E6E91EC03F0490E166E000E176E61EC9C
:1005B80010F0430E166E000E176E52EC10F08B9072
:1005C8008B928B94760E046E000E056E88EC0DF0FF
:1005D80076C055F0566A77C057F0586A08EC11F0A3
:1005E8004D0E0D6EFE0E0E6E5BC00FF05CC010F06F
:1005F80059C011F05AC012F057C013F058C014F087
:1006080055C015F056C016F091EC03F057C007F02E
:1006180058C008F0FAEC0EF007C03DF008C03EF0F4
:100628005BC007F05CC008F0FAEC0EF0071E081E6D
:10063800074A082A07503D24416E08503E20426E62
:1006480041C001F042C002F0000E046E3C0E036E81
:100658002EEC10F001C03DF002C03EF055C007F08E
:1006680056C008F0FAEC0EF007503D2608503E221E
:1006780059C007F05AC008F0FAEC0EF0071E081E21
:10068800074A082A07503D24616E08503E20626ED2
:1006980004EC11F06C0E0D6EFF0E0E6E61C00FF0C3
:1006A80062C010F091EC03F03F504010D8B4C3D6AC
:1006B800000E756E020E746EF098000E99EC0FF035
:1006C80004EC11F0E70E0D6EFD0E0E6E91EC03F0CA
:1006D8005D0E076E000E086E61C009F062C00AF078
:1006E80022EC06F0080E3E6E1B0E3D6E270EE82E1D
:1006F800FED73D2EFCD73E2EFAD700F061C029F078
:1007080062C02AF05D0E2B6E000E2C6E18EC05F000
:10071800000E756E000E746E12000F0E1B6E000E2A
:100728001C6E75D1250E2818D8B404D02850D6ECE4
:1007380010F06DD1000E276E000E266E000E256E8D
:1007480003D025840D4A0E2A0DC0F6FF0EC0F7FF10
:100758000800F550300AD8B4F4D70DC0F6FF0EC023
:10076800F7FF0800F55070EC10F0D8A06FD0000E1D
:10077800276E000E266E26C001F027C002F0000E7C
:10078800046E0A0E036E2EEC10F001C026F002C0B3
:1007980027F0D00E176EFF0E186E0DC0F6FF0EC0B4
:1007A800F7FF0800F550196E1A6A175019261850E5
:1007B8001A22195026261A5027220D4A0E2A0DC031
:1007C800F6FF0EC0F7FF0800F55070EC10F0D8A047
:1007D8003DD0D1D7258E4ED02650205C27502158A9
:1007E800D8B005D02050265E2150275A08D0000ED8
:1007F800276E000E266E03D0200ED6EC10F02606CB
:10080800D8A027062628F8E12728D8B40AD0F4D794
:100818001DC0D9FF1EC0DAFFDF50D6EC10F01D4A0C
:100828001E2A2006D8A021062028F2E12128D8B4C3
:10083800EED0EED7280E1D6E000E1E6E000E216E35
:10084800010E206EC9D7C00E251214D00DC0F6FFB8
:100858000EC0F7FF0D4A0E2A0800F5CF28F02850E1
:10086800000AD8B41200750AD8B4EDD70D0AD8B466
:10087800B1D7E0D71BC0D9FF1CC0DAFFDECF23F009
:10088800DDCF24F0020E1B26000E1C2230D0010EF4
:10089800286E050E2818D8B432D02850020DD50E6F
:1008A800F324F66EFD0EF420F76E0900F550235C74
:1008B8000900F5502458D8A022D0282AEAD7010EDA
:1008C800286E040E2818D8B41AD02850020DDF0E4E
:1008D800F324F66EFD0EF420F76E0900F550235C44
:1008E8000900F5502458D8A00AD0282AEAD725505C
:1008F800C00B800AD8B4E3D7400AD8B4C8D7800E52
:1009080028BE7F0E176E2650285C2750800A17587D
:10091800D8B007D02850265E000E28BEFF0E275AF2
:1009280004D0000E276E000E266E25A40BD026508C
:100938002710D8B415D0300ED6EC10F02606D8A063
:100948002706F5D726502710D8B40AD0200ED6ECA3
:1009580010F02606D8A0270626502710D8A4F6D7C8
:1009680028C022F050D02250020DD50EF324F66E86
:10097800FD0EF420F76E0900F5CF03F00A00F5CF5D
:1009880004F023C001F024C002F083EC0EF001C093
:1009980008F002C009F0000E0B6E0A0E0A6E41EC58
:1009A8000FF00850300F286E2BD023C001F024C060
:1009B80002F02250020DDF0EF324F66EFD0EF42035
:1009C800F76E0900F5CF03F00A00F5CF04F083ECC9
:1009D8000EF001500F0B1F6E1F50010D910EF324E6
:1009E800F66EFF0EF420F76E0800F5CF28F008D059
:1009F8002550C00B800AD8B4D8D7400AD8B4B3D78A
:100A08002850D6EC10F022062228D8A4F1D70DC021
:100A1800F6FF0EC0F7FF0D4A0E2A0800F5CF28F0A2
:100A28002850D8B412007ED608EC11F0020E0D6ED4
:100A3800FE0E0E6E91EC03F004EC11F0960E0D6EA6
:100A4800FE0E0E6E91EC03F0000E336E000E326E49
:100A5800000E356E000ECCD07FEC10F001C032F0E5
:100A680002C033F0C7D008EC11F0660E0D6EFE0E12
:100A78000E6E91EC03F004EC11F01C0E0D6EFF0EDF
:100A88000E6E29C00FF02AC010F091EC03F0D1D0FF
:100A980008EC11F07E0E0D6EFE0E0E6E91EC03F05A
:100AA80004EC11F0C60E0D6EFE0E0E6E20EE03F075
:100AB8002B50D9262C50DA22DF502D6E2BC0D9FFAF
:100AC8002CC0DAFFDF502E6E2F6A20EE01F02B507B
:100AD800D9262C50DA22DF50306E30502E26000EE8
:100AE8002F2220EE02F02B50D9262C50DA22DF508C
:100AF800316E31502E26000E2F222D502E240F6ECF
:100B0800000E2F20106E91EC03F093D008EC11F03A
:100B1800F20E0D6EFE0E0E6E91EC03F004EC11F069
:100B2800C40E0D6EFF0E0E6E2BC0D9FF2CC0DAFF5F
:100B3800DF502D6E2D500F6E106A91EC03F079D0B6
:100B480008EC11F0450E0D6EFF0E0E6E91EC03F0E1
:100B580004EC11F0C40E0D6EFF0E0E6E20EE01F0C7
:100B68002B50D9262C50DA22DF502D6E2D500F6EC7
:100B7800106A91EC03F05DD008EC11F0070E0D6ED1
:100B8800FF0E0E6E91EC03F004EC11F0C40E0D6E26
:100B9800FF0E0E6E20EE02F02B50D9262C50DA22D2
:100BA800DF502D6E2D500F6E106A91EC03F041D07E
:100BB80008EC11F0DD0E0D6EFE0E0E6E91EC03F0DA
:100BC80004EC11F0C40E0D6EFF0E0E6E20EE03F055
:100BD8002B50D9262C50DA22DF502D6E2D500F6E57
:100BE800106A91EC03F025D0FF00000E356E010E5F
:100BF800346E1FD032C02DF033C02EF02E50000AB4
:100C0800D8A4F3D72D50000AD8B42DD7010AD8B4E8
:100C18003FD7030AD8B47AD7010AD8B491D7070ABC
:100C2800D8B4AAD7010AD8B4C3D70A0AD8B4DCD72B
:100C3800DCD734503510D8A412000ED70001C62BCB
:100C4800C6C00DF00E6A0E5004E1040E0D5CD8A06B
:100C580006D0040E0D5E000E0E5A0DC0C6F00DC073
:100C680001F00EC002F0000E046E050E036E2EECAD
:100C780010F001C00DF002C00EF00DC00BF00EC058
:100C88000CF0D8900B360C36D8900B360C36D89022
:100C98000B360C360BC001F00CC002F009C003F093
:100CA8001BEC10F00D4A0E2A0DC00BF00EC00CF014
:100CB800D8900B360C36D8900B360C36D8900B36AD
:100CC8000C360BC001F00CC002F007C0D9FF08C0F9
:100CD800DAFFDF50036E1BEC10F00D4A0E2A0DC030
:100CE8000BF00EC00CF0D8900B360C36D8900B36A3
:100CF8000C36D8900B360C360BC001F00CC002F045
:100D080020EE01F00750D9260850DA22DF50036E92
:100D18001BEC10F00D4A0E2A0DC00BF00EC00CF0A3
:100D2800D8900B360C36D8900B360C36D8900B363C
:100D38000C360BC001F00CC002F020EE02F0075098
:100D4800D9260850DA22DF50036E1BEC10F00D4A4A
:100D58000E2A0DC00BF00EC00CF0D8900B360C36D6
:100D6800D8900B360C36D8900B360C360BC001F0E9
:100D78000CC002F020EE03F00750D9260850DA2202
:100D8800DF50036E1BEC10F00D4A0E2A000E026EA7
:100D9800A00E016EC6C003F01BEC10F0120030501C
:100DA800E0EC0FF001C039F002C03AF03050E0EC4E
:100DB8000FF001C035F002C036F03050E0EC0FF013
:100DC80001C037F002C038F03ABE06D0210E395CB7
:100DD800030E3A58D8B010D036BE06D0210E355C76
:100DE800030E3658D8B008D038BE0BD0210E375C69
:100DF800030E3858D8A005D0000E316E000E306EA4
:100E0800120039C001F03AC002F035C003F036C014
:100E180004F0ACEC0EF00009D8A41AD035C001F0EB
:100E280036C002F037C003F038C004F0ACEC0EF066
:100E38000009D8A40DD039C001F03AC002F037C07B
:100E480003F038C004F0ACEC0EF00009D8B405D0BB
:100E5800000E316E000E306E12003ABE06D03A50C7
:100E680009E1320E395CD8B005D0000E316E000EA3
:100E7800306E1200330E1B6E830E1C6E400E1D6EFC
:100E8800630E0C6E590E0D6E440E0E6E32C009F0D4
:100E980033C00AF034C00BF096EC08F009C018F023
:100EA8000AC019F00BC01AF089EC09F018C027F035
:100EB80019C028F01AC029F039C009F03AC00AF060
:100EC80062EC0FF009C02AF00AC02BF00BC02CF01E
:100ED800BDEC0BF0D8B005D0000E316E010E306EAF
:100EE80012003068316812000B6E0B508EEC10F057
:100EF800076E0750050DF3CF0CF0F4CF0DF00CC0C2
:100F080007F00DC008F0D89007360836D890073695
:100F18000836D8900736083607C001F008C002F036
:100F2800A8EC10F0096E0A6A05C0D9FF06C0DAFFFE
:100F380009C0DEFF0AC0DDFF0C4A0D2A0CC007F00D
:100F48000DC008F0D89007360836D890073608360E
:100F5800D8900736083607C001F008C002F0A8ECA0
:100F680010F003C0D9FF04C0DAFFDF6E0C4A0D2A67
:100F780020EE01F00350D9260450DA220CC007F005
:100F88000DC008F0D89007360836D89007360836CE
:100F9800D8900736083607C001F008C002F0A8EC60
:100FA80010F0DF6E0C4A0D2A20EE02F00350D9260D
:100FB8000450DA220CC007F00DC008F0D8900736AC
:100FC8000836D89007360836D8900736083607C04E
:100FD80001F008C002F0A8EC10F0DF6E0C4A0D2AF0
:100FE80020EE03F00350D9260450DA220CC007F093
:100FF8000DC008F0D89007360836D890073608365E
:10100800D8900736083607C001F008C002F0A8ECEF
:1010180010F0DF6E0C4A0D2A12000600FACF65F0B8
:10102800FBCF66F0E9CF67F0EACF68F0E1CF69F06F
:10103800E2CF6AF0D9CF6BF0DACF6CF0F3CF6DF076
:10104800F4CF6EF0F6CF6FF0F7CF70F0F8CF71F005
:10105800F5CF72F0F29EF0A02CD081380F0B0F0B59
:10106800736EF09018D0040E73600CD0000E756E7D
:10107800020E746E73500EEC0DF0000E756E000EBD
:10108800746E15D0000E756E010E746EF28EEDEC56
:1010980001F0F29E0CD074C063F075C064F0645027
:1010A800000AD8A404D06350000AD8B4DCD781B2AF
:1010B800FED7F0A218D0F09208D0000E756E030E7D
:1010C800746E010E99EC0FF00CD074C063F075C00B
:1010D80064F06450000AD8A404D06350010AD8B45C
:1010E800ECD781B4FED7F28E72C0F5FF71C0F8FF5D
:1010F80070C0F7FF6FC0F6FF6EC0F4FF6DC0F3FF5E
:101108006CC0DAFF6BC0D9FF6AC0E2FF69C0E1FFBB
:1011180068C0EAFF67C0E9FF66C0FBFF65C0FAFF69
:101128007D9211000BC00FF0106A116A0A340F3655
:1011380001E310800F50126E1250D8A407D0000E91
:10114800096E000E0A6E000E0B6E12000EC00FF034
:10115800106A116A0D340F3601E310800F50176EB4
:101168001750D8A407D0000E096E000E0A6E000EA4
:101178000B6E120017507B0F12260BC017F00E5083
:10118800171A800E17160A8E0D8EFF0E0C16FF0EFC
:101198000D16000E0E16000E136E000E146E000EC5
:1011A800156E070E166E09A006D00C5013260D50AA
:1011B80014220E501522D8900B320A320932D890D8
:1011C8000C360D360E36162EEED7090E166E09A001
:1011D80006D00C5013260D5014220E501522D8900C
:1011E8000B320A320932D890153214321332162EC5
:1011F800EED713C001F014C002F015C003F012C0FE
:1012080004F017C005F066EC0BF001C009F002C04D
:101218000AF003C00BF0120009C001F00AC002F086
:10122800000E046E0A0E036E8DEC0CF001C009F07E
:1012380002C00AF00906D8A00A0609C014F00AC0BC
:1012480015F00CBE12000C5003E10B04D8A01200DC
:1012580009C014F00AC015F0000E116E8BB00DD045
:101268000DC0D9FF0EC0DAFFDECF0FF0DDCF10F0D2
:101278000F30D8A002D0010E116E11B002D08B90A1
:1012880001D08B80000E126E8BB20FD020EE02F0D0
:101298000D50D9260E50DA22DECF0FF0DDCF10F038
:1012A8000F30D8A002D0010E126E12B002D08B926D
:1012B80001D08B82000E136E8BB40FD020EE04F099
:1012C8000D50D9260E50DA22DECF0FF0DDCF10F008
:1012D8000F30D8A002D0010E136E13B002D08B9439
:1012E80001D08B8415BE0DD0155003E11404D8A08D
:1012F80008D0030EE82EFED700F01406D8A0150675
:10130800F1D70B06D8A00C069CD71AC01EF01F6A8E
:10131800206A19341E3601E31F801E50256E2550A1
:10132800D8A407D0000E186E000E196E000E1A6EA3
:1013380012001DC01EF01F6A206A1C341E3601E30D
:101348001F801E50266E2650D8A407D0000E186E97
:10135800000E196E000E1A6E1200000E226E000E9C
:10136800236E000E246E2650890F255E1AC026F0C3
:101378001D50261A800E2616198EFF0E1816FF0EFF
:101388001916000E1A161C8EFF0E1B16FF0E1C16C1
:10139800000E1D16180E216ED890223623362436DC
:1013A8001B50185C1C5019581D501A58D8A007D04B
:1013B8001B50185E1C50195A1D501A5A2280D8907A
:1013C800183619361A36212EE7D722C001F023C065
:1013D80002F024C003F025C004F026C005F066EC36
:1013E8000BF001C018F002C019F003C01AF0120087
:1013F800000E0001886F000E896F000E8A6F000EC4
:101408008B6F0001845100018511000186110001D4
:101418008711D8B442D0010E00018C6F08D00001AA
:10142800D890843785378637873700018C2B0001A1
:1014380087AFF5D70001D890883789378A378B3737
:10144800000184510001805D00018551000181592E
:10145800000186510001825900018751000183591A
:10146800D8A012D0000184510001805F000185518D
:101478000001815B000186510001825B00018751F8
:101488000001835B000188810001D890873386338F
:101498008533843300018C2FCDD788C080F089C074
:1014A80081F08AC082F08BC083F01200F30E0D6EBB
:1014B800FF0E0E6E91EC03F032D0E60E0D6EFF0EAD
:1014C8000E6E91EC03F020EE01F03B50D9263C5013
:1014D800DA22DF2A000E3C6E010E3B6E1200E20E8D
:1014E8000D6EFF0E0E6E91EC03F020EE03F03B50F4
:1014F800D9263C50DA22DF2A000E3C6E000E3B6EE5
:101508001200EA0E0D6EFF0E0E6E91EC03F03B68B2
:101518003C681200000E3C6E000E3B6E1200000E7E
:10152800316E010E306E000E326EC00E336E3F0EFD
:10153800346ED3EC06F03150000AD8B404D0FF0A58
:10154800D8B409D0E7D73050000AD8B4DAD7010A9E
:10155800D8B4B3D7DFD73050FF0AD8B4C0D7DAD75A
:10156800DE0E0D6EFF0E0E6E91EC03F032D0E60E1D
:101578000D6EFF0E0E6E91EC03F020EE02F03B5064
:10158800D9263C50DA22DF2A000E3C6E010E3B6E53
:101598001200E20E0D6EFF0E0E6E91EC03F020EEBF
:1015A80003F03B50D9263C50DA22DF2A000E3C6E6D
:1015B800000E3B6E1200EA0E0D6EFF0E0E6E91ECE1
:1015C80003F03B683C681200000E3C6E000E3B6E58
:1015D8001200000E316E020E306E000E326E800E5A
:1015E800336E400E346ED3EC06F03150000AD8B496
:1015F80004D0FF0AD8B409D0E7D73050000AD8B4CD
:10160800DAD7010AD8B4B3D7DFD73050FF0AD8B435
:10161800C0D7DAD7EE0E0D6EFF0E0E6E91EC03F00A
:1016280030D0E60E0D6EFF0E0E6E91EC03F03BC04F
:10163800D9FF3CC0DAFFDF2A000E3C6E010E3B6E7C
:101648001200E20E0D6EFF0E0E6E91EC03F020EE0E
:1016580003F03B50D9263C50DA22DF2A000E3C6EBC
:10166800000E3B6E1200EA0E0D6EFF0E0E6E91EC30
:1016780003F03B683C681200000E3C6E000E3B6EA7
:101688001200000E316E000E306E000E326EC00E6B
:10169800336E3F0E346ED3EC06F03150000AD8B4E6
:1016A80004D0FF0AD8B409D0E7D73050000AD8B41C
:1016B800DAD7010AD8B4B5D7DFD73050FF0AD8B483
:1016C800C0D7DAD70450D8B405D00150021003109F
:1016D800D8A40CD0000E016E000E026E000E036E30
:1016E8001200042AD890033202320132000E01148B
:1016F800066E000E0214076EFE0E0314086E0650E6
:1017080007100810D8B40CD0ECD7042A010E012613
:10171800000E0222000E0322D89003320232013258
:10172800000E0114066E000E0214076EFF0E03145D
:10173800086E065007100810D8B406D0E6D704067D
:10174800D89001360236033602BE03D0020E04607A
:10175800F6D704A0029ED890043204500312055014
:10176800D8A4038E01C001F002C002F003C003F048
:10177800120029AE16D027C02DF028C02EF029C09F
:101788002FF02D1E2E1E2F1E2D2A000E2E222F2248
:10179800000E2D24276E000E2E20286E800E2F207E
:1017A800296E2CAE16D02AC02DF02BC02EF02CC0DE
:1017B8002FF02D1E2E1E2F1E2D2A000E2E222F2218
:1017C800000E2D242A6E000E2E202B6E800E2F2048
:1017D8002C6E000E271A000E281A800E291A000EE9
:1017E8002A1A000E2B1A800E2C1A2A50275C2B500E
:1017F80028582C502958D8B002D0D8901200D88038
:101808001200F29EF8EC10F0000E0001826FD00E6C
:10181800816FE2EC10F0000E0001826F000E816F04
:10182800E2EC10F0F4EC10F0F8EC10F0000E00010F
:10183800826FD10E816FE2EC10F0000E0001856F0F
:10184800050E0001856501D012D000018551010DFA
:10185800F35000018325D96EF45000018421DA6E1B
:10186800010EB4EC0FF0DF6E0001852BE9D7000103
:1018780020EE06F08351D9268451DA22000EB4EC0A
:101888000FF0DF6EF4EC10F0F28E1200760E00010D
:10189800836F000E0001846F05EC0CF0F0EC10F083
:1018A8001B0E00018C6FFE0E00018D6F7CC08EF048
:1018B80000018F6B7BC090F00001916B7AC092F0B1
:1018C8000001936B09EC00F0ECEC10F0340E000111
:1018D8008C6FFE0E00018D6F78C08EF000018F6B4B
:1018E80077C090F00001916B76C092F00001936B85
:1018F80009EC00F0030E0001A76F8A0E0001A66F25
:10190800550EE82EFED7A62FFCD7A72FFAD700D062
:101918001200000E066E04AE06D0036C041ED8B08A
:10192800042A010E066E02AE06D0016C021ED8B063
:10193800022A010E061A000E086E000E076E0350EA
:101948000410D8B41CD0010E056E04D0D89003360C
:101958000436052A04AEFAD7D8900736083603505D
:10196800015C04500258D8A005D00350015E045011
:10197800025A0780D89004320332052EEDD706505C
:10198800D8B404D0076C081ED8B0082A07C001F0E4
:1019980008C002F0120092689368000E946E000E60
:1019A800956E000E966EF19E000E896E000E8A6E80
:1019B800000E8B6E000E8C6E000E8D6E000EC26EC9
:1019C8000C0EC16E000EB56EC08E1EEC0FF0010E2F
:1019D800CEEC10F0820E0001956FDD0EE82EFED7DA
:1019E800952FFCD700D0100E00018D6F270E8E6F3B
:1019F800000E8F6F000E906F28EC0EF0820E000123
:101A0800956FDD0EE82EFED7952FFCD700D041EC60
:101A180010F012003C6EB6C038F0B7C039F0B8C04C
:101A28003AF0B9C03BF0380E036E000E046E3D0E5E
:101A3800056E000E066E3C5078EC07F008EC11F0CD
:101A4800A20E0D6EFF0E0E6E3CC00FF0106A91ECE8
:101A580003F004EC11F0B30E0D6EFF0E0E6E91EC58
:101A680003F0080E376E1B0E366E270EE82EFED7D3
:101A7800362EFCD7372EFAD700F03DC029F03EC0ED
:101A88002AF0380E2B6E000E2C6E18EC05F01200A2
:101A9800000E0001856F000E846F00018251000165
:101AA8008311D8B42CD0010E0001866F06D0000136
:101AB800D890823783370001862B000183AFF7D790
:101AC8000001D89084378537000182510001805D7C
:101AD8000001835100018159D8A00AD00001825128
:101AE8000001805F000183510001815B0001848156
:101AF8000001D890833382330001862FE1D784C058
:101B080080F085C081F01200F29E00EC11F0000E0A
:101B1800036ED00E026EE7EC10F0000E036E000E9E
:101B2800026EE7EC10F0FCEC10F000EC11F0000E87
:101B3800036ED10E026EE7EC10F0000E066E050E75
:101B4800066401D00ED00650010DF3500424D96E5E
:101B5800F4500520DA6E010E08EC10F0DF6E062A4C
:101B6800EED720EE06F00450D9260550DA22000EF2
:101B780008EC10F0DF6EFCEC10F0F28E12000001A1
:101B8800816F00018151F00B0001806F8C500F0BA9
:101B98008C6E000180518C108C6E8C96100EE82E85
:101BA800FED700D08C86100EE82EFED700D000019C
:101BB8008139F00B0001816F00018151F00B0001A8
:101BC800806F8C500F0B8C6E000180518C108C6EC6
:101BD8008C96100EE82EFED700D08C86100EE82EBC
:101BE800FED700D012000001895100018A11D8B433
:101BF80026D0010E00018B6F06D00001D8908937DE
:101C08008A3700018B2B00018AAFF7D70001895171
:101C18000001875D00018A5100018859D8A008D0C9
:101C2800000189510001875F00018A510001885B2A
:101C38000001D8908A33893300018B2FE7D787C0FA
:101C480087F088C088F01200000EC76E280EC66E96
:101C5800000EC56E000E0001806F120E816F7A0EA5
:101C6800826F000E836F8DC091F08EC092F08FC08E
:101C780093F090C094F0020ED890000191379237FB
:101C880093379437E82EF8D791C084F092C085F046
:101C980093C086F094C087F0FCEC09F00001800541
:101CA800C86E948694881200026E0250F00B016E82
:101CB8008C500F0B8C6E01508C108C6E8C96100E05
:101CC800E82EFED700D08C86100EE82EFED700D066
:101CD8000238F00B026E0250F00B016E8C500F0BA5
:101CE8008C6E01508C108C6E8C96100EE82EFED7E0
:101CF80000D08C86100EE82EFED700D01200000E01
:101D0800066E000E056E03500410D8B41CD0010EE8
:101D1800076E04D0D89003360436072A04AEFAD7E3
:101D2800D890053606360350015C04500258D8A0F6
:101D380005D00350015E0450025A0580D890043241
:101D48000332072EEDD705C001F006C002F01200DD
:101D580003C005F004C006F0051E061E054A062A43
:101D680001500524076E02500620086E0350015CDE
:101D78000250800A056E0450800A0558D8B004D075
:101D8800076C081ED8B0082A08BE08D0085004E11D
:101D9800C90E075CD8A002D0010E1200000E120076
:101DA800CFEC0CF0F0EC10F0590E00018C6FFF0E28
:101DB80000018D6F09EC00F0060E0001A96F130EEB
:101DC8000001A86FAD0EE82EFED7A82FFCD7A92FCB
:101DD800FAD700D0F086F090F098F28E000E756E6B
:101DE800000E746E4AEC0CF0FDD7FF0007C009F036
:101DF80008C00AF0040E0B6ED8900A3209320B2E76
:101E0800FBD709C00CF00AC00DF00F0E07140E6EB8
:101E18000F6A0CC001F00DC002F0000E046E0A0E2D
:101E2800036E2EEC10F00E500124076E0F500220A6
:101E3800086E1200270E0001836FF50EE82EFED7FC
:101E4800832FFCD7330ECEEC10F0320ECEEC10F010
:101E5800280ECEEC10F00F0ECEEC10F0060ECEECE5
:101E680010F0010ECEEC10F0270E0001836FF50E76
:101E7800E82EFED7832FFCD712000A500B10D8B4D7
:101E880018D0010E0C6E04D0D8900A360B360C2AE6
:101E98000BAEFAD70A50085C0B500958D8A004D0EA
:101EA8000A50085E0B50095AD8900B320A320C2E91
:101EB800F1D708C008F009C009F01200000E0C6E36
:101EC8000AAE06D0096C0A1ED8B00A2A010E0C6E9A
:101ED80009C001F00AC002F0036A8E0E046E0CC03D
:101EE80005F066EC0BF001C009F002C00AF003C06F
:101EF8000BF012000001805100018203F3CF84F03F
:101F0800F4CF85F00001805100018303F3500001F4
:101F180085270001815100018203F35000018527C4
:101F280084C080F085C081F012002B6EF29E000EF6
:101F38008B6E08EC11F02B50D8A404D07F0E296EBC
:101F4800FF0E03D0310E296EFF0E2A6E29C00DF048
:101F58002AC00EF091EC03F02B50D8B41200FFD732
:101F68000001816FB3EC10F0C586B3EC10F0C9CF57
:101F780082F0B3EC10F0000181510001D8A402D026
:101F8800C58A01D0C59AC588000182511200000196
:101F9800826F000E0001816F3A0E0001826107D046
:101FA8002F0E0001826503D0010E0001816F81C0F0
:101FB80080F0000180311200056E0544E846FC0BF4
:101FC800C26EC280C282C2B2FED7C350C4CF03F071
:101FD800046A03C004F0036A0310016E0450026E21
:101FE800120000EEAAF01D0EEE6AE806FDE100EE12
:101FF80074F0090EEE6AE806FDE17D907D92000E10
:10200800F86E0001D4EF0EF0026EBDEC10F0C5863C
:10201800BDEC10F0C9CF03F0BDEC10F00250D8A40D
:1020280002D0C58A01D0C59AC58803501200025053
:10203800AA6E01C0A9FF03C0A8FFA69EA69CA684FD
:10204800550EA76EAA0EA76EA682A1A8FED7A198C4
:10205800A694120001500302F3CF05F0F4CF06F066
:1020680001500402F350062602500302F3500626DC
:1020780005C001F006C002F01200000E0001816FD9
:10208800A00E806F9CEC10F00001C66F030E0001DB
:10209800C6651200000E0001C66F12000B0E0A6E14
:1020A800B80E096E000E0C6E600E0B6E16C00DF0A9
:1020B80017C00EF010EC09F01200010E0A6E2C0E7B
:1020C800096E050E0C6E780E0B6E16C00DF017C05B
:1020D8000EF010EC09F01200036E000E026E3A0EBC
:1020E800036005D02F0E036402D0010E026E02C0F9
:1020F80001F001301200F29E81A2FED781380F0B49
:102108000F0B036E81B2FED7F090F28E03C001F080
:10211800026A1200016E015000080001C625040F72
:10212800026E040E026402D0040E025E0250120017
:1021380000018151AA6E80C0A9FFA69EA69CA68018
:10214800A6B0FED7A85012000250AA6E01C0A9FF7F
:10215800A69EA69CA680A6B0FED7A8501200C7B41B
:10216800FED7C5CF80F01F0E00018017D8B412002B
:10217800F6D7C7B4FED7C5CF01F01F0E0116D8B4E5
:102188001200F7D70001826F8C8400018251C3ECE2
:102198000DF012000001826F8C9400018251C3EC93
:1021A8000DF01200036E8C84035058EC0EF01200F0
:1021B800036E8C94035058EC0EF01200B3EC10F040
:1021C80081C0C9FF1200BDEC10F002C0C9FF1200A7
:1021D800C00ECEEC10F01200800ECEEC10F0120003
:1021E800B3EC10F0C5841200B3EC10F0C5801200F7
:1021F800BDEC10F0C5841200BDEC10F0C5801200D3
:10220800C00EDCEC10F01200800EDCEC10F01200B6
:10FDD4000001000A006400E803102701001000007D
:10FDE400010010536F7274696E6720436F6D706CFD
:10FDF40065746520202020202020202020005072BF
:10FE04006573732061206E756D62657220202020F9
:10FE14002020202020200020202020253032782F70
:10FE2400253032782F2530327820202020202000E1
:10FE340020202020253032783A253032783A253077
:10FE4400327820202020202000253032783A2530B6
:10FE5400327820746F20253032783A253032782079
:10FE6400200054696D6520456C61707365643A20A7
:10FE740020202020202020202000546F74616C203A
:10FE8400536F727465643A202020202020202020A3
:10FE94002000466F72206D6F726520696E666F2058
:10FEA4002020202020202020200053696D756C61C3
:10FEB40074696E672E2E2E202020202020202020E2
:10FEC4002000257520626174746572696573202051
:10FED400202020202020202000556E636861726756
:10FEE40065643A2020202020202020202000414149
:10FEF40020536F727465643A202020202020202033
:10FF0400202000395620536F727465643A202020F3
:10FF140020202020202020002575207365636F6E2B
:10FF240064732020202020202020202000456D659F
:10FF34007267656E637920202020202020202020F5
:10FF4400004320536F727465643A202020202020DF
:10FF5400202020200057656C636F6D6521202020D0
:10FF64002020202020202000506572696F643A20F0
:10FF7400257520202020202020200053746F7070CD
:10FF840065642020202020202020202000303132D1
:10FF940033343536373839616263646566007368B3
:10FFA4006F77696E6720257520202020202000723D
:10FFB400756E73206265666F7265202020202000B4
:10FFC40025752020202020202020202020202000F3
:10FFD4004D61696E6C6F6F70002039563A002030A5
:10FFE4002000203120002D31200041413A002043DF
:0CFFF4003A00202B00202D0020300000DF
:020000040020DA
:08000000FFFFFFFFFFFFFFFF00
:020000040030CA
:0E000000FF021F1EFF8381FF0FC00FE00F40A5
:00000001FF
