:0400000007EF00F016
:0A000800598204ED0DF0AAEF0FF08D
:101000000001000A006400E8031027536F7274693E
:101010006E6720436F6D706C657465005072657308
:10102000732061206E756D6265720054696D652074
:10103000456C61707365643A00546F74616C205341
:101040006F727465643A00466F72206D6F7265202E
:10105000696E666F002564206261747465726965EB
:101060007300556E636861726765643A00414120A0
:10107000536F727465643A00395620536F72746509
:10108000643A002564207365636F6E647300536F68
:101090007274696E672E2E2E004320536F72746532
:1010A000643A00456D657267656E63790057656CDB
:1010B000636F6D652100286E756C6C2900256400D6
:1010C000257300200000F29E0B0E00019A6F100E97
:1010D00000019B6F69EC0CF0C30E00019A6F100EBB
:1010E00000019B6F69EC0CF00B0E0001CE6F260E19
:1010F0000001CD6F5D0EE82EFED7CD2FFCD7CE2F91
:10110000FAD700D01C0E00019A6F100E00019B6FE1
:1011100069EC0CF0470E00019A6F100E00019B6FF6
:1011200069EC0CF0000E0001D66F000ED56F1F0E9B
:101130000001D66FB40ED56FDAD02B0E00019A6F76
:10114000100E00019B6F69EC0CF0830E00018C6F98
:10115000100E00018D6FC9C08EF0CAC08FF098ECE0
:1011600009F0E5D7390E00019A6F100E00019B6F50
:1011700069EC0CF0550E00018C6F100E00018D6FA4
:10118000000120EE06F0CB51D926CC51DA22DECF79
:10119000CDF0DDCFCEF0000120EE04F0CB51D9260A
:1011A000CC51DA22DECFCFF0DDCFD0F0000120EE3F
:1011B00002F0CB51D926CC51DA22DECFD1F0DDCFEF
:1011C000D2F0CBC0D9FFCCC0DAFFDECFD3F0DDCF79
:1011D000D4F00001D1510001D3270001D251000108
:1011E000D4230001CF510001D3270001D0510001C9
:1011F000D4230001CD510001D32500018E6F0001E1
:10120000CE510001D42100018F6F98EC09F08FD7E7
:101210006D0E00019A6F100E00019B6F69EC0CF0CF
:10122000BD0E00018C6F100E00018D6FCBC0D9FF79
:10123000CCC0DAFFDECF8EF0DDCF8FF098EC09F076
:1012400076D7990E00019A6F100E00019B6F69EC22
:101250000CF0BD0E00018C6F100E00018D6F0001AF
:1012600020EE02F0CB51D926CC51DA22DECF8EF01F
:10127000DDCF8FF098EC09F05AD7780E00019A6F05
:10128000100E00019B6F69EC0CF0BD0E00018C6F1D
:10129000100E00018D6F000120EE04F0CB51D92615
:1012A000CC51DA22DECF8EF0DDCF8FF098EC09F052
:1012B0003ED7620E00019A6F100E00019B6F69EC21
:1012C0000CF0BD0E00018C6F100E00018D6F00013F
:1012D00020EE06F0CB51D926CC51DA22DECF8EF0AB
:1012E000DDCF8FF098EC09F022D7FF0020D7D5C0D2
:1012F000CDF0D6C0CEF00001CE51000AD8A417D749
:101300000001CD51000AD8B418D7010AD8B42AD7A1
:10131000030AD8B47DD7010AD8B493D7070AD8B442
:10132000ACD7010AD8B4C5D70A0AD8B4DED7FFD6DD
:101330008E0E0001936F000E0001946FE5D0250E14
:1013400000019919D8B405D000019951FDEC0FF0B6
:10135000DBD0000E0001916F45D093C0D9FF94C03F
:10136000DAFFDECF95F0DDCF96F0020E0001932775
:10137000000E94230001955100019611D8A41DD0B0
:10138000B60E0001956F100E0001966F16D095C035
:10139000F6FF96C0F7FF000EF86E0F0EF76403D04D
:1013A0000800F55005D0F6CFE9FFF7CFEAFFEF5080
:1013B000FDEC0FF00001954B962B95C0F6FF96C003
:1013C000F7FF000EF86E0F0EF76403D00800F5501B
:1013D00005D0F6CFE9FFF7CFEAFFEF500009D8B408
:1013E00093D0D5D78CC0F6FF8DC0F7FF00018C4B92
:1013F0008D2BF86A0800F5CF99F000019951000A89
:10140000D8B41200640AD8B407D00D0AD8B404D0F6
:101410001A0AD8B4A2D778D093C0D9FF94C0DAFF03
:10142000DECF97F0DDCF98F0020E00019327000E7B
:101430009423000198AF08D0030E0001911300011E
:10144000976D981FD8B0982B010E0001996F050E6B
:1014500000019919D8B419D000019951020D010E5B
:10146000F324F66E100EF420F76EF86A000EF822E0
:101470000900F5500001975D0900F55000019859E9
:10148000D8A003D00001992BE2D791C090F0030EB1
:1014900000019017D8B403D02D0EFDEC0FF099C0C9
:1014A00092F02CD000019251020D010EF324F66E41
:1014B000100EF420F76EF86A000EF8220900F5CF3E
:1014C00082F00A00F5CF83F097C080F098C081F0D9
:1014D00003EC0EF080C087F081C088F0000E0001A0
:1014E0008A6F0A0E896F73EC0EF000018751300F7E
:1014F0000001996F00019951FDEC0FF00001920776
:1015000000019229D8A4CED78CC0F6FF8DC0F7FF7A
:1015100000018C4B8D2BF86A0800F5CF99F0000183
:101520009951D8B412000BD78E0E00019A6F100E8D
:1015300000019B6F69EC0CF0000E0001DE6F000EE5
:10154000DD6F20EEF7F010EEE2F0070EDBCFE3FFE9
:10155000E806FCE2F3EC0FF080C0E0F081C0E1F0BF
:10156000000E0001EB6F000EEA6F000E0001ED6F40
:10157000000EEC6FF086F28EA8D0D9C080F0DAC0F1
:1015800081F0EAC082F0EBC083F087EC0DF0D7C0A9
:1015900080F0D8C081F0ECC082F0EDC083F0C5ECE3
:1015A0000DF023EC10F005EC10F085C0EAF086C0D9
:1015B000EBF0A4EC0EF085C0ECF086C0EDF000017D
:1015C000EA510001E2270001EB510001E323000191
:1015D000EC050001ED11D8A402D0010E01D0000EDF
:1015E0000001E427000EE523020E0001EC190001C2
:1015F000ED11D8A402D0010E01D0000E0001E627A3
:10160000000EE723000E0001DF6F0001EA51000128
:10161000EB11D8A409D00001EC510001ED11D8A4C0
:1016200003D0010E0001DF6F0001DF510001E82748
:10163000000EE9230001E6510001E4250001DB6F03
:101640000001E7510001E5210001DC6F0001E851D4
:101650000001DB270001E9510001DC230001E25118
:101660000001DB270001E3510001DC230F0E000124
:10167000DB190001DC11D8A405D0000E0001DE6FDB
:10168000010EDD6FE0C0DBF0E1C0DCF00001DB1F2C
:10169000DC1FDB4BDC2BF3EC0FF00001DB51000116
:1016A00080270001DC5100018123000181BF0DD0A2
:1016B0000001815105E1B40E0001805DD8A005D084
:1016C000000E0001DE6F010EDD6F0001DD51000133
:1016D000DE11D8B452D7F29EE0C0DBF0E1C0DCF0FE
:1016E0000001DB1FDC1FDB4BDC2BF3EC0FF00001F8
:1016F000DB51000180250001C96F0001DC510001B0
:1017000081210001CA6FE20E0001CB6F000E0001C3
:10171000CC6F63EC08F0E9EC0FF012000F0E146EC2
:10172000000E156EC8D0250E1A18D8B404D01A5061
:101730001DEC10F0C0D0000E126E3FD014C0D9FFC7
:1017400015C0DAFFDECF16F0DDCF17F0020E14263B
:10175000000E152216501710D8A41AD0B60E166E09
:10176000100E176E15D016C0F6FF17C0F7FF000E4B
:10177000F86E0F0EF76403D00800F55005D0F6CFD1
:10178000E9FFF7CFEAFFEF501DEC10F0164A172AD9
:1017900016C0F6FF17C0F7FF000EF86E0F0EF764C5
:1017A00003D00800F55005D0F6CFE9FFF7CFEAFFE8
:1017B000EF500009D8B47FD0D6D70DC0F6FF0EC0C9
:1017C000F7FF0D4A0E2AF86A0800F5CF1AF01A50F2
:1017D000000AD8B41200640AD8B407D00D0AD8B4ED
:1017E00004D01A0AD8B4AAD766D014C0D9FF15C03D
:1017F000DAFFDECF18F0DDCF19F0020E1426000E4E
:10180000152219AE06D0030E1212186C191ED8B08C
:10181000192A010E1A6E050E1A18D8B415D01A50CE
:10182000020D010EF324F66E100EF420F76EF86A26
:10183000000EF8220900F550185C0900F5501958FF
:10184000D8A002D01A2AE7D712C011F0030E111641
:10185000D8B403D02D0E1DEC10F01AC013F027D011
:101860001350020D010EF324F66E100EF420F76EE5
:10187000F86A000EF8220900F5CF03F00A00F5CF50
:1018800004F018C001F019C002F0FAEC0EF001C02B
:1018900008F002C009F0000E0B6E0A0E0A6E6DEC25
:1018A0000FF00850300F1A6E1A501DEC10F013068E
:1018B0001328D8A4D5D70DC0F6FF0EC0F7FF0D4AE8
:1018C0000E2AF86A0800F5CF1AF01A50D8B41200A0
:1018D0002AD7000E0001C86F000EC76F21EE00F07E
:1018E00010EE9EF0280EDBCFE3FFE806FCE21FD0EF
:1018F0000001C75100019A2500019C6F0001C851E9
:1019000000019B2100019D6F9CC0F6FF9DC0F7FF69
:10191000F86A9E0E0001C725D96E000E0001C8218D
:10192000DA6E0800F5CFDFFF0001C74BC82B0001BE
:10193000C75100019A2500019C6F0001C8510001A8
:101940009B2100019D6F9CC0F6FF9DC0F7FFF86AC8
:101950000800F5500009D8A4CBD7C00E00018C6F49
:10196000100E00018D6F9E0E00018E6F000E0001A3
:101970008F6F98EC09F012008EEC0FF0AD0E0001A5
:101980009A6F100E00019B6F69EC0CF0000E0001C5
:10199000F46F000EF36F000E0001F66F000EF56F8E
:1019A000F30E0001806F000E0001816F000E000138
:1019B000836F000E826FC5EC0DF0F50E0001806F95
:1019C000000E0001816F000E0001836F000E826F18
:1019D00087EC0DF0DAEC0FF00F0E0001801900011A
:1019E0008111D8A4F7D7F30E0001D76F000E0001C4
:1019F000D86FF50E0001D96F000E0001DA6F94EC7C
:101A00000AF0FF0007EF00F00600FACF4AF0FBCF24
:101A10004BF0E9CF4CF0EACF4DF0E1CF4EF0E2CF02
:101A20004FF0D9CF50F0DACF51F0F3CF52F0F4CFDE
:101A300053F0F6CF54F0F7CF55F0F8CF56F0F5CF7E
:101A400057F0F0A007D081380F0B0F0B586EF090B5
:101A500015EC10F057C0F5FF56C0F8FF55C0F7FF62
:101A600054C0F6FF53C0F4FF52C0F3FF51C0DAFF79
:101A700050C0D9FF4FC0E2FF4EC0E1FF4DC0EAFFAA
:101A80004CC0E9FF4BC0FBFF4AC0FAFF599211005E
:101A9000000E496E000E486E21EE00F010EE1FF0B1
:101AA000280EDBCFE3FFE806FCE216D048501B24EB
:101AB0001D6E49501C201E6E1DC0F6FF1EC0F7FF94
:101AC000F86A1F0E4824D96E000E4920DA6E08000D
:101AD000F5CFDFFF484A492A48501B241D6E495064
:101AE0001C201E6E1DC0F6FF1EC0F7FFF86A08001E
:101AF000F5500009D8A4DAD7C00E0D6E100E0E6E88
:101B00001F0E0F6E000E106E8EEC0BF0120080C0D8
:101B1000D9FF81C0DAFF00018251DE180BE100011C
:101B20008351DE18D8B4120005D0020E00018027C0
:101B3000000E812380C0D9FF81C0DAFF00018251ED
:101B4000DE5CDE50800A0001866F00018351800A4E
:101B500000018659D8B006D0E8D7020E0001805F98
:101B6000000E815B80C0D9FF81C0DAFFDE5000012A
:101B7000825D00018351800A0001866FDE50800A79
:101B800000018659D8B01200E8D780C0D9FF81C0C3
:101B9000DAFF00018251DE180BE100018351DE18EB
:101BA000D8B4120005D0020E00018027000E812358
:101BB00080C0D9FF81C0DAFF00018251DE5CDE50B7
:101BC000800A0001866F00018351800A0001865956
:101BD000D8B006D0E8D7020E0001805F000E815B0E
:101BE00080C0D9FF81C0DAFFDE500001825D0001B4
:101BF0008351800A0001866FDE50800A00018659F9
:101C0000D8B01200E8D7000E0001856F000E846F77
:101C10000001825100018311D8B42CD0010E0001C3
:101C2000866F06D00001D890823783370001862B5B
:101C3000000183AFF7D70001D890843785370001C2
:101C400082510001805D0001835100018159D8A0BB
:101C50000AD0000182510001805F00018351000120
:101C6000815B000184810001D890833382330001BD
:101C7000862FE1D784C080F085C081F0120000017A
:101C8000816F00018151F00B0001806F8C500F0BB0
:101C90008C6E000180518C108C6E8C96100EE82E8C
:101CA000FED700D08C86100EE82EFED700D00001A3
:101CB0008139F00B0001816F00018151F00B0001AF
:101CC000806F8C500F0B8C6E000180518C108C6ECD
:101CD0008C96100EE82EFED700D08C86100EE82EC3
:101CE000FED700D012000001895100018A11D8B43A
:101CF00026D0010E00018B6F06D00001D8908937E5
:101D00008A3700018B2B00018AAFF7D70001895178
:101D10000001875D00018A5100018859D8A008D0D0
:101D2000000189510001875F00018A510001885B31
:101D30000001D8908A33893300018B2FE7D787C001
:101D400087F088C088F01200010E23EC0FF080C0ED
:101D500087F081C088F0020E23EC0FF080C089F07C
:101D600081C08AF00001875100018811D8B406D0E3
:101D7000000E0001866F010E856F1200000189516F
:101D800000018A11D8B405D0000E0001866F020E42
:101D9000F3D7000E0001866F000E856F1200026EF1
:101DA0000250F00B016E8C500F0B8C6E01508C109A
:101DB0008C6E8C96100EE82EFED700D08C86100EFE
:101DC000E82EFED700D00238F00B026E0250F00B66
:101DD000016E8C500F0B8C6E01508C108C6E8C969B
:101DE000100EE82EFED700D08C86100EE82EFED7FF
:101DF00000D01200000E066E000E056E0350041097
:101E0000D8B41CD0010E076E04D0D8900336043627
:101E1000072A04AEFAD7D890053606360350015C7F
:101E200004500258D8A005D00350015E0450025A55
:101E30000580D89004320332072EEDD705C001F09B
:101E400006C002F012000001846F00018445E846DC
:101E5000FC0BC26EC280C28209D01A0E0001826FD2
:101E6000F80EE82EFED7822FFCD700F0C2B2F5D7CD
:101E7000C350C4CF82F00001836B82C083F00001A5
:101E8000826B000182110001806F0001835100010B
:101E9000816F1200270E0001836FF50EE82EFED72A
:101EA000832FFCD7330E0DEC10F0320E0DEC10F03A
:101EB000280E0DEC10F00F0E0DEC10F0060E0DECD0
:101EC00010F0010E0DEC10F0270E0001836FF50EDF
:101ED000E82EFED7832FFCD712000A500B10D8B47F
:101EE00018D0010E0C6E04D0D8900A360B360C2A8E
:101EF0000BAEFAD70A50085C0B500958D8A004D092
:101F00000A50085E0B50095AD8900B320A320C2E38
:101F1000F1D708C008F009C009F012009268936870
:101F2000000E946E000E956E000E966E000E896E79
:101F3000000E8A6E000E8B6E000E8C6E000E8D6E83
:101F4000000EC26E0D0EC16E000EB56EC08E4AEC54
:101F50000FF012008A0EF66E1F0EF76E000EF86E6E
:101F600001EE00F010EE29F00900F5CFEEFFE5508C
:101F7000E150FAE100EEF7F0080EEE6AE806FDE146
:101F8000599059920001BCEF0CF020202020202015
:101F90002020202020202020202020202020202041
:101FA0002020202020202020202020202020202031
:031FB000202000EE
:101FB40081A2FED781380F0B0F0B0001826F81B213
:101FC400FED7F09082C080F00001816B1200F29E77
:101FD400A30E00019A6F100E00019B6F69EC0CF0C8
:101FE400FFD7000E0001836F000E826F82C080F065
:101FF40083C081F012000001826F8C840001825141
:102004003FEC0EF01200000E23EC0FF080C085F0C0
:1020140081C086F012000001826F8C94000182510D
:102024003FEC0EF01200F29EA30E1B6E100E1C6EFF
:1020340048EC0DF0FFD7036E8C840350CFEC0EF008
:042044001200120074
:020000040020DA
:08000000FFFFFFFFFFFFFFFF00
:020000040030CA
:0E000000FF021F1EFF8381FF0FC00FE00F40A5
:00000001FF
