:0400000007EF00F016
:100008006182B4ED06F050EF09F0080E8D6EF40E23
:100018000001A06FFF0E0001A16F61EC06F02ED168
:10002800F70E0001A06FFF0E0001A16F61EC06F052
:100038000B0E0001D26F260E0001D16F5D0EE82E67
:10004800FED7D12FFCD7D22FFAD700D0000E00014F
:10005800D66F010ED56F0001D6BF0AD00001D65168
:1000680006E1030E0001D55DD8B0B4D001D0B2D0FE
:10007800A00E00018C6FFF0E00018D6FD5C08EF0B1
:10008800D6C08FF068EC01F0800EDAEC09F00A0EA9
:100098000001D26F220E0001D16FA10EE82EFED70B
:1000A800D12FFCD7D22FFAD70001D5050001D611E0
:1000B800D8B405D0000E0001D46F060E04D0000E8F
:1000C8000001D46F000ED36FD3C08DFF55D04F0EF3
:1000D8000001A06FFF0E0001A16F61EC06F00B0E8E
:1000E8000001D26F260E0001D16F5D0EE82EFED7FB
:1000F800D12FFCD7D22FFAD700D0000120EE04F080
:10010800CF51D926D051DA22DE2A000EDD22000E88
:100118000001D06F020ECF6F12004D0E0001A06FCC
:10012800FF0E0001A16F61EC06F00B0E0001D26F0B
:10013800260E0001D16F5D0EE82EFED7D12FFCD719
:10014800D22FFAD700D0000120EE06F0CF51D926E1
:10015800D051DA22DE2A000EDD22000E0001D06F17
:10016800000ECF6F1200EB0E0001A06FFF0E000112
:10017800A16F61EC06F024D00001D551E4EC08F041
:1001880080C0B3F081C0B4F0000E0001B66F030E5A
:10019800B56F1AEC05F00001B451000AD8B404D0C8
:1001A800FF0AD8B407D0DFD70001B351010AD8B489
:1001B8008ED7D9D70001B351FF0AD8B4AED7D3D759
:1001C8000001D54BD62B0001D6BF52D70001D6511E
:1001D80001E147D70001CF69D0691200690E00011B
:1001E800A06FFF0E0001A16F61EC06F00B0E00017D
:1001F800D26F260E0001D16F5D0EE82EFED7D12FEB
:10020800FCD7D22FFAD700D0000120EE02F0CF5150
:10021800D926D051DA22DE2A000EDD22000E000196
:10022800D06F010ECF6F1200670E0001A06FFF0E96
:100238000001A16F61EC06F00B0E0001D26F260ED3
:100248000001D16F5D0EE82EFED7D12FFCD7D22F3B
:10025800FAD700D0000120EE06F0CF51D926D051B0
:10026800DA22DE2A000EDD22000E0001D06F000E19
:10027800CF6F12000001CF69D0691200030EE4ECC1
:1002880008F080C0B3F081C0B4F0000E0001B66F72
:10029800010EB56F1AEC05F00001B451000AD8B48C
:1002A80004D0FF0AD8B40AD0E5D70001B351000A38
:1002B800D8B4B6D6010AD8B491D7DCD70001B35167
:1002C800FF0AD8B4B1D7D6D78E0E0001996F000EA9
:1002D80000019A6FE5D0250E00019F19D8B405D00A
:1002E80000019F51D2EC09F0DBD0000E0001976F9E
:1002F80045D099C0D9FF9AC0DAFFDECF9BF0DDCF99
:100308009CF0020E00019927000E9A2300019B51D0
:1003180000019C11D8A41DD0DE0E00019B6FFF0EBA
:1003280000019C6F16D09BC0F6FF9CC0F7FF000E23
:10033800F86E0F0EF76403D00800F55005D0F6CF1D
:10034800E9FFF7CFEAFFEF50D2EC09F000019B4B31
:100358009C2B9BC0F6FF9CC0F7FF000EF86E0F0E9B
:10036800F76403D00800F55005D0F6CFE9FFF7CFC2
:10037800EAFFEF500009D8B493D0D5D78CC0F6FF68
:100388008DC0F7FF00018C4B8D2BF86A0800F5CF64
:100398009FF000019F51000AD8B41200640AD8B433
:1003A80007D00D0AD8B404D01A0AD8B4A2D778D086
:1003B80099C0D9FF9AC0DAFFDECF9DF0DDCF9EF05D
:1003C800020E00019927000E9A2300019EAF08D063
:1003D800030E0001971300019D6D9E1FD8B09E2B40
:1003E800010E00019F6F050E00019F19D8B419D0A6
:1003F80000019F51020DD90EF324F66EFE0EF42073
:10040800F76EF86A000EF8220900F55000019D5DAC
:100418000900F55000019E59D8A003D000019F2B78
:10042800E2D797C096F0030E00019617D8B403D010
:100438002D0ED2EC09F09FC098F02CD000019851F5
:10044800020DD90EF324F66EFE0EF420F76EF86A4C
:10045800000EF8220900F5CF82F00A00F5CF83F0EC
:100468009DC080F09EC081F0EFEC07F080C087F05F
:1004780081C088F0000E00018A6F0A0E896F5FEC58
:1004880008F000018751300F00019F6F00019F5154
:10049800D2EC09F00001980700019829D8A4CED71A
:1004A8008CC0F6FF8DC0F7FF00018C4B8D2BF86ACE
:1004B8000800F5CF9FF000019F51D8B412000BD768
:1004C8000F0E146E000E156EC8D0250E1A18D8B46B
:1004D80004D01A50EAEC09F0C0D0000E126E3FD0DA
:1004E80014C0D9FF15C0DAFFDECF16F0DDCF17F044
:1004F800020E1426000E152216501710D8A41AD072
:10050800DE0E166EFF0E176E15D016C0F6FF17C05A
:10051800F7FF000EF86E0F0EF76403D00800F550D1
:1005280005D0F6CFE9FFF7CFEAFFEF50EAEC09F084
:10053800164A172A16C0F6FF17C0F7FF000EF86E06
:100548000F0EF76403D00800F55005D0F6CFE9FF89
:10055800F7CFEAFFEF500009D8B47FD0D6D70DC047
:10056800F6FF0EC0F7FF0D4A0E2AF86A0800F5CF0D
:100578001AF01A50000AD8B41200640AD8B407D086
:100588000D0AD8B404D01A0AD8B4AAD766D014C0B1
:10059800D9FF15C0DAFFDECF18F0DDCF19F0020E53
:1005A8001426000E152219AE06D0030E1212186C6E
:1005B800191ED8B0192A010E1A6E050E1A18D8B4C9
:1005C80015D01A50020DD90EF324F66EFE0EF42043
:1005D800F76EF86A000EF8220900F550185C090059
:1005E800F5501958D8A002D01A2AE7D712C011F02E
:1005F800030E1116D8B403D02D0EEAEC09F01AC078
:1006080013F027D01350020DD90EF324F66EFE0E08
:10061800F420F76EF86A000EF8220900F5CF03F00F
:100628000A00F5CF04F018C001F019C002F0BBECC5
:1006380008F001C008F002C009F0000E0B6E0A0EA7
:100648000A6E71EC09F00850300F1A6E1A50EAEC75
:1006580009F013061328D8A4D5D70DC0F6FF0EC08D
:10066800F7FF0D4A0E2AF86A0800F5CF1AF01A505B
:10067800D8B412002AD78EC092F00001936B946B05
:1006880000018D350001923701E3938100019251F9
:100698000001956F00019551D8A40AD0000E000101
:1006A8008C6F000E00018D6F000E00018E6F12001E
:1006B80091C092F00001936B946B0001903500019A
:1006C800923701E393810001925100019A6F000172
:1006D8009A51D8A40AD0000E00018C6F000E0001B8
:1006E8008D6F000E00018E6F120000019A517B0F72
:1006F800000195278EC09AF00001915100019A1BC4
:10070800800E00019A1700018D8F0001908FFF0E57
:1007180000018F17FF0E00019017000E00019117BE
:10072800000E0001966F000E0001976F000E000189
:10073800986F070E0001996F00018CA10CD0000181
:100748008F51000196270001905100019723000165
:100758009151000198230001D8908E338D338C334A
:100768000001D8908F37903791370001992FE4D73F
:10077800090E0001996F00018CA10CD000018F5166
:100788000001962700019051000197230001915123
:10079800000198230001D8908E338D338C330001EB
:1007A800D8909833973396330001992FE4D796C0A1
:1007B80080F097C081F098C082F095C083F09AC00D
:1007C80084F094EC04F080C08CF081C08DF082C07D
:1007D8008EF012009DC0A1F00001A26BA36B000176
:1007E8009C350001A13701E3A2810001A15100015C
:1007F800A86F0001A851D8A40AD0000E00019B6F71
:10080800000E00019C6F000E00019D6F1200A0C039
:10081800A1F00001A26BA36B00019F350001A13775
:1008280001E3A2810001A1510001A96F0001A951B2
:10083800D8A40AD0000E00019B6F000E00019C6F27
:10084800000E00019D6F1200000E0001A56F000E42
:100858000001A66F000E0001A76F0001A951890FC2
:100868000001A85F9DC0A9F00001A0510001A91BCB
:10087800800E0001A91700019C8FFF0E00019B1735
:10088800FF0E00019C17000E00019D1700019F8FAD
:10089800FF0E00019E17FF0E00019F17000E0001BA
:1008A800A017180E0001A46F0001D890A537A6372D
:1008B800A73700019E5100019B5D00019F51000177
:1008C8009C590001A05100019D59D8A00ED00001EB
:1008D8009E5100019B5F00019F5100019C5B00013C
:1008E800A05100019D5B0001A5810001D8909B37B4
:1008F8009C379D370001A42FD7D7A5C080F0A6C08C
:1009080081F0A7C082F0A8C083F0A9C084F094EC5D
:1009180004F080C09BF081C09CF082C09DF0120062
:10092800000183510001D8B408D0000180510001B2
:10093800811100018211D8A411D0000E0001806F2E
:10094800000E0001816F000E0001826F120000018D
:10095800832B0001D890823381338033000E00014D
:1009680080150001856F000E000181150001866F5A
:10097800FE0E000182150001876F000185510001FC
:10098800861100018711D8B411D0E1D70001832B5B
:10099800010E00018027000E00018123000E0001D6
:1009A80082230001D890823381338033000E000106
:1009B80080150001856F000E000181150001866F0A
:1009C800FF0E000182150001876F000185510001AB
:1009D800861100018711D8B408D0D8D70001830741
:1009E8000001D890803781378237000181BF04D059
:1009F800020E00018361F2D7000183B102D0000129
:100A0800819F0001D8908333000183510001821334
:100A1800000184510001D8B402D00001828F80C047
:100A280080F081C081F082C082F01200730E000154
:100A38008C6FFF0E00018D6FB3C08EF0B4C08FF0C5
:100A480068EC01F0800EDAEC09F00B0E0001B86FCB
:100A5800260E0001B76F5D0EE82EFED7B72FFCD724
:100A6800B82FFAD700D00001B4BF0ED0330E000162
:100A7800B35D030E0001B459D8A006D0000E0001E2
:100A8800B46F000EB36F1200000E00019E6FA00E2F
:100A980000019F6F400E0001A06F630E00018F6F71
:100AA800590E0001906F440E0001916FB5C088F097
:100AB800B6C089F02EEC09F088C08CF089C08DF0A2
:100AC8008AC08EF03FEC03F08CC09BF08DC09CF088
:100AD8008EC09DF0EEEC03F09BC0AAF09CC0ABF07A
:100AE8009DC0ACF0B3C088F0B4C089F02EEC09F01A
:100AF80088C0ADF089C0AEF08AC0AFF0FDEC05F05B
:100B08000001D8B006D0000E0001B46F010EB36F1B
:100B180012000001B369B4691200B60E0001A06F9B
:100B2800FF0E0001A16F61EC06F0000E0001DA6F04
:100B3800000ED96F20EEECF010EEDBF0070EDBCFE5
:100B4800E3FFE806FCE236D0C3EC09F0DB0E000157
:100B5800CF6F000E0001D06F09EC00F00001DF51EB
:100B68000001DD250001D76F0001E0510001DE2101
:100B78000001D86F0001E1510001D7270001E251BF
:100B88000001D8230001DB510001D7270001DC5107
:100B98000001D8230001D8BF0DD00001D85105E1CC
:100BA800050E0001D75DD8A005D0000E0001DA6F50
:100BB800010ED96F0001D9510001DA11D8B4C4D798
:100BC800E30E00018C6FFE0E00018D6FDBC08EF00E
:100BD800DCC08FF0DDC090F0DEC091F0DFC092F095
:100BE800E0C093F0E1C094F0E2C095F068EC01F049
:100BF800FFD70001ACAF1DD0AAC0B0F0ABC0B1F0B8
:100C0800ACC0B2F00001B01FB11FB21FB02B000E74
:100C1800B123B223000E0001B0250001AA6F000E17
:100C28000001B1210001AB6F800E0001B22100016B
:100C3800AC6F0001AFAF1DD0ADC0B0F0AEC0B1F029
:100C4800AFC0B2F00001B01FB11FB21FB02B000E31
:100C5800B123B223000E0001B0250001AD6F000ED4
:100C68000001B1210001AE6F800E0001B221000128
:100C7800AF6F000E0001AA1B000E0001AB1B800E17
:100C88000001AC1B000E0001AD1B000E0001AE1BE5
:100C9800800E0001AF1B0001AD510001AA5D0001EB
:100CA800AE510001AB590001AF510001AC59D8B0A9
:100CB80002D0D8901200D8801200000E0001CE6F2A
:100CC800000ECD6F21EE00F010EEA4F0280EDBCF61
:100CD800E3FFE806FCE21FD00001CD510001A0258A
:100CE8000001A26F0001CE510001A1210001A36FF4
:100CF800A2C0F6FFA3C0F7FFF86AA40E0001CD2535
:100D0800D96E000E0001CE21DA6E0800F5CFDFFFA4
:100D18000001CD4BCE2B0001CD510001A0250001D3
:100D2800A26F0001CE510001A1210001A36FA2C052
:100D3800F6FFA3C0F7FFF86A0800F5500009D8A429
:100D4800CBD7FA0E00018C6FFF0E00018D6FA40E39
:100D580000018E6F000E00018F6F68EC01F0120029
:100D68000600FACF4AF0FBCF4BF0E9CF4CF0EACFC0
:100D78004DF0E1CF4EF0E2CF4FF0D9CF50F0DACFBF
:100D880051F0F3CF52F0F4CF53F0F6CF54F0F7CF41
:100D980055F0F8CF56F0F5CF57F0F0A007D08138CE
:100DA8000F0B0F0B586EF090E2EC09F057C0F5FFEF
:100DB80056C0F8FF55C0F7FF54C0F6FF53C0F4FF04
:100DC80052C0F3FF51C0DAFF50C0D9FF4FC0E2FF55
:100DD8004EC0E1FF4DC0EAFF4CC0E9FF4BC0FBFF2E
:100DE8004AC0FAFF61921100000E496E000E486E6B
:100DF80021EE00F010EE1FF0280EDBCFE3FFE8062F
:100E0800FCE216D048501B241D6E49501C201E6E53
:100E18001DC0F6FF1EC0F7FFF86A1F0E4824D96EE2
:100E2800000E4920DA6E0800F5CFDFFF484A492A4C
:100E380048501B241D6E49501C201E6E1DC0F6FF15
:100E48001EC0F7FFF86A0800F5500009D8A4DAD7E1
:100E5800FA0E0D6EFF0E0E6E1F0E0F6E000E106E48
:100E680064EC02F0120080C0D9FF81C0DAFF0001F3
:100E78008251DE180BE100018351DE18D8B412004C
:100E880005D0020E00018027000E812380C0D9FF03
:100E980081C0DAFF00018251DE5CDE50800A000169
:100EA800866F00018351800A00018659D8B006D0A8
:100EB800E8D7020E0001805F000E815B80C0D9FF79
:100EC80081C0DAFFDE500001825D00018351800A93
:100ED8000001866FDE50800A00018659D8B01200E2
:100EE800E8D780C0D9FF81C0DAFF00018251DE183F
:100EF8000BE100018351DE18D8B4120005D0020EB0
:100F080000018027000E812380C0D9FF81C0DAFF4D
:100F180000018251DE5CDE50800A0001866F00010C
:100F28008351800A00018659D8B006D0E8D7020E4E
:100F38000001805F000E815B80C0D9FF81C0DAFFAD
:100F4800DE500001825D00018351800A0001866F36
:100F5800DE50800A00018659D8B01200E8D792EC1A
:100F680009F0D50E0001A06FFF0E0001A16F61EC22
:100F780006F0000E0001E96F000EE86F000E000198
:100F8800EB6F000EEA6FE80E0001806F000E0001A3
:100F9800816F000E0001836F000E826F75EC07F001
:100FA800EA0E0001806F000E0001816F000E000143
:100FB800836F000E826F37EC07F0C3EC09F00F0E59
:100FC8000001801900018111D8A4F7D791EC05F030
:100FD800FF0007EF00F0000E0001856F000E846F20
:100FE8000001825100018311D8B42CD0010E0001F8
:100FF800866F06D00001D890823783370001862B90
:10100800000183AFF7D70001D890843785370001F6
:1010180082510001805D0001835100018159D8A0EF
:101028000AD0000182510001805F00018351000154
:10103800815B000184810001D890833382330001F1
:10104800862FE1D784C080F085C081F012000001AE
:10105800816F00018151F00B0001806F8C500F0BE4
:101068008C6E000180518C108C6E8C96100EE82EC0
:10107800FED700D08C86100EE82EFED700D00001D7
:101088008139F00B0001816F00018151F00B0001E3
:10109800806F8C500F0B8C6E000180518C108C6E01
:1010A8008C96100EE82EFED700D08C86100EE82EF7
:1010B800FED700D012000001895100018A11D8B46E
:1010C80026D0010E00018B6F06D00001D890893719
:1010D8008A3700018B2B00018AAFF7D700018951AD
:1010E8000001875D00018A5100018859D8A008D005
:1010F800000189510001875F00018A510001885B66
:101108000001D8908A33893300018B2FE7D787C035
:1011180087F088C088F01200026E0250F00B016E52
:101128008C500F0B8C6E01508C108C6E8C96100EA0
:10113800E82EFED700D08C86100EE82EFED700D001
:101148000238F00B026E0250F00B016E8C500F0B40
:101158008C6E01508C108C6E8C96100EE82EFED77B
:1011680000D08C86100EE82EFED700D01200000E9C
:10117800066E000E056E03500410D8B41CD0010E84
:10118800076E04D0D89003360436072A04AEFAD77F
:10119800D890053606360350015C04500258D8A092
:1011A80005D00350015E0450025A0580D8900432DD
:1011B8000332072EEDD705C001F006C002F0120079
:1011C8000001846F00018445E846FC0BC26EC280B2
:1011D800C28209D01A0E0001826FF80EE82EFED7DF
:1011E800822FFCD700F0C2B2F5D7C350C4CF82F02B
:1011F8000001836B82C083F00001826B00018211C1
:101208000001806F000183510001816F1200270ED9
:101218000001836FF50EE82EFED7832FFCD7330E1F
:10122800DAEC09F0320EDAEC09F0280EDAEC09F003
:101238000F0EDAEC09F0060EDAEC09F0010EDAEC22
:1012480009F0270E0001836FF50EE82EFED7832FD5
:10125800FCD71200000E00018B6F000189AF08D087
:101268000001886D891FD8B0892B010E00018B6F92
:1012780088C080F089C081F00001826B8E0E000169
:10128800836F8BC084F094EC04F080C088F081C038
:1012980089F082C08AF012005C0EF66E130EF76EAB
:1012A800000EF86E01EE00F010EE29F00900F5CFFF
:1012B800EEFFE550E150FAE100EEECF0080EEE6AC0
:1012C800E806FDE100EE59F0080EEE6AE806FDE1D9
:1012D800619061920001B3EF07F00A500B10D8B487
:1012E80018D0010E0C6E04D0D8900A360B360C2A92
:1012F8000BAEFAD70A50085C0B500958D8A004D096
:101308000A50085E0B50095AD8900B320A320C2E3C
:10131800F1D708C008F009C009F012009268936874
:10132800000E946E000E956E000E966E000E896E7D
:10133800000E8A6E000E8B6E000E8C6E000E8D6E87
:10134800000EC26E0B0EC16E000EB56EC08E0BEC99
:1013580009F01200202020202020202020202020FA
:101368002020202020202020202020202020202075
:0D13780020202020202020202020202000E8
:1013860081A2FED781380F0B0F0B0001826F81B24D
:10139600FED7F09082C080F00001816B1200000140
:1013A600826F8C84000182512BEC08F01200000140
:1013B600826F8C94000182512BEC08F01200F29E91
:1013C600CB0E1B6EFF0E1C6EF8EC06F0FFD7036EFD
:0A13D6008C84035090EC08F0120024
:10FED8000001000A006400E8031027736F7274655C
:10FEE800642025642C25642C25642C256400536F1C
:10FEF8007274696E6720436F6D706C65746500502D
:10FF0800726573732061206E756D62657200546945
:10FF18006D6520456C61707365643A00546F746157
:10FF28006C20536F727465643A00466F72206D6F6F
:10FF3800726520696E666F00756E636861726765C9
:10FF48006420414100756E63686172676564203999
:10FF58005600256420626174746572696573007562
:10FF68006E6368617267656420430025642072656A
:10FF780063656976656400556E6368617267656478
:10FF88003A00414120536F727465643A0039562033
:10FF9800536F727465643A006368616E6E656C20B5
:10FFA8002564002564207365636F6E647300536F66
:10FFB8007274696E672E2E2E004320536F7274651B
:10FFC800643A00456D657267656E63790057656CC4
:10FFD800636F6D652100286E756C6C29006E6F204B
:10FFE8004141006E6F20390041413A0056330039D3
:08FFF8003A002573002000000F
:020000040020DA
:08000000FFFFFFFFFFFFFFFF00
:020000040030CA
:0E000000FF021F1EFF8381FF0FC00FE00F40A5
:00000001FF
